{
  "_format": "hh-sol-artifact-1",
  "contractName": "SportZchainToken",
  "sourceName": "contracts/tokens/SportZchainToken.sol",
  "abi": [
    {
      "inputs": [
        {
          "internalType": "string",
          "name": "_name",
          "type": "string"
        },
        {
          "internalType": "string",
          "name": "_symbol",
          "type": "string"
        },
        {
          "internalType": "uint8",
          "name": "_decimals",
          "type": "uint8"
        },
        {
          "internalType": "uint256",
          "name": "_supplyUpperLimit",
          "type": "uint256"
        },
        {
          "internalType": "uint256",
          "name": "_initialSupply",
          "type": "uint256"
        }
      ],
      "stateMutability": "nonpayable",
      "type": "constructor"
    },
    {
      "anonymous": false,
      "inputs": [
        {
          "indexed": true,
          "internalType": "address",
          "name": "owner",
          "type": "address"
        },
        {
          "indexed": true,
          "internalType": "address",
          "name": "spender",
          "type": "address"
        },
        {
          "indexed": false,
          "internalType": "uint256",
          "name": "value",
          "type": "uint256"
        }
      ],
      "name": "Approval",
      "type": "event"
    },
    {
      "anonymous": false,
      "inputs": [
        {
          "indexed": true,
          "internalType": "address",
          "name": "previousOwner",
          "type": "address"
        },
        {
          "indexed": true,
          "internalType": "address",
          "name": "newOwner",
          "type": "address"
        }
      ],
      "name": "OwnershipTransferred",
      "type": "event"
    },
    {
      "anonymous": false,
      "inputs": [
        {
          "indexed": false,
          "internalType": "address",
          "name": "account",
          "type": "address"
        }
      ],
      "name": "Paused",
      "type": "event"
    },
    {
      "anonymous": false,
      "inputs": [
        {
          "indexed": true,
          "internalType": "address",
          "name": "from",
          "type": "address"
        },
        {
          "indexed": true,
          "internalType": "address",
          "name": "to",
          "type": "address"
        },
        {
          "indexed": false,
          "internalType": "uint256",
          "name": "value",
          "type": "uint256"
        }
      ],
      "name": "Transfer",
      "type": "event"
    },
    {
      "anonymous": false,
      "inputs": [
        {
          "indexed": false,
          "internalType": "address",
          "name": "account",
          "type": "address"
        }
      ],
      "name": "Unpaused",
      "type": "event"
    },
    {
      "inputs": [
        {
          "internalType": "address",
          "name": "owner",
          "type": "address"
        },
        {
          "internalType": "address",
          "name": "spender",
          "type": "address"
        }
      ],
      "name": "allowance",
      "outputs": [
        {
          "internalType": "uint256",
          "name": "",
          "type": "uint256"
        }
      ],
      "stateMutability": "view",
      "type": "function"
    },
    {
      "inputs": [
        {
          "internalType": "address",
          "name": "spender",
          "type": "address"
        },
        {
          "internalType": "uint256",
          "name": "amount",
          "type": "uint256"
        }
      ],
      "name": "approve",
      "outputs": [
        {
          "internalType": "bool",
          "name": "",
          "type": "bool"
        }
      ],
      "stateMutability": "nonpayable",
      "type": "function"
    },
    {
      "inputs": [
        {
          "internalType": "address",
          "name": "account",
          "type": "address"
        }
      ],
      "name": "balanceOf",
      "outputs": [
        {
          "internalType": "uint256",
          "name": "",
          "type": "uint256"
        }
      ],
      "stateMutability": "view",
      "type": "function"
    },
    {
      "inputs": [
        {
          "internalType": "uint256",
          "name": "amount",
          "type": "uint256"
        }
      ],
      "name": "burn",
      "outputs": [],
      "stateMutability": "nonpayable",
      "type": "function"
    },
    {
      "inputs": [
        {
          "internalType": "address",
          "name": "account",
          "type": "address"
        },
        {
          "internalType": "uint256",
          "name": "amount",
          "type": "uint256"
        }
      ],
      "name": "burnFrom",
      "outputs": [],
      "stateMutability": "nonpayable",
      "type": "function"
    },
    {
      "inputs": [],
      "name": "decimals",
      "outputs": [
        {
          "internalType": "uint8",
          "name": "",
          "type": "uint8"
        }
      ],
      "stateMutability": "view",
      "type": "function"
    },
    {
      "inputs": [
        {
          "internalType": "address",
          "name": "spender",
          "type": "address"
        },
        {
          "internalType": "uint256",
          "name": "subtractedValue",
          "type": "uint256"
        }
      ],
      "name": "decreaseAllowance",
      "outputs": [
        {
          "internalType": "bool",
          "name": "",
          "type": "bool"
        }
      ],
      "stateMutability": "nonpayable",
      "type": "function"
    },
    {
      "inputs": [
        {
          "internalType": "address",
          "name": "spender",
          "type": "address"
        },
        {
          "internalType": "uint256",
          "name": "addedValue",
          "type": "uint256"
        }
      ],
      "name": "increaseAllowance",
      "outputs": [
        {
          "internalType": "bool",
          "name": "",
          "type": "bool"
        }
      ],
      "stateMutability": "nonpayable",
      "type": "function"
    },
    {
      "inputs": [
        {
          "internalType": "uint256",
          "name": "amount",
          "type": "uint256"
        }
      ],
      "name": "mint",
      "outputs": [],
      "stateMutability": "nonpayable",
      "type": "function"
    },
    {
      "inputs": [],
      "name": "name",
      "outputs": [
        {
          "internalType": "string",
          "name": "",
          "type": "string"
        }
      ],
      "stateMutability": "view",
      "type": "function"
    },
    {
      "inputs": [],
      "name": "owner",
      "outputs": [
        {
          "internalType": "address",
          "name": "",
          "type": "address"
        }
      ],
      "stateMutability": "view",
      "type": "function"
    },
    {
      "inputs": [],
      "name": "pause",
      "outputs": [],
      "stateMutability": "nonpayable",
      "type": "function"
    },
    {
      "inputs": [],
      "name": "paused",
      "outputs": [
        {
          "internalType": "bool",
          "name": "",
          "type": "bool"
        }
      ],
      "stateMutability": "view",
      "type": "function"
    },
    {
      "inputs": [],
      "name": "renounceOwnership",
      "outputs": [],
      "stateMutability": "nonpayable",
      "type": "function"
    },
    {
      "inputs": [],
      "name": "symbol",
      "outputs": [
        {
          "internalType": "string",
          "name": "",
          "type": "string"
        }
      ],
      "stateMutability": "view",
      "type": "function"
    },
    {
      "inputs": [],
      "name": "totalSupply",
      "outputs": [
        {
          "internalType": "uint256",
          "name": "",
          "type": "uint256"
        }
      ],
      "stateMutability": "view",
      "type": "function"
    },
    {
      "inputs": [
        {
          "internalType": "address",
          "name": "recipient",
          "type": "address"
        },
        {
          "internalType": "uint256",
          "name": "amount",
          "type": "uint256"
        }
      ],
      "name": "transfer",
      "outputs": [
        {
          "internalType": "bool",
          "name": "",
          "type": "bool"
        }
      ],
      "stateMutability": "nonpayable",
      "type": "function"
    },
    {
      "inputs": [
        {
          "internalType": "address",
          "name": "sender",
          "type": "address"
        },
        {
          "internalType": "address",
          "name": "recipient",
          "type": "address"
        },
        {
          "internalType": "uint256",
          "name": "amount",
          "type": "uint256"
        }
      ],
      "name": "transferFrom",
      "outputs": [
        {
          "internalType": "bool",
          "name": "",
          "type": "bool"
        }
      ],
      "stateMutability": "nonpayable",
      "type": "function"
    },
    {
      "inputs": [
        {
          "internalType": "address",
          "name": "newOwner",
          "type": "address"
        }
      ],
      "name": "transferOwnership",
      "outputs": [],
      "stateMutability": "nonpayable",
      "type": "function"
    },
    {
      "inputs": [],
      "name": "unpause",
      "outputs": [],
      "stateMutability": "nonpayable",
      "type": "function"
    }
  ],
  "bytecode": "0x60806040523480156200001157600080fd5b5060405162001b6c38038062001b6c8339810160408190526200003491620003d7565b84846200004a62000044620000e8565b620000ec565b81516200005f90600490602085019062000286565b5080516200007590600590602084019062000286565b50506006805460ff199081169091556008805460ff871692168217905560009150620000a390600a6200055b565b620000af908362000650565b9050620000c160ff8516600a6200055b565b620000cd908462000650565b600755620000dc33826200013c565b505050505050620006db565b3390565b600080546001600160a01b038381166001600160a01b0319831681178455604051919092169283917f8be0079c531659141344cd1fd0a4f28419497f9722a3daafe3b4186f6b6457e09190a35050565b6001600160a01b0382166200016e5760405162461bcd60e51b8152600401620001659062000469565b60405180910390fd5b6200017c600083836200021e565b8060036000828254620001909190620004f3565b90915550506001600160a01b03821660009081526001602052604081208054839290620001bf908490620004f3565b90915550506040516001600160a01b038316906000907fddf252ad1be2c89b69c2b068fc378daa952ba7f163c4a11628f55a4df523b3ef9062000204908590620004ea565b60405180910390a36200021a6000838362000260565b5050565b620002368383836200026560201b620008001760201c565b620002406200027d565b15620002605760405162461bcd60e51b81526004016200016590620004a0565b505050565b620002368383836200026060201b620005cb1760201c565b60065460ff1690565b828054620002949062000672565b90600052602060002090601f016020900481019282620002b8576000855562000303565b82601f10620002d357805160ff191683800117855562000303565b8280016001018555821562000303579182015b8281111562000303578251825591602001919060010190620002e6565b506200031192915062000315565b5090565b5b8082111562000311576000815560010162000316565b600082601f8301126200033d578081fd5b81516001600160401b03808211156200035a576200035a620006c5565b6040516020601f8401601f1916820181018381118382101715620003825762000382620006c5565b604052838252858401810187101562000399578485fd5b8492505b83831015620003bc57858301810151828401820152918201916200039d565b83831115620003cd57848185840101525b5095945050505050565b600080600080600060a08688031215620003ef578081fd5b85516001600160401b038082111562000406578283fd5b6200041489838a016200032c565b965060208801519150808211156200042a578283fd5b5062000439888289016200032c565b945050604086015160ff8116811462000450578182fd5b6060870151608090970151959894975095949392505050565b6020808252601f908201527f45524332303a206d696e7420746f20746865207a65726f206164647265737300604082015260600190565b6020808252602a908201527f45524332305061757361626c653a20746f6b656e207472616e736665722077686040820152691a5b19481c185d5cd95960b21b606082015260800190565b90815260200190565b60008219821115620005095762000509620006af565b500190565b80825b600180861162000522575062000552565b818704821115620005375762000537620006af565b808616156200054557918102915b9490941c93800262000511565b94509492505050565b60006200056c600019848462000573565b9392505050565b60008262000584575060016200056c565b8162000593575060006200056c565b8160018114620005ac5760028114620005b757620005eb565b60019150506200056c565b60ff841115620005cb57620005cb620006af565b6001841b915084821115620005e457620005e4620006af565b506200056c565b5060208310610133831016604e8410600b841016171562000623575081810a838111156200061d576200061d620006af565b6200056c565b6200063284848460016200050e565b808604821115620006475762000647620006af565b02949350505050565b60008160001904831182151516156200066d576200066d620006af565b500290565b6002810460018216806200068757607f821691505b60208210811415620006a957634e487b7160e01b600052602260045260246000fd5b50919050565b634e487b7160e01b600052601160045260246000fd5b634e487b7160e01b600052604160045260246000fd5b61148180620006eb6000396000f3fe608060405234801561001057600080fd5b506004361061012c5760003560e01c8063715018a6116100ad578063a0712d6811610071578063a0712d6814610237578063a457c2d71461024a578063a9059cbb1461025d578063dd62ed3e14610270578063f2fde38b146102835761012c565b8063715018a6146101f757806379cc6790146101ff5780638456cb59146102125780638da5cb5b1461021a57806395d89b411461022f5761012c565b806339509351116100f457806339509351146101ac5780633f4ba83a146101bf57806342966c68146101c95780635c975abb146101dc57806370a08231146101e45761012c565b806306fdde0314610131578063095ea7b31461014f57806318160ddd1461016f57806323b872dd14610184578063313ce56714610197575b600080fd5b610139610296565b6040516101469190610df1565b60405180910390f35b61016261015d366004610d91565b610328565b6040516101469190610de6565b610177610345565b6040516101469190611281565b610162610192366004610d56565b61034b565b61019f6103e6565b604051610146919061128a565b6101626101ba366004610d91565b6103eb565b6101c761043f565b005b6101c76101d7366004610dba565b610488565b61016261050c565b6101776101f2366004610d0a565b610515565b6101c7610534565b6101c761020d366004610d91565b61057d565b6101c76105d0565b610222610617565b6040516101469190610dd2565b610139610626565b6101c7610245366004610dba565b610635565b610162610258366004610d91565b6106d7565b61016261026b366004610d91565b610750565b61017761027e366004610d24565b610764565b6101c7610291366004610d0a565b61078f565b6060600480546102a5906113fa565b80601f01602080910402602001604051908101604052809291908181526020018280546102d1906113fa565b801561031e5780601f106102f35761010080835404028352916020019161031e565b820191906000526020600020905b81548152906001019060200180831161030157829003601f168201915b5050505050905090565b600061033c610335610830565b8484610834565b50600192915050565b60035490565b60006103588484846108e8565b6001600160a01b038416600090815260026020526040812081610379610830565b6001600160a01b03166001600160a01b03168152602001908152602001600020549050828110156103c55760405162461bcd60e51b81526004016103bc90611030565b60405180910390fd5b6103d9856103d1610830565b858403610834565b60019150505b9392505050565b601290565b600061033c6103f8610830565b848460026000610406610830565b6001600160a01b03908116825260208083019390935260409182016000908120918b168152925290205461043a9190611298565b610834565b610447610830565b6001600160a01b0316610458610617565b6001600160a01b03161461047e5760405162461bcd60e51b81526004016103bc90611078565b610486610a12565b565b610490610830565b6001600160a01b03166104a1610617565b6001600160a01b0316146104c75760405162461bcd60e51b81526004016103bc90611078565b6008546000906104db9060ff16600a6112f6565b6104e590836113c4565b90506104f13382610a80565b806007600082825461050391906113e3565b90915550505050565b60065460ff1690565b6001600160a01b0381166000908152600160205260409020545b919050565b61053c610830565b6001600160a01b031661054d610617565b6001600160a01b0316146105735760405162461bcd60e51b81526004016103bc90611078565b6104866000610b71565b600061058b8361027e610830565b9050818110156105ad5760405162461bcd60e51b81526004016103bc906110ad565b6105c1836105b9610830565b848403610834565b6105cb8383610a80565b505050565b6105d8610830565b6001600160a01b03166105e9610617565b6001600160a01b03161461060f5760405162461bcd60e51b81526004016103bc90611078565b610486610bc1565b6000546001600160a01b031690565b6060600580546102a5906113fa565b61063d610830565b6001600160a01b031661064e610617565b6001600160a01b0316146106745760405162461bcd60e51b81526004016103bc90611078565b6008546000906106889060ff16600a6112f6565b61069290836113c4565b905060008161069f610345565b6106a99190611298565b90506007548111156106cd5760405162461bcd60e51b81526004016103bc90610f7f565b6105cb3383610c1c565b600080600260006106e6610830565b6001600160a01b03908116825260208083019390935260409182016000908120918816815292529020549050828110156107325760405162461bcd60e51b81526004016103bc906111bb565b61074661073d610830565b85858403610834565b5060019392505050565b600061033c61075d610830565b84846108e8565b6001600160a01b03918216600090815260026020908152604080832093909416825291909152205490565b610797610830565b6001600160a01b03166107a8610617565b6001600160a01b0316146107ce5760405162461bcd60e51b81526004016103bc90611078565b6001600160a01b0381166107f45760405162461bcd60e51b81526004016103bc90610ef7565b6107fd81610b71565b50565b61080b8383836105cb565b61081361050c565b156105cb5760405162461bcd60e51b81526004016103bc90611237565b3390565b6001600160a01b03831661085a5760405162461bcd60e51b81526004016103bc90611177565b6001600160a01b0382166108805760405162461bcd60e51b81526004016103bc90610f3d565b6001600160a01b0380841660008181526002602090815260408083209487168084529490915290819020849055517f8c5be1e5ebec7d5bd14f71427d1e84f3dd0314c0f7b2291e5b200ac8c7c3b925906108db908590611281565b60405180910390a3505050565b6001600160a01b03831661090e5760405162461bcd60e51b81526004016103bc90611132565b6001600160a01b0382166109345760405162461bcd60e51b81526004016103bc90610e44565b61093f838383610ce8565b6001600160a01b038316600090815260016020526040902054818110156109785760405162461bcd60e51b81526004016103bc90610fc0565b6001600160a01b038085166000908152600160205260408082208585039055918516815290812080548492906109af908490611298565b92505081905550826001600160a01b0316846001600160a01b03167fddf252ad1be2c89b69c2b068fc378daa952ba7f163c4a11628f55a4df523b3ef846040516109f99190611281565b60405180910390a3610a0c8484846105cb565b50505050565b610a1a61050c565b610a365760405162461bcd60e51b81526004016103bc90610e87565b6006805460ff191690557f5db9ee0a495bf2e6ff9c91a7834c1ba4fdd244a5e8aa4e537bd38aeae4b073aa610a69610830565b604051610a769190610dd2565b60405180910390a1565b6001600160a01b038216610aa65760405162461bcd60e51b81526004016103bc906110f1565b610ab282600083610ce8565b6001600160a01b03821660009081526001602052604090205481811015610aeb5760405162461bcd60e51b81526004016103bc90610eb5565b6001600160a01b0383166000908152600160205260408120838303905560038054849290610b1a9084906113e3565b90915550506040516000906001600160a01b038516907fddf252ad1be2c89b69c2b068fc378daa952ba7f163c4a11628f55a4df523b3ef90610b5d908690611281565b60405180910390a36105cb836000846105cb565b600080546001600160a01b038381166001600160a01b0319831681178455604051919092169283917f8be0079c531659141344cd1fd0a4f28419497f9722a3daafe3b4186f6b6457e09190a35050565b610bc961050c565b15610be65760405162461bcd60e51b81526004016103bc90611006565b6006805460ff191660011790557f62e78cea01bee320cd4e420270b5ea74000d11b0c9f74754ebdbfc544b05a258610a69610830565b6001600160a01b038216610c425760405162461bcd60e51b81526004016103bc90611200565b610c4e60008383610ce8565b8060036000828254610c609190611298565b90915550506001600160a01b03821660009081526001602052604081208054839290610c8d908490611298565b90915550506040516001600160a01b038316906000907fddf252ad1be2c89b69c2b068fc378daa952ba7f163c4a11628f55a4df523b3ef90610cd0908590611281565b60405180910390a3610ce4600083836105cb565b5050565b61080b838383610800565b80356001600160a01b038116811461052f57600080fd5b600060208284031215610d1b578081fd5b6103df82610cf3565b60008060408385031215610d36578081fd5b610d3f83610cf3565b9150610d4d60208401610cf3565b90509250929050565b600080600060608486031215610d6a578081fd5b610d7384610cf3565b9250610d8160208501610cf3565b9150604084013590509250925092565b60008060408385031215610da3578182fd5b610dac83610cf3565b946020939093013593505050565b600060208284031215610dcb578081fd5b5035919050565b6001600160a01b0391909116815260200190565b901515815260200190565b6000602080835283518082850152825b81811015610e1d57858101830151858201604001528201610e01565b81811115610e2e5783604083870101525b50601f01601f1916929092016040019392505050565b60208082526023908201527f45524332303a207472616e7366657220746f20746865207a65726f206164647260408201526265737360e81b606082015260800190565b60208082526014908201527314185d5cd8589b194e881b9bdd081c185d5cd95960621b604082015260600190565b60208082526022908201527f45524332303a206275726e20616d6f756e7420657863656564732062616c616e604082015261636560f01b606082015260800190565b60208082526026908201527f4f776e61626c653a206e6577206f776e657220697320746865207a65726f206160408201526564647265737360d01b606082015260800190565b60208082526022908201527f45524332303a20617070726f766520746f20746865207a65726f206164647265604082015261737360f01b606082015260800190565b60208082526021908201527f43616e74206d696e74206d6f7265207468616e20737570706c79206c696d69746040820152600160fd1b606082015260800190565b60208082526026908201527f45524332303a207472616e7366657220616d6f756e7420657863656564732062604082015265616c616e636560d01b606082015260800190565b60208082526010908201526f14185d5cd8589b194e881c185d5cd95960821b604082015260600190565b60208082526028908201527f45524332303a207472616e7366657220616d6f756e74206578636565647320616040820152676c6c6f77616e636560c01b606082015260800190565b6020808252818101527f4f776e61626c653a2063616c6c6572206973206e6f7420746865206f776e6572604082015260600190565b60208082526024908201527f45524332303a206275726e20616d6f756e74206578636565647320616c6c6f77604082015263616e636560e01b606082015260800190565b60208082526021908201527f45524332303a206275726e2066726f6d20746865207a65726f206164647265736040820152607360f81b606082015260800190565b60208082526025908201527f45524332303a207472616e736665722066726f6d20746865207a65726f206164604082015264647265737360d81b606082015260800190565b60208082526024908201527f45524332303a20617070726f76652066726f6d20746865207a65726f206164646040820152637265737360e01b606082015260800190565b60208082526025908201527f45524332303a2064656372656173656420616c6c6f77616e63652062656c6f77604082015264207a65726f60d81b606082015260800190565b6020808252601f908201527f45524332303a206d696e7420746f20746865207a65726f206164647265737300604082015260600190565b6020808252602a908201527f45524332305061757361626c653a20746f6b656e207472616e736665722077686040820152691a5b19481c185d5cd95960b21b606082015260800190565b90815260200190565b60ff91909116815260200190565b600082198211156112ab576112ab611435565b500190565b80825b60018086116112c257506112ed565b8187048211156112d4576112d4611435565b808616156112e157918102915b9490941c9380026112b3565b94509492505050565b60006103df600019848460008261130f575060016103df565b8161131c575060006103df565b8160018114611332576002811461133c57611369565b60019150506103df565b60ff84111561134d5761134d611435565b6001841b91508482111561136357611363611435565b506103df565b5060208310610133831016604e8410600b841016171561139c575081810a8381111561139757611397611435565b6103df565b6113a984848460016112b0565b8086048211156113bb576113bb611435565b02949350505050565b60008160001904831182151516156113de576113de611435565b500290565b6000828210156113f5576113f5611435565b500390565b60028104600182168061140e57607f821691505b6020821081141561142f57634e487b7160e01b600052602260045260246000fd5b50919050565b634e487b7160e01b600052601160045260246000fdfea2646970667358221220a50a0c97f65fcce23dfced799e815f02b4256025cf371a6e35cd5f30f7c7374f64736f6c63430008000033",
  "linkReferences": {},
  "deployedLinkReferences": {}
}