{
  "_format": "hh-sol-artifact-1",
  "contractName": "SportZchainToken",
  "sourceName": "contracts/tokens/SportZchainToken.sol",
  "abi": [
    {
      "inputs": [
        {
          "internalType": "string",
          "name": "_name",
          "type": "string"
        },
        {
          "internalType": "string",
          "name": "_symbol",
          "type": "string"
        },
        {
          "internalType": "uint8",
          "name": "_decimals",
          "type": "uint8"
        },
        {
          "internalType": "uint256",
          "name": "_supplyUpperLimit",
          "type": "uint256"
        },
        {
          "internalType": "uint256",
          "name": "_initialSupply",
          "type": "uint256"
        }
      ],
      "stateMutability": "nonpayable",
      "type": "constructor"
    },
    {
      "anonymous": false,
      "inputs": [
        {
          "indexed": true,
          "internalType": "address",
          "name": "owner",
          "type": "address"
        },
        {
          "indexed": true,
          "internalType": "address",
          "name": "spender",
          "type": "address"
        },
        {
          "indexed": false,
          "internalType": "uint256",
          "name": "value",
          "type": "uint256"
        }
      ],
      "name": "Approval",
      "type": "event"
    },
    {
      "anonymous": false,
      "inputs": [
        {
          "indexed": true,
          "internalType": "address",
          "name": "delegator",
          "type": "address"
        },
        {
          "indexed": true,
          "internalType": "address",
          "name": "fromDelegate",
          "type": "address"
        },
        {
          "indexed": true,
          "internalType": "address",
          "name": "toDelegate",
          "type": "address"
        }
      ],
      "name": "DelegateChanged",
      "type": "event"
    },
    {
      "anonymous": false,
      "inputs": [
        {
          "indexed": true,
          "internalType": "address",
          "name": "delegate",
          "type": "address"
        },
        {
          "indexed": false,
          "internalType": "uint256",
          "name": "previousBalance",
          "type": "uint256"
        },
        {
          "indexed": false,
          "internalType": "uint256",
          "name": "newBalance",
          "type": "uint256"
        }
      ],
      "name": "DelegateVotesChanged",
      "type": "event"
    },
    {
      "anonymous": false,
      "inputs": [
        {
          "indexed": true,
          "internalType": "address",
          "name": "previousOwner",
          "type": "address"
        },
        {
          "indexed": true,
          "internalType": "address",
          "name": "newOwner",
          "type": "address"
        }
      ],
      "name": "OwnershipTransferred",
      "type": "event"
    },
    {
      "anonymous": false,
      "inputs": [
        {
          "indexed": false,
          "internalType": "address",
          "name": "account",
          "type": "address"
        }
      ],
      "name": "Paused",
      "type": "event"
    },
    {
      "anonymous": false,
      "inputs": [
        {
          "indexed": true,
          "internalType": "address",
          "name": "from",
          "type": "address"
        },
        {
          "indexed": true,
          "internalType": "address",
          "name": "to",
          "type": "address"
        },
        {
          "indexed": false,
          "internalType": "uint256",
          "name": "value",
          "type": "uint256"
        }
      ],
      "name": "Transfer",
      "type": "event"
    },
    {
      "anonymous": false,
      "inputs": [
        {
          "indexed": false,
          "internalType": "address",
          "name": "account",
          "type": "address"
        }
      ],
      "name": "Unpaused",
      "type": "event"
    },
    {
      "inputs": [],
      "name": "DOMAIN_SEPARATOR",
      "outputs": [
        {
          "internalType": "bytes32",
          "name": "",
          "type": "bytes32"
        }
      ],
      "stateMutability": "view",
      "type": "function"
    },
    {
      "inputs": [
        {
          "internalType": "address",
          "name": "owner",
          "type": "address"
        },
        {
          "internalType": "address",
          "name": "spender",
          "type": "address"
        }
      ],
      "name": "allowance",
      "outputs": [
        {
          "internalType": "uint256",
          "name": "",
          "type": "uint256"
        }
      ],
      "stateMutability": "view",
      "type": "function"
    },
    {
      "inputs": [
        {
          "internalType": "address",
          "name": "spender",
          "type": "address"
        },
        {
          "internalType": "uint256",
          "name": "amount",
          "type": "uint256"
        }
      ],
      "name": "approve",
      "outputs": [
        {
          "internalType": "bool",
          "name": "",
          "type": "bool"
        }
      ],
      "stateMutability": "nonpayable",
      "type": "function"
    },
    {
      "inputs": [
        {
          "internalType": "address",
          "name": "account",
          "type": "address"
        }
      ],
      "name": "balanceOf",
      "outputs": [
        {
          "internalType": "uint256",
          "name": "",
          "type": "uint256"
        }
      ],
      "stateMutability": "view",
      "type": "function"
    },
    {
      "inputs": [
        {
          "internalType": "uint256",
          "name": "amount",
          "type": "uint256"
        }
      ],
      "name": "burn",
      "outputs": [],
      "stateMutability": "nonpayable",
      "type": "function"
    },
    {
      "inputs": [
        {
          "internalType": "address",
          "name": "account",
          "type": "address"
        },
        {
          "internalType": "uint256",
          "name": "amount",
          "type": "uint256"
        }
      ],
      "name": "burnFrom",
      "outputs": [],
      "stateMutability": "nonpayable",
      "type": "function"
    },
    {
      "inputs": [
        {
          "internalType": "address",
          "name": "account",
          "type": "address"
        },
        {
          "internalType": "uint32",
          "name": "pos",
          "type": "uint32"
        }
      ],
      "name": "checkpoints",
      "outputs": [
        {
          "components": [
            {
              "internalType": "uint32",
              "name": "fromBlock",
              "type": "uint32"
            },
            {
              "internalType": "uint224",
              "name": "votes",
              "type": "uint224"
            }
          ],
          "internalType": "struct ERC20Votes.Checkpoint",
          "name": "",
          "type": "tuple"
        }
      ],
      "stateMutability": "view",
      "type": "function"
    },
    {
      "inputs": [],
      "name": "decimals",
      "outputs": [
        {
          "internalType": "uint8",
          "name": "",
          "type": "uint8"
        }
      ],
      "stateMutability": "view",
      "type": "function"
    },
    {
      "inputs": [
        {
          "internalType": "address",
          "name": "spender",
          "type": "address"
        },
        {
          "internalType": "uint256",
          "name": "subtractedValue",
          "type": "uint256"
        }
      ],
      "name": "decreaseAllowance",
      "outputs": [
        {
          "internalType": "bool",
          "name": "",
          "type": "bool"
        }
      ],
      "stateMutability": "nonpayable",
      "type": "function"
    },
    {
      "inputs": [
        {
          "internalType": "address",
          "name": "delegatee",
          "type": "address"
        }
      ],
      "name": "delegate",
      "outputs": [],
      "stateMutability": "nonpayable",
      "type": "function"
    },
    {
      "inputs": [
        {
          "internalType": "address",
          "name": "delegatee",
          "type": "address"
        },
        {
          "internalType": "uint256",
          "name": "nonce",
          "type": "uint256"
        },
        {
          "internalType": "uint256",
          "name": "expiry",
          "type": "uint256"
        },
        {
          "internalType": "uint8",
          "name": "v",
          "type": "uint8"
        },
        {
          "internalType": "bytes32",
          "name": "r",
          "type": "bytes32"
        },
        {
          "internalType": "bytes32",
          "name": "s",
          "type": "bytes32"
        }
      ],
      "name": "delegateBySig",
      "outputs": [],
      "stateMutability": "nonpayable",
      "type": "function"
    },
    {
      "inputs": [
        {
          "internalType": "address",
          "name": "account",
          "type": "address"
        }
      ],
      "name": "delegates",
      "outputs": [
        {
          "internalType": "address",
          "name": "",
          "type": "address"
        }
      ],
      "stateMutability": "view",
      "type": "function"
    },
    {
      "inputs": [
        {
          "internalType": "uint256",
          "name": "blockNumber",
          "type": "uint256"
        }
      ],
      "name": "getPastTotalSupply",
      "outputs": [
        {
          "internalType": "uint256",
          "name": "",
          "type": "uint256"
        }
      ],
      "stateMutability": "view",
      "type": "function"
    },
    {
      "inputs": [
        {
          "internalType": "address",
          "name": "account",
          "type": "address"
        },
        {
          "internalType": "uint256",
          "name": "blockNumber",
          "type": "uint256"
        }
      ],
      "name": "getPastVotes",
      "outputs": [
        {
          "internalType": "uint256",
          "name": "",
          "type": "uint256"
        }
      ],
      "stateMutability": "view",
      "type": "function"
    },
    {
      "inputs": [
        {
          "internalType": "address",
          "name": "account",
          "type": "address"
        }
      ],
      "name": "getVotes",
      "outputs": [
        {
          "internalType": "uint256",
          "name": "",
          "type": "uint256"
        }
      ],
      "stateMutability": "view",
      "type": "function"
    },
    {
      "inputs": [
        {
          "internalType": "address",
          "name": "spender",
          "type": "address"
        },
        {
          "internalType": "uint256",
          "name": "addedValue",
          "type": "uint256"
        }
      ],
      "name": "increaseAllowance",
      "outputs": [
        {
          "internalType": "bool",
          "name": "",
          "type": "bool"
        }
      ],
      "stateMutability": "nonpayable",
      "type": "function"
    },
    {
      "inputs": [
        {
          "internalType": "uint256",
          "name": "amount",
          "type": "uint256"
        }
      ],
      "name": "mint",
      "outputs": [],
      "stateMutability": "nonpayable",
      "type": "function"
    },
    {
      "inputs": [],
      "name": "name",
      "outputs": [
        {
          "internalType": "string",
          "name": "",
          "type": "string"
        }
      ],
      "stateMutability": "view",
      "type": "function"
    },
    {
      "inputs": [
        {
          "internalType": "address",
          "name": "owner",
          "type": "address"
        }
      ],
      "name": "nonces",
      "outputs": [
        {
          "internalType": "uint256",
          "name": "",
          "type": "uint256"
        }
      ],
      "stateMutability": "view",
      "type": "function"
    },
    {
      "inputs": [
        {
          "internalType": "address",
          "name": "account",
          "type": "address"
        }
      ],
      "name": "numCheckpoints",
      "outputs": [
        {
          "internalType": "uint32",
          "name": "",
          "type": "uint32"
        }
      ],
      "stateMutability": "view",
      "type": "function"
    },
    {
      "inputs": [],
      "name": "owner",
      "outputs": [
        {
          "internalType": "address",
          "name": "",
          "type": "address"
        }
      ],
      "stateMutability": "view",
      "type": "function"
    },
    {
      "inputs": [],
      "name": "pause",
      "outputs": [],
      "stateMutability": "nonpayable",
      "type": "function"
    },
    {
      "inputs": [],
      "name": "paused",
      "outputs": [
        {
          "internalType": "bool",
          "name": "",
          "type": "bool"
        }
      ],
      "stateMutability": "view",
      "type": "function"
    },
    {
      "inputs": [
        {
          "internalType": "address",
          "name": "owner",
          "type": "address"
        },
        {
          "internalType": "address",
          "name": "spender",
          "type": "address"
        },
        {
          "internalType": "uint256",
          "name": "value",
          "type": "uint256"
        },
        {
          "internalType": "uint256",
          "name": "deadline",
          "type": "uint256"
        },
        {
          "internalType": "uint8",
          "name": "v",
          "type": "uint8"
        },
        {
          "internalType": "bytes32",
          "name": "r",
          "type": "bytes32"
        },
        {
          "internalType": "bytes32",
          "name": "s",
          "type": "bytes32"
        }
      ],
      "name": "permit",
      "outputs": [],
      "stateMutability": "nonpayable",
      "type": "function"
    },
    {
      "inputs": [],
      "name": "renounceOwnership",
      "outputs": [],
      "stateMutability": "nonpayable",
      "type": "function"
    },
    {
      "inputs": [],
      "name": "symbol",
      "outputs": [
        {
          "internalType": "string",
          "name": "",
          "type": "string"
        }
      ],
      "stateMutability": "view",
      "type": "function"
    },
    {
      "inputs": [],
      "name": "totalSupply",
      "outputs": [
        {
          "internalType": "uint256",
          "name": "",
          "type": "uint256"
        }
      ],
      "stateMutability": "view",
      "type": "function"
    },
    {
      "inputs": [
        {
          "internalType": "address",
          "name": "to",
          "type": "address"
        },
        {
          "internalType": "uint256",
          "name": "amount",
          "type": "uint256"
        }
      ],
      "name": "transfer",
      "outputs": [
        {
          "internalType": "bool",
          "name": "",
          "type": "bool"
        }
      ],
      "stateMutability": "nonpayable",
      "type": "function"
    },
    {
      "inputs": [
        {
          "internalType": "address",
          "name": "from",
          "type": "address"
        },
        {
          "internalType": "address",
          "name": "to",
          "type": "address"
        },
        {
          "internalType": "uint256",
          "name": "amount",
          "type": "uint256"
        }
      ],
      "name": "transferFrom",
      "outputs": [
        {
          "internalType": "bool",
          "name": "",
          "type": "bool"
        }
      ],
      "stateMutability": "nonpayable",
      "type": "function"
    },
    {
      "inputs": [
        {
          "internalType": "address",
          "name": "newOwner",
          "type": "address"
        }
      ],
      "name": "transferOwnership",
      "outputs": [],
      "stateMutability": "nonpayable",
      "type": "function"
    },
    {
      "inputs": [],
      "name": "unpause",
      "outputs": [],
      "stateMutability": "nonpayable",
      "type": "function"
    }
  ],
  "bytecode": "0x6101606040527f6e71edae12b1b97f4d1f60370fef10105fa2faae0126114a169c64845d6126c9610140523480156200003757600080fd5b506040516200327e3803806200327e8339810160408190526200005a9162000a50565b8480604051806040016040528060018152602001603160f81b8152508787620000926200008c6200019460201b60201c565b62000198565b8151620000a790600490602085019062000901565b508051620000bd90600590602084019062000901565b5050825160208085019190912083519184019190912060e08290526101008190524660a0529091507f8b73c3c69bb8fe3d512ecc4cf759cc79239f7b179b0ffacaa9a75d522b39400f62000113818484620001e8565b6080523060601b60c052610120525050600a805460ff199081168255600c805460ff8a16921682179055600094506200014f9350915062000b4a565b6200015b908362000c32565b90506200016d60ff8516600a62000b4a565b62000179908462000c32565b600b5562000188338262000232565b50505050505062000cd7565b3390565b600080546001600160a01b038381166001600160a01b0319831681178455604051919092169283917f8be0079c531659141344cd1fd0a4f28419497f9722a3daafe3b4186f6b6457e09190a35050565b6040805160208101859052908101839052606081018290524660808201523060a082015260009060c0016040516020818303038152906040528051906020012090505b9392505050565b6200024982826200024d60201b62000e0a1760201c565b5050565b6200026482826200030460201b62000e9a1760201c565b6001600160e01b0362000278620004018216565b1115620002e55760405162461bcd60e51b815260206004820152603060248201527f4552433230566f7465733a20746f74616c20737570706c79207269736b73206f60448201526f766572666c6f77696e6720766f74657360801b60648201526084015b60405180910390fd5b620002fe600962000f8d6200040760201b178362000415565b50505050565b6001600160a01b0382166200035c5760405162461bcd60e51b815260206004820152601f60248201527f45524332303a206d696e7420746f20746865207a65726f2061646472657373006044820152606401620002dc565b6200036a60008383620005f9565b80600360008282546200037e919062000ae2565b90915550506001600160a01b03821660009081526001602052604081208054839290620003ad90849062000ae2565b90915550506040518181526001600160a01b038316906000907fddf252ad1be2c89b69c2b068fc378daa952ba7f163c4a11628f55a4df523b3ef9060200160405180910390a362000249600083836200067e565b60035490565b60006200022b828462000ae2565b8254600090819080156200047357856200043160018362000c54565b815481106200045057634e487b7160e01b600052603260045260246000fd5b60009182526020909120015464010000000090046001600160e01b031662000476565b60005b6001600160e01b031692506200048d83858760201c565b9150600081118015620004dd57504386620004aa60018462000c54565b81548110620004c957634e487b7160e01b600052603260045260246000fd5b60009182526020909120015463ffffffff16145b156200055d57620004f9826200069660201b62000f991760201c565b866200050760018462000c54565b815481106200052657634e487b7160e01b600052603260045260246000fd5b9060005260206000200160000160046101000a8154816001600160e01b0302191690836001600160e01b03160217905550620005f0565b8560405180604001604052806200057f436200070560201b620010061760201c565b63ffffffff168152602001620005a0856200069660201b62000f991760201c565b6001600160e01b039081169091528254600181018455600093845260209384902083519101805493909401519091166401000000000263ffffffff91821663ffffffff1990931692909217161790555b50935093915050565b620006118383836200076c60201b6200106b1760201c565b600a5460ff1615620006795760405162461bcd60e51b815260206004820152602a60248201527f45524332305061757361626c653a20746f6b656e207472616e736665722077686044820152691a5b19481c185d5cd95960b21b6064820152608401620002dc565b505050565b620006798383836200078460201b620010d11760201c565b60006001600160e01b03821115620007015760405162461bcd60e51b815260206004820152602760248201527f53616665436173743a2076616c756520646f65736e27742066697420696e20326044820152663234206269747360c81b6064820152608401620002dc565b5090565b600063ffffffff821115620007015760405162461bcd60e51b815260206004820152602660248201527f53616665436173743a2076616c756520646f65736e27742066697420696e203360448201526532206269747360d01b6064820152608401620002dc565b620006118383836200067960201b620009961760201c565b6200079c8383836200067960201b620009961760201c565b6001600160a01b038381166000908152600760205260408082205485841683529120546200067992918216911683818314801590620007db5750600081115b1562000679576001600160a01b0383161562000868576001600160a01b038316600090815260086020908152604082208291620008259190620008f3901b620010ec178562000415565b91509150846001600160a01b03166000805160206200325e83398151915283836040516200085d929190918252602082015260400190565b60405180910390a250505b6001600160a01b0382161562000679576001600160a01b038216600090815260086020908152604082208291620008ac919062000407901b62000f8d178562000415565b91509150836001600160a01b03166000805160206200325e8339815191528383604051620008e4929190918252602082015260400190565b60405180910390a25050505050565b60006200022b828462000c54565b8280546200090f9062000c6e565b90600052602060002090601f0160209004810192826200093357600085556200097e565b82601f106200094e57805160ff19168380011785556200097e565b828001600101855582156200097e579182015b828111156200097e57825182559160200191906001019062000961565b50620007019291505b8082111562000701576000815560010162000987565b600082601f830112620009ae578081fd5b81516001600160401b0380821115620009cb57620009cb62000cc1565b604051601f8301601f19908116603f01168101908282118183101715620009f657620009f662000cc1565b8160405283815260209250868385880101111562000a12578485fd5b8491505b8382101562000a35578582018301518183018401529082019062000a16565b8382111562000a4657848385830101525b9695505050505050565b600080600080600060a0868803121562000a68578081fd5b85516001600160401b038082111562000a7f578283fd5b62000a8d89838a016200099d565b9650602088015191508082111562000aa3578283fd5b5062000ab2888289016200099d565b945050604086015160ff8116811462000ac9578182fd5b6060870151608090970151959894975095949392505050565b6000821982111562000af85762000af862000cab565b500190565b80825b600180861162000b11575062000b41565b81870482111562000b265762000b2662000cab565b8086161562000b3457918102915b9490941c93800262000b00565b94509492505050565b60006200022b600019848460008262000b66575060016200022b565b8162000b75575060006200022b565b816001811462000b8e576002811462000b995762000bcd565b60019150506200022b565b60ff84111562000bad5762000bad62000cab565b6001841b91508482111562000bc65762000bc662000cab565b506200022b565b5060208310610133831016604e8410600b841016171562000c05575081810a8381111562000bff5762000bff62000cab565b6200022b565b62000c14848484600162000afd565b80860482111562000c295762000c2962000cab565b02949350505050565b600081600019048311821515161562000c4f5762000c4f62000cab565b500290565b60008282101562000c695762000c6962000cab565b500390565b60028104600182168062000c8357607f821691505b6020821081141562000ca557634e487b7160e01b600052602260045260246000fd5b50919050565b634e487b7160e01b600052601160045260246000fd5b634e487b7160e01b600052604160045260246000fd5b60805160a05160c05160601c60e05161010051610120516101405161252962000d356000396000610bd001526000611513015260006115620152600061153d01526000611494015260006114be015260006114e801526125296000f3fe608060405234801561001057600080fd5b50600436106101e55760003560e01c8063715018a61161010f578063a0712d68116100a2578063d505accf11610071578063d505accf14610405578063dd62ed3e14610418578063f1127ed814610451578063f2fde38b1461048e576101e5565b8063a0712d68146103b9578063a457c2d7146103cc578063a9059cbb146103df578063c3cda520146103f2576101e5565b80638da5cb5b116100de5780638da5cb5b1461037a5780638e539e8c1461038b57806395d89b411461039e5780639ab24eb0146103a6576101e5565b8063715018a61461034457806379cc67901461034c5780637ecebe001461035f5780638456cb5914610372576101e5565b80633a46b1a8116101875780635c19a95c116101565780635c19a95c146102d55780635c975abb146102e85780636fcfff45146102f357806370a082311461031b576101e5565b80633a46b1a81461027a5780633f4ba83a1461028d57806342966c6814610297578063587cde1e146102aa576101e5565b806323b872dd116101c357806323b872dd1461023d578063313ce567146102505780633644e5151461025f5780633950935114610267576101e5565b806306fdde03146101ea578063095ea7b31461020857806318160ddd1461022b575b600080fd5b6101f26104a1565b6040516101ff91906122a7565b60405180910390f35b61021b6102163660046121d1565b610534565b60405190151581526020016101ff565b6003545b6040519081526020016101ff565b61021b61024b36600461212d565b61054c565b604051601281526020016101ff565b61022f610572565b61021b6102753660046121d1565b610581565b61022f6102883660046121d1565b6105c0565b610295610638565b005b6102956102a536600461228f565b61066c565b6102bd6102b83660046120e1565b6106db565b6040516001600160a01b0390911681526020016101ff565b6102956102e33660046120e1565b6106fc565b600a5460ff1661021b565b6103066103013660046120e1565b610709565b60405163ffffffff90911681526020016101ff565b61022f6103293660046120e1565b6001600160a01b031660009081526001602052604090205490565b610295610731565b61029561035a3660046121d1565b610765565b61022f61036d3660046120e1565b61077e565b61029561079c565b6000546001600160a01b03166102bd565b61022f61039936600461228f565b6107ce565b6101f261082a565b61022f6103b43660046120e1565b610839565b6102956103c736600461228f565b6108ce565b61021b6103da3660046121d1565b61099b565b61021b6103ed3660046121d1565b610a38565b6102956104003660046121fa565b610a46565b610295610413366004612168565b610b7c565b61022f6104263660046120fb565b6001600160a01b03918216600090815260026020908152604080832093909416825291909152205490565b61046461045f366004612251565b610ce0565b60408051825163ffffffff1681526020928301516001600160e01b031692810192909252016101ff565b61029561049c3660046120e1565b610d72565b6060600480546104b0906124a8565b80601f01602080910402602001604051908101604052809291908181526020018280546104dc906124a8565b80156105295780601f106104fe57610100808354040283529160200191610529565b820191906000526020600020905b81548152906001019060200180831161050c57829003601f168201915b505050505090505b90565b6000336105428185856110f8565b5060019392505050565b60003361055a85828561121c565b6105658585856112a8565b60019150505b9392505050565b600061057c611487565b905090565b3360008181526002602090815260408083206001600160a01b038716845290915281205490919061054290829086906105bb90879061232f565b6110f8565b60004382106106165760405162461bcd60e51b815260206004820152601f60248201527f4552433230566f7465733a20626c6f636b206e6f7420796574206d696e65640060448201526064015b60405180910390fd5b6001600160a01b038316600090815260086020526040902061056b90836115b2565b6000546001600160a01b031633146106625760405162461bcd60e51b815260040161060d906122fa565b61066a61168b565b565b6000546001600160a01b031633146106965760405162461bcd60e51b815260040161060d906122fa565b600c546000906106aa9060ff16600a6123a4565b6106b49083612472565b90506106c0338261171e565b80600b60008282546106d29190612491565b90915550505050565b6001600160a01b03808216600090815260076020526040902054165b919050565b6107063382611728565b50565b6001600160a01b03811660009081526008602052604081205461072b90611006565b92915050565b6000546001600160a01b0316331461075b5760405162461bcd60e51b815260040161060d906122fa565b61066a60006117be565b61077082338361121c565b61077a828261171e565b5050565b6001600160a01b03811660009081526006602052604081205461072b565b6000546001600160a01b031633146107c65760405162461bcd60e51b815260040161060d906122fa565b61066a61180e565b600043821061081f5760405162461bcd60e51b815260206004820152601f60248201527f4552433230566f7465733a20626c6f636b206e6f7420796574206d696e656400604482015260640161060d565b61072b6009836115b2565b6060600580546104b0906124a8565b6001600160a01b03811660009081526008602052604081205480156108bb576001600160a01b038316600090815260086020526040902061087b600183612491565b8154811061089957634e487b7160e01b600052603260045260246000fd5b60009182526020909120015464010000000090046001600160e01b03166108be565b60005b6001600160e01b03169392505050565b6000546001600160a01b031633146108f85760405162461bcd60e51b815260040161060d906122fa565b600c5460009061090c9060ff16600a6123a4565b6109169083612472565b905060008161092460035490565b61092e919061232f565b9050600b5481111561098c5760405162461bcd60e51b815260206004820152602160248201527f43616e74206d696e74206d6f7265207468616e20737570706c79206c696d69746044820152600160fd1b606482015260840161060d565b6109963383611889565b505050565b3360008181526002602090815260408083206001600160a01b038716845290915281205490919083811015610a205760405162461bcd60e51b815260206004820152602560248201527f45524332303a2064656372656173656420616c6c6f77616e63652062656c6f77604482015264207a65726f60d81b606482015260840161060d565b610a2d82868684036110f8565b506001949350505050565b6000336105428185856112a8565b83421115610a965760405162461bcd60e51b815260206004820152601d60248201527f4552433230566f7465733a207369676e61747572652065787069726564000000604482015260640161060d565b604080517fe48329057bfd03d55e49b547132e39cffd9c1820ad7b9d4c5307691425d15adf60208201526001600160a01b038816918101919091526060810186905260808101859052600090610b1090610b089060a00160405160208183030381529060405280519060200120611893565b8585856118e1565b9050610b1b81611909565b8614610b695760405162461bcd60e51b815260206004820152601960248201527f4552433230566f7465733a20696e76616c6964206e6f6e636500000000000000604482015260640161060d565b610b738188611728565b50505050505050565b83421115610bcc5760405162461bcd60e51b815260206004820152601d60248201527f45524332305065726d69743a206578706972656420646561646c696e65000000604482015260640161060d565b60007f0000000000000000000000000000000000000000000000000000000000000000888888610bfb8c611909565b6040805160208101969096526001600160a01b0394851690860152929091166060840152608083015260a082015260c0810186905260e0016040516020818303038152906040528051906020012090506000610c5682611893565b90506000610c66828787876118e1565b9050896001600160a01b0316816001600160a01b031614610cc95760405162461bcd60e51b815260206004820152601e60248201527f45524332305065726d69743a20696e76616c6964207369676e61747572650000604482015260640161060d565b610cd48a8a8a6110f8565b50505050505050505050565b60408051808201909152600080825260208201526001600160a01b0383166000908152600860205260409020805463ffffffff8416908110610d3257634e487b7160e01b600052603260045260246000fd5b60009182526020918290206040805180820190915291015463ffffffff8116825264010000000090046001600160e01b0316918101919091529392505050565b6000546001600160a01b03163314610d9c5760405162461bcd60e51b815260040161060d906122fa565b6001600160a01b038116610e015760405162461bcd60e51b815260206004820152602660248201527f4f776e61626c653a206e6577206f776e657220697320746865207a65726f206160448201526564647265737360d01b606482015260840161060d565b610706816117be565b610e148282610e9a565b6003546001600160e01b031015610e865760405162461bcd60e51b815260206004820152603060248201527f4552433230566f7465733a20746f74616c20737570706c79207269736b73206f60448201526f766572666c6f77696e6720766f74657360801b606482015260840161060d565b610e946009610f8d83611931565b50505050565b6001600160a01b038216610ef05760405162461bcd60e51b815260206004820152601f60248201527f45524332303a206d696e7420746f20746865207a65726f206164647265737300604482015260640161060d565b610efc60008383611ae2565b8060036000828254610f0e919061232f565b90915550506001600160a01b03821660009081526001602052604081208054839290610f3b90849061232f565b90915550506040518181526001600160a01b038316906000907fddf252ad1be2c89b69c2b068fc378daa952ba7f163c4a11628f55a4df523b3ef9060200160405180910390a361077a60008383611aed565b600061056b828461232f565b60006001600160e01b038211156110025760405162461bcd60e51b815260206004820152602760248201527f53616665436173743a2076616c756520646f65736e27742066697420696e20326044820152663234206269747360c81b606482015260840161060d565b5090565b600063ffffffff8211156110025760405162461bcd60e51b815260206004820152602660248201527f53616665436173743a2076616c756520646f65736e27742066697420696e203360448201526532206269747360d01b606482015260840161060d565b600a5460ff16156109965760405162461bcd60e51b815260206004820152602a60248201527f45524332305061757361626c653a20746f6b656e207472616e736665722077686044820152691a5b19481c185d5cd95960b21b606482015260840161060d565b6109966110dd846106db565b6110e6846106db565b83611af8565b600061056b8284612491565b6001600160a01b03831661115a5760405162461bcd60e51b8152602060048201526024808201527f45524332303a20617070726f76652066726f6d20746865207a65726f206164646044820152637265737360e01b606482015260840161060d565b6001600160a01b0382166111bb5760405162461bcd60e51b815260206004820152602260248201527f45524332303a20617070726f766520746f20746865207a65726f206164647265604482015261737360f01b606482015260840161060d565b6001600160a01b0383811660008181526002602090815260408083209487168084529482529182902085905590518481527f8c5be1e5ebec7d5bd14f71427d1e84f3dd0314c0f7b2291e5b200ac8c7c3b925910160405180910390a3505050565b6001600160a01b038381166000908152600260209081526040808320938616835292905220546000198114610e94578181101561129b5760405162461bcd60e51b815260206004820152601d60248201527f45524332303a20696e73756666696369656e7420616c6c6f77616e6365000000604482015260640161060d565b610e9484848484036110f8565b6001600160a01b03831661130c5760405162461bcd60e51b815260206004820152602560248201527f45524332303a207472616e736665722066726f6d20746865207a65726f206164604482015264647265737360d81b606482015260840161060d565b6001600160a01b03821661136e5760405162461bcd60e51b815260206004820152602360248201527f45524332303a207472616e7366657220746f20746865207a65726f206164647260448201526265737360e81b606482015260840161060d565b611379838383611ae2565b6001600160a01b038316600090815260016020526040902054818110156113f15760405162461bcd60e51b815260206004820152602660248201527f45524332303a207472616e7366657220616d6f756e7420657863656564732062604482015265616c616e636560d01b606482015260840161060d565b6001600160a01b0380851660009081526001602052604080822085850390559185168152908120805484929061142890849061232f565b92505081905550826001600160a01b0316846001600160a01b03167fddf252ad1be2c89b69c2b068fc378daa952ba7f163c4a11628f55a4df523b3ef8460405161147491815260200190565b60405180910390a3610e94848484611aed565b6000306001600160a01b037f0000000000000000000000000000000000000000000000000000000000000000161480156114e057507f000000000000000000000000000000000000000000000000000000000000000046145b1561150c57507f0000000000000000000000000000000000000000000000000000000000000000610531565b50604080517f00000000000000000000000000000000000000000000000000000000000000006020808301919091527f0000000000000000000000000000000000000000000000000000000000000000828401527f000000000000000000000000000000000000000000000000000000000000000060608301524660808301523060a0808401919091528351808403909101815260c09092019092528051910120610531565b8154600090815b818110156116245760006115cd8284611c35565b9050848682815481106115f057634e487b7160e01b600052603260045260246000fd5b60009182526020909120015463ffffffff1611156116105780925061161e565b61161b81600161232f565b91505b506115b9565b81156116765784611636600184612491565b8154811061165457634e487b7160e01b600052603260045260246000fd5b60009182526020909120015464010000000090046001600160e01b0316611679565b60005b6001600160e01b031695945050505050565b600a5460ff166116d45760405162461bcd60e51b815260206004820152601460248201527314185d5cd8589b194e881b9bdd081c185d5cd95960621b604482015260640161060d565b600a805460ff191690557f5db9ee0a495bf2e6ff9c91a7834c1ba4fdd244a5e8aa4e537bd38aeae4b073aa335b6040516001600160a01b03909116815260200160405180910390a1565b61077a8282611c50565b6000611733836106db565b90506000611756846001600160a01b031660009081526001602052604090205490565b6001600160a01b0385811660008181526007602052604080822080546001600160a01b031916898616908117909155905194955093928616927f3134e8a2e6d97e929a7e54011ea5485d7d196dd5f0ba4d4ef95803e8e3fc257f9190a4610e94828483611af8565b600080546001600160a01b038381166001600160a01b0319831681178455604051919092169283917f8be0079c531659141344cd1fd0a4f28419497f9722a3daafe3b4186f6b6457e09190a35050565b600a5460ff16156118545760405162461bcd60e51b815260206004820152601060248201526f14185d5cd8589b194e881c185d5cd95960821b604482015260640161060d565b600a805460ff191660011790557f62e78cea01bee320cd4e420270b5ea74000d11b0c9f74754ebdbfc544b05a2586117013390565b61077a8282610e0a565b600061072b6118a0611487565b8360405161190160f01b6020820152602281018390526042810182905260009060620160405160208183030381529060405280519060200120905092915050565b60008060006118f287878787611c68565b915091506118ff81611d55565b5095945050505050565b6001600160a01b03811660009081526006602052604090208054600181018255905b50919050565b82546000908190801561198a578561194a600183612491565b8154811061196857634e487b7160e01b600052603260045260246000fd5b60009182526020909120015464010000000090046001600160e01b031661198d565b60005b6001600160e01b031692506119a683858763ffffffff16565b91506000811180156119f2575043866119c0600184612491565b815481106119de57634e487b7160e01b600052603260045260246000fd5b60009182526020909120015463ffffffff16145b15611a6057611a0082610f99565b86611a0c600184612491565b81548110611a2a57634e487b7160e01b600052603260045260246000fd5b9060005260206000200160000160046101000a8154816001600160e01b0302191690836001600160e01b03160217905550611ad9565b856040518060400160405280611a7543611006565b63ffffffff168152602001611a8985610f99565b6001600160e01b039081169091528254600181018455600093845260209384902083519101805493909401519091166401000000000263ffffffff91821663ffffffff1990931692909217161790555b50935093915050565b61106b83838361106b565b6109968383836110d1565b816001600160a01b0316836001600160a01b031614158015611b1a5750600081115b15610996576001600160a01b03831615611ba8576001600160a01b03831660009081526008602052604081208190611b55906110ec85611931565b91509150846001600160a01b03167fdec2bacdd2f05b59de34da9b523dff8be42e5e38e818c82fdb0bae774387a7248383604051611b9d929190918252602082015260400190565b60405180910390a250505b6001600160a01b03821615610996576001600160a01b03821660009081526008602052604081208190611bde90610f8d85611931565b91509150836001600160a01b03167fdec2bacdd2f05b59de34da9b523dff8be42e5e38e818c82fdb0bae774387a7248383604051611c26929190918252602082015260400190565b60405180910390a25050505050565b6000611c446002848418612347565b61056b9084841661232f565b611c5a8282611f58565b610e9460096110ec83611931565b6000807f7fffffffffffffffffffffffffffffff5d576e7357a4501ddfe92f46681b20a0831115611c9f5750600090506003611d4c565b8460ff16601b14158015611cb757508460ff16601c14155b15611cc85750600090506004611d4c565b6040805160008082526020820180845289905260ff881692820192909252606081018690526080810185905260019060a0016020604051602081039080840390855afa158015611d1c573d6000803e3d6000fd5b5050604051601f1901519150506001600160a01b038116611d4557600060019250925050611d4c565b9150600090505b94509492505050565b6000816004811115611d7757634e487b7160e01b600052602160045260246000fd5b1415611d8257610706565b6001816004811115611da457634e487b7160e01b600052602160045260246000fd5b1415611df25760405162461bcd60e51b815260206004820152601860248201527f45434453413a20696e76616c6964207369676e61747572650000000000000000604482015260640161060d565b6002816004811115611e1457634e487b7160e01b600052602160045260246000fd5b1415611e625760405162461bcd60e51b815260206004820152601f60248201527f45434453413a20696e76616c6964207369676e6174757265206c656e67746800604482015260640161060d565b6003816004811115611e8457634e487b7160e01b600052602160045260246000fd5b1415611edd5760405162461bcd60e51b815260206004820152602260248201527f45434453413a20696e76616c6964207369676e6174757265202773272076616c604482015261756560f01b606482015260840161060d565b6004816004811115611eff57634e487b7160e01b600052602160045260246000fd5b14156107065760405162461bcd60e51b815260206004820152602260248201527f45434453413a20696e76616c6964207369676e6174757265202776272076616c604482015261756560f01b606482015260840161060d565b6001600160a01b038216611fb85760405162461bcd60e51b815260206004820152602160248201527f45524332303a206275726e2066726f6d20746865207a65726f206164647265736044820152607360f81b606482015260840161060d565b611fc482600083611ae2565b6001600160a01b038216600090815260016020526040902054818110156120385760405162461bcd60e51b815260206004820152602260248201527f45524332303a206275726e20616d6f756e7420657863656564732062616c616e604482015261636560f01b606482015260840161060d565b6001600160a01b0383166000908152600160205260408120838303905560038054849290612067908490612491565b90915550506040518281526000906001600160a01b038516907fddf252ad1be2c89b69c2b068fc378daa952ba7f163c4a11628f55a4df523b3ef9060200160405180910390a361099683600084611aed565b80356001600160a01b03811681146106f757600080fd5b803560ff811681146106f757600080fd5b6000602082840312156120f2578081fd5b61056b826120b9565b6000806040838503121561210d578081fd5b612116836120b9565b9150612124602084016120b9565b90509250929050565b600080600060608486031215612141578081fd5b61214a846120b9565b9250612158602085016120b9565b9150604084013590509250925092565b600080600080600080600060e0888a031215612182578283fd5b61218b886120b9565b9650612199602089016120b9565b955060408801359450606088013593506121b5608089016120d0565b925060a0880135915060c0880135905092959891949750929550565b600080604083850312156121e3578182fd5b6121ec836120b9565b946020939093013593505050565b60008060008060008060c08789031215612212578182fd5b61221b876120b9565b95506020870135945060408701359350612237606088016120d0565b92506080870135915060a087013590509295509295509295565b60008060408385031215612263578182fd5b61226c836120b9565b9150602083013563ffffffff81168114612284578182fd5b809150509250929050565b6000602082840312156122a0578081fd5b5035919050565b6000602080835283518082850152825b818110156122d3578581018301518582016040015282016122b7565b818111156122e45783604083870101525b50601f01601f1916929092016040019392505050565b6020808252818101527f4f776e61626c653a2063616c6c6572206973206e6f7420746865206f776e6572604082015260600190565b60008219821115612342576123426124dd565b500190565b60008261236257634e487b7160e01b81526012600452602481fd5b500490565b80825b60018086116123795750611d4c565b81870482111561238b5761238b6124dd565b8086161561239857918102915b9490941c93800261236a565b600061056b60001984846000826123bd5750600161056b565b816123ca5750600061056b565b81600181146123e057600281146123ea57612417565b600191505061056b565b60ff8411156123fb576123fb6124dd565b6001841b915084821115612411576124116124dd565b5061056b565b5060208310610133831016604e8410600b841016171561244a575081810a83811115612445576124456124dd565b61056b565b6124578484846001612367565b808604821115612469576124696124dd565b02949350505050565b600081600019048311821515161561248c5761248c6124dd565b500290565b6000828210156124a3576124a36124dd565b500390565b6002810460018216806124bc57607f821691505b6020821081141561192b57634e487b7160e01b600052602260045260246000fd5b634e487b7160e01b600052601160045260246000fdfea2646970667358221220bbc77afb2cb75250fdcb6c4abe19e40debce310dedbad4a698f134ca089e699164736f6c63430008020033dec2bacdd2f05b59de34da9b523dff8be42e5e38e818c82fdb0bae774387a724",
  "linkReferences": {},
  "deployedLinkReferences": {}
}