{
  "_format": "hh-sol-artifact-1",
  "contractName": "SportZchainToken",
  "sourceName": "contracts/tokens/SportZchainToken.sol",
  "abi": [
    {
      "inputs": [
        {
          "internalType": "string",
          "name": "_name",
          "type": "string"
        },
        {
          "internalType": "string",
          "name": "_symbol",
          "type": "string"
        },
        {
          "internalType": "uint8",
          "name": "_decimals",
          "type": "uint8"
        },
        {
          "internalType": "uint256",
          "name": "_totalSupply",
          "type": "uint256"
        }
      ],
      "stateMutability": "nonpayable",
      "type": "constructor"
    },
    {
      "anonymous": false,
      "inputs": [
        {
          "indexed": true,
          "internalType": "address",
          "name": "owner",
          "type": "address"
        },
        {
          "indexed": true,
          "internalType": "address",
          "name": "spender",
          "type": "address"
        },
        {
          "indexed": false,
          "internalType": "uint256",
          "name": "value",
          "type": "uint256"
        }
      ],
      "name": "Approval",
      "type": "event"
    },
    {
      "anonymous": false,
      "inputs": [
        {
          "indexed": true,
          "internalType": "address",
          "name": "previousOwner",
          "type": "address"
        },
        {
          "indexed": true,
          "internalType": "address",
          "name": "newOwner",
          "type": "address"
        }
      ],
      "name": "OwnershipTransferred",
      "type": "event"
    },
    {
      "anonymous": false,
      "inputs": [
        {
          "indexed": false,
          "internalType": "address",
          "name": "account",
          "type": "address"
        }
      ],
      "name": "Paused",
      "type": "event"
    },
    {
      "anonymous": false,
      "inputs": [
        {
          "indexed": true,
          "internalType": "address",
          "name": "from",
          "type": "address"
        },
        {
          "indexed": true,
          "internalType": "address",
          "name": "to",
          "type": "address"
        },
        {
          "indexed": false,
          "internalType": "uint256",
          "name": "value",
          "type": "uint256"
        }
      ],
      "name": "Transfer",
      "type": "event"
    },
    {
      "anonymous": false,
      "inputs": [
        {
          "indexed": false,
          "internalType": "address",
          "name": "account",
          "type": "address"
        }
      ],
      "name": "Unpaused",
      "type": "event"
    },
    {
      "inputs": [
        {
          "internalType": "address",
          "name": "owner",
          "type": "address"
        },
        {
          "internalType": "address",
          "name": "spender",
          "type": "address"
        }
      ],
      "name": "allowance",
      "outputs": [
        {
          "internalType": "uint256",
          "name": "",
          "type": "uint256"
        }
      ],
      "stateMutability": "view",
      "type": "function"
    },
    {
      "inputs": [
        {
          "internalType": "address",
          "name": "spender",
          "type": "address"
        },
        {
          "internalType": "uint256",
          "name": "amount",
          "type": "uint256"
        }
      ],
      "name": "approve",
      "outputs": [
        {
          "internalType": "bool",
          "name": "",
          "type": "bool"
        }
      ],
      "stateMutability": "nonpayable",
      "type": "function"
    },
    {
      "inputs": [
        {
          "internalType": "address",
          "name": "account",
          "type": "address"
        }
      ],
      "name": "balanceOf",
      "outputs": [
        {
          "internalType": "uint256",
          "name": "",
          "type": "uint256"
        }
      ],
      "stateMutability": "view",
      "type": "function"
    },
    {
      "inputs": [
        {
          "internalType": "uint256",
          "name": "_amount",
          "type": "uint256"
        }
      ],
      "name": "burn",
      "outputs": [],
      "stateMutability": "nonpayable",
      "type": "function"
    },
    {
      "inputs": [
        {
          "internalType": "address",
          "name": "account",
          "type": "address"
        },
        {
          "internalType": "uint256",
          "name": "amount",
          "type": "uint256"
        }
      ],
      "name": "burnFrom",
      "outputs": [],
      "stateMutability": "nonpayable",
      "type": "function"
    },
    {
      "inputs": [],
      "name": "decimals",
      "outputs": [
        {
          "internalType": "uint8",
          "name": "",
          "type": "uint8"
        }
      ],
      "stateMutability": "view",
      "type": "function"
    },
    {
      "inputs": [
        {
          "internalType": "address",
          "name": "spender",
          "type": "address"
        },
        {
          "internalType": "uint256",
          "name": "subtractedValue",
          "type": "uint256"
        }
      ],
      "name": "decreaseAllowance",
      "outputs": [
        {
          "internalType": "bool",
          "name": "",
          "type": "bool"
        }
      ],
      "stateMutability": "nonpayable",
      "type": "function"
    },
    {
      "inputs": [
        {
          "internalType": "address",
          "name": "spender",
          "type": "address"
        },
        {
          "internalType": "uint256",
          "name": "addedValue",
          "type": "uint256"
        }
      ],
      "name": "increaseAllowance",
      "outputs": [
        {
          "internalType": "bool",
          "name": "",
          "type": "bool"
        }
      ],
      "stateMutability": "nonpayable",
      "type": "function"
    },
    {
      "inputs": [],
      "name": "name",
      "outputs": [
        {
          "internalType": "string",
          "name": "",
          "type": "string"
        }
      ],
      "stateMutability": "view",
      "type": "function"
    },
    {
      "inputs": [],
      "name": "owner",
      "outputs": [
        {
          "internalType": "address",
          "name": "",
          "type": "address"
        }
      ],
      "stateMutability": "view",
      "type": "function"
    },
    {
      "inputs": [],
      "name": "pause",
      "outputs": [],
      "stateMutability": "nonpayable",
      "type": "function"
    },
    {
      "inputs": [],
      "name": "paused",
      "outputs": [
        {
          "internalType": "bool",
          "name": "",
          "type": "bool"
        }
      ],
      "stateMutability": "view",
      "type": "function"
    },
    {
      "inputs": [],
      "name": "renounceOwnership",
      "outputs": [],
      "stateMutability": "nonpayable",
      "type": "function"
    },
    {
      "inputs": [],
      "name": "symbol",
      "outputs": [
        {
          "internalType": "string",
          "name": "",
          "type": "string"
        }
      ],
      "stateMutability": "view",
      "type": "function"
    },
    {
      "inputs": [],
      "name": "totalSupply",
      "outputs": [
        {
          "internalType": "uint256",
          "name": "",
          "type": "uint256"
        }
      ],
      "stateMutability": "view",
      "type": "function"
    },
    {
      "inputs": [
        {
          "internalType": "address",
          "name": "to",
          "type": "address"
        },
        {
          "internalType": "uint256",
          "name": "amount",
          "type": "uint256"
        }
      ],
      "name": "transfer",
      "outputs": [
        {
          "internalType": "bool",
          "name": "",
          "type": "bool"
        }
      ],
      "stateMutability": "nonpayable",
      "type": "function"
    },
    {
      "inputs": [
        {
          "internalType": "address",
          "name": "from",
          "type": "address"
        },
        {
          "internalType": "address",
          "name": "to",
          "type": "address"
        },
        {
          "internalType": "uint256",
          "name": "amount",
          "type": "uint256"
        }
      ],
      "name": "transferFrom",
      "outputs": [
        {
          "internalType": "bool",
          "name": "",
          "type": "bool"
        }
      ],
      "stateMutability": "nonpayable",
      "type": "function"
    },
    {
      "inputs": [
        {
          "internalType": "address",
          "name": "newOwner",
          "type": "address"
        }
      ],
      "name": "transferOwnership",
      "outputs": [],
      "stateMutability": "nonpayable",
      "type": "function"
    },
    {
      "inputs": [],
      "name": "unpause",
      "outputs": [],
      "stateMutability": "nonpayable",
      "type": "function"
    }
  ],
  "bytecode": "0x60806040523480156200001157600080fd5b506040516200154e3803806200154e8339810160408190526200003491620003e7565b83836200004133620000aa565b8151620000569060049060208501906200028e565b5080516200006c9060059060208401906200028e565b50506006805460ff1916905550620000a0336200008e60ff8516600a620004d6565b6200009a9084620005cb565b620000fa565b5050505062000656565b600080546001600160a01b038381166001600160a01b0319831681178455604051919092169283917f8be0079c531659141344cd1fd0a4f28419497f9722a3daafe3b4186f6b6457e09190a35050565b6001600160a01b038216620001565760405162461bcd60e51b815260206004820152601f60248201527f45524332303a206d696e7420746f20746865207a65726f20616464726573730060448201526064015b60405180910390fd5b6200016460008383620001f1565b80600360008282546200017891906200046e565b90915550506001600160a01b03821660009081526001602052604081208054839290620001a79084906200046e565b90915550506040518181526001600160a01b038316906000907fddf252ad1be2c89b69c2b068fc378daa952ba7f163c4a11628f55a4df523b3ef9060200160405180910390a35050565b620002098383836200027660201b620006071760201c565b60065460ff1615620002715760405162461bcd60e51b815260206004820152602a60248201527f45524332305061757361626c653a20746f6b656e207472616e736665722077686044820152691a5b19481c185d5cd95960b21b60648201526084016200014d565b505050565b620002098383836200027160201b6200066d1760201c565b8280546200029c90620005ed565b90600052602060002090601f016020900481019282620002c057600085556200030b565b82601f10620002db57805160ff19168380011785556200030b565b828001600101855582156200030b579182015b828111156200030b578251825591602001919060010190620002ee565b50620003199291506200031d565b5090565b5b808211156200031957600081556001016200031e565b600082601f83011262000345578081fd5b81516001600160401b038082111562000362576200036262000640565b604051601f8301601f19908116603f011681019082821181831017156200038d576200038d62000640565b81604052838152602092508683858801011115620003a9578485fd5b8491505b83821015620003cc5785820183015181830184015290820190620003ad565b83821115620003dd57848385830101525b9695505050505050565b60008060008060808587031215620003fd578384fd5b84516001600160401b038082111562000414578586fd5b620004228883890162000334565b9550602087015191508082111562000438578485fd5b50620004478782880162000334565b935050604085015160ff811681146200045e578283fd5b6060959095015193969295505050565b600082198211156200048457620004846200062a565b500190565b80825b60018086116200049d5750620004cd565b818704821115620004b257620004b26200062a565b80861615620004c057918102915b9490941c9380026200048c565b94509492505050565b6000620004e76000198484620004ee565b9392505050565b600082620004ff57506001620004e7565b816200050e57506000620004e7565b8160018114620005275760028114620005325762000566565b6001915050620004e7565b60ff8411156200054657620005466200062a565b6001841b9150848211156200055f576200055f6200062a565b50620004e7565b5060208310610133831016604e8410600b84101617156200059e575081810a838111156200059857620005986200062a565b620004e7565b620005ad848484600162000489565b808604821115620005c257620005c26200062a565b02949350505050565b6000816000190483118215151615620005e857620005e86200062a565b500290565b6002810460018216806200060257607f821691505b602082108114156200062457634e487b7160e01b600052602260045260246000fd5b50919050565b634e487b7160e01b600052601160045260246000fd5b634e487b7160e01b600052604160045260246000fd5b610ee880620006666000396000f3fe608060405234801561001057600080fd5b50600436106101215760003560e01c806370a08231116100ad57806395d89b411161007157806395d89b4114610227578063a457c2d71461022f578063a9059cbb14610242578063dd62ed3e14610255578063f2fde38b1461028e57610121565b806370a08231146101d6578063715018a6146101e957806379cc6790146101f15780638456cb59146102045780638da5cb5b1461020c57610121565b8063313ce567116100f4578063313ce5671461018c578063395093511461019b5780633f4ba83a146101ae57806342966c68146101b85780635c975abb146101cb57610121565b806306fdde0314610126578063095ea7b31461014457806318160ddd1461016757806323b872dd14610179575b600080fd5b61012e6102a1565b60405161013b9190610daa565b60405180910390f35b610157610152366004610d69565b610333565b604051901515815260200161013b565b6003545b60405190815260200161013b565b610157610187366004610d2e565b61034b565b6040516012815260200161013b565b6101576101a9366004610d69565b61036f565b6101b66103ae565b005b6101b66101c6366004610d92565b6103eb565b60065460ff16610157565b61016b6101e4366004610cdb565b610422565b6101b6610441565b6101b66101ff366004610d69565b610475565b6101b661048e565b6000546040516001600160a01b03909116815260200161013b565b61012e6104c0565b61015761023d366004610d69565b6104cf565b610157610250366004610d69565b610561565b61016b610263366004610cfc565b6001600160a01b03918216600090815260026020908152604080832093909416825291909152205490565b6101b661029c366004610cdb565b61056f565b6060600480546102b090610e61565b80601f01602080910402602001604051908101604052809291908181526020018280546102dc90610e61565b80156103295780601f106102fe57610100808354040283529160200191610329565b820191906000526020600020905b81548152906001019060200180831161030c57829003601f168201915b5050505050905090565b600033610341818585610672565b5060019392505050565b600033610359858285610796565b610364858585610828565b506001949350505050565b3360008181526002602090815260408083206001600160a01b038716845290915281205490919061034190829086906103a9908790610e32565b610672565b6000546001600160a01b031633146103e15760405162461bcd60e51b81526004016103d890610dfd565b60405180910390fd5b6103e9610a01565b565b6000546001600160a01b031633146104155760405162461bcd60e51b81526004016103d890610dfd565b61041f3382610a94565b50565b6001600160a01b0381166000908152600160205260409020545b919050565b6000546001600160a01b0316331461046b5760405162461bcd60e51b81526004016103d890610dfd565b6103e96000610bee565b610480823383610796565b61048a8282610a94565b5050565b6000546001600160a01b031633146104b85760405162461bcd60e51b81526004016103d890610dfd565b6103e9610c3e565b6060600580546102b090610e61565b3360008181526002602090815260408083206001600160a01b0387168452909152812054909190838110156105545760405162461bcd60e51b815260206004820152602560248201527f45524332303a2064656372656173656420616c6c6f77616e63652062656c6f77604482015264207a65726f60d81b60648201526084016103d8565b6103648286868403610672565b600033610341818585610828565b6000546001600160a01b031633146105995760405162461bcd60e51b81526004016103d890610dfd565b6001600160a01b0381166105fe5760405162461bcd60e51b815260206004820152602660248201527f4f776e61626c653a206e6577206f776e657220697320746865207a65726f206160448201526564647265737360d01b60648201526084016103d8565b61041f81610bee565b60065460ff161561066d5760405162461bcd60e51b815260206004820152602a60248201527f45524332305061757361626c653a20746f6b656e207472616e736665722077686044820152691a5b19481c185d5cd95960b21b60648201526084016103d8565b505050565b6001600160a01b0383166106d45760405162461bcd60e51b8152602060048201526024808201527f45524332303a20617070726f76652066726f6d20746865207a65726f206164646044820152637265737360e01b60648201526084016103d8565b6001600160a01b0382166107355760405162461bcd60e51b815260206004820152602260248201527f45524332303a20617070726f766520746f20746865207a65726f206164647265604482015261737360f01b60648201526084016103d8565b6001600160a01b0383811660008181526002602090815260408083209487168084529482529182902085905590518481527f8c5be1e5ebec7d5bd14f71427d1e84f3dd0314c0f7b2291e5b200ac8c7c3b925910160405180910390a3505050565b6001600160a01b03838116600090815260026020908152604080832093861683529290522054600019811461082257818110156108155760405162461bcd60e51b815260206004820152601d60248201527f45524332303a20696e73756666696369656e7420616c6c6f77616e636500000060448201526064016103d8565b6108228484848403610672565b50505050565b6001600160a01b03831661088c5760405162461bcd60e51b815260206004820152602560248201527f45524332303a207472616e736665722066726f6d20746865207a65726f206164604482015264647265737360d81b60648201526084016103d8565b6001600160a01b0382166108ee5760405162461bcd60e51b815260206004820152602360248201527f45524332303a207472616e7366657220746f20746865207a65726f206164647260448201526265737360e81b60648201526084016103d8565b6108f9838383610cb9565b6001600160a01b038316600090815260016020526040902054818110156109715760405162461bcd60e51b815260206004820152602660248201527f45524332303a207472616e7366657220616d6f756e7420657863656564732062604482015265616c616e636560d01b60648201526084016103d8565b6001600160a01b038085166000908152600160205260408082208585039055918516815290812080548492906109a8908490610e32565b92505081905550826001600160a01b0316846001600160a01b03167fddf252ad1be2c89b69c2b068fc378daa952ba7f163c4a11628f55a4df523b3ef846040516109f491815260200190565b60405180910390a3610822565b60065460ff16610a4a5760405162461bcd60e51b815260206004820152601460248201527314185d5cd8589b194e881b9bdd081c185d5cd95960621b60448201526064016103d8565b6006805460ff191690557f5db9ee0a495bf2e6ff9c91a7834c1ba4fdd244a5e8aa4e537bd38aeae4b073aa335b6040516001600160a01b03909116815260200160405180910390a1565b6001600160a01b038216610af45760405162461bcd60e51b815260206004820152602160248201527f45524332303a206275726e2066726f6d20746865207a65726f206164647265736044820152607360f81b60648201526084016103d8565b610b0082600083610cb9565b6001600160a01b03821660009081526001602052604090205481811015610b745760405162461bcd60e51b815260206004820152602260248201527f45524332303a206275726e20616d6f756e7420657863656564732062616c616e604482015261636560f01b60648201526084016103d8565b6001600160a01b0383166000908152600160205260408120838303905560038054849290610ba3908490610e4a565b90915550506040518281526000906001600160a01b038516907fddf252ad1be2c89b69c2b068fc378daa952ba7f163c4a11628f55a4df523b3ef9060200160405180910390a361066d565b600080546001600160a01b038381166001600160a01b0319831681178455604051919092169283917f8be0079c531659141344cd1fd0a4f28419497f9722a3daafe3b4186f6b6457e09190a35050565b60065460ff1615610c845760405162461bcd60e51b815260206004820152601060248201526f14185d5cd8589b194e881c185d5cd95960821b60448201526064016103d8565b6006805460ff191660011790557f62e78cea01bee320cd4e420270b5ea74000d11b0c9f74754ebdbfc544b05a258610a773390565b610607838383610607565b80356001600160a01b038116811461043c57600080fd5b600060208284031215610cec578081fd5b610cf582610cc4565b9392505050565b60008060408385031215610d0e578081fd5b610d1783610cc4565b9150610d2560208401610cc4565b90509250929050565b600080600060608486031215610d42578081fd5b610d4b84610cc4565b9250610d5960208501610cc4565b9150604084013590509250925092565b60008060408385031215610d7b578182fd5b610d8483610cc4565b946020939093013593505050565b600060208284031215610da3578081fd5b5035919050565b6000602080835283518082850152825b81811015610dd657858101830151858201604001528201610dba565b81811115610de75783604083870101525b50601f01601f1916929092016040019392505050565b6020808252818101527f4f776e61626c653a2063616c6c6572206973206e6f7420746865206f776e6572604082015260600190565b60008219821115610e4557610e45610e9c565b500190565b600082821015610e5c57610e5c610e9c565b500390565b600281046001821680610e7557607f821691505b60208210811415610e9657634e487b7160e01b600052602260045260246000fd5b50919050565b634e487b7160e01b600052601160045260246000fdfea26469706673582212207129e1de993eddec55f0c73d91ce653cebf6b8f6fdc216fc1bc35bdd441fc0fa64736f6c63430008020033",
  "linkReferences": {},
  "deployedLinkReferences": {}
}