{
  "_format": "hh-sol-artifact-1",
  "contractName": "SportZchainToken",
  "sourceName": "contracts/tokens/SportZchainToken.sol",
  "abi": [
    {
      "inputs": [
        {
          "internalType": "string",
          "name": "_name",
          "type": "string"
        },
        {
          "internalType": "string",
          "name": "_symbol",
          "type": "string"
        },
        {
          "internalType": "uint8",
          "name": "_decimals",
          "type": "uint8"
        },
        {
          "internalType": "uint256",
          "name": "_totalSupply",
          "type": "uint256"
        }
      ],
      "stateMutability": "nonpayable",
      "type": "constructor"
    },
    {
      "anonymous": false,
      "inputs": [
        {
          "indexed": true,
          "internalType": "address",
          "name": "owner",
          "type": "address"
        },
        {
          "indexed": true,
          "internalType": "address",
          "name": "spender",
          "type": "address"
        },
        {
          "indexed": false,
          "internalType": "uint256",
          "name": "value",
          "type": "uint256"
        }
      ],
      "name": "Approval",
      "type": "event"
    },
    {
      "anonymous": false,
      "inputs": [
        {
          "indexed": true,
          "internalType": "address",
          "name": "previousOwner",
          "type": "address"
        },
        {
          "indexed": true,
          "internalType": "address",
          "name": "newOwner",
          "type": "address"
        }
      ],
      "name": "OwnershipTransferred",
      "type": "event"
    },
    {
      "anonymous": false,
      "inputs": [
        {
          "indexed": false,
          "internalType": "address",
          "name": "account",
          "type": "address"
        }
      ],
      "name": "Paused",
      "type": "event"
    },
    {
      "anonymous": false,
      "inputs": [
        {
          "indexed": true,
          "internalType": "bytes32",
          "name": "role",
          "type": "bytes32"
        },
        {
          "indexed": true,
          "internalType": "bytes32",
          "name": "previousAdminRole",
          "type": "bytes32"
        },
        {
          "indexed": true,
          "internalType": "bytes32",
          "name": "newAdminRole",
          "type": "bytes32"
        }
      ],
      "name": "RoleAdminChanged",
      "type": "event"
    },
    {
      "anonymous": false,
      "inputs": [
        {
          "indexed": true,
          "internalType": "bytes32",
          "name": "role",
          "type": "bytes32"
        },
        {
          "indexed": true,
          "internalType": "address",
          "name": "account",
          "type": "address"
        },
        {
          "indexed": true,
          "internalType": "address",
          "name": "sender",
          "type": "address"
        }
      ],
      "name": "RoleGranted",
      "type": "event"
    },
    {
      "anonymous": false,
      "inputs": [
        {
          "indexed": true,
          "internalType": "bytes32",
          "name": "role",
          "type": "bytes32"
        },
        {
          "indexed": true,
          "internalType": "address",
          "name": "account",
          "type": "address"
        },
        {
          "indexed": true,
          "internalType": "address",
          "name": "sender",
          "type": "address"
        }
      ],
      "name": "RoleRevoked",
      "type": "event"
    },
    {
      "anonymous": false,
      "inputs": [
        {
          "indexed": true,
          "internalType": "address",
          "name": "from",
          "type": "address"
        },
        {
          "indexed": true,
          "internalType": "address",
          "name": "to",
          "type": "address"
        },
        {
          "indexed": false,
          "internalType": "uint256",
          "name": "value",
          "type": "uint256"
        }
      ],
      "name": "Transfer",
      "type": "event"
    },
    {
      "anonymous": false,
      "inputs": [
        {
          "indexed": false,
          "internalType": "address",
          "name": "account",
          "type": "address"
        }
      ],
      "name": "Unpaused",
      "type": "event"
    },
    {
      "inputs": [],
      "name": "BURNER_ROLE",
      "outputs": [
        {
          "internalType": "bytes32",
          "name": "",
          "type": "bytes32"
        }
      ],
      "stateMutability": "view",
      "type": "function"
    },
    {
      "inputs": [],
      "name": "DEFAULT_ADMIN_ROLE",
      "outputs": [
        {
          "internalType": "bytes32",
          "name": "",
          "type": "bytes32"
        }
      ],
      "stateMutability": "view",
      "type": "function"
    },
    {
      "inputs": [
        {
          "internalType": "address",
          "name": "owner",
          "type": "address"
        },
        {
          "internalType": "address",
          "name": "spender",
          "type": "address"
        }
      ],
      "name": "allowance",
      "outputs": [
        {
          "internalType": "uint256",
          "name": "",
          "type": "uint256"
        }
      ],
      "stateMutability": "view",
      "type": "function"
    },
    {
      "inputs": [
        {
          "internalType": "address",
          "name": "spender",
          "type": "address"
        },
        {
          "internalType": "uint256",
          "name": "amount",
          "type": "uint256"
        }
      ],
      "name": "approve",
      "outputs": [
        {
          "internalType": "bool",
          "name": "",
          "type": "bool"
        }
      ],
      "stateMutability": "nonpayable",
      "type": "function"
    },
    {
      "inputs": [
        {
          "internalType": "address",
          "name": "account",
          "type": "address"
        }
      ],
      "name": "balanceOf",
      "outputs": [
        {
          "internalType": "uint256",
          "name": "",
          "type": "uint256"
        }
      ],
      "stateMutability": "view",
      "type": "function"
    },
    {
      "inputs": [
        {
          "internalType": "uint256",
          "name": "_amount",
          "type": "uint256"
        }
      ],
      "name": "burn",
      "outputs": [],
      "stateMutability": "nonpayable",
      "type": "function"
    },
    {
      "inputs": [
        {
          "internalType": "address",
          "name": "account",
          "type": "address"
        },
        {
          "internalType": "uint256",
          "name": "_amount",
          "type": "uint256"
        }
      ],
      "name": "burnFrom",
      "outputs": [],
      "stateMutability": "nonpayable",
      "type": "function"
    },
    {
      "inputs": [],
      "name": "decimals",
      "outputs": [
        {
          "internalType": "uint8",
          "name": "",
          "type": "uint8"
        }
      ],
      "stateMutability": "view",
      "type": "function"
    },
    {
      "inputs": [
        {
          "internalType": "address",
          "name": "spender",
          "type": "address"
        },
        {
          "internalType": "uint256",
          "name": "subtractedValue",
          "type": "uint256"
        }
      ],
      "name": "decreaseAllowance",
      "outputs": [
        {
          "internalType": "bool",
          "name": "",
          "type": "bool"
        }
      ],
      "stateMutability": "nonpayable",
      "type": "function"
    },
    {
      "inputs": [
        {
          "internalType": "bytes32",
          "name": "role",
          "type": "bytes32"
        }
      ],
      "name": "getRoleAdmin",
      "outputs": [
        {
          "internalType": "bytes32",
          "name": "",
          "type": "bytes32"
        }
      ],
      "stateMutability": "view",
      "type": "function"
    },
    {
      "inputs": [
        {
          "internalType": "bytes32",
          "name": "role",
          "type": "bytes32"
        },
        {
          "internalType": "address",
          "name": "account",
          "type": "address"
        }
      ],
      "name": "grantRole",
      "outputs": [],
      "stateMutability": "nonpayable",
      "type": "function"
    },
    {
      "inputs": [
        {
          "internalType": "bytes32",
          "name": "role",
          "type": "bytes32"
        },
        {
          "internalType": "address",
          "name": "account",
          "type": "address"
        }
      ],
      "name": "hasRole",
      "outputs": [
        {
          "internalType": "bool",
          "name": "",
          "type": "bool"
        }
      ],
      "stateMutability": "view",
      "type": "function"
    },
    {
      "inputs": [
        {
          "internalType": "address",
          "name": "spender",
          "type": "address"
        },
        {
          "internalType": "uint256",
          "name": "addedValue",
          "type": "uint256"
        }
      ],
      "name": "increaseAllowance",
      "outputs": [
        {
          "internalType": "bool",
          "name": "",
          "type": "bool"
        }
      ],
      "stateMutability": "nonpayable",
      "type": "function"
    },
    {
      "inputs": [],
      "name": "name",
      "outputs": [
        {
          "internalType": "string",
          "name": "",
          "type": "string"
        }
      ],
      "stateMutability": "view",
      "type": "function"
    },
    {
      "inputs": [],
      "name": "owner",
      "outputs": [
        {
          "internalType": "address",
          "name": "",
          "type": "address"
        }
      ],
      "stateMutability": "view",
      "type": "function"
    },
    {
      "inputs": [],
      "name": "pause",
      "outputs": [],
      "stateMutability": "nonpayable",
      "type": "function"
    },
    {
      "inputs": [],
      "name": "paused",
      "outputs": [
        {
          "internalType": "bool",
          "name": "",
          "type": "bool"
        }
      ],
      "stateMutability": "view",
      "type": "function"
    },
    {
      "inputs": [],
      "name": "renounceOwnership",
      "outputs": [],
      "stateMutability": "nonpayable",
      "type": "function"
    },
    {
      "inputs": [
        {
          "internalType": "bytes32",
          "name": "role",
          "type": "bytes32"
        },
        {
          "internalType": "address",
          "name": "account",
          "type": "address"
        }
      ],
      "name": "renounceRole",
      "outputs": [],
      "stateMutability": "nonpayable",
      "type": "function"
    },
    {
      "inputs": [
        {
          "internalType": "bytes32",
          "name": "role",
          "type": "bytes32"
        },
        {
          "internalType": "address",
          "name": "account",
          "type": "address"
        }
      ],
      "name": "revokeRole",
      "outputs": [],
      "stateMutability": "nonpayable",
      "type": "function"
    },
    {
      "inputs": [
        {
          "internalType": "bytes4",
          "name": "interfaceId",
          "type": "bytes4"
        }
      ],
      "name": "supportsInterface",
      "outputs": [
        {
          "internalType": "bool",
          "name": "",
          "type": "bool"
        }
      ],
      "stateMutability": "view",
      "type": "function"
    },
    {
      "inputs": [],
      "name": "symbol",
      "outputs": [
        {
          "internalType": "string",
          "name": "",
          "type": "string"
        }
      ],
      "stateMutability": "view",
      "type": "function"
    },
    {
      "inputs": [],
      "name": "totalSupply",
      "outputs": [
        {
          "internalType": "uint256",
          "name": "",
          "type": "uint256"
        }
      ],
      "stateMutability": "view",
      "type": "function"
    },
    {
      "inputs": [
        {
          "internalType": "address",
          "name": "to",
          "type": "address"
        },
        {
          "internalType": "uint256",
          "name": "amount",
          "type": "uint256"
        }
      ],
      "name": "transfer",
      "outputs": [
        {
          "internalType": "bool",
          "name": "",
          "type": "bool"
        }
      ],
      "stateMutability": "nonpayable",
      "type": "function"
    },
    {
      "inputs": [
        {
          "internalType": "address",
          "name": "from",
          "type": "address"
        },
        {
          "internalType": "address",
          "name": "to",
          "type": "address"
        },
        {
          "internalType": "uint256",
          "name": "amount",
          "type": "uint256"
        }
      ],
      "name": "transferFrom",
      "outputs": [
        {
          "internalType": "bool",
          "name": "",
          "type": "bool"
        }
      ],
      "stateMutability": "nonpayable",
      "type": "function"
    },
    {
      "inputs": [
        {
          "internalType": "address",
          "name": "newOwner",
          "type": "address"
        }
      ],
      "name": "transferOwnership",
      "outputs": [],
      "stateMutability": "nonpayable",
      "type": "function"
    },
    {
      "inputs": [],
      "name": "unpause",
      "outputs": [],
      "stateMutability": "nonpayable",
      "type": "function"
    }
  ],
  "bytecode": "0x60806040523480156200001157600080fd5b5060405162001d5a38038062001d5a8339810160408190526200003491620004a5565b83836200004133620000b7565b8151620000569060049060208501906200034c565b5080516200006c9060059060208401906200034c565b50506006805460ff1916905550620000a0336200008e60ff8516600a62000594565b6200009a908462000689565b62000107565b620000ad600033620001ff565b5050505062000714565b600080546001600160a01b038381166001600160a01b0319831681178455604051919092169283917f8be0079c531659141344cd1fd0a4f28419497f9722a3daafe3b4186f6b6457e09190a35050565b6001600160a01b038216620001635760405162461bcd60e51b815260206004820152601f60248201527f45524332303a206d696e7420746f20746865207a65726f20616464726573730060448201526064015b60405180910390fd5b62000171600083836200020b565b80600360008282546200018591906200052c565b90915550506001600160a01b03821660009081526001602052604081208054839290620001b49084906200052c565b90915550506040518181526001600160a01b038316906000907fddf252ad1be2c89b69c2b068fc378daa952ba7f163c4a11628f55a4df523b3ef9060200160405180910390a35b5050565b620001fb828262000228565b62000223838383620002cc60201b620009071760201c565b505050565b60008281526007602090815260408083206001600160a01b038516845290915290205460ff16620001fb5760008281526007602090815260408083206001600160a01b03851684529091529020805460ff19166001179055620002883390565b6001600160a01b0316816001600160a01b0316837f2f8788117e7eff1d82e926ec794901d17c78024a50270940304540a733656f0d60405160405180910390a45050565b620002e48383836200022360201b6200051a1760201c565b60065460ff1615620002235760405162461bcd60e51b815260206004820152602a60248201527f45524332305061757361626c653a20746f6b656e207472616e736665722077686044820152691a5b19481c185d5cd95960b21b60648201526084016200015a565b8280546200035a90620006ab565b90600052602060002090601f0160209004810192826200037e5760008555620003c9565b82601f106200039957805160ff1916838001178555620003c9565b82800160010185558215620003c9579182015b82811115620003c9578251825591602001919060010190620003ac565b50620003d7929150620003db565b5090565b5b80821115620003d75760008155600101620003dc565b600082601f83011262000403578081fd5b81516001600160401b0380821115620004205762000420620006fe565b604051601f8301601f19908116603f011681019082821181831017156200044b576200044b620006fe565b8160405283815260209250868385880101111562000467578485fd5b8491505b838210156200048a57858201830151818301840152908201906200046b565b838211156200049b57848385830101525b9695505050505050565b60008060008060808587031215620004bb578384fd5b84516001600160401b0380821115620004d2578586fd5b620004e088838901620003f2565b95506020870151915080821115620004f6578485fd5b506200050587828801620003f2565b935050604085015160ff811681146200051c578283fd5b6060959095015193969295505050565b60008219821115620005425762000542620006e8565b500190565b80825b60018086116200055b57506200058b565b818704821115620005705762000570620006e8565b808616156200057e57918102915b9490941c9380026200054a565b94509492505050565b6000620005a56000198484620005ac565b9392505050565b600082620005bd57506001620005a5565b81620005cc57506000620005a5565b8160018114620005e55760028114620005f05762000624565b6001915050620005a5565b60ff841115620006045762000604620006e8565b6001841b9150848211156200061d576200061d620006e8565b50620005a5565b5060208310610133831016604e8410600b84101617156200065c575081810a83811115620006565762000656620006e8565b620005a5565b6200066b848484600162000547565b808604821115620006805762000680620006e8565b02949350505050565b6000816000190483118215151615620006a657620006a6620006e8565b500290565b600281046001821680620006c057607f821691505b60208210811415620006e257634e487b7160e01b600052602260045260246000fd5b50919050565b634e487b7160e01b600052601160045260246000fd5b634e487b7160e01b600052604160045260246000fd5b61163680620007246000396000f3fe608060405234801561001057600080fd5b50600436106101a95760003560e01c80635c975abb116100f957806395d89b4111610097578063a9059cbb11610071578063a9059cbb1461037a578063d547741f1461038d578063dd62ed3e146103a0578063f2fde38b146103d9576101a9565b806395d89b4114610357578063a217fddf1461035f578063a457c2d714610367576101a9565b806379cc6790116100d357806379cc67901461030e5780638456cb59146103215780638da5cb5b1461032957806391d1485414610344576101a9565b80635c975abb146102d257806370a08231146102dd578063715018a614610306576101a9565b8063282c51f31161016657806336568abe1161014057806336568abe1461029157806339509351146102a45780633f4ba83a146102b757806342966c68146102bf576101a9565b8063282c51f3146102465780632f2ff15d1461026d578063313ce56714610282576101a9565b806301ffc9a7146101ae57806306fdde03146101d6578063095ea7b3146101eb57806318160ddd146101fe57806323b872dd14610210578063248a9ca314610223575b600080fd5b6101c16101bc366004611419565b6103ec565b60405190151581526020015b60405180910390f35b6101de610425565b6040516101cd91906114b6565b6101c16101f93660046113b6565b6104b7565b6003545b6040519081526020016101cd565b6101c161021e36600461137b565b6104cf565b6102026102313660046113df565b60009081526007602052604090206001015490565b6102027f3c11d16cbaffd01df69ce1c404f6340ee057498f5f00246190ea54220576a84881565b61028061027b3660046113f7565b6104f3565b005b604051601281526020016101cd565b61028061029f3660046113f7565b61051f565b6101c16102b23660046113b6565b6105a2565b6102806105e1565b6102806102cd3660046113df565b610615565b60065460ff166101c1565b6102026102eb36600461132f565b6001600160a01b031660009081526001602052604090205490565b610280610690565b61028061031c3660046113b6565b6106c4565b61028061073d565b6000546040516001600160a01b0390911681526020016101cd565b6101c16103523660046113f7565b61076f565b6101de61079a565b610202600081565b6101c16103753660046113b6565b6107a9565b6101c16103883660046113b6565b61083b565b61028061039b3660046113f7565b610849565b6102026103ae366004611349565b6001600160a01b03918216600090815260026020908152604080832093909416825291909152205490565b6102806103e736600461132f565b61086f565b60006001600160e01b03198216637965db0b60e01b148061041d57506301ffc9a760e01b6001600160e01b03198316145b90505b919050565b606060048054610434906115af565b80601f0160208091040260200160405190810160405280929190818152602001828054610460906115af565b80156104ad5780601f10610482576101008083540402835291602001916104ad565b820191906000526020600020905b81548152906001019060200180831161049057829003601f168201915b5050505050905090565b6000336104c581858561096d565b5060019392505050565b6000336104dd858285610a91565b6104e8858585610b23565b506001949350505050565b60008281526007602052604090206001015461051081335b610cfc565b61051a8383610d60565b505050565b6001600160a01b03811633146105945760405162461bcd60e51b815260206004820152602f60248201527f416363657373436f6e74726f6c3a2063616e206f6e6c792072656e6f756e636560448201526e103937b632b9903337b91039b2b63360891b60648201526084015b60405180910390fd5b61059e8282610de6565b5050565b3360008181526002602090815260408083206001600160a01b03871684529091528120549091906104c590829086906105dc90879061151e565b61096d565b6000546001600160a01b0316331461060b5760405162461bcd60e51b815260040161058b906114e9565b610613610e4d565b565b61063f7f3c11d16cbaffd01df69ce1c404f6340ee057498f5f00246190ea54220576a8483361076f565b6106845760405162461bcd60e51b815260206004820152601660248201527521b0b63632b91034b9903737ba103090313ab93732b960511b604482015260640161058b565b61068d81610ee0565b50565b6000546001600160a01b031633146106ba5760405162461bcd60e51b815260040161058b906114e9565b6106136000610eea565b6106ee7f3c11d16cbaffd01df69ce1c404f6340ee057498f5f00246190ea54220576a8483361076f565b6107335760405162461bcd60e51b815260206004820152601660248201527521b0b63632b91034b9903737ba103090313ab93732b960511b604482015260640161058b565b61059e8282610f3a565b6000546001600160a01b031633146107675760405162461bcd60e51b815260040161058b906114e9565b610613610f4f565b60009182526007602090815260408084206001600160a01b0393909316845291905290205460ff1690565b606060058054610434906115af565b3360008181526002602090815260408083206001600160a01b03871684529091528120549091908381101561082e5760405162461bcd60e51b815260206004820152602560248201527f45524332303a2064656372656173656420616c6c6f77616e63652062656c6f77604482015264207a65726f60d81b606482015260840161058b565b6104e8828686840361096d565b6000336104c5818585610b23565b600082815260076020526040902060010154610865813361050b565b61051a8383610de6565b6000546001600160a01b031633146108995760405162461bcd60e51b815260040161058b906114e9565b6001600160a01b0381166108fe5760405162461bcd60e51b815260206004820152602660248201527f4f776e61626c653a206e6577206f776e657220697320746865207a65726f206160448201526564647265737360d01b606482015260840161058b565b61068d81610eea565b60065460ff161561051a5760405162461bcd60e51b815260206004820152602a60248201527f45524332305061757361626c653a20746f6b656e207472616e736665722077686044820152691a5b19481c185d5cd95960b21b606482015260840161058b565b6001600160a01b0383166109cf5760405162461bcd60e51b8152602060048201526024808201527f45524332303a20617070726f76652066726f6d20746865207a65726f206164646044820152637265737360e01b606482015260840161058b565b6001600160a01b038216610a305760405162461bcd60e51b815260206004820152602260248201527f45524332303a20617070726f766520746f20746865207a65726f206164647265604482015261737360f01b606482015260840161058b565b6001600160a01b0383811660008181526002602090815260408083209487168084529482529182902085905590518481527f8c5be1e5ebec7d5bd14f71427d1e84f3dd0314c0f7b2291e5b200ac8c7c3b925910160405180910390a3505050565b6001600160a01b038381166000908152600260209081526040808320938616835292905220546000198114610b1d5781811015610b105760405162461bcd60e51b815260206004820152601d60248201527f45524332303a20696e73756666696369656e7420616c6c6f77616e6365000000604482015260640161058b565b610b1d848484840361096d565b50505050565b6001600160a01b038316610b875760405162461bcd60e51b815260206004820152602560248201527f45524332303a207472616e736665722066726f6d20746865207a65726f206164604482015264647265737360d81b606482015260840161058b565b6001600160a01b038216610be95760405162461bcd60e51b815260206004820152602360248201527f45524332303a207472616e7366657220746f20746865207a65726f206164647260448201526265737360e81b606482015260840161058b565b610bf4838383610fca565b6001600160a01b03831660009081526001602052604090205481811015610c6c5760405162461bcd60e51b815260206004820152602660248201527f45524332303a207472616e7366657220616d6f756e7420657863656564732062604482015265616c616e636560d01b606482015260840161058b565b6001600160a01b03808516600090815260016020526040808220858503905591851681529081208054849290610ca390849061151e565b92505081905550826001600160a01b0316846001600160a01b03167fddf252ad1be2c89b69c2b068fc378daa952ba7f163c4a11628f55a4df523b3ef84604051610cef91815260200190565b60405180910390a3610b1d565b610d06828261076f565b61059e57610d1e816001600160a01b03166014610fd5565b610d29836020610fd5565b604051602001610d3a929190611441565b60408051601f198184030181529082905262461bcd60e51b825261058b916004016114b6565b610d6a828261076f565b61059e5760008281526007602090815260408083206001600160a01b03851684529091529020805460ff19166001179055610da23390565b6001600160a01b0316816001600160a01b0316837f2f8788117e7eff1d82e926ec794901d17c78024a50270940304540a733656f0d60405160405180910390a45050565b610df0828261076f565b1561059e5760008281526007602090815260408083206001600160a01b0385168085529252808320805460ff1916905551339285917ff6391f5c32d9c69d2a47ea670b442974b53935d1edc7fd64eb21e047a839171b9190a45050565b60065460ff16610e965760405162461bcd60e51b815260206004820152601460248201527314185d5cd8589b194e881b9bdd081c185d5cd95960621b604482015260640161058b565b6006805460ff191690557f5db9ee0a495bf2e6ff9c91a7834c1ba4fdd244a5e8aa4e537bd38aeae4b073aa335b6040516001600160a01b03909116815260200160405180910390a1565b61068d33826111be565b600080546001600160a01b038381166001600160a01b0319831681178455604051919092169283917f8be0079c531659141344cd1fd0a4f28419497f9722a3daafe3b4186f6b6457e09190a35050565b610f45823383610a91565b61059e82826111be565b60065460ff1615610f955760405162461bcd60e51b815260206004820152601060248201526f14185d5cd8589b194e881c185d5cd95960821b604482015260640161058b565b6006805460ff191660011790557f62e78cea01bee320cd4e420270b5ea74000d11b0c9f74754ebdbfc544b05a258610ec33390565b61051a838383610907565b60606000610fe4836002611536565b610fef90600261151e565b67ffffffffffffffff81111561101557634e487b7160e01b600052604160045260246000fd5b6040519080825280601f01601f19166020018201604052801561103f576020820181803683370190505b509050600360fc1b8160008151811061106857634e487b7160e01b600052603260045260246000fd5b60200101906001600160f81b031916908160001a905350600f60fb1b816001815181106110a557634e487b7160e01b600052603260045260246000fd5b60200101906001600160f81b031916908160001a90535060006110c9846002611536565b6110d490600161151e565b90505b6001811115611168576f181899199a1a9b1b9c1cb0b131b232b360811b85600f166010811061111657634e487b7160e01b600052603260045260246000fd5b1a60f81b82828151811061113a57634e487b7160e01b600052603260045260246000fd5b60200101906001600160f81b031916908160001a90535060049490941c9361116181611598565b90506110d7565b5083156111b75760405162461bcd60e51b815260206004820181905260248201527f537472696e67733a20686578206c656e67746820696e73756666696369656e74604482015260640161058b565b9392505050565b6001600160a01b03821661121e5760405162461bcd60e51b815260206004820152602160248201527f45524332303a206275726e2066726f6d20746865207a65726f206164647265736044820152607360f81b606482015260840161058b565b61122a82600083610fca565b6001600160a01b0382166000908152600160205260409020548181101561129e5760405162461bcd60e51b815260206004820152602260248201527f45524332303a206275726e20616d6f756e7420657863656564732062616c616e604482015261636560f01b606482015260840161058b565b6001600160a01b03831660009081526001602052604081208383039055600380548492906112cd908490611555565b90915550506040518281526000906001600160a01b038516907fddf252ad1be2c89b69c2b068fc378daa952ba7f163c4a11628f55a4df523b3ef9060200160405180910390a361051a565b80356001600160a01b038116811461042057600080fd5b600060208284031215611340578081fd5b6111b782611318565b6000806040838503121561135b578081fd5b61136483611318565b915061137260208401611318565b90509250929050565b60008060006060848603121561138f578081fd5b61139884611318565b92506113a660208501611318565b9150604084013590509250925092565b600080604083850312156113c8578182fd5b6113d183611318565b946020939093013593505050565b6000602082840312156113f0578081fd5b5035919050565b60008060408385031215611409578182fd5b8235915061137260208401611318565b60006020828403121561142a578081fd5b81356001600160e01b0319811681146111b7578182fd5b60007f416363657373436f6e74726f6c3a206163636f756e74200000000000000000008252835161147981601785016020880161156c565b7001034b99036b4b9b9b4b733903937b6329607d1b60179184019182015283516114aa81602884016020880161156c565b01602801949350505050565b60006020825282518060208401526114d581604085016020870161156c565b601f01601f19169190910160400192915050565b6020808252818101527f4f776e61626c653a2063616c6c6572206973206e6f7420746865206f776e6572604082015260600190565b60008219821115611531576115316115ea565b500190565b6000816000190483118215151615611550576115506115ea565b500290565b600082821015611567576115676115ea565b500390565b60005b8381101561158757818101518382015260200161156f565b83811115610b1d5750506000910152565b6000816115a7576115a76115ea565b506000190190565b6002810460018216806115c357607f821691505b602082108114156115e457634e487b7160e01b600052602260045260246000fd5b50919050565b634e487b7160e01b600052601160045260246000fdfea2646970667358221220e6b5281c143ca5635cc838dacc644a1919a911c8ffc759c7bb2b5572f3df90da64736f6c63430008020033",
  "linkReferences": {},
  "deployedLinkReferences": {}
}