{
  "_format": "hh-sol-artifact-1",
  "contractName": "SportZchainToken",
  "sourceName": "contracts/tokens/SportZchainToken.sol",
  "abi": [
    {
      "inputs": [
        {
          "internalType": "string",
          "name": "_name",
          "type": "string"
        },
        {
          "internalType": "string",
          "name": "_symbol",
          "type": "string"
        },
        {
          "internalType": "uint8",
          "name": "_decimals",
          "type": "uint8"
        },
        {
          "internalType": "uint256",
          "name": "_totalSupply",
          "type": "uint256"
        }
      ],
      "stateMutability": "nonpayable",
      "type": "constructor"
    },
    {
      "anonymous": false,
      "inputs": [
        {
          "indexed": true,
          "internalType": "address",
          "name": "owner",
          "type": "address"
        },
        {
          "indexed": true,
          "internalType": "address",
          "name": "spender",
          "type": "address"
        },
        {
          "indexed": false,
          "internalType": "uint256",
          "name": "value",
          "type": "uint256"
        }
      ],
      "name": "Approval",
      "type": "event"
    },
    {
      "anonymous": false,
      "inputs": [
        {
          "indexed": true,
          "internalType": "address",
          "name": "previousOwner",
          "type": "address"
        },
        {
          "indexed": true,
          "internalType": "address",
          "name": "newOwner",
          "type": "address"
        }
      ],
      "name": "OwnershipTransferred",
      "type": "event"
    },
    {
      "anonymous": false,
      "inputs": [
        {
          "indexed": false,
          "internalType": "address",
          "name": "account",
          "type": "address"
        }
      ],
      "name": "Paused",
      "type": "event"
    },
    {
      "anonymous": false,
      "inputs": [
        {
          "indexed": true,
          "internalType": "bytes32",
          "name": "role",
          "type": "bytes32"
        },
        {
          "indexed": true,
          "internalType": "bytes32",
          "name": "previousAdminRole",
          "type": "bytes32"
        },
        {
          "indexed": true,
          "internalType": "bytes32",
          "name": "newAdminRole",
          "type": "bytes32"
        }
      ],
      "name": "RoleAdminChanged",
      "type": "event"
    },
    {
      "anonymous": false,
      "inputs": [
        {
          "indexed": true,
          "internalType": "bytes32",
          "name": "role",
          "type": "bytes32"
        },
        {
          "indexed": true,
          "internalType": "address",
          "name": "account",
          "type": "address"
        },
        {
          "indexed": true,
          "internalType": "address",
          "name": "sender",
          "type": "address"
        }
      ],
      "name": "RoleGranted",
      "type": "event"
    },
    {
      "anonymous": false,
      "inputs": [
        {
          "indexed": true,
          "internalType": "bytes32",
          "name": "role",
          "type": "bytes32"
        },
        {
          "indexed": true,
          "internalType": "address",
          "name": "account",
          "type": "address"
        },
        {
          "indexed": true,
          "internalType": "address",
          "name": "sender",
          "type": "address"
        }
      ],
      "name": "RoleRevoked",
      "type": "event"
    },
    {
      "anonymous": false,
      "inputs": [
        {
          "indexed": true,
          "internalType": "address",
          "name": "from",
          "type": "address"
        },
        {
          "indexed": true,
          "internalType": "address",
          "name": "to",
          "type": "address"
        },
        {
          "indexed": false,
          "internalType": "uint256",
          "name": "value",
          "type": "uint256"
        }
      ],
      "name": "Transfer",
      "type": "event"
    },
    {
      "anonymous": false,
      "inputs": [
        {
          "indexed": false,
          "internalType": "address",
          "name": "account",
          "type": "address"
        }
      ],
      "name": "Unpaused",
      "type": "event"
    },
    {
      "inputs": [],
      "name": "BURNER_ROLE",
      "outputs": [
        {
          "internalType": "bytes32",
          "name": "",
          "type": "bytes32"
        }
      ],
      "stateMutability": "view",
      "type": "function"
    },
    {
      "inputs": [],
      "name": "DEFAULT_ADMIN_ROLE",
      "outputs": [
        {
          "internalType": "bytes32",
          "name": "",
          "type": "bytes32"
        }
      ],
      "stateMutability": "view",
      "type": "function"
    },
    {
      "inputs": [],
      "name": "PAUSER_ROLE",
      "outputs": [
        {
          "internalType": "bytes32",
          "name": "",
          "type": "bytes32"
        }
      ],
      "stateMutability": "view",
      "type": "function"
    },
    {
      "inputs": [
        {
          "internalType": "address",
          "name": "owner",
          "type": "address"
        },
        {
          "internalType": "address",
          "name": "spender",
          "type": "address"
        }
      ],
      "name": "allowance",
      "outputs": [
        {
          "internalType": "uint256",
          "name": "",
          "type": "uint256"
        }
      ],
      "stateMutability": "view",
      "type": "function"
    },
    {
      "inputs": [
        {
          "internalType": "address",
          "name": "spender",
          "type": "address"
        },
        {
          "internalType": "uint256",
          "name": "amount",
          "type": "uint256"
        }
      ],
      "name": "approve",
      "outputs": [
        {
          "internalType": "bool",
          "name": "",
          "type": "bool"
        }
      ],
      "stateMutability": "nonpayable",
      "type": "function"
    },
    {
      "inputs": [
        {
          "internalType": "address",
          "name": "account",
          "type": "address"
        }
      ],
      "name": "balanceOf",
      "outputs": [
        {
          "internalType": "uint256",
          "name": "",
          "type": "uint256"
        }
      ],
      "stateMutability": "view",
      "type": "function"
    },
    {
      "inputs": [
        {
          "internalType": "uint256",
          "name": "_amount",
          "type": "uint256"
        }
      ],
      "name": "burn",
      "outputs": [],
      "stateMutability": "nonpayable",
      "type": "function"
    },
    {
      "inputs": [
        {
          "internalType": "address",
          "name": "account",
          "type": "address"
        },
        {
          "internalType": "uint256",
          "name": "_amount",
          "type": "uint256"
        }
      ],
      "name": "burnFrom",
      "outputs": [],
      "stateMutability": "nonpayable",
      "type": "function"
    },
    {
      "inputs": [],
      "name": "decimals",
      "outputs": [
        {
          "internalType": "uint8",
          "name": "",
          "type": "uint8"
        }
      ],
      "stateMutability": "view",
      "type": "function"
    },
    {
      "inputs": [
        {
          "internalType": "address",
          "name": "spender",
          "type": "address"
        },
        {
          "internalType": "uint256",
          "name": "subtractedValue",
          "type": "uint256"
        }
      ],
      "name": "decreaseAllowance",
      "outputs": [
        {
          "internalType": "bool",
          "name": "",
          "type": "bool"
        }
      ],
      "stateMutability": "nonpayable",
      "type": "function"
    },
    {
      "inputs": [
        {
          "internalType": "bytes32",
          "name": "role",
          "type": "bytes32"
        }
      ],
      "name": "getRoleAdmin",
      "outputs": [
        {
          "internalType": "bytes32",
          "name": "",
          "type": "bytes32"
        }
      ],
      "stateMutability": "view",
      "type": "function"
    },
    {
      "inputs": [
        {
          "internalType": "bytes32",
          "name": "role",
          "type": "bytes32"
        },
        {
          "internalType": "address",
          "name": "account",
          "type": "address"
        }
      ],
      "name": "grantRole",
      "outputs": [],
      "stateMutability": "nonpayable",
      "type": "function"
    },
    {
      "inputs": [
        {
          "internalType": "bytes32",
          "name": "role",
          "type": "bytes32"
        },
        {
          "internalType": "address",
          "name": "account",
          "type": "address"
        }
      ],
      "name": "hasRole",
      "outputs": [
        {
          "internalType": "bool",
          "name": "",
          "type": "bool"
        }
      ],
      "stateMutability": "view",
      "type": "function"
    },
    {
      "inputs": [
        {
          "internalType": "address",
          "name": "spender",
          "type": "address"
        },
        {
          "internalType": "uint256",
          "name": "addedValue",
          "type": "uint256"
        }
      ],
      "name": "increaseAllowance",
      "outputs": [
        {
          "internalType": "bool",
          "name": "",
          "type": "bool"
        }
      ],
      "stateMutability": "nonpayable",
      "type": "function"
    },
    {
      "inputs": [],
      "name": "name",
      "outputs": [
        {
          "internalType": "string",
          "name": "",
          "type": "string"
        }
      ],
      "stateMutability": "view",
      "type": "function"
    },
    {
      "inputs": [],
      "name": "owner",
      "outputs": [
        {
          "internalType": "address",
          "name": "",
          "type": "address"
        }
      ],
      "stateMutability": "view",
      "type": "function"
    },
    {
      "inputs": [],
      "name": "pause",
      "outputs": [],
      "stateMutability": "nonpayable",
      "type": "function"
    },
    {
      "inputs": [],
      "name": "paused",
      "outputs": [
        {
          "internalType": "bool",
          "name": "",
          "type": "bool"
        }
      ],
      "stateMutability": "view",
      "type": "function"
    },
    {
      "inputs": [],
      "name": "renounceOwnership",
      "outputs": [],
      "stateMutability": "nonpayable",
      "type": "function"
    },
    {
      "inputs": [
        {
          "internalType": "bytes32",
          "name": "role",
          "type": "bytes32"
        },
        {
          "internalType": "address",
          "name": "account",
          "type": "address"
        }
      ],
      "name": "renounceRole",
      "outputs": [],
      "stateMutability": "nonpayable",
      "type": "function"
    },
    {
      "inputs": [
        {
          "internalType": "bytes32",
          "name": "role",
          "type": "bytes32"
        },
        {
          "internalType": "address",
          "name": "account",
          "type": "address"
        }
      ],
      "name": "revokeRole",
      "outputs": [],
      "stateMutability": "nonpayable",
      "type": "function"
    },
    {
      "inputs": [
        {
          "internalType": "bytes4",
          "name": "interfaceId",
          "type": "bytes4"
        }
      ],
      "name": "supportsInterface",
      "outputs": [
        {
          "internalType": "bool",
          "name": "",
          "type": "bool"
        }
      ],
      "stateMutability": "view",
      "type": "function"
    },
    {
      "inputs": [],
      "name": "symbol",
      "outputs": [
        {
          "internalType": "string",
          "name": "",
          "type": "string"
        }
      ],
      "stateMutability": "view",
      "type": "function"
    },
    {
      "inputs": [],
      "name": "totalSupply",
      "outputs": [
        {
          "internalType": "uint256",
          "name": "",
          "type": "uint256"
        }
      ],
      "stateMutability": "view",
      "type": "function"
    },
    {
      "inputs": [
        {
          "internalType": "address",
          "name": "to",
          "type": "address"
        },
        {
          "internalType": "uint256",
          "name": "amount",
          "type": "uint256"
        }
      ],
      "name": "transfer",
      "outputs": [
        {
          "internalType": "bool",
          "name": "",
          "type": "bool"
        }
      ],
      "stateMutability": "nonpayable",
      "type": "function"
    },
    {
      "inputs": [
        {
          "internalType": "address",
          "name": "from",
          "type": "address"
        },
        {
          "internalType": "address",
          "name": "to",
          "type": "address"
        },
        {
          "internalType": "uint256",
          "name": "amount",
          "type": "uint256"
        }
      ],
      "name": "transferFrom",
      "outputs": [
        {
          "internalType": "bool",
          "name": "",
          "type": "bool"
        }
      ],
      "stateMutability": "nonpayable",
      "type": "function"
    },
    {
      "inputs": [
        {
          "internalType": "address",
          "name": "newOwner",
          "type": "address"
        }
      ],
      "name": "transferOwnership",
      "outputs": [],
      "stateMutability": "nonpayable",
      "type": "function"
    },
    {
      "inputs": [],
      "name": "unpause",
      "outputs": [],
      "stateMutability": "nonpayable",
      "type": "function"
    }
  ],
  "bytecode": "0x60806040523480156200001157600080fd5b5060405162001e5138038062001e518339810160408190526200003491620004a5565b83836200004133620000b7565b8151620000569060049060208501906200034c565b5080516200006c9060059060208401906200034c565b50506006805460ff1916905550620000a0336200008e60ff8516600a62000594565b6200009a908462000689565b62000107565b620000ad600033620001ff565b5050505062000714565b600080546001600160a01b038381166001600160a01b0319831681178455604051919092169283917f8be0079c531659141344cd1fd0a4f28419497f9722a3daafe3b4186f6b6457e09190a35050565b6001600160a01b038216620001635760405162461bcd60e51b815260206004820152601f60248201527f45524332303a206d696e7420746f20746865207a65726f20616464726573730060448201526064015b60405180910390fd5b62000171600083836200020b565b80600360008282546200018591906200052c565b90915550506001600160a01b03821660009081526001602052604081208054839290620001b49084906200052c565b90915550506040518181526001600160a01b038316906000907fddf252ad1be2c89b69c2b068fc378daa952ba7f163c4a11628f55a4df523b3ef9060200160405180910390a35b5050565b620001fb828262000228565b62000223838383620002cc60201b62000a331760201c565b505050565b60008281526007602090815260408083206001600160a01b038516845290915290205460ff16620001fb5760008281526007602090815260408083206001600160a01b03851684529091529020805460ff19166001179055620002883390565b6001600160a01b0316816001600160a01b0316837f2f8788117e7eff1d82e926ec794901d17c78024a50270940304540a733656f0d60405160405180910390a45050565b620002e48383836200022360201b6200055c1760201c565b60065460ff1615620002235760405162461bcd60e51b815260206004820152602a60248201527f45524332305061757361626c653a20746f6b656e207472616e736665722077686044820152691a5b19481c185d5cd95960b21b60648201526084016200015a565b8280546200035a90620006ab565b90600052602060002090601f0160209004810192826200037e5760008555620003c9565b82601f106200039957805160ff1916838001178555620003c9565b82800160010185558215620003c9579182015b82811115620003c9578251825591602001919060010190620003ac565b50620003d7929150620003db565b5090565b5b80821115620003d75760008155600101620003dc565b600082601f83011262000403578081fd5b81516001600160401b0380821115620004205762000420620006fe565b604051601f8301601f19908116603f011681019082821181831017156200044b576200044b620006fe565b8160405283815260209250868385880101111562000467578485fd5b8491505b838210156200048a57858201830151818301840152908201906200046b565b838211156200049b57848385830101525b9695505050505050565b60008060008060808587031215620004bb578384fd5b84516001600160401b0380821115620004d2578586fd5b620004e088838901620003f2565b95506020870151915080821115620004f6578485fd5b506200050587828801620003f2565b935050604085015160ff811681146200051c578283fd5b6060959095015193969295505050565b60008219821115620005425762000542620006e8565b500190565b80825b60018086116200055b57506200058b565b818704821115620005705762000570620006e8565b808616156200057e57918102915b9490941c9380026200054a565b94509492505050565b6000620005a56000198484620005ac565b9392505050565b600082620005bd57506001620005a5565b81620005cc57506000620005a5565b8160018114620005e55760028114620005f05762000624565b6001915050620005a5565b60ff841115620006045762000604620006e8565b6001841b9150848211156200061d576200061d620006e8565b50620005a5565b5060208310610133831016604e8410600b84101617156200065c575081810a83811115620006565762000656620006e8565b620005a5565b6200066b848484600162000547565b808604821115620006805762000680620006e8565b02949350505050565b6000816000190483118215151615620006a657620006a6620006e8565b500290565b600281046001821680620006c057607f821691505b60208210811415620006e257634e487b7160e01b600052602260045260246000fd5b50919050565b634e487b7160e01b600052601160045260246000fd5b634e487b7160e01b600052604160045260246000fd5b61172d80620007246000396000f3fe608060405234801561001057600080fd5b50600436106101c45760003560e01c806370a08231116100f9578063a217fddf11610097578063d547741f11610071578063d547741f146103a8578063dd62ed3e146103bb578063e63ab1e9146103f4578063f2fde38b1461041b576101c4565b8063a217fddf1461037a578063a457c2d714610382578063a9059cbb14610395576101c4565b80638456cb59116100d35780638456cb591461033c5780638da5cb5b1461034457806391d148541461035f57806395d89b4114610372576101c4565b806370a08231146102f8578063715018a61461032157806379cc679014610329576101c4565b80632f2ff15d11610166578063395093511161014057806339509351146102bf5780633f4ba83a146102d257806342966c68146102da5780635c975abb146102ed576101c4565b80632f2ff15d14610288578063313ce5671461029d57806336568abe146102ac576101c4565b806318160ddd116101a257806318160ddd1461021957806323b872dd1461022b578063248a9ca31461023e578063282c51f314610261576101c4565b806301ffc9a7146101c957806306fdde03146101f1578063095ea7b314610206575b600080fd5b6101dc6101d7366004611545565b61042e565b60405190151581526020015b60405180910390f35b6101f9610467565b6040516101e891906115e2565b6101dc6102143660046114e2565b6104f9565b6003545b6040519081526020016101e8565b6101dc6102393660046114a7565b610511565b61021d61024c36600461150b565b60009081526007602052604090206001015490565b61021d7f3c11d16cbaffd01df69ce1c404f6340ee057498f5f00246190ea54220576a84881565b61029b610296366004611523565b610535565b005b604051601281526020016101e8565b61029b6102ba366004611523565b610561565b6101dc6102cd3660046114e2565b6105e4565b61029b610623565b61029b6102e836600461150b565b61069c565b60065460ff166101dc565b61021d61030636600461145b565b6001600160a01b031660009081526001602052604090205490565b61029b610717565b61029b6103373660046114e2565b61077b565b61029b6107f4565b6000546040516001600160a01b0390911681526020016101e8565b6101dc61036d366004611523565b61086b565b6101f9610896565b61021d600081565b6101dc6103903660046114e2565b6108a5565b6101dc6103a33660046114e2565b610937565b61029b6103b6366004611523565b610945565b61021d6103c9366004611475565b6001600160a01b03918216600090815260026020908152604080832093909416825291909152205490565b61021d7f65d7a28e3265b37a6474929f336521b332c1681b933f6cb9f3376673440d862a81565b61029b61042936600461145b565b61096b565b60006001600160e01b03198216637965db0b60e01b148061045f57506301ffc9a760e01b6001600160e01b03198316145b90505b919050565b606060048054610476906116a6565b80601f01602080910402602001604051908101604052809291908181526020018280546104a2906116a6565b80156104ef5780601f106104c4576101008083540402835291602001916104ef565b820191906000526020600020905b8154815290600101906020018083116104d257829003601f168201915b5050505050905090565b600033610507818585610a99565b5060019392505050565b60003361051f858285610bbd565b61052a858585610c4f565b506001949350505050565b60008281526007602052604090206001015461055281335b610e28565b61055c8383610e8c565b505050565b6001600160a01b03811633146105d65760405162461bcd60e51b815260206004820152602f60248201527f416363657373436f6e74726f6c3a2063616e206f6e6c792072656e6f756e636560448201526e103937b632b9903337b91039b2b63360891b60648201526084015b60405180910390fd5b6105e08282610f12565b5050565b3360008181526002602090815260408083206001600160a01b0387168452909152812054909190610507908290869061061e908790611615565b610a99565b61064d7f65d7a28e3265b37a6474929f336521b332c1681b933f6cb9f3376673440d862a3361086b565b6106925760405162461bcd60e51b815260206004820152601660248201527521b0b63632b91034b9903737ba1030903830bab9b2b960511b60448201526064016105cd565b61069a610f79565b565b6106c67f3c11d16cbaffd01df69ce1c404f6340ee057498f5f00246190ea54220576a8483361086b565b61070b5760405162461bcd60e51b815260206004820152601660248201527521b0b63632b91034b9903737ba103090313ab93732b960511b60448201526064016105cd565b6107148161100c565b50565b6000546001600160a01b031633146107715760405162461bcd60e51b815260206004820181905260248201527f4f776e61626c653a2063616c6c6572206973206e6f7420746865206f776e657260448201526064016105cd565b61069a6000611016565b6107a57f3c11d16cbaffd01df69ce1c404f6340ee057498f5f00246190ea54220576a8483361086b565b6107ea5760405162461bcd60e51b815260206004820152601660248201527521b0b63632b91034b9903737ba103090313ab93732b960511b60448201526064016105cd565b6105e08282611066565b61081e7f65d7a28e3265b37a6474929f336521b332c1681b933f6cb9f3376673440d862a3361086b565b6108635760405162461bcd60e51b815260206004820152601660248201527521b0b63632b91034b9903737ba1030903830bab9b2b960511b60448201526064016105cd565b61069a61107b565b60009182526007602090815260408084206001600160a01b0393909316845291905290205460ff1690565b606060058054610476906116a6565b3360008181526002602090815260408083206001600160a01b03871684529091528120549091908381101561092a5760405162461bcd60e51b815260206004820152602560248201527f45524332303a2064656372656173656420616c6c6f77616e63652062656c6f77604482015264207a65726f60d81b60648201526084016105cd565b61052a8286868403610a99565b600033610507818585610c4f565b600082815260076020526040902060010154610961813361054d565b61055c8383610f12565b6000546001600160a01b031633146109c55760405162461bcd60e51b815260206004820181905260248201527f4f776e61626c653a2063616c6c6572206973206e6f7420746865206f776e657260448201526064016105cd565b6001600160a01b038116610a2a5760405162461bcd60e51b815260206004820152602660248201527f4f776e61626c653a206e6577206f776e657220697320746865207a65726f206160448201526564647265737360d01b60648201526084016105cd565b61071481611016565b60065460ff161561055c5760405162461bcd60e51b815260206004820152602a60248201527f45524332305061757361626c653a20746f6b656e207472616e736665722077686044820152691a5b19481c185d5cd95960b21b60648201526084016105cd565b6001600160a01b038316610afb5760405162461bcd60e51b8152602060048201526024808201527f45524332303a20617070726f76652066726f6d20746865207a65726f206164646044820152637265737360e01b60648201526084016105cd565b6001600160a01b038216610b5c5760405162461bcd60e51b815260206004820152602260248201527f45524332303a20617070726f766520746f20746865207a65726f206164647265604482015261737360f01b60648201526084016105cd565b6001600160a01b0383811660008181526002602090815260408083209487168084529482529182902085905590518481527f8c5be1e5ebec7d5bd14f71427d1e84f3dd0314c0f7b2291e5b200ac8c7c3b925910160405180910390a3505050565b6001600160a01b038381166000908152600260209081526040808320938616835292905220546000198114610c495781811015610c3c5760405162461bcd60e51b815260206004820152601d60248201527f45524332303a20696e73756666696369656e7420616c6c6f77616e636500000060448201526064016105cd565b610c498484848403610a99565b50505050565b6001600160a01b038316610cb35760405162461bcd60e51b815260206004820152602560248201527f45524332303a207472616e736665722066726f6d20746865207a65726f206164604482015264647265737360d81b60648201526084016105cd565b6001600160a01b038216610d155760405162461bcd60e51b815260206004820152602360248201527f45524332303a207472616e7366657220746f20746865207a65726f206164647260448201526265737360e81b60648201526084016105cd565b610d208383836110f6565b6001600160a01b03831660009081526001602052604090205481811015610d985760405162461bcd60e51b815260206004820152602660248201527f45524332303a207472616e7366657220616d6f756e7420657863656564732062604482015265616c616e636560d01b60648201526084016105cd565b6001600160a01b03808516600090815260016020526040808220858503905591851681529081208054849290610dcf908490611615565b92505081905550826001600160a01b0316846001600160a01b03167fddf252ad1be2c89b69c2b068fc378daa952ba7f163c4a11628f55a4df523b3ef84604051610e1b91815260200190565b60405180910390a3610c49565b610e32828261086b565b6105e057610e4a816001600160a01b03166014611101565b610e55836020611101565b604051602001610e6692919061156d565b60408051601f198184030181529082905262461bcd60e51b82526105cd916004016115e2565b610e96828261086b565b6105e05760008281526007602090815260408083206001600160a01b03851684529091529020805460ff19166001179055610ece3390565b6001600160a01b0316816001600160a01b0316837f2f8788117e7eff1d82e926ec794901d17c78024a50270940304540a733656f0d60405160405180910390a45050565b610f1c828261086b565b156105e05760008281526007602090815260408083206001600160a01b0385168085529252808320805460ff1916905551339285917ff6391f5c32d9c69d2a47ea670b442974b53935d1edc7fd64eb21e047a839171b9190a45050565b60065460ff16610fc25760405162461bcd60e51b815260206004820152601460248201527314185d5cd8589b194e881b9bdd081c185d5cd95960621b60448201526064016105cd565b6006805460ff191690557f5db9ee0a495bf2e6ff9c91a7834c1ba4fdd244a5e8aa4e537bd38aeae4b073aa335b6040516001600160a01b03909116815260200160405180910390a1565b61071433826112ea565b600080546001600160a01b038381166001600160a01b0319831681178455604051919092169283917f8be0079c531659141344cd1fd0a4f28419497f9722a3daafe3b4186f6b6457e09190a35050565b611071823383610bbd565b6105e082826112ea565b60065460ff16156110c15760405162461bcd60e51b815260206004820152601060248201526f14185d5cd8589b194e881c185d5cd95960821b60448201526064016105cd565b6006805460ff191660011790557f62e78cea01bee320cd4e420270b5ea74000d11b0c9f74754ebdbfc544b05a258610fef3390565b61055c838383610a33565b6060600061111083600261162d565b61111b906002611615565b67ffffffffffffffff81111561114157634e487b7160e01b600052604160045260246000fd5b6040519080825280601f01601f19166020018201604052801561116b576020820181803683370190505b509050600360fc1b8160008151811061119457634e487b7160e01b600052603260045260246000fd5b60200101906001600160f81b031916908160001a905350600f60fb1b816001815181106111d157634e487b7160e01b600052603260045260246000fd5b60200101906001600160f81b031916908160001a90535060006111f584600261162d565b611200906001611615565b90505b6001811115611294576f181899199a1a9b1b9c1cb0b131b232b360811b85600f166010811061124257634e487b7160e01b600052603260045260246000fd5b1a60f81b82828151811061126657634e487b7160e01b600052603260045260246000fd5b60200101906001600160f81b031916908160001a90535060049490941c9361128d8161168f565b9050611203565b5083156112e35760405162461bcd60e51b815260206004820181905260248201527f537472696e67733a20686578206c656e67746820696e73756666696369656e7460448201526064016105cd565b9392505050565b6001600160a01b03821661134a5760405162461bcd60e51b815260206004820152602160248201527f45524332303a206275726e2066726f6d20746865207a65726f206164647265736044820152607360f81b60648201526084016105cd565b611356826000836110f6565b6001600160a01b038216600090815260016020526040902054818110156113ca5760405162461bcd60e51b815260206004820152602260248201527f45524332303a206275726e20616d6f756e7420657863656564732062616c616e604482015261636560f01b60648201526084016105cd565b6001600160a01b03831660009081526001602052604081208383039055600380548492906113f990849061164c565b90915550506040518281526000906001600160a01b038516907fddf252ad1be2c89b69c2b068fc378daa952ba7f163c4a11628f55a4df523b3ef9060200160405180910390a361055c565b80356001600160a01b038116811461046257600080fd5b60006020828403121561146c578081fd5b6112e382611444565b60008060408385031215611487578081fd5b61149083611444565b915061149e60208401611444565b90509250929050565b6000806000606084860312156114bb578081fd5b6114c484611444565b92506114d260208501611444565b9150604084013590509250925092565b600080604083850312156114f4578182fd5b6114fd83611444565b946020939093013593505050565b60006020828403121561151c578081fd5b5035919050565b60008060408385031215611535578182fd5b8235915061149e60208401611444565b600060208284031215611556578081fd5b81356001600160e01b0319811681146112e3578182fd5b60007f416363657373436f6e74726f6c3a206163636f756e7420000000000000000000825283516115a5816017850160208801611663565b7001034b99036b4b9b9b4b733903937b6329607d1b60179184019182015283516115d6816028840160208801611663565b01602801949350505050565b6000602082528251806020840152611601816040850160208701611663565b601f01601f19169190910160400192915050565b60008219821115611628576116286116e1565b500190565b6000816000190483118215151615611647576116476116e1565b500290565b60008282101561165e5761165e6116e1565b500390565b60005b8381101561167e578181015183820152602001611666565b83811115610c495750506000910152565b60008161169e5761169e6116e1565b506000190190565b6002810460018216806116ba57607f821691505b602082108114156116db57634e487b7160e01b600052602260045260246000fd5b50919050565b634e487b7160e01b600052601160045260246000fdfea2646970667358221220900c53a8c293909c507adb3391b87f0609a869202964dd9e9d8da3d98dc732fc64736f6c63430008020033",
  "linkReferences": {},
  "deployedLinkReferences": {}
}