{
  "_format": "hh-sol-artifact-1",
  "contractName": "SportZChainToken",
  "sourceName": "contracts/tokens/SportZChainToken.sol",
  "abi": [
    {
      "inputs": [
        {
          "internalType": "string",
          "name": "_name",
          "type": "string"
        },
        {
          "internalType": "string",
          "name": "_symbol",
          "type": "string"
        },
        {
          "internalType": "uint8",
          "name": "_decimals",
          "type": "uint8"
        },
        {
          "internalType": "uint256",
          "name": "_supplyUpperLimit",
          "type": "uint256"
        },
        {
          "internalType": "uint256",
          "name": "_initialSupply",
          "type": "uint256"
        }
      ],
      "stateMutability": "nonpayable",
      "type": "constructor"
    },
    {
      "anonymous": false,
      "inputs": [
        {
          "indexed": true,
          "internalType": "address",
          "name": "owner",
          "type": "address"
        },
        {
          "indexed": true,
          "internalType": "address",
          "name": "spender",
          "type": "address"
        },
        {
          "indexed": false,
          "internalType": "uint256",
          "name": "value",
          "type": "uint256"
        }
      ],
      "name": "Approval",
      "type": "event"
    },
    {
      "anonymous": false,
      "inputs": [
        {
          "indexed": true,
          "internalType": "address",
          "name": "previousOwner",
          "type": "address"
        },
        {
          "indexed": true,
          "internalType": "address",
          "name": "newOwner",
          "type": "address"
        }
      ],
      "name": "OwnershipTransferred",
      "type": "event"
    },
    {
      "anonymous": false,
      "inputs": [
        {
          "indexed": false,
          "internalType": "address",
          "name": "account",
          "type": "address"
        }
      ],
      "name": "Paused",
      "type": "event"
    },
    {
      "anonymous": false,
      "inputs": [
        {
          "indexed": true,
          "internalType": "address",
          "name": "from",
          "type": "address"
        },
        {
          "indexed": true,
          "internalType": "address",
          "name": "to",
          "type": "address"
        },
        {
          "indexed": false,
          "internalType": "uint256",
          "name": "value",
          "type": "uint256"
        }
      ],
      "name": "Transfer",
      "type": "event"
    },
    {
      "anonymous": false,
      "inputs": [
        {
          "indexed": false,
          "internalType": "address",
          "name": "account",
          "type": "address"
        }
      ],
      "name": "Unpaused",
      "type": "event"
    },
    {
      "inputs": [
        {
          "internalType": "address",
          "name": "owner",
          "type": "address"
        },
        {
          "internalType": "address",
          "name": "spender",
          "type": "address"
        }
      ],
      "name": "allowance",
      "outputs": [
        {
          "internalType": "uint256",
          "name": "",
          "type": "uint256"
        }
      ],
      "stateMutability": "view",
      "type": "function"
    },
    {
      "inputs": [
        {
          "internalType": "address",
          "name": "spender",
          "type": "address"
        },
        {
          "internalType": "uint256",
          "name": "amount",
          "type": "uint256"
        }
      ],
      "name": "approve",
      "outputs": [
        {
          "internalType": "bool",
          "name": "",
          "type": "bool"
        }
      ],
      "stateMutability": "nonpayable",
      "type": "function"
    },
    {
      "inputs": [
        {
          "internalType": "address",
          "name": "account",
          "type": "address"
        }
      ],
      "name": "balanceOf",
      "outputs": [
        {
          "internalType": "uint256",
          "name": "",
          "type": "uint256"
        }
      ],
      "stateMutability": "view",
      "type": "function"
    },
    {
      "inputs": [
        {
          "internalType": "uint256",
          "name": "amount",
          "type": "uint256"
        }
      ],
      "name": "burn",
      "outputs": [],
      "stateMutability": "nonpayable",
      "type": "function"
    },
    {
      "inputs": [
        {
          "internalType": "address",
          "name": "account",
          "type": "address"
        },
        {
          "internalType": "uint256",
          "name": "amount",
          "type": "uint256"
        }
      ],
      "name": "burnFrom",
      "outputs": [],
      "stateMutability": "nonpayable",
      "type": "function"
    },
    {
      "inputs": [],
      "name": "decimals",
      "outputs": [
        {
          "internalType": "uint8",
          "name": "",
          "type": "uint8"
        }
      ],
      "stateMutability": "view",
      "type": "function"
    },
    {
      "inputs": [
        {
          "internalType": "address",
          "name": "spender",
          "type": "address"
        },
        {
          "internalType": "uint256",
          "name": "subtractedValue",
          "type": "uint256"
        }
      ],
      "name": "decreaseAllowance",
      "outputs": [
        {
          "internalType": "bool",
          "name": "",
          "type": "bool"
        }
      ],
      "stateMutability": "nonpayable",
      "type": "function"
    },
    {
      "inputs": [
        {
          "internalType": "address",
          "name": "spender",
          "type": "address"
        },
        {
          "internalType": "uint256",
          "name": "addedValue",
          "type": "uint256"
        }
      ],
      "name": "increaseAllowance",
      "outputs": [
        {
          "internalType": "bool",
          "name": "",
          "type": "bool"
        }
      ],
      "stateMutability": "nonpayable",
      "type": "function"
    },
    {
      "inputs": [
        {
          "internalType": "address",
          "name": "to",
          "type": "address"
        },
        {
          "internalType": "uint256",
          "name": "amount",
          "type": "uint256"
        }
      ],
      "name": "mint",
      "outputs": [],
      "stateMutability": "nonpayable",
      "type": "function"
    },
    {
      "inputs": [],
      "name": "name",
      "outputs": [
        {
          "internalType": "string",
          "name": "",
          "type": "string"
        }
      ],
      "stateMutability": "view",
      "type": "function"
    },
    {
      "inputs": [],
      "name": "owner",
      "outputs": [
        {
          "internalType": "address",
          "name": "",
          "type": "address"
        }
      ],
      "stateMutability": "view",
      "type": "function"
    },
    {
      "inputs": [],
      "name": "paused",
      "outputs": [
        {
          "internalType": "bool",
          "name": "",
          "type": "bool"
        }
      ],
      "stateMutability": "view",
      "type": "function"
    },
    {
      "inputs": [],
      "name": "renounceOwnership",
      "outputs": [],
      "stateMutability": "nonpayable",
      "type": "function"
    },
    {
      "inputs": [],
      "name": "symbol",
      "outputs": [
        {
          "internalType": "string",
          "name": "",
          "type": "string"
        }
      ],
      "stateMutability": "view",
      "type": "function"
    },
    {
      "inputs": [],
      "name": "totalSupply",
      "outputs": [
        {
          "internalType": "uint256",
          "name": "",
          "type": "uint256"
        }
      ],
      "stateMutability": "view",
      "type": "function"
    },
    {
      "inputs": [
        {
          "internalType": "address",
          "name": "recipient",
          "type": "address"
        },
        {
          "internalType": "uint256",
          "name": "amount",
          "type": "uint256"
        }
      ],
      "name": "transfer",
      "outputs": [
        {
          "internalType": "bool",
          "name": "",
          "type": "bool"
        }
      ],
      "stateMutability": "nonpayable",
      "type": "function"
    },
    {
      "inputs": [
        {
          "internalType": "address",
          "name": "sender",
          "type": "address"
        },
        {
          "internalType": "address",
          "name": "recipient",
          "type": "address"
        },
        {
          "internalType": "uint256",
          "name": "amount",
          "type": "uint256"
        }
      ],
      "name": "transferFrom",
      "outputs": [
        {
          "internalType": "bool",
          "name": "",
          "type": "bool"
        }
      ],
      "stateMutability": "nonpayable",
      "type": "function"
    },
    {
      "inputs": [
        {
          "internalType": "address",
          "name": "newOwner",
          "type": "address"
        }
      ],
      "name": "transferOwnership",
      "outputs": [],
      "stateMutability": "nonpayable",
      "type": "function"
    }
  ],
  "bytecode": "0x60806040523480156200001157600080fd5b50604051620019c0380380620019c0833981016040819052620000349162000406565b84846200004a6200004462000102565b62000106565b81516200005f906004906020850190620002b5565b50805162000075906005906020840190620002b5565b50506006805460ff19169055506000620000ad6200009860ff8616600a6200058a565b836200015660201b6200074d1790919060201c565b9050620000d8620000c360ff8616600a6200058a565b846200015660201b6200074d1790919060201c565b6007556008805460ff191660ff8616179055620000f633826200016b565b505050505050620006fd565b3390565b600080546001600160a01b038381166001600160a01b0319831681178455604051919092169283917f8be0079c531659141344cd1fd0a4f28419497f9722a3daafe3b4186f6b6457e09190a35050565b600062000164828462000672565b9392505050565b6001600160a01b0382166200019d5760405162461bcd60e51b8152600401620001949062000498565b60405180910390fd5b620001ab600083836200024d565b8060036000828254620001bf919062000522565b90915550506001600160a01b03821660009081526001602052604081208054839290620001ee90849062000522565b90915550506040516001600160a01b038316906000907fddf252ad1be2c89b69c2b068fc378daa952ba7f163c4a11628f55a4df523b3ef906200023390859062000519565b60405180910390a362000249600083836200028f565b5050565b620002658383836200029460201b620007591760201c565b6200026f620002ac565b156200028f5760405162461bcd60e51b81526004016200019490620004cf565b505050565b620002658383836200028f60201b620006011760201c565b60065460ff1690565b828054620002c39062000694565b90600052602060002090601f016020900481019282620002e7576000855562000332565b82601f106200030257805160ff191683800117855562000332565b8280016001018555821562000332579182015b828111156200033257825182559160200191906001019062000315565b506200034092915062000344565b5090565b5b8082111562000340576000815560010162000345565b600082601f8301126200036c578081fd5b81516001600160401b0380821115620003895762000389620006e7565b6040516020601f8401601f1916820181018381118382101715620003b157620003b1620006e7565b6040528382528584018101871015620003c8578485fd5b8492505b83831015620003eb5785830181015182840182015291820191620003cc565b83831115620003fc57848185840101525b5095945050505050565b600080600080600060a086880312156200041e578081fd5b85516001600160401b038082111562000435578283fd5b6200044389838a016200035b565b9650602088015191508082111562000459578283fd5b5062000468888289016200035b565b945050604086015160ff811681146200047f578182fd5b6060870151608090970151959894975095949392505050565b6020808252601f908201527f45524332303a206d696e7420746f20746865207a65726f206164647265737300604082015260600190565b6020808252602a908201527f45524332305061757361626c653a20746f6b656e207472616e736665722077686040820152691a5b19481c185d5cd95960b21b606082015260800190565b90815260200190565b60008219821115620005385762000538620006d1565b500190565b80825b600180861162000551575062000581565b818704821115620005665762000566620006d1565b808616156200057457918102915b9490941c93800262000540565b94509492505050565b6000620001646000198484600082620005a65750600162000164565b81620005b55750600062000164565b8160018114620005ce5760028114620005d9576200060d565b600191505062000164565b60ff841115620005ed57620005ed620006d1565b6001841b915084821115620006065762000606620006d1565b5062000164565b5060208310610133831016604e8410600b841016171562000645575081810a838111156200063f576200063f620006d1565b62000164565b6200065484848460016200053d565b808604821115620006695762000669620006d1565b02949350505050565b60008160001904831182151516156200068f576200068f620006d1565b500290565b600281046001821680620006a957607f821691505b60208210811415620006cb57634e487b7160e01b600052602260045260246000fd5b50919050565b634e487b7160e01b600052601160045260246000fd5b634e487b7160e01b600052604160045260246000fd5b6112b3806200070d6000396000f3fe608060405234801561001057600080fd5b50600436106101165760003560e01c806370a08231116100a257806395d89b411161007157806395d89b411461021c578063a457c2d714610224578063a9059cbb14610237578063dd62ed3e1461024a578063f2fde38b1461025d57610116565b806370a08231146101d9578063715018a6146101ec57806379cc6790146101f45780638da5cb5b1461020757610116565b8063313ce567116100e9578063313ce56714610181578063395093511461019657806340c10f19146101a957806342966c68146101be5780635c975abb146101d157610116565b806306fdde031461011b578063095ea7b31461013957806318160ddd1461015957806323b872dd1461016e575b600080fd5b610123610270565b6040516101309190610c7b565b60405180910390f35b61014c610147366004610c1b565b610302565b6040516101309190610c70565b61016161031f565b60405161013091906110b3565b61014c61017c366004610be0565b610325565b6101896103c0565b60405161013091906110bc565b61014c6101a4366004610c1b565b6103c5565b6101bc6101b7366004610c1b565b610419565b005b6101bc6101cc366004610c44565b6104c2565b61014c610540565b6101616101e7366004610b94565b610549565b6101bc610568565b6101bc610202366004610c1b565b6105b3565b61020f610606565b6040516101309190610c5c565b610123610615565b61014c610232366004610c1b565b610624565b61014c610245366004610c1b565b61069d565b610161610258366004610bae565b6106b1565b6101bc61026b366004610b94565b6106dc565b60606004805461027f9061122c565b80601f01602080910402602001604051908101604052809291908181526020018280546102ab9061122c565b80156102f85780601f106102cd576101008083540402835291602001916102f8565b820191906000526020600020905b8154815290600101906020018083116102db57829003601f168201915b5050505050905090565b600061031661030f610789565b848461078d565b50600192915050565b60035490565b6000610332848484610841565b6001600160a01b038416600090815260026020526040812081610353610789565b6001600160a01b03166001600160a01b031681526020019081526020016000205490508281101561039f5760405162461bcd60e51b815260040161039690610e62565b60405180910390fd5b6103b3856103ab610789565b85840361078d565b60019150505b9392505050565b601290565b60006103166103d2610789565b8484600260006103e0610789565b6001600160a01b03908116825260208083019390935260409182016000908120918b168152925290205461041491906110ca565b61078d565b610421610789565b6001600160a01b0316610432610606565b6001600160a01b0316146104585760405162461bcd60e51b815260040161039690610eaa565b600854600090610477906104709060ff16600a611128565b839061074d565b905060008161048461031f565b61048e91906110ca565b90506007548111156104b25760405162461bcd60e51b815260040161039690610ddb565b6104bc8483610965565b50505050565b6104ca610789565b6001600160a01b03166104db610606565b6001600160a01b0316146105015760405162461bcd60e51b815260040161039690610eaa565b600854600090610519906104709060ff16600a611128565b90506105253382610a31565b80600760008282546105379190611215565b90915550505050565b60065460ff1690565b6001600160a01b0381166000908152600160205260409020545b919050565b610570610789565b6001600160a01b0316610581610606565b6001600160a01b0316146105a75760405162461bcd60e51b815260040161039690610eaa565b6105b16000610b22565b565b60006105c183610258610789565b9050818110156105e35760405162461bcd60e51b815260040161039690610edf565b6105f7836105ef610789565b84840361078d565b6106018383610a31565b505050565b6000546001600160a01b031690565b60606005805461027f9061122c565b60008060026000610633610789565b6001600160a01b039081168252602080830193909352604091820160009081209188168152925290205490508281101561067f5760405162461bcd60e51b815260040161039690610fed565b61069361068a610789565b8585840361078d565b5060019392505050565b60006103166106aa610789565b8484610841565b6001600160a01b03918216600090815260026020908152604080832093909416825291909152205490565b6106e4610789565b6001600160a01b03166106f5610606565b6001600160a01b03161461071b5760405162461bcd60e51b815260040161039690610eaa565b6001600160a01b0381166107415760405162461bcd60e51b815260040161039690610d53565b61074a81610b22565b50565b60006103b982846111f6565b610764838383610601565b61076c610540565b156106015760405162461bcd60e51b815260040161039690611069565b3390565b6001600160a01b0383166107b35760405162461bcd60e51b815260040161039690610fa9565b6001600160a01b0382166107d95760405162461bcd60e51b815260040161039690610d99565b6001600160a01b0380841660008181526002602090815260408083209487168084529490915290819020849055517f8c5be1e5ebec7d5bd14f71427d1e84f3dd0314c0f7b2291e5b200ac8c7c3b925906108349085906110b3565b60405180910390a3505050565b6001600160a01b0383166108675760405162461bcd60e51b815260040161039690610f64565b6001600160a01b03821661088d5760405162461bcd60e51b815260040161039690610cce565b610898838383610b72565b6001600160a01b038316600090815260016020526040902054818110156108d15760405162461bcd60e51b815260040161039690610e1c565b6001600160a01b038085166000908152600160205260408082208585039055918516815290812080548492906109089084906110ca565b92505081905550826001600160a01b0316846001600160a01b03167fddf252ad1be2c89b69c2b068fc378daa952ba7f163c4a11628f55a4df523b3ef8460405161095291906110b3565b60405180910390a36104bc848484610601565b6001600160a01b03821661098b5760405162461bcd60e51b815260040161039690611032565b61099760008383610b72565b80600360008282546109a991906110ca565b90915550506001600160a01b038216600090815260016020526040812080548392906109d69084906110ca565b90915550506040516001600160a01b038316906000907fddf252ad1be2c89b69c2b068fc378daa952ba7f163c4a11628f55a4df523b3ef90610a199085906110b3565b60405180910390a3610a2d60008383610601565b5050565b6001600160a01b038216610a575760405162461bcd60e51b815260040161039690610f23565b610a6382600083610b72565b6001600160a01b03821660009081526001602052604090205481811015610a9c5760405162461bcd60e51b815260040161039690610d11565b6001600160a01b0383166000908152600160205260408120838303905560038054849290610acb908490611215565b90915550506040516000906001600160a01b038516907fddf252ad1be2c89b69c2b068fc378daa952ba7f163c4a11628f55a4df523b3ef90610b0e9086906110b3565b60405180910390a361060183600084610601565b600080546001600160a01b038381166001600160a01b0319831681178455604051919092169283917f8be0079c531659141344cd1fd0a4f28419497f9722a3daafe3b4186f6b6457e09190a35050565b610764838383610759565b80356001600160a01b038116811461056357600080fd5b600060208284031215610ba5578081fd5b6103b982610b7d565b60008060408385031215610bc0578081fd5b610bc983610b7d565b9150610bd760208401610b7d565b90509250929050565b600080600060608486031215610bf4578081fd5b610bfd84610b7d565b9250610c0b60208501610b7d565b9150604084013590509250925092565b60008060408385031215610c2d578182fd5b610c3683610b7d565b946020939093013593505050565b600060208284031215610c55578081fd5b5035919050565b6001600160a01b0391909116815260200190565b901515815260200190565b6000602080835283518082850152825b81811015610ca757858101830151858201604001528201610c8b565b81811115610cb85783604083870101525b50601f01601f1916929092016040019392505050565b60208082526023908201527f45524332303a207472616e7366657220746f20746865207a65726f206164647260408201526265737360e81b606082015260800190565b60208082526022908201527f45524332303a206275726e20616d6f756e7420657863656564732062616c616e604082015261636560f01b606082015260800190565b60208082526026908201527f4f776e61626c653a206e6577206f776e657220697320746865207a65726f206160408201526564647265737360d01b606082015260800190565b60208082526022908201527f45524332303a20617070726f766520746f20746865207a65726f206164647265604082015261737360f01b606082015260800190565b60208082526021908201527f43616e74206d696e74206d6f7265207468616e20737570706c79206c696d69746040820152600160fd1b606082015260800190565b60208082526026908201527f45524332303a207472616e7366657220616d6f756e7420657863656564732062604082015265616c616e636560d01b606082015260800190565b60208082526028908201527f45524332303a207472616e7366657220616d6f756e74206578636565647320616040820152676c6c6f77616e636560c01b606082015260800190565b6020808252818101527f4f776e61626c653a2063616c6c6572206973206e6f7420746865206f776e6572604082015260600190565b60208082526024908201527f45524332303a206275726e20616d6f756e74206578636565647320616c6c6f77604082015263616e636560e01b606082015260800190565b60208082526021908201527f45524332303a206275726e2066726f6d20746865207a65726f206164647265736040820152607360f81b606082015260800190565b60208082526025908201527f45524332303a207472616e736665722066726f6d20746865207a65726f206164604082015264647265737360d81b606082015260800190565b60208082526024908201527f45524332303a20617070726f76652066726f6d20746865207a65726f206164646040820152637265737360e01b606082015260800190565b60208082526025908201527f45524332303a2064656372656173656420616c6c6f77616e63652062656c6f77604082015264207a65726f60d81b606082015260800190565b6020808252601f908201527f45524332303a206d696e7420746f20746865207a65726f206164647265737300604082015260600190565b6020808252602a908201527f45524332305061757361626c653a20746f6b656e207472616e736665722077686040820152691a5b19481c185d5cd95960b21b606082015260800190565b90815260200190565b60ff91909116815260200190565b600082198211156110dd576110dd611267565b500190565b80825b60018086116110f4575061111f565b81870482111561110657611106611267565b8086161561111357918102915b9490941c9380026110e5565b94509492505050565b60006103b96000198484600082611141575060016103b9565b8161114e575060006103b9565b8160018114611164576002811461116e5761119b565b60019150506103b9565b60ff84111561117f5761117f611267565b6001841b91508482111561119557611195611267565b506103b9565b5060208310610133831016604e8410600b84101617156111ce575081810a838111156111c9576111c9611267565b6103b9565b6111db84848460016110e2565b8086048211156111ed576111ed611267565b02949350505050565b600081600019048311821515161561121057611210611267565b500290565b60008282101561122757611227611267565b500390565b60028104600182168061124057607f821691505b6020821081141561126157634e487b7160e01b600052602260045260246000fd5b50919050565b634e487b7160e01b600052601160045260246000fdfea26469706673582212209b854f68110e51c697ca6401d21e562eeab1da9bec4936bd00e429657d64c09564736f6c63430008000033",
  "linkReferences": {},
  "deployedLinkReferences": {}
}