{
  "contracts/tokens/SportZchainToken.sol": {
    "SportZchainToken": {
      "abi": [
        {
          "inputs": [
            {
              "internalType": "string",
              "name": "_name",
              "type": "string"
            },
            {
              "internalType": "string",
              "name": "_symbol",
              "type": "string"
            },
            {
              "internalType": "uint8",
              "name": "_decimals",
              "type": "uint8"
            },
            {
              "internalType": "uint256",
              "name": "_totalSupply",
              "type": "uint256"
            }
          ],
          "stateMutability": "nonpayable",
          "type": "constructor"
        },
        {
          "anonymous": false,
          "inputs": [
            {
              "indexed": true,
              "internalType": "address",
              "name": "owner",
              "type": "address"
            },
            {
              "indexed": true,
              "internalType": "address",
              "name": "spender",
              "type": "address"
            },
            {
              "indexed": false,
              "internalType": "uint256",
              "name": "value",
              "type": "uint256"
            }
          ],
          "name": "Approval",
          "type": "event"
        },
        {
          "anonymous": false,
          "inputs": [
            {
              "indexed": true,
              "internalType": "address",
              "name": "previousOwner",
              "type": "address"
            },
            {
              "indexed": true,
              "internalType": "address",
              "name": "newOwner",
              "type": "address"
            }
          ],
          "name": "OwnershipTransferred",
          "type": "event"
        },
        {
          "anonymous": false,
          "inputs": [
            {
              "indexed": false,
              "internalType": "address",
              "name": "account",
              "type": "address"
            }
          ],
          "name": "Paused",
          "type": "event"
        },
        {
          "anonymous": false,
          "inputs": [
            {
              "indexed": true,
              "internalType": "bytes32",
              "name": "role",
              "type": "bytes32"
            },
            {
              "indexed": true,
              "internalType": "bytes32",
              "name": "previousAdminRole",
              "type": "bytes32"
            },
            {
              "indexed": true,
              "internalType": "bytes32",
              "name": "newAdminRole",
              "type": "bytes32"
            }
          ],
          "name": "RoleAdminChanged",
          "type": "event"
        },
        {
          "anonymous": false,
          "inputs": [
            {
              "indexed": true,
              "internalType": "bytes32",
              "name": "role",
              "type": "bytes32"
            },
            {
              "indexed": true,
              "internalType": "address",
              "name": "account",
              "type": "address"
            },
            {
              "indexed": true,
              "internalType": "address",
              "name": "sender",
              "type": "address"
            }
          ],
          "name": "RoleGranted",
          "type": "event"
        },
        {
          "anonymous": false,
          "inputs": [
            {
              "indexed": true,
              "internalType": "bytes32",
              "name": "role",
              "type": "bytes32"
            },
            {
              "indexed": true,
              "internalType": "address",
              "name": "account",
              "type": "address"
            },
            {
              "indexed": true,
              "internalType": "address",
              "name": "sender",
              "type": "address"
            }
          ],
          "name": "RoleRevoked",
          "type": "event"
        },
        {
          "anonymous": false,
          "inputs": [
            {
              "indexed": true,
              "internalType": "address",
              "name": "from",
              "type": "address"
            },
            {
              "indexed": true,
              "internalType": "address",
              "name": "to",
              "type": "address"
            },
            {
              "indexed": false,
              "internalType": "uint256",
              "name": "value",
              "type": "uint256"
            }
          ],
          "name": "Transfer",
          "type": "event"
        },
        {
          "anonymous": false,
          "inputs": [
            {
              "indexed": false,
              "internalType": "address",
              "name": "account",
              "type": "address"
            }
          ],
          "name": "Unpaused",
          "type": "event"
        },
        {
          "inputs": [],
          "name": "BURNER_ROLE",
          "outputs": [
            {
              "internalType": "bytes32",
              "name": "",
              "type": "bytes32"
            }
          ],
          "stateMutability": "view",
          "type": "function"
        },
        {
          "inputs": [],
          "name": "DEFAULT_ADMIN_ROLE",
          "outputs": [
            {
              "internalType": "bytes32",
              "name": "",
              "type": "bytes32"
            }
          ],
          "stateMutability": "view",
          "type": "function"
        },
        {
          "inputs": [],
          "name": "PAUSER_ROLE",
          "outputs": [
            {
              "internalType": "bytes32",
              "name": "",
              "type": "bytes32"
            }
          ],
          "stateMutability": "view",
          "type": "function"
        },
        {
          "inputs": [
            {
              "internalType": "address",
              "name": "owner",
              "type": "address"
            },
            {
              "internalType": "address",
              "name": "spender",
              "type": "address"
            }
          ],
          "name": "allowance",
          "outputs": [
            {
              "internalType": "uint256",
              "name": "",
              "type": "uint256"
            }
          ],
          "stateMutability": "view",
          "type": "function"
        },
        {
          "inputs": [
            {
              "internalType": "address",
              "name": "spender",
              "type": "address"
            },
            {
              "internalType": "uint256",
              "name": "amount",
              "type": "uint256"
            }
          ],
          "name": "approve",
          "outputs": [
            {
              "internalType": "bool",
              "name": "",
              "type": "bool"
            }
          ],
          "stateMutability": "nonpayable",
          "type": "function"
        },
        {
          "inputs": [
            {
              "internalType": "address",
              "name": "account",
              "type": "address"
            }
          ],
          "name": "balanceOf",
          "outputs": [
            {
              "internalType": "uint256",
              "name": "",
              "type": "uint256"
            }
          ],
          "stateMutability": "view",
          "type": "function"
        },
        {
          "inputs": [
            {
              "internalType": "uint256",
              "name": "_amount",
              "type": "uint256"
            }
          ],
          "name": "burn",
          "outputs": [],
          "stateMutability": "nonpayable",
          "type": "function"
        },
        {
          "inputs": [
            {
              "internalType": "address",
              "name": "account",
              "type": "address"
            },
            {
              "internalType": "uint256",
              "name": "_amount",
              "type": "uint256"
            }
          ],
          "name": "burnFrom",
          "outputs": [],
          "stateMutability": "nonpayable",
          "type": "function"
        },
        {
          "inputs": [],
          "name": "decimals",
          "outputs": [
            {
              "internalType": "uint8",
              "name": "",
              "type": "uint8"
            }
          ],
          "stateMutability": "view",
          "type": "function"
        },
        {
          "inputs": [
            {
              "internalType": "address",
              "name": "spender",
              "type": "address"
            },
            {
              "internalType": "uint256",
              "name": "subtractedValue",
              "type": "uint256"
            }
          ],
          "name": "decreaseAllowance",
          "outputs": [
            {
              "internalType": "bool",
              "name": "",
              "type": "bool"
            }
          ],
          "stateMutability": "nonpayable",
          "type": "function"
        },
        {
          "inputs": [
            {
              "internalType": "bytes32",
              "name": "role",
              "type": "bytes32"
            }
          ],
          "name": "getRoleAdmin",
          "outputs": [
            {
              "internalType": "bytes32",
              "name": "",
              "type": "bytes32"
            }
          ],
          "stateMutability": "view",
          "type": "function"
        },
        {
          "inputs": [
            {
              "internalType": "bytes32",
              "name": "role",
              "type": "bytes32"
            },
            {
              "internalType": "address",
              "name": "account",
              "type": "address"
            }
          ],
          "name": "grantRole",
          "outputs": [],
          "stateMutability": "nonpayable",
          "type": "function"
        },
        {
          "inputs": [
            {
              "internalType": "bytes32",
              "name": "role",
              "type": "bytes32"
            },
            {
              "internalType": "address",
              "name": "account",
              "type": "address"
            }
          ],
          "name": "hasRole",
          "outputs": [
            {
              "internalType": "bool",
              "name": "",
              "type": "bool"
            }
          ],
          "stateMutability": "view",
          "type": "function"
        },
        {
          "inputs": [
            {
              "internalType": "address",
              "name": "spender",
              "type": "address"
            },
            {
              "internalType": "uint256",
              "name": "addedValue",
              "type": "uint256"
            }
          ],
          "name": "increaseAllowance",
          "outputs": [
            {
              "internalType": "bool",
              "name": "",
              "type": "bool"
            }
          ],
          "stateMutability": "nonpayable",
          "type": "function"
        },
        {
          "inputs": [],
          "name": "name",
          "outputs": [
            {
              "internalType": "string",
              "name": "",
              "type": "string"
            }
          ],
          "stateMutability": "view",
          "type": "function"
        },
        {
          "inputs": [],
          "name": "owner",
          "outputs": [
            {
              "internalType": "address",
              "name": "",
              "type": "address"
            }
          ],
          "stateMutability": "view",
          "type": "function"
        },
        {
          "inputs": [],
          "name": "pause",
          "outputs": [],
          "stateMutability": "nonpayable",
          "type": "function"
        },
        {
          "inputs": [],
          "name": "paused",
          "outputs": [
            {
              "internalType": "bool",
              "name": "",
              "type": "bool"
            }
          ],
          "stateMutability": "view",
          "type": "function"
        },
        {
          "inputs": [],
          "name": "renounceOwnership",
          "outputs": [],
          "stateMutability": "nonpayable",
          "type": "function"
        },
        {
          "inputs": [
            {
              "internalType": "bytes32",
              "name": "role",
              "type": "bytes32"
            },
            {
              "internalType": "address",
              "name": "account",
              "type": "address"
            }
          ],
          "name": "renounceRole",
          "outputs": [],
          "stateMutability": "nonpayable",
          "type": "function"
        },
        {
          "inputs": [
            {
              "internalType": "bytes32",
              "name": "role",
              "type": "bytes32"
            },
            {
              "internalType": "address",
              "name": "account",
              "type": "address"
            }
          ],
          "name": "revokeRole",
          "outputs": [],
          "stateMutability": "nonpayable",
          "type": "function"
        },
        {
          "inputs": [
            {
              "internalType": "bytes4",
              "name": "interfaceId",
              "type": "bytes4"
            }
          ],
          "name": "supportsInterface",
          "outputs": [
            {
              "internalType": "bool",
              "name": "",
              "type": "bool"
            }
          ],
          "stateMutability": "view",
          "type": "function"
        },
        {
          "inputs": [],
          "name": "symbol",
          "outputs": [
            {
              "internalType": "string",
              "name": "",
              "type": "string"
            }
          ],
          "stateMutability": "view",
          "type": "function"
        },
        {
          "inputs": [],
          "name": "totalSupply",
          "outputs": [
            {
              "internalType": "uint256",
              "name": "",
              "type": "uint256"
            }
          ],
          "stateMutability": "view",
          "type": "function"
        },
        {
          "inputs": [
            {
              "internalType": "address",
              "name": "to",
              "type": "address"
            },
            {
              "internalType": "uint256",
              "name": "amount",
              "type": "uint256"
            }
          ],
          "name": "transfer",
          "outputs": [
            {
              "internalType": "bool",
              "name": "",
              "type": "bool"
            }
          ],
          "stateMutability": "nonpayable",
          "type": "function"
        },
        {
          "inputs": [
            {
              "internalType": "address",
              "name": "from",
              "type": "address"
            },
            {
              "internalType": "address",
              "name": "to",
              "type": "address"
            },
            {
              "internalType": "uint256",
              "name": "amount",
              "type": "uint256"
            }
          ],
          "name": "transferFrom",
          "outputs": [
            {
              "internalType": "bool",
              "name": "",
              "type": "bool"
            }
          ],
          "stateMutability": "nonpayable",
          "type": "function"
        },
        {
          "inputs": [
            {
              "internalType": "address",
              "name": "newOwner",
              "type": "address"
            }
          ],
          "name": "transferOwnership",
          "outputs": [],
          "stateMutability": "nonpayable",
          "type": "function"
        },
        {
          "inputs": [],
          "name": "unpause",
          "outputs": [],
          "stateMutability": "nonpayable",
          "type": "function"
        }
      ],
      "evm": {
        "bytecode": {
          "linkReferences": {},
          "object": "60806040523480156200001157600080fd5b5060405162001e5138038062001e518339810160408190526200003491620004a5565b83836200004133620000b7565b8151620000569060049060208501906200034c565b5080516200006c9060059060208401906200034c565b50506006805460ff1916905550620000a0336200008e60ff8516600a62000594565b6200009a908462000689565b62000107565b620000ad600033620001ff565b5050505062000714565b600080546001600160a01b038381166001600160a01b0319831681178455604051919092169283917f8be0079c531659141344cd1fd0a4f28419497f9722a3daafe3b4186f6b6457e09190a35050565b6001600160a01b038216620001635760405162461bcd60e51b815260206004820152601f60248201527f45524332303a206d696e7420746f20746865207a65726f20616464726573730060448201526064015b60405180910390fd5b62000171600083836200020b565b80600360008282546200018591906200052c565b90915550506001600160a01b03821660009081526001602052604081208054839290620001b49084906200052c565b90915550506040518181526001600160a01b038316906000907fddf252ad1be2c89b69c2b068fc378daa952ba7f163c4a11628f55a4df523b3ef9060200160405180910390a35b5050565b620001fb828262000228565b62000223838383620002cc60201b62000a331760201c565b505050565b60008281526007602090815260408083206001600160a01b038516845290915290205460ff16620001fb5760008281526007602090815260408083206001600160a01b03851684529091529020805460ff19166001179055620002883390565b6001600160a01b0316816001600160a01b0316837f2f8788117e7eff1d82e926ec794901d17c78024a50270940304540a733656f0d60405160405180910390a45050565b620002e48383836200022360201b6200055c1760201c565b60065460ff1615620002235760405162461bcd60e51b815260206004820152602a60248201527f45524332305061757361626c653a20746f6b656e207472616e736665722077686044820152691a5b19481c185d5cd95960b21b60648201526084016200015a565b8280546200035a90620006ab565b90600052602060002090601f0160209004810192826200037e5760008555620003c9565b82601f106200039957805160ff1916838001178555620003c9565b82800160010185558215620003c9579182015b82811115620003c9578251825591602001919060010190620003ac565b50620003d7929150620003db565b5090565b5b80821115620003d75760008155600101620003dc565b600082601f83011262000403578081fd5b81516001600160401b0380821115620004205762000420620006fe565b604051601f8301601f19908116603f011681019082821181831017156200044b576200044b620006fe565b8160405283815260209250868385880101111562000467578485fd5b8491505b838210156200048a57858201830151818301840152908201906200046b565b838211156200049b57848385830101525b9695505050505050565b60008060008060808587031215620004bb578384fd5b84516001600160401b0380821115620004d2578586fd5b620004e088838901620003f2565b95506020870151915080821115620004f6578485fd5b506200050587828801620003f2565b935050604085015160ff811681146200051c578283fd5b6060959095015193969295505050565b60008219821115620005425762000542620006e8565b500190565b80825b60018086116200055b57506200058b565b818704821115620005705762000570620006e8565b808616156200057e57918102915b9490941c9380026200054a565b94509492505050565b6000620005a56000198484620005ac565b9392505050565b600082620005bd57506001620005a5565b81620005cc57506000620005a5565b8160018114620005e55760028114620005f05762000624565b6001915050620005a5565b60ff841115620006045762000604620006e8565b6001841b9150848211156200061d576200061d620006e8565b50620005a5565b5060208310610133831016604e8410600b84101617156200065c575081810a83811115620006565762000656620006e8565b620005a5565b6200066b848484600162000547565b808604821115620006805762000680620006e8565b02949350505050565b6000816000190483118215151615620006a657620006a6620006e8565b500290565b600281046001821680620006c057607f821691505b60208210811415620006e257634e487b7160e01b600052602260045260246000fd5b50919050565b634e487b7160e01b600052601160045260246000fd5b634e487b7160e01b600052604160045260246000fd5b61172d80620007246000396000f3fe608060405234801561001057600080fd5b50600436106101c45760003560e01c806370a08231116100f9578063a217fddf11610097578063d547741f11610071578063d547741f146103a8578063dd62ed3e146103bb578063e63ab1e9146103f4578063f2fde38b1461041b576101c4565b8063a217fddf1461037a578063a457c2d714610382578063a9059cbb14610395576101c4565b80638456cb59116100d35780638456cb591461033c5780638da5cb5b1461034457806391d148541461035f57806395d89b4114610372576101c4565b806370a08231146102f8578063715018a61461032157806379cc679014610329576101c4565b80632f2ff15d11610166578063395093511161014057806339509351146102bf5780633f4ba83a146102d257806342966c68146102da5780635c975abb146102ed576101c4565b80632f2ff15d14610288578063313ce5671461029d57806336568abe146102ac576101c4565b806318160ddd116101a257806318160ddd1461021957806323b872dd1461022b578063248a9ca31461023e578063282c51f314610261576101c4565b806301ffc9a7146101c957806306fdde03146101f1578063095ea7b314610206575b600080fd5b6101dc6101d7366004611545565b61042e565b60405190151581526020015b60405180910390f35b6101f9610467565b6040516101e891906115e2565b6101dc6102143660046114e2565b6104f9565b6003545b6040519081526020016101e8565b6101dc6102393660046114a7565b610511565b61021d61024c36600461150b565b60009081526007602052604090206001015490565b61021d7f3c11d16cbaffd01df69ce1c404f6340ee057498f5f00246190ea54220576a84881565b61029b610296366004611523565b610535565b005b604051601281526020016101e8565b61029b6102ba366004611523565b610561565b6101dc6102cd3660046114e2565b6105e4565b61029b610623565b61029b6102e836600461150b565b61069c565b60065460ff166101dc565b61021d61030636600461145b565b6001600160a01b031660009081526001602052604090205490565b61029b610717565b61029b6103373660046114e2565b61077b565b61029b6107f4565b6000546040516001600160a01b0390911681526020016101e8565b6101dc61036d366004611523565b61086b565b6101f9610896565b61021d600081565b6101dc6103903660046114e2565b6108a5565b6101dc6103a33660046114e2565b610937565b61029b6103b6366004611523565b610945565b61021d6103c9366004611475565b6001600160a01b03918216600090815260026020908152604080832093909416825291909152205490565b61021d7f65d7a28e3265b37a6474929f336521b332c1681b933f6cb9f3376673440d862a81565b61029b61042936600461145b565b61096b565b60006001600160e01b03198216637965db0b60e01b148061045f57506301ffc9a760e01b6001600160e01b03198316145b90505b919050565b606060048054610476906116a6565b80601f01602080910402602001604051908101604052809291908181526020018280546104a2906116a6565b80156104ef5780601f106104c4576101008083540402835291602001916104ef565b820191906000526020600020905b8154815290600101906020018083116104d257829003601f168201915b5050505050905090565b600033610507818585610a99565b5060019392505050565b60003361051f858285610bbd565b61052a858585610c4f565b506001949350505050565b60008281526007602052604090206001015461055281335b610e28565b61055c8383610e8c565b505050565b6001600160a01b03811633146105d65760405162461bcd60e51b815260206004820152602f60248201527f416363657373436f6e74726f6c3a2063616e206f6e6c792072656e6f756e636560448201526e103937b632b9903337b91039b2b63360891b60648201526084015b60405180910390fd5b6105e08282610f12565b5050565b3360008181526002602090815260408083206001600160a01b0387168452909152812054909190610507908290869061061e908790611615565b610a99565b61064d7f65d7a28e3265b37a6474929f336521b332c1681b933f6cb9f3376673440d862a3361086b565b6106925760405162461bcd60e51b815260206004820152601660248201527521b0b63632b91034b9903737ba1030903830bab9b2b960511b60448201526064016105cd565b61069a610f79565b565b6106c67f3c11d16cbaffd01df69ce1c404f6340ee057498f5f00246190ea54220576a8483361086b565b61070b5760405162461bcd60e51b815260206004820152601660248201527521b0b63632b91034b9903737ba103090313ab93732b960511b60448201526064016105cd565b6107148161100c565b50565b6000546001600160a01b031633146107715760405162461bcd60e51b815260206004820181905260248201527f4f776e61626c653a2063616c6c6572206973206e6f7420746865206f776e657260448201526064016105cd565b61069a6000611016565b6107a57f3c11d16cbaffd01df69ce1c404f6340ee057498f5f00246190ea54220576a8483361086b565b6107ea5760405162461bcd60e51b815260206004820152601660248201527521b0b63632b91034b9903737ba103090313ab93732b960511b60448201526064016105cd565b6105e08282611066565b61081e7f65d7a28e3265b37a6474929f336521b332c1681b933f6cb9f3376673440d862a3361086b565b6108635760405162461bcd60e51b815260206004820152601660248201527521b0b63632b91034b9903737ba1030903830bab9b2b960511b60448201526064016105cd565b61069a61107b565b60009182526007602090815260408084206001600160a01b0393909316845291905290205460ff1690565b606060058054610476906116a6565b3360008181526002602090815260408083206001600160a01b03871684529091528120549091908381101561092a5760405162461bcd60e51b815260206004820152602560248201527f45524332303a2064656372656173656420616c6c6f77616e63652062656c6f77604482015264207a65726f60d81b60648201526084016105cd565b61052a8286868403610a99565b600033610507818585610c4f565b600082815260076020526040902060010154610961813361054d565b61055c8383610f12565b6000546001600160a01b031633146109c55760405162461bcd60e51b815260206004820181905260248201527f4f776e61626c653a2063616c6c6572206973206e6f7420746865206f776e657260448201526064016105cd565b6001600160a01b038116610a2a5760405162461bcd60e51b815260206004820152602660248201527f4f776e61626c653a206e6577206f776e657220697320746865207a65726f206160448201526564647265737360d01b60648201526084016105cd565b61071481611016565b60065460ff161561055c5760405162461bcd60e51b815260206004820152602a60248201527f45524332305061757361626c653a20746f6b656e207472616e736665722077686044820152691a5b19481c185d5cd95960b21b60648201526084016105cd565b6001600160a01b038316610afb5760405162461bcd60e51b8152602060048201526024808201527f45524332303a20617070726f76652066726f6d20746865207a65726f206164646044820152637265737360e01b60648201526084016105cd565b6001600160a01b038216610b5c5760405162461bcd60e51b815260206004820152602260248201527f45524332303a20617070726f766520746f20746865207a65726f206164647265604482015261737360f01b60648201526084016105cd565b6001600160a01b0383811660008181526002602090815260408083209487168084529482529182902085905590518481527f8c5be1e5ebec7d5bd14f71427d1e84f3dd0314c0f7b2291e5b200ac8c7c3b925910160405180910390a3505050565b6001600160a01b038381166000908152600260209081526040808320938616835292905220546000198114610c495781811015610c3c5760405162461bcd60e51b815260206004820152601d60248201527f45524332303a20696e73756666696369656e7420616c6c6f77616e636500000060448201526064016105cd565b610c498484848403610a99565b50505050565b6001600160a01b038316610cb35760405162461bcd60e51b815260206004820152602560248201527f45524332303a207472616e736665722066726f6d20746865207a65726f206164604482015264647265737360d81b60648201526084016105cd565b6001600160a01b038216610d155760405162461bcd60e51b815260206004820152602360248201527f45524332303a207472616e7366657220746f20746865207a65726f206164647260448201526265737360e81b60648201526084016105cd565b610d208383836110f6565b6001600160a01b03831660009081526001602052604090205481811015610d985760405162461bcd60e51b815260206004820152602660248201527f45524332303a207472616e7366657220616d6f756e7420657863656564732062604482015265616c616e636560d01b60648201526084016105cd565b6001600160a01b03808516600090815260016020526040808220858503905591851681529081208054849290610dcf908490611615565b92505081905550826001600160a01b0316846001600160a01b03167fddf252ad1be2c89b69c2b068fc378daa952ba7f163c4a11628f55a4df523b3ef84604051610e1b91815260200190565b60405180910390a3610c49565b610e32828261086b565b6105e057610e4a816001600160a01b03166014611101565b610e55836020611101565b604051602001610e6692919061156d565b60408051601f198184030181529082905262461bcd60e51b82526105cd916004016115e2565b610e96828261086b565b6105e05760008281526007602090815260408083206001600160a01b03851684529091529020805460ff19166001179055610ece3390565b6001600160a01b0316816001600160a01b0316837f2f8788117e7eff1d82e926ec794901d17c78024a50270940304540a733656f0d60405160405180910390a45050565b610f1c828261086b565b156105e05760008281526007602090815260408083206001600160a01b0385168085529252808320805460ff1916905551339285917ff6391f5c32d9c69d2a47ea670b442974b53935d1edc7fd64eb21e047a839171b9190a45050565b60065460ff16610fc25760405162461bcd60e51b815260206004820152601460248201527314185d5cd8589b194e881b9bdd081c185d5cd95960621b60448201526064016105cd565b6006805460ff191690557f5db9ee0a495bf2e6ff9c91a7834c1ba4fdd244a5e8aa4e537bd38aeae4b073aa335b6040516001600160a01b03909116815260200160405180910390a1565b61071433826112ea565b600080546001600160a01b038381166001600160a01b0319831681178455604051919092169283917f8be0079c531659141344cd1fd0a4f28419497f9722a3daafe3b4186f6b6457e09190a35050565b611071823383610bbd565b6105e082826112ea565b60065460ff16156110c15760405162461bcd60e51b815260206004820152601060248201526f14185d5cd8589b194e881c185d5cd95960821b60448201526064016105cd565b6006805460ff191660011790557f62e78cea01bee320cd4e420270b5ea74000d11b0c9f74754ebdbfc544b05a258610fef3390565b61055c838383610a33565b6060600061111083600261162d565b61111b906002611615565b67ffffffffffffffff81111561114157634e487b7160e01b600052604160045260246000fd5b6040519080825280601f01601f19166020018201604052801561116b576020820181803683370190505b509050600360fc1b8160008151811061119457634e487b7160e01b600052603260045260246000fd5b60200101906001600160f81b031916908160001a905350600f60fb1b816001815181106111d157634e487b7160e01b600052603260045260246000fd5b60200101906001600160f81b031916908160001a90535060006111f584600261162d565b611200906001611615565b90505b6001811115611294576f181899199a1a9b1b9c1cb0b131b232b360811b85600f166010811061124257634e487b7160e01b600052603260045260246000fd5b1a60f81b82828151811061126657634e487b7160e01b600052603260045260246000fd5b60200101906001600160f81b031916908160001a90535060049490941c9361128d8161168f565b9050611203565b5083156112e35760405162461bcd60e51b815260206004820181905260248201527f537472696e67733a20686578206c656e67746820696e73756666696369656e7460448201526064016105cd565b9392505050565b6001600160a01b03821661134a5760405162461bcd60e51b815260206004820152602160248201527f45524332303a206275726e2066726f6d20746865207a65726f206164647265736044820152607360f81b60648201526084016105cd565b611356826000836110f6565b6001600160a01b038216600090815260016020526040902054818110156113ca5760405162461bcd60e51b815260206004820152602260248201527f45524332303a206275726e20616d6f756e7420657863656564732062616c616e604482015261636560f01b60648201526084016105cd565b6001600160a01b03831660009081526001602052604081208383039055600380548492906113f990849061164c565b90915550506040518281526000906001600160a01b038516907fddf252ad1be2c89b69c2b068fc378daa952ba7f163c4a11628f55a4df523b3ef9060200160405180910390a361055c565b80356001600160a01b038116811461046257600080fd5b60006020828403121561146c578081fd5b6112e382611444565b60008060408385031215611487578081fd5b61149083611444565b915061149e60208401611444565b90509250929050565b6000806000606084860312156114bb578081fd5b6114c484611444565b92506114d260208501611444565b9150604084013590509250925092565b600080604083850312156114f4578182fd5b6114fd83611444565b946020939093013593505050565b60006020828403121561151c578081fd5b5035919050565b60008060408385031215611535578182fd5b8235915061149e60208401611444565b600060208284031215611556578081fd5b81356001600160e01b0319811681146112e3578182fd5b60007f416363657373436f6e74726f6c3a206163636f756e7420000000000000000000825283516115a5816017850160208801611663565b7001034b99036b4b9b9b4b733903937b6329607d1b60179184019182015283516115d6816028840160208801611663565b01602801949350505050565b6000602082528251806020840152611601816040850160208701611663565b601f01601f19169190910160400192915050565b60008219821115611628576116286116e1565b500190565b6000816000190483118215151615611647576116476116e1565b500290565b60008282101561165e5761165e6116e1565b500390565b60005b8381101561167e578181015183820152602001611666565b83811115610c495750506000910152565b60008161169e5761169e6116e1565b506000190190565b6002810460018216806116ba57607f821691505b602082108114156116db57634e487b7160e01b600052602260045260246000fd5b50919050565b634e487b7160e01b600052601160045260246000fdfea2646970667358221220c49d2734c7a4cebd43dcf0fd6000507ff4628aefc185d50adcbefc4aa3a57cbc64736f6c63430008020033",
          "opcodes": "PUSH1 0x80 PUSH1 0x40 MSTORE CALLVALUE DUP1 ISZERO PUSH3 0x11 JUMPI PUSH1 0x0 DUP1 REVERT JUMPDEST POP PUSH1 0x40 MLOAD PUSH3 0x1E51 CODESIZE SUB DUP1 PUSH3 0x1E51 DUP4 CODECOPY DUP2 ADD PUSH1 0x40 DUP2 SWAP1 MSTORE PUSH3 0x34 SWAP2 PUSH3 0x4A5 JUMP JUMPDEST DUP4 DUP4 PUSH3 0x41 CALLER PUSH3 0xB7 JUMP JUMPDEST DUP2 MLOAD PUSH3 0x56 SWAP1 PUSH1 0x4 SWAP1 PUSH1 0x20 DUP6 ADD SWAP1 PUSH3 0x34C JUMP JUMPDEST POP DUP1 MLOAD PUSH3 0x6C SWAP1 PUSH1 0x5 SWAP1 PUSH1 0x20 DUP5 ADD SWAP1 PUSH3 0x34C JUMP JUMPDEST POP POP PUSH1 0x6 DUP1 SLOAD PUSH1 0xFF NOT AND SWAP1 SSTORE POP PUSH3 0xA0 CALLER PUSH3 0x8E PUSH1 0xFF DUP6 AND PUSH1 0xA PUSH3 0x594 JUMP JUMPDEST PUSH3 0x9A SWAP1 DUP5 PUSH3 0x689 JUMP JUMPDEST PUSH3 0x107 JUMP JUMPDEST PUSH3 0xAD PUSH1 0x0 CALLER PUSH3 0x1FF JUMP JUMPDEST POP POP POP POP PUSH3 0x714 JUMP JUMPDEST PUSH1 0x0 DUP1 SLOAD PUSH1 0x1 PUSH1 0x1 PUSH1 0xA0 SHL SUB DUP4 DUP2 AND PUSH1 0x1 PUSH1 0x1 PUSH1 0xA0 SHL SUB NOT DUP4 AND DUP2 OR DUP5 SSTORE PUSH1 0x40 MLOAD SWAP2 SWAP1 SWAP3 AND SWAP3 DUP4 SWAP2 PUSH32 0x8BE0079C531659141344CD1FD0A4F28419497F9722A3DAAFE3B4186F6B6457E0 SWAP2 SWAP1 LOG3 POP POP JUMP JUMPDEST PUSH1 0x1 PUSH1 0x1 PUSH1 0xA0 SHL SUB DUP3 AND PUSH3 0x163 JUMPI PUSH1 0x40 MLOAD PUSH3 0x461BCD PUSH1 0xE5 SHL DUP2 MSTORE PUSH1 0x20 PUSH1 0x4 DUP3 ADD MSTORE PUSH1 0x1F PUSH1 0x24 DUP3 ADD MSTORE PUSH32 0x45524332303A206D696E7420746F20746865207A65726F206164647265737300 PUSH1 0x44 DUP3 ADD MSTORE PUSH1 0x64 ADD JUMPDEST PUSH1 0x40 MLOAD DUP1 SWAP2 SUB SWAP1 REVERT JUMPDEST PUSH3 0x171 PUSH1 0x0 DUP4 DUP4 PUSH3 0x20B JUMP JUMPDEST DUP1 PUSH1 0x3 PUSH1 0x0 DUP3 DUP3 SLOAD PUSH3 0x185 SWAP2 SWAP1 PUSH3 0x52C JUMP JUMPDEST SWAP1 SWAP2 SSTORE POP POP PUSH1 0x1 PUSH1 0x1 PUSH1 0xA0 SHL SUB DUP3 AND PUSH1 0x0 SWAP1 DUP2 MSTORE PUSH1 0x1 PUSH1 0x20 MSTORE PUSH1 0x40 DUP2 KECCAK256 DUP1 SLOAD DUP4 SWAP3 SWAP1 PUSH3 0x1B4 SWAP1 DUP5 SWAP1 PUSH3 0x52C JUMP JUMPDEST SWAP1 SWAP2 SSTORE POP POP PUSH1 0x40 MLOAD DUP2 DUP2 MSTORE PUSH1 0x1 PUSH1 0x1 PUSH1 0xA0 SHL SUB DUP4 AND SWAP1 PUSH1 0x0 SWAP1 PUSH32 0xDDF252AD1BE2C89B69C2B068FC378DAA952BA7F163C4A11628F55A4DF523B3EF SWAP1 PUSH1 0x20 ADD PUSH1 0x40 MLOAD DUP1 SWAP2 SUB SWAP1 LOG3 JUMPDEST POP POP JUMP JUMPDEST PUSH3 0x1FB DUP3 DUP3 PUSH3 0x228 JUMP JUMPDEST PUSH3 0x223 DUP4 DUP4 DUP4 PUSH3 0x2CC PUSH1 0x20 SHL PUSH3 0xA33 OR PUSH1 0x20 SHR JUMP JUMPDEST POP POP POP JUMP JUMPDEST PUSH1 0x0 DUP3 DUP2 MSTORE PUSH1 0x7 PUSH1 0x20 SWAP1 DUP2 MSTORE PUSH1 0x40 DUP1 DUP4 KECCAK256 PUSH1 0x1 PUSH1 0x1 PUSH1 0xA0 SHL SUB DUP6 AND DUP5 MSTORE SWAP1 SWAP2 MSTORE SWAP1 KECCAK256 SLOAD PUSH1 0xFF AND PUSH3 0x1FB JUMPI PUSH1 0x0 DUP3 DUP2 MSTORE PUSH1 0x7 PUSH1 0x20 SWAP1 DUP2 MSTORE PUSH1 0x40 DUP1 DUP4 KECCAK256 PUSH1 0x1 PUSH1 0x1 PUSH1 0xA0 SHL SUB DUP6 AND DUP5 MSTORE SWAP1 SWAP2 MSTORE SWAP1 KECCAK256 DUP1 SLOAD PUSH1 0xFF NOT AND PUSH1 0x1 OR SWAP1 SSTORE PUSH3 0x288 CALLER SWAP1 JUMP JUMPDEST PUSH1 0x1 PUSH1 0x1 PUSH1 0xA0 SHL SUB AND DUP2 PUSH1 0x1 PUSH1 0x1 PUSH1 0xA0 SHL SUB AND DUP4 PUSH32 0x2F8788117E7EFF1D82E926EC794901D17C78024A50270940304540A733656F0D PUSH1 0x40 MLOAD PUSH1 0x40 MLOAD DUP1 SWAP2 SUB SWAP1 LOG4 POP POP JUMP JUMPDEST PUSH3 0x2E4 DUP4 DUP4 DUP4 PUSH3 0x223 PUSH1 0x20 SHL PUSH3 0x55C OR PUSH1 0x20 SHR JUMP JUMPDEST PUSH1 0x6 SLOAD PUSH1 0xFF AND ISZERO PUSH3 0x223 JUMPI PUSH1 0x40 MLOAD PUSH3 0x461BCD PUSH1 0xE5 SHL DUP2 MSTORE PUSH1 0x20 PUSH1 0x4 DUP3 ADD MSTORE PUSH1 0x2A PUSH1 0x24 DUP3 ADD MSTORE PUSH32 0x45524332305061757361626C653A20746F6B656E207472616E73666572207768 PUSH1 0x44 DUP3 ADD MSTORE PUSH10 0x1A5B19481C185D5CD959 PUSH1 0xB2 SHL PUSH1 0x64 DUP3 ADD MSTORE PUSH1 0x84 ADD PUSH3 0x15A JUMP JUMPDEST DUP3 DUP1 SLOAD PUSH3 0x35A SWAP1 PUSH3 0x6AB JUMP JUMPDEST SWAP1 PUSH1 0x0 MSTORE PUSH1 0x20 PUSH1 0x0 KECCAK256 SWAP1 PUSH1 0x1F ADD PUSH1 0x20 SWAP1 DIV DUP2 ADD SWAP3 DUP3 PUSH3 0x37E JUMPI PUSH1 0x0 DUP6 SSTORE PUSH3 0x3C9 JUMP JUMPDEST DUP3 PUSH1 0x1F LT PUSH3 0x399 JUMPI DUP1 MLOAD PUSH1 0xFF NOT AND DUP4 DUP1 ADD OR DUP6 SSTORE PUSH3 0x3C9 JUMP JUMPDEST DUP3 DUP1 ADD PUSH1 0x1 ADD DUP6 SSTORE DUP3 ISZERO PUSH3 0x3C9 JUMPI SWAP2 DUP3 ADD JUMPDEST DUP3 DUP2 GT ISZERO PUSH3 0x3C9 JUMPI DUP3 MLOAD DUP3 SSTORE SWAP2 PUSH1 0x20 ADD SWAP2 SWAP1 PUSH1 0x1 ADD SWAP1 PUSH3 0x3AC JUMP JUMPDEST POP PUSH3 0x3D7 SWAP3 SWAP2 POP PUSH3 0x3DB JUMP JUMPDEST POP SWAP1 JUMP JUMPDEST JUMPDEST DUP1 DUP3 GT ISZERO PUSH3 0x3D7 JUMPI PUSH1 0x0 DUP2 SSTORE PUSH1 0x1 ADD PUSH3 0x3DC JUMP JUMPDEST PUSH1 0x0 DUP3 PUSH1 0x1F DUP4 ADD SLT PUSH3 0x403 JUMPI DUP1 DUP2 REVERT JUMPDEST DUP2 MLOAD PUSH1 0x1 PUSH1 0x1 PUSH1 0x40 SHL SUB DUP1 DUP3 GT ISZERO PUSH3 0x420 JUMPI PUSH3 0x420 PUSH3 0x6FE JUMP JUMPDEST PUSH1 0x40 MLOAD PUSH1 0x1F DUP4 ADD PUSH1 0x1F NOT SWAP1 DUP2 AND PUSH1 0x3F ADD AND DUP2 ADD SWAP1 DUP3 DUP3 GT DUP2 DUP4 LT OR ISZERO PUSH3 0x44B JUMPI PUSH3 0x44B PUSH3 0x6FE JUMP JUMPDEST DUP2 PUSH1 0x40 MSTORE DUP4 DUP2 MSTORE PUSH1 0x20 SWAP3 POP DUP7 DUP4 DUP6 DUP9 ADD ADD GT ISZERO PUSH3 0x467 JUMPI DUP5 DUP6 REVERT JUMPDEST DUP5 SWAP2 POP JUMPDEST DUP4 DUP3 LT ISZERO PUSH3 0x48A JUMPI DUP6 DUP3 ADD DUP4 ADD MLOAD DUP2 DUP4 ADD DUP5 ADD MSTORE SWAP1 DUP3 ADD SWAP1 PUSH3 0x46B JUMP JUMPDEST DUP4 DUP3 GT ISZERO PUSH3 0x49B JUMPI DUP5 DUP4 DUP6 DUP4 ADD ADD MSTORE JUMPDEST SWAP7 SWAP6 POP POP POP POP POP POP JUMP JUMPDEST PUSH1 0x0 DUP1 PUSH1 0x0 DUP1 PUSH1 0x80 DUP6 DUP8 SUB SLT ISZERO PUSH3 0x4BB JUMPI DUP4 DUP5 REVERT JUMPDEST DUP5 MLOAD PUSH1 0x1 PUSH1 0x1 PUSH1 0x40 SHL SUB DUP1 DUP3 GT ISZERO PUSH3 0x4D2 JUMPI DUP6 DUP7 REVERT JUMPDEST PUSH3 0x4E0 DUP9 DUP4 DUP10 ADD PUSH3 0x3F2 JUMP JUMPDEST SWAP6 POP PUSH1 0x20 DUP8 ADD MLOAD SWAP2 POP DUP1 DUP3 GT ISZERO PUSH3 0x4F6 JUMPI DUP5 DUP6 REVERT JUMPDEST POP PUSH3 0x505 DUP8 DUP3 DUP9 ADD PUSH3 0x3F2 JUMP JUMPDEST SWAP4 POP POP PUSH1 0x40 DUP6 ADD MLOAD PUSH1 0xFF DUP2 AND DUP2 EQ PUSH3 0x51C JUMPI DUP3 DUP4 REVERT JUMPDEST PUSH1 0x60 SWAP6 SWAP1 SWAP6 ADD MLOAD SWAP4 SWAP7 SWAP3 SWAP6 POP POP POP JUMP JUMPDEST PUSH1 0x0 DUP3 NOT DUP3 GT ISZERO PUSH3 0x542 JUMPI PUSH3 0x542 PUSH3 0x6E8 JUMP JUMPDEST POP ADD SWAP1 JUMP JUMPDEST DUP1 DUP3 JUMPDEST PUSH1 0x1 DUP1 DUP7 GT PUSH3 0x55B JUMPI POP PUSH3 0x58B JUMP JUMPDEST DUP2 DUP8 DIV DUP3 GT ISZERO PUSH3 0x570 JUMPI PUSH3 0x570 PUSH3 0x6E8 JUMP JUMPDEST DUP1 DUP7 AND ISZERO PUSH3 0x57E JUMPI SWAP2 DUP2 MUL SWAP2 JUMPDEST SWAP5 SWAP1 SWAP5 SHR SWAP4 DUP1 MUL PUSH3 0x54A JUMP JUMPDEST SWAP5 POP SWAP5 SWAP3 POP POP POP JUMP JUMPDEST PUSH1 0x0 PUSH3 0x5A5 PUSH1 0x0 NOT DUP5 DUP5 PUSH3 0x5AC JUMP JUMPDEST SWAP4 SWAP3 POP POP POP JUMP JUMPDEST PUSH1 0x0 DUP3 PUSH3 0x5BD JUMPI POP PUSH1 0x1 PUSH3 0x5A5 JUMP JUMPDEST DUP2 PUSH3 0x5CC JUMPI POP PUSH1 0x0 PUSH3 0x5A5 JUMP JUMPDEST DUP2 PUSH1 0x1 DUP2 EQ PUSH3 0x5E5 JUMPI PUSH1 0x2 DUP2 EQ PUSH3 0x5F0 JUMPI PUSH3 0x624 JUMP JUMPDEST PUSH1 0x1 SWAP2 POP POP PUSH3 0x5A5 JUMP JUMPDEST PUSH1 0xFF DUP5 GT ISZERO PUSH3 0x604 JUMPI PUSH3 0x604 PUSH3 0x6E8 JUMP JUMPDEST PUSH1 0x1 DUP5 SHL SWAP2 POP DUP5 DUP3 GT ISZERO PUSH3 0x61D JUMPI PUSH3 0x61D PUSH3 0x6E8 JUMP JUMPDEST POP PUSH3 0x5A5 JUMP JUMPDEST POP PUSH1 0x20 DUP4 LT PUSH2 0x133 DUP4 LT AND PUSH1 0x4E DUP5 LT PUSH1 0xB DUP5 LT AND OR ISZERO PUSH3 0x65C JUMPI POP DUP2 DUP2 EXP DUP4 DUP2 GT ISZERO PUSH3 0x656 JUMPI PUSH3 0x656 PUSH3 0x6E8 JUMP JUMPDEST PUSH3 0x5A5 JUMP JUMPDEST PUSH3 0x66B DUP5 DUP5 DUP5 PUSH1 0x1 PUSH3 0x547 JUMP JUMPDEST DUP1 DUP7 DIV DUP3 GT ISZERO PUSH3 0x680 JUMPI PUSH3 0x680 PUSH3 0x6E8 JUMP JUMPDEST MUL SWAP5 SWAP4 POP POP POP POP JUMP JUMPDEST PUSH1 0x0 DUP2 PUSH1 0x0 NOT DIV DUP4 GT DUP3 ISZERO ISZERO AND ISZERO PUSH3 0x6A6 JUMPI PUSH3 0x6A6 PUSH3 0x6E8 JUMP JUMPDEST POP MUL SWAP1 JUMP JUMPDEST PUSH1 0x2 DUP2 DIV PUSH1 0x1 DUP3 AND DUP1 PUSH3 0x6C0 JUMPI PUSH1 0x7F DUP3 AND SWAP2 POP JUMPDEST PUSH1 0x20 DUP3 LT DUP2 EQ ISZERO PUSH3 0x6E2 JUMPI PUSH4 0x4E487B71 PUSH1 0xE0 SHL PUSH1 0x0 MSTORE PUSH1 0x22 PUSH1 0x4 MSTORE PUSH1 0x24 PUSH1 0x0 REVERT JUMPDEST POP SWAP2 SWAP1 POP JUMP JUMPDEST PUSH4 0x4E487B71 PUSH1 0xE0 SHL PUSH1 0x0 MSTORE PUSH1 0x11 PUSH1 0x4 MSTORE PUSH1 0x24 PUSH1 0x0 REVERT JUMPDEST PUSH4 0x4E487B71 PUSH1 0xE0 SHL PUSH1 0x0 MSTORE PUSH1 0x41 PUSH1 0x4 MSTORE PUSH1 0x24 PUSH1 0x0 REVERT JUMPDEST PUSH2 0x172D DUP1 PUSH3 0x724 PUSH1 0x0 CODECOPY PUSH1 0x0 RETURN INVALID PUSH1 0x80 PUSH1 0x40 MSTORE CALLVALUE DUP1 ISZERO PUSH2 0x10 JUMPI PUSH1 0x0 DUP1 REVERT JUMPDEST POP PUSH1 0x4 CALLDATASIZE LT PUSH2 0x1C4 JUMPI PUSH1 0x0 CALLDATALOAD PUSH1 0xE0 SHR DUP1 PUSH4 0x70A08231 GT PUSH2 0xF9 JUMPI DUP1 PUSH4 0xA217FDDF GT PUSH2 0x97 JUMPI DUP1 PUSH4 0xD547741F GT PUSH2 0x71 JUMPI DUP1 PUSH4 0xD547741F EQ PUSH2 0x3A8 JUMPI DUP1 PUSH4 0xDD62ED3E EQ PUSH2 0x3BB JUMPI DUP1 PUSH4 0xE63AB1E9 EQ PUSH2 0x3F4 JUMPI DUP1 PUSH4 0xF2FDE38B EQ PUSH2 0x41B JUMPI PUSH2 0x1C4 JUMP JUMPDEST DUP1 PUSH4 0xA217FDDF EQ PUSH2 0x37A JUMPI DUP1 PUSH4 0xA457C2D7 EQ PUSH2 0x382 JUMPI DUP1 PUSH4 0xA9059CBB EQ PUSH2 0x395 JUMPI PUSH2 0x1C4 JUMP JUMPDEST DUP1 PUSH4 0x8456CB59 GT PUSH2 0xD3 JUMPI DUP1 PUSH4 0x8456CB59 EQ PUSH2 0x33C JUMPI DUP1 PUSH4 0x8DA5CB5B EQ PUSH2 0x344 JUMPI DUP1 PUSH4 0x91D14854 EQ PUSH2 0x35F JUMPI DUP1 PUSH4 0x95D89B41 EQ PUSH2 0x372 JUMPI PUSH2 0x1C4 JUMP JUMPDEST DUP1 PUSH4 0x70A08231 EQ PUSH2 0x2F8 JUMPI DUP1 PUSH4 0x715018A6 EQ PUSH2 0x321 JUMPI DUP1 PUSH4 0x79CC6790 EQ PUSH2 0x329 JUMPI PUSH2 0x1C4 JUMP JUMPDEST DUP1 PUSH4 0x2F2FF15D GT PUSH2 0x166 JUMPI DUP1 PUSH4 0x39509351 GT PUSH2 0x140 JUMPI DUP1 PUSH4 0x39509351 EQ PUSH2 0x2BF JUMPI DUP1 PUSH4 0x3F4BA83A EQ PUSH2 0x2D2 JUMPI DUP1 PUSH4 0x42966C68 EQ PUSH2 0x2DA JUMPI DUP1 PUSH4 0x5C975ABB EQ PUSH2 0x2ED JUMPI PUSH2 0x1C4 JUMP JUMPDEST DUP1 PUSH4 0x2F2FF15D EQ PUSH2 0x288 JUMPI DUP1 PUSH4 0x313CE567 EQ PUSH2 0x29D JUMPI DUP1 PUSH4 0x36568ABE EQ PUSH2 0x2AC JUMPI PUSH2 0x1C4 JUMP JUMPDEST DUP1 PUSH4 0x18160DDD GT PUSH2 0x1A2 JUMPI DUP1 PUSH4 0x18160DDD EQ PUSH2 0x219 JUMPI DUP1 PUSH4 0x23B872DD EQ PUSH2 0x22B JUMPI DUP1 PUSH4 0x248A9CA3 EQ PUSH2 0x23E JUMPI DUP1 PUSH4 0x282C51F3 EQ PUSH2 0x261 JUMPI PUSH2 0x1C4 JUMP JUMPDEST DUP1 PUSH4 0x1FFC9A7 EQ PUSH2 0x1C9 JUMPI DUP1 PUSH4 0x6FDDE03 EQ PUSH2 0x1F1 JUMPI DUP1 PUSH4 0x95EA7B3 EQ PUSH2 0x206 JUMPI JUMPDEST PUSH1 0x0 DUP1 REVERT JUMPDEST PUSH2 0x1DC PUSH2 0x1D7 CALLDATASIZE PUSH1 0x4 PUSH2 0x1545 JUMP JUMPDEST PUSH2 0x42E JUMP JUMPDEST PUSH1 0x40 MLOAD SWAP1 ISZERO ISZERO DUP2 MSTORE PUSH1 0x20 ADD JUMPDEST PUSH1 0x40 MLOAD DUP1 SWAP2 SUB SWAP1 RETURN JUMPDEST PUSH2 0x1F9 PUSH2 0x467 JUMP JUMPDEST PUSH1 0x40 MLOAD PUSH2 0x1E8 SWAP2 SWAP1 PUSH2 0x15E2 JUMP JUMPDEST PUSH2 0x1DC PUSH2 0x214 CALLDATASIZE PUSH1 0x4 PUSH2 0x14E2 JUMP JUMPDEST PUSH2 0x4F9 JUMP JUMPDEST PUSH1 0x3 SLOAD JUMPDEST PUSH1 0x40 MLOAD SWAP1 DUP2 MSTORE PUSH1 0x20 ADD PUSH2 0x1E8 JUMP JUMPDEST PUSH2 0x1DC PUSH2 0x239 CALLDATASIZE PUSH1 0x4 PUSH2 0x14A7 JUMP JUMPDEST PUSH2 0x511 JUMP JUMPDEST PUSH2 0x21D PUSH2 0x24C CALLDATASIZE PUSH1 0x4 PUSH2 0x150B JUMP JUMPDEST PUSH1 0x0 SWAP1 DUP2 MSTORE PUSH1 0x7 PUSH1 0x20 MSTORE PUSH1 0x40 SWAP1 KECCAK256 PUSH1 0x1 ADD SLOAD SWAP1 JUMP JUMPDEST PUSH2 0x21D PUSH32 0x3C11D16CBAFFD01DF69CE1C404F6340EE057498F5F00246190EA54220576A848 DUP2 JUMP JUMPDEST PUSH2 0x29B PUSH2 0x296 CALLDATASIZE PUSH1 0x4 PUSH2 0x1523 JUMP JUMPDEST PUSH2 0x535 JUMP JUMPDEST STOP JUMPDEST PUSH1 0x40 MLOAD PUSH1 0x12 DUP2 MSTORE PUSH1 0x20 ADD PUSH2 0x1E8 JUMP JUMPDEST PUSH2 0x29B PUSH2 0x2BA CALLDATASIZE PUSH1 0x4 PUSH2 0x1523 JUMP JUMPDEST PUSH2 0x561 JUMP JUMPDEST PUSH2 0x1DC PUSH2 0x2CD CALLDATASIZE PUSH1 0x4 PUSH2 0x14E2 JUMP JUMPDEST PUSH2 0x5E4 JUMP JUMPDEST PUSH2 0x29B PUSH2 0x623 JUMP JUMPDEST PUSH2 0x29B PUSH2 0x2E8 CALLDATASIZE PUSH1 0x4 PUSH2 0x150B JUMP JUMPDEST PUSH2 0x69C JUMP JUMPDEST PUSH1 0x6 SLOAD PUSH1 0xFF AND PUSH2 0x1DC JUMP JUMPDEST PUSH2 0x21D PUSH2 0x306 CALLDATASIZE PUSH1 0x4 PUSH2 0x145B JUMP JUMPDEST PUSH1 0x1 PUSH1 0x1 PUSH1 0xA0 SHL SUB AND PUSH1 0x0 SWAP1 DUP2 MSTORE PUSH1 0x1 PUSH1 0x20 MSTORE PUSH1 0x40 SWAP1 KECCAK256 SLOAD SWAP1 JUMP JUMPDEST PUSH2 0x29B PUSH2 0x717 JUMP JUMPDEST PUSH2 0x29B PUSH2 0x337 CALLDATASIZE PUSH1 0x4 PUSH2 0x14E2 JUMP JUMPDEST PUSH2 0x77B JUMP JUMPDEST PUSH2 0x29B PUSH2 0x7F4 JUMP JUMPDEST PUSH1 0x0 SLOAD PUSH1 0x40 MLOAD PUSH1 0x1 PUSH1 0x1 PUSH1 0xA0 SHL SUB SWAP1 SWAP2 AND DUP2 MSTORE PUSH1 0x20 ADD PUSH2 0x1E8 JUMP JUMPDEST PUSH2 0x1DC PUSH2 0x36D CALLDATASIZE PUSH1 0x4 PUSH2 0x1523 JUMP JUMPDEST PUSH2 0x86B JUMP JUMPDEST PUSH2 0x1F9 PUSH2 0x896 JUMP JUMPDEST PUSH2 0x21D PUSH1 0x0 DUP2 JUMP JUMPDEST PUSH2 0x1DC PUSH2 0x390 CALLDATASIZE PUSH1 0x4 PUSH2 0x14E2 JUMP JUMPDEST PUSH2 0x8A5 JUMP JUMPDEST PUSH2 0x1DC PUSH2 0x3A3 CALLDATASIZE PUSH1 0x4 PUSH2 0x14E2 JUMP JUMPDEST PUSH2 0x937 JUMP JUMPDEST PUSH2 0x29B PUSH2 0x3B6 CALLDATASIZE PUSH1 0x4 PUSH2 0x1523 JUMP JUMPDEST PUSH2 0x945 JUMP JUMPDEST PUSH2 0x21D PUSH2 0x3C9 CALLDATASIZE PUSH1 0x4 PUSH2 0x1475 JUMP JUMPDEST PUSH1 0x1 PUSH1 0x1 PUSH1 0xA0 SHL SUB SWAP2 DUP3 AND PUSH1 0x0 SWAP1 DUP2 MSTORE PUSH1 0x2 PUSH1 0x20 SWAP1 DUP2 MSTORE PUSH1 0x40 DUP1 DUP4 KECCAK256 SWAP4 SWAP1 SWAP5 AND DUP3 MSTORE SWAP2 SWAP1 SWAP2 MSTORE KECCAK256 SLOAD SWAP1 JUMP JUMPDEST PUSH2 0x21D PUSH32 0x65D7A28E3265B37A6474929F336521B332C1681B933F6CB9F3376673440D862A DUP2 JUMP JUMPDEST PUSH2 0x29B PUSH2 0x429 CALLDATASIZE PUSH1 0x4 PUSH2 0x145B JUMP JUMPDEST PUSH2 0x96B JUMP JUMPDEST PUSH1 0x0 PUSH1 0x1 PUSH1 0x1 PUSH1 0xE0 SHL SUB NOT DUP3 AND PUSH4 0x7965DB0B PUSH1 0xE0 SHL EQ DUP1 PUSH2 0x45F JUMPI POP PUSH4 0x1FFC9A7 PUSH1 0xE0 SHL PUSH1 0x1 PUSH1 0x1 PUSH1 0xE0 SHL SUB NOT DUP4 AND EQ JUMPDEST SWAP1 POP JUMPDEST SWAP2 SWAP1 POP JUMP JUMPDEST PUSH1 0x60 PUSH1 0x4 DUP1 SLOAD PUSH2 0x476 SWAP1 PUSH2 0x16A6 JUMP JUMPDEST DUP1 PUSH1 0x1F ADD PUSH1 0x20 DUP1 SWAP2 DIV MUL PUSH1 0x20 ADD PUSH1 0x40 MLOAD SWAP1 DUP2 ADD PUSH1 0x40 MSTORE DUP1 SWAP3 SWAP2 SWAP1 DUP2 DUP2 MSTORE PUSH1 0x20 ADD DUP3 DUP1 SLOAD PUSH2 0x4A2 SWAP1 PUSH2 0x16A6 JUMP JUMPDEST DUP1 ISZERO PUSH2 0x4EF JUMPI DUP1 PUSH1 0x1F LT PUSH2 0x4C4 JUMPI PUSH2 0x100 DUP1 DUP4 SLOAD DIV MUL DUP4 MSTORE SWAP2 PUSH1 0x20 ADD SWAP2 PUSH2 0x4EF JUMP JUMPDEST DUP3 ADD SWAP2 SWAP1 PUSH1 0x0 MSTORE PUSH1 0x20 PUSH1 0x0 KECCAK256 SWAP1 JUMPDEST DUP2 SLOAD DUP2 MSTORE SWAP1 PUSH1 0x1 ADD SWAP1 PUSH1 0x20 ADD DUP1 DUP4 GT PUSH2 0x4D2 JUMPI DUP3 SWAP1 SUB PUSH1 0x1F AND DUP3 ADD SWAP2 JUMPDEST POP POP POP POP POP SWAP1 POP SWAP1 JUMP JUMPDEST PUSH1 0x0 CALLER PUSH2 0x507 DUP2 DUP6 DUP6 PUSH2 0xA99 JUMP JUMPDEST POP PUSH1 0x1 SWAP4 SWAP3 POP POP POP JUMP JUMPDEST PUSH1 0x0 CALLER PUSH2 0x51F DUP6 DUP3 DUP6 PUSH2 0xBBD JUMP JUMPDEST PUSH2 0x52A DUP6 DUP6 DUP6 PUSH2 0xC4F JUMP JUMPDEST POP PUSH1 0x1 SWAP5 SWAP4 POP POP POP POP JUMP JUMPDEST PUSH1 0x0 DUP3 DUP2 MSTORE PUSH1 0x7 PUSH1 0x20 MSTORE PUSH1 0x40 SWAP1 KECCAK256 PUSH1 0x1 ADD SLOAD PUSH2 0x552 DUP2 CALLER JUMPDEST PUSH2 0xE28 JUMP JUMPDEST PUSH2 0x55C DUP4 DUP4 PUSH2 0xE8C JUMP JUMPDEST POP POP POP JUMP JUMPDEST PUSH1 0x1 PUSH1 0x1 PUSH1 0xA0 SHL SUB DUP2 AND CALLER EQ PUSH2 0x5D6 JUMPI PUSH1 0x40 MLOAD PUSH3 0x461BCD PUSH1 0xE5 SHL DUP2 MSTORE PUSH1 0x20 PUSH1 0x4 DUP3 ADD MSTORE PUSH1 0x2F PUSH1 0x24 DUP3 ADD MSTORE PUSH32 0x416363657373436F6E74726F6C3A2063616E206F6E6C792072656E6F756E6365 PUSH1 0x44 DUP3 ADD MSTORE PUSH15 0x103937B632B9903337B91039B2B633 PUSH1 0x89 SHL PUSH1 0x64 DUP3 ADD MSTORE PUSH1 0x84 ADD JUMPDEST PUSH1 0x40 MLOAD DUP1 SWAP2 SUB SWAP1 REVERT JUMPDEST PUSH2 0x5E0 DUP3 DUP3 PUSH2 0xF12 JUMP JUMPDEST POP POP JUMP JUMPDEST CALLER PUSH1 0x0 DUP2 DUP2 MSTORE PUSH1 0x2 PUSH1 0x20 SWAP1 DUP2 MSTORE PUSH1 0x40 DUP1 DUP4 KECCAK256 PUSH1 0x1 PUSH1 0x1 PUSH1 0xA0 SHL SUB DUP8 AND DUP5 MSTORE SWAP1 SWAP2 MSTORE DUP2 KECCAK256 SLOAD SWAP1 SWAP2 SWAP1 PUSH2 0x507 SWAP1 DUP3 SWAP1 DUP7 SWAP1 PUSH2 0x61E SWAP1 DUP8 SWAP1 PUSH2 0x1615 JUMP JUMPDEST PUSH2 0xA99 JUMP JUMPDEST PUSH2 0x64D PUSH32 0x65D7A28E3265B37A6474929F336521B332C1681B933F6CB9F3376673440D862A CALLER PUSH2 0x86B JUMP JUMPDEST PUSH2 0x692 JUMPI PUSH1 0x40 MLOAD PUSH3 0x461BCD PUSH1 0xE5 SHL DUP2 MSTORE PUSH1 0x20 PUSH1 0x4 DUP3 ADD MSTORE PUSH1 0x16 PUSH1 0x24 DUP3 ADD MSTORE PUSH22 0x21B0B63632B91034B9903737BA1030903830BAB9B2B9 PUSH1 0x51 SHL PUSH1 0x44 DUP3 ADD MSTORE PUSH1 0x64 ADD PUSH2 0x5CD JUMP JUMPDEST PUSH2 0x69A PUSH2 0xF79 JUMP JUMPDEST JUMP JUMPDEST PUSH2 0x6C6 PUSH32 0x3C11D16CBAFFD01DF69CE1C404F6340EE057498F5F00246190EA54220576A848 CALLER PUSH2 0x86B JUMP JUMPDEST PUSH2 0x70B JUMPI PUSH1 0x40 MLOAD PUSH3 0x461BCD PUSH1 0xE5 SHL DUP2 MSTORE PUSH1 0x20 PUSH1 0x4 DUP3 ADD MSTORE PUSH1 0x16 PUSH1 0x24 DUP3 ADD MSTORE PUSH22 0x21B0B63632B91034B9903737BA103090313AB93732B9 PUSH1 0x51 SHL PUSH1 0x44 DUP3 ADD MSTORE PUSH1 0x64 ADD PUSH2 0x5CD JUMP JUMPDEST PUSH2 0x714 DUP2 PUSH2 0x100C JUMP JUMPDEST POP JUMP JUMPDEST PUSH1 0x0 SLOAD PUSH1 0x1 PUSH1 0x1 PUSH1 0xA0 SHL SUB AND CALLER EQ PUSH2 0x771 JUMPI PUSH1 0x40 MLOAD PUSH3 0x461BCD PUSH1 0xE5 SHL DUP2 MSTORE PUSH1 0x20 PUSH1 0x4 DUP3 ADD DUP2 SWAP1 MSTORE PUSH1 0x24 DUP3 ADD MSTORE PUSH32 0x4F776E61626C653A2063616C6C6572206973206E6F7420746865206F776E6572 PUSH1 0x44 DUP3 ADD MSTORE PUSH1 0x64 ADD PUSH2 0x5CD JUMP JUMPDEST PUSH2 0x69A PUSH1 0x0 PUSH2 0x1016 JUMP JUMPDEST PUSH2 0x7A5 PUSH32 0x3C11D16CBAFFD01DF69CE1C404F6340EE057498F5F00246190EA54220576A848 CALLER PUSH2 0x86B JUMP JUMPDEST PUSH2 0x7EA JUMPI PUSH1 0x40 MLOAD PUSH3 0x461BCD PUSH1 0xE5 SHL DUP2 MSTORE PUSH1 0x20 PUSH1 0x4 DUP3 ADD MSTORE PUSH1 0x16 PUSH1 0x24 DUP3 ADD MSTORE PUSH22 0x21B0B63632B91034B9903737BA103090313AB93732B9 PUSH1 0x51 SHL PUSH1 0x44 DUP3 ADD MSTORE PUSH1 0x64 ADD PUSH2 0x5CD JUMP JUMPDEST PUSH2 0x5E0 DUP3 DUP3 PUSH2 0x1066 JUMP JUMPDEST PUSH2 0x81E PUSH32 0x65D7A28E3265B37A6474929F336521B332C1681B933F6CB9F3376673440D862A CALLER PUSH2 0x86B JUMP JUMPDEST PUSH2 0x863 JUMPI PUSH1 0x40 MLOAD PUSH3 0x461BCD PUSH1 0xE5 SHL DUP2 MSTORE PUSH1 0x20 PUSH1 0x4 DUP3 ADD MSTORE PUSH1 0x16 PUSH1 0x24 DUP3 ADD MSTORE PUSH22 0x21B0B63632B91034B9903737BA1030903830BAB9B2B9 PUSH1 0x51 SHL PUSH1 0x44 DUP3 ADD MSTORE PUSH1 0x64 ADD PUSH2 0x5CD JUMP JUMPDEST PUSH2 0x69A PUSH2 0x107B JUMP JUMPDEST PUSH1 0x0 SWAP2 DUP3 MSTORE PUSH1 0x7 PUSH1 0x20 SWAP1 DUP2 MSTORE PUSH1 0x40 DUP1 DUP5 KECCAK256 PUSH1 0x1 PUSH1 0x1 PUSH1 0xA0 SHL SUB SWAP4 SWAP1 SWAP4 AND DUP5 MSTORE SWAP2 SWAP1 MSTORE SWAP1 KECCAK256 SLOAD PUSH1 0xFF AND SWAP1 JUMP JUMPDEST PUSH1 0x60 PUSH1 0x5 DUP1 SLOAD PUSH2 0x476 SWAP1 PUSH2 0x16A6 JUMP JUMPDEST CALLER PUSH1 0x0 DUP2 DUP2 MSTORE PUSH1 0x2 PUSH1 0x20 SWAP1 DUP2 MSTORE PUSH1 0x40 DUP1 DUP4 KECCAK256 PUSH1 0x1 PUSH1 0x1 PUSH1 0xA0 SHL SUB DUP8 AND DUP5 MSTORE SWAP1 SWAP2 MSTORE DUP2 KECCAK256 SLOAD SWAP1 SWAP2 SWAP1 DUP4 DUP2 LT ISZERO PUSH2 0x92A JUMPI PUSH1 0x40 MLOAD PUSH3 0x461BCD PUSH1 0xE5 SHL DUP2 MSTORE PUSH1 0x20 PUSH1 0x4 DUP3 ADD MSTORE PUSH1 0x25 PUSH1 0x24 DUP3 ADD MSTORE PUSH32 0x45524332303A2064656372656173656420616C6C6F77616E63652062656C6F77 PUSH1 0x44 DUP3 ADD MSTORE PUSH5 0x207A65726F PUSH1 0xD8 SHL PUSH1 0x64 DUP3 ADD MSTORE PUSH1 0x84 ADD PUSH2 0x5CD JUMP JUMPDEST PUSH2 0x52A DUP3 DUP7 DUP7 DUP5 SUB PUSH2 0xA99 JUMP JUMPDEST PUSH1 0x0 CALLER PUSH2 0x507 DUP2 DUP6 DUP6 PUSH2 0xC4F JUMP JUMPDEST PUSH1 0x0 DUP3 DUP2 MSTORE PUSH1 0x7 PUSH1 0x20 MSTORE PUSH1 0x40 SWAP1 KECCAK256 PUSH1 0x1 ADD SLOAD PUSH2 0x961 DUP2 CALLER PUSH2 0x54D JUMP JUMPDEST PUSH2 0x55C DUP4 DUP4 PUSH2 0xF12 JUMP JUMPDEST PUSH1 0x0 SLOAD PUSH1 0x1 PUSH1 0x1 PUSH1 0xA0 SHL SUB AND CALLER EQ PUSH2 0x9C5 JUMPI PUSH1 0x40 MLOAD PUSH3 0x461BCD PUSH1 0xE5 SHL DUP2 MSTORE PUSH1 0x20 PUSH1 0x4 DUP3 ADD DUP2 SWAP1 MSTORE PUSH1 0x24 DUP3 ADD MSTORE PUSH32 0x4F776E61626C653A2063616C6C6572206973206E6F7420746865206F776E6572 PUSH1 0x44 DUP3 ADD MSTORE PUSH1 0x64 ADD PUSH2 0x5CD JUMP JUMPDEST PUSH1 0x1 PUSH1 0x1 PUSH1 0xA0 SHL SUB DUP2 AND PUSH2 0xA2A JUMPI PUSH1 0x40 MLOAD PUSH3 0x461BCD PUSH1 0xE5 SHL DUP2 MSTORE PUSH1 0x20 PUSH1 0x4 DUP3 ADD MSTORE PUSH1 0x26 PUSH1 0x24 DUP3 ADD MSTORE PUSH32 0x4F776E61626C653A206E6577206F776E657220697320746865207A65726F2061 PUSH1 0x44 DUP3 ADD MSTORE PUSH6 0x646472657373 PUSH1 0xD0 SHL PUSH1 0x64 DUP3 ADD MSTORE PUSH1 0x84 ADD PUSH2 0x5CD JUMP JUMPDEST PUSH2 0x714 DUP2 PUSH2 0x1016 JUMP JUMPDEST PUSH1 0x6 SLOAD PUSH1 0xFF AND ISZERO PUSH2 0x55C JUMPI PUSH1 0x40 MLOAD PUSH3 0x461BCD PUSH1 0xE5 SHL DUP2 MSTORE PUSH1 0x20 PUSH1 0x4 DUP3 ADD MSTORE PUSH1 0x2A PUSH1 0x24 DUP3 ADD MSTORE PUSH32 0x45524332305061757361626C653A20746F6B656E207472616E73666572207768 PUSH1 0x44 DUP3 ADD MSTORE PUSH10 0x1A5B19481C185D5CD959 PUSH1 0xB2 SHL PUSH1 0x64 DUP3 ADD MSTORE PUSH1 0x84 ADD PUSH2 0x5CD JUMP JUMPDEST PUSH1 0x1 PUSH1 0x1 PUSH1 0xA0 SHL SUB DUP4 AND PUSH2 0xAFB JUMPI PUSH1 0x40 MLOAD PUSH3 0x461BCD PUSH1 0xE5 SHL DUP2 MSTORE PUSH1 0x20 PUSH1 0x4 DUP3 ADD MSTORE PUSH1 0x24 DUP1 DUP3 ADD MSTORE PUSH32 0x45524332303A20617070726F76652066726F6D20746865207A65726F20616464 PUSH1 0x44 DUP3 ADD MSTORE PUSH4 0x72657373 PUSH1 0xE0 SHL PUSH1 0x64 DUP3 ADD MSTORE PUSH1 0x84 ADD PUSH2 0x5CD JUMP JUMPDEST PUSH1 0x1 PUSH1 0x1 PUSH1 0xA0 SHL SUB DUP3 AND PUSH2 0xB5C JUMPI PUSH1 0x40 MLOAD PUSH3 0x461BCD PUSH1 0xE5 SHL DUP2 MSTORE PUSH1 0x20 PUSH1 0x4 DUP3 ADD MSTORE PUSH1 0x22 PUSH1 0x24 DUP3 ADD MSTORE PUSH32 0x45524332303A20617070726F766520746F20746865207A65726F206164647265 PUSH1 0x44 DUP3 ADD MSTORE PUSH2 0x7373 PUSH1 0xF0 SHL PUSH1 0x64 DUP3 ADD MSTORE PUSH1 0x84 ADD PUSH2 0x5CD JUMP JUMPDEST PUSH1 0x1 PUSH1 0x1 PUSH1 0xA0 SHL SUB DUP4 DUP2 AND PUSH1 0x0 DUP2 DUP2 MSTORE PUSH1 0x2 PUSH1 0x20 SWAP1 DUP2 MSTORE PUSH1 0x40 DUP1 DUP4 KECCAK256 SWAP5 DUP8 AND DUP1 DUP5 MSTORE SWAP5 DUP3 MSTORE SWAP2 DUP3 SWAP1 KECCAK256 DUP6 SWAP1 SSTORE SWAP1 MLOAD DUP5 DUP2 MSTORE PUSH32 0x8C5BE1E5EBEC7D5BD14F71427D1E84F3DD0314C0F7B2291E5B200AC8C7C3B925 SWAP2 ADD PUSH1 0x40 MLOAD DUP1 SWAP2 SUB SWAP1 LOG3 POP POP POP JUMP JUMPDEST PUSH1 0x1 PUSH1 0x1 PUSH1 0xA0 SHL SUB DUP4 DUP2 AND PUSH1 0x0 SWAP1 DUP2 MSTORE PUSH1 0x2 PUSH1 0x20 SWAP1 DUP2 MSTORE PUSH1 0x40 DUP1 DUP4 KECCAK256 SWAP4 DUP7 AND DUP4 MSTORE SWAP3 SWAP1 MSTORE KECCAK256 SLOAD PUSH1 0x0 NOT DUP2 EQ PUSH2 0xC49 JUMPI DUP2 DUP2 LT ISZERO PUSH2 0xC3C JUMPI PUSH1 0x40 MLOAD PUSH3 0x461BCD PUSH1 0xE5 SHL DUP2 MSTORE PUSH1 0x20 PUSH1 0x4 DUP3 ADD MSTORE PUSH1 0x1D PUSH1 0x24 DUP3 ADD MSTORE PUSH32 0x45524332303A20696E73756666696369656E7420616C6C6F77616E6365000000 PUSH1 0x44 DUP3 ADD MSTORE PUSH1 0x64 ADD PUSH2 0x5CD JUMP JUMPDEST PUSH2 0xC49 DUP5 DUP5 DUP5 DUP5 SUB PUSH2 0xA99 JUMP JUMPDEST POP POP POP POP JUMP JUMPDEST PUSH1 0x1 PUSH1 0x1 PUSH1 0xA0 SHL SUB DUP4 AND PUSH2 0xCB3 JUMPI PUSH1 0x40 MLOAD PUSH3 0x461BCD PUSH1 0xE5 SHL DUP2 MSTORE PUSH1 0x20 PUSH1 0x4 DUP3 ADD MSTORE PUSH1 0x25 PUSH1 0x24 DUP3 ADD MSTORE PUSH32 0x45524332303A207472616E736665722066726F6D20746865207A65726F206164 PUSH1 0x44 DUP3 ADD MSTORE PUSH5 0x6472657373 PUSH1 0xD8 SHL PUSH1 0x64 DUP3 ADD MSTORE PUSH1 0x84 ADD PUSH2 0x5CD JUMP JUMPDEST PUSH1 0x1 PUSH1 0x1 PUSH1 0xA0 SHL SUB DUP3 AND PUSH2 0xD15 JUMPI PUSH1 0x40 MLOAD PUSH3 0x461BCD PUSH1 0xE5 SHL DUP2 MSTORE PUSH1 0x20 PUSH1 0x4 DUP3 ADD MSTORE PUSH1 0x23 PUSH1 0x24 DUP3 ADD MSTORE PUSH32 0x45524332303A207472616E7366657220746F20746865207A65726F2061646472 PUSH1 0x44 DUP3 ADD MSTORE PUSH3 0x657373 PUSH1 0xE8 SHL PUSH1 0x64 DUP3 ADD MSTORE PUSH1 0x84 ADD PUSH2 0x5CD JUMP JUMPDEST PUSH2 0xD20 DUP4 DUP4 DUP4 PUSH2 0x10F6 JUMP JUMPDEST PUSH1 0x1 PUSH1 0x1 PUSH1 0xA0 SHL SUB DUP4 AND PUSH1 0x0 SWAP1 DUP2 MSTORE PUSH1 0x1 PUSH1 0x20 MSTORE PUSH1 0x40 SWAP1 KECCAK256 SLOAD DUP2 DUP2 LT ISZERO PUSH2 0xD98 JUMPI PUSH1 0x40 MLOAD PUSH3 0x461BCD PUSH1 0xE5 SHL DUP2 MSTORE PUSH1 0x20 PUSH1 0x4 DUP3 ADD MSTORE PUSH1 0x26 PUSH1 0x24 DUP3 ADD MSTORE PUSH32 0x45524332303A207472616E7366657220616D6F756E7420657863656564732062 PUSH1 0x44 DUP3 ADD MSTORE PUSH6 0x616C616E6365 PUSH1 0xD0 SHL PUSH1 0x64 DUP3 ADD MSTORE PUSH1 0x84 ADD PUSH2 0x5CD JUMP JUMPDEST PUSH1 0x1 PUSH1 0x1 PUSH1 0xA0 SHL SUB DUP1 DUP6 AND PUSH1 0x0 SWAP1 DUP2 MSTORE PUSH1 0x1 PUSH1 0x20 MSTORE PUSH1 0x40 DUP1 DUP3 KECCAK256 DUP6 DUP6 SUB SWAP1 SSTORE SWAP2 DUP6 AND DUP2 MSTORE SWAP1 DUP2 KECCAK256 DUP1 SLOAD DUP5 SWAP3 SWAP1 PUSH2 0xDCF SWAP1 DUP5 SWAP1 PUSH2 0x1615 JUMP JUMPDEST SWAP3 POP POP DUP2 SWAP1 SSTORE POP DUP3 PUSH1 0x1 PUSH1 0x1 PUSH1 0xA0 SHL SUB AND DUP5 PUSH1 0x1 PUSH1 0x1 PUSH1 0xA0 SHL SUB AND PUSH32 0xDDF252AD1BE2C89B69C2B068FC378DAA952BA7F163C4A11628F55A4DF523B3EF DUP5 PUSH1 0x40 MLOAD PUSH2 0xE1B SWAP2 DUP2 MSTORE PUSH1 0x20 ADD SWAP1 JUMP JUMPDEST PUSH1 0x40 MLOAD DUP1 SWAP2 SUB SWAP1 LOG3 PUSH2 0xC49 JUMP JUMPDEST PUSH2 0xE32 DUP3 DUP3 PUSH2 0x86B JUMP JUMPDEST PUSH2 0x5E0 JUMPI PUSH2 0xE4A DUP2 PUSH1 0x1 PUSH1 0x1 PUSH1 0xA0 SHL SUB AND PUSH1 0x14 PUSH2 0x1101 JUMP JUMPDEST PUSH2 0xE55 DUP4 PUSH1 0x20 PUSH2 0x1101 JUMP JUMPDEST PUSH1 0x40 MLOAD PUSH1 0x20 ADD PUSH2 0xE66 SWAP3 SWAP2 SWAP1 PUSH2 0x156D JUMP JUMPDEST PUSH1 0x40 DUP1 MLOAD PUSH1 0x1F NOT DUP2 DUP5 SUB ADD DUP2 MSTORE SWAP1 DUP3 SWAP1 MSTORE PUSH3 0x461BCD PUSH1 0xE5 SHL DUP3 MSTORE PUSH2 0x5CD SWAP2 PUSH1 0x4 ADD PUSH2 0x15E2 JUMP JUMPDEST PUSH2 0xE96 DUP3 DUP3 PUSH2 0x86B JUMP JUMPDEST PUSH2 0x5E0 JUMPI PUSH1 0x0 DUP3 DUP2 MSTORE PUSH1 0x7 PUSH1 0x20 SWAP1 DUP2 MSTORE PUSH1 0x40 DUP1 DUP4 KECCAK256 PUSH1 0x1 PUSH1 0x1 PUSH1 0xA0 SHL SUB DUP6 AND DUP5 MSTORE SWAP1 SWAP2 MSTORE SWAP1 KECCAK256 DUP1 SLOAD PUSH1 0xFF NOT AND PUSH1 0x1 OR SWAP1 SSTORE PUSH2 0xECE CALLER SWAP1 JUMP JUMPDEST PUSH1 0x1 PUSH1 0x1 PUSH1 0xA0 SHL SUB AND DUP2 PUSH1 0x1 PUSH1 0x1 PUSH1 0xA0 SHL SUB AND DUP4 PUSH32 0x2F8788117E7EFF1D82E926EC794901D17C78024A50270940304540A733656F0D PUSH1 0x40 MLOAD PUSH1 0x40 MLOAD DUP1 SWAP2 SUB SWAP1 LOG4 POP POP JUMP JUMPDEST PUSH2 0xF1C DUP3 DUP3 PUSH2 0x86B JUMP JUMPDEST ISZERO PUSH2 0x5E0 JUMPI PUSH1 0x0 DUP3 DUP2 MSTORE PUSH1 0x7 PUSH1 0x20 SWAP1 DUP2 MSTORE PUSH1 0x40 DUP1 DUP4 KECCAK256 PUSH1 0x1 PUSH1 0x1 PUSH1 0xA0 SHL SUB DUP6 AND DUP1 DUP6 MSTORE SWAP3 MSTORE DUP1 DUP4 KECCAK256 DUP1 SLOAD PUSH1 0xFF NOT AND SWAP1 SSTORE MLOAD CALLER SWAP3 DUP6 SWAP2 PUSH32 0xF6391F5C32D9C69D2A47EA670B442974B53935D1EDC7FD64EB21E047A839171B SWAP2 SWAP1 LOG4 POP POP JUMP JUMPDEST PUSH1 0x6 SLOAD PUSH1 0xFF AND PUSH2 0xFC2 JUMPI PUSH1 0x40 MLOAD PUSH3 0x461BCD PUSH1 0xE5 SHL DUP2 MSTORE PUSH1 0x20 PUSH1 0x4 DUP3 ADD MSTORE PUSH1 0x14 PUSH1 0x24 DUP3 ADD MSTORE PUSH20 0x14185D5CD8589B194E881B9BDD081C185D5CD959 PUSH1 0x62 SHL PUSH1 0x44 DUP3 ADD MSTORE PUSH1 0x64 ADD PUSH2 0x5CD JUMP JUMPDEST PUSH1 0x6 DUP1 SLOAD PUSH1 0xFF NOT AND SWAP1 SSTORE PUSH32 0x5DB9EE0A495BF2E6FF9C91A7834C1BA4FDD244A5E8AA4E537BD38AEAE4B073AA CALLER JUMPDEST PUSH1 0x40 MLOAD PUSH1 0x1 PUSH1 0x1 PUSH1 0xA0 SHL SUB SWAP1 SWAP2 AND DUP2 MSTORE PUSH1 0x20 ADD PUSH1 0x40 MLOAD DUP1 SWAP2 SUB SWAP1 LOG1 JUMP JUMPDEST PUSH2 0x714 CALLER DUP3 PUSH2 0x12EA JUMP JUMPDEST PUSH1 0x0 DUP1 SLOAD PUSH1 0x1 PUSH1 0x1 PUSH1 0xA0 SHL SUB DUP4 DUP2 AND PUSH1 0x1 PUSH1 0x1 PUSH1 0xA0 SHL SUB NOT DUP4 AND DUP2 OR DUP5 SSTORE PUSH1 0x40 MLOAD SWAP2 SWAP1 SWAP3 AND SWAP3 DUP4 SWAP2 PUSH32 0x8BE0079C531659141344CD1FD0A4F28419497F9722A3DAAFE3B4186F6B6457E0 SWAP2 SWAP1 LOG3 POP POP JUMP JUMPDEST PUSH2 0x1071 DUP3 CALLER DUP4 PUSH2 0xBBD JUMP JUMPDEST PUSH2 0x5E0 DUP3 DUP3 PUSH2 0x12EA JUMP JUMPDEST PUSH1 0x6 SLOAD PUSH1 0xFF AND ISZERO PUSH2 0x10C1 JUMPI PUSH1 0x40 MLOAD PUSH3 0x461BCD PUSH1 0xE5 SHL DUP2 MSTORE PUSH1 0x20 PUSH1 0x4 DUP3 ADD MSTORE PUSH1 0x10 PUSH1 0x24 DUP3 ADD MSTORE PUSH16 0x14185D5CD8589B194E881C185D5CD959 PUSH1 0x82 SHL PUSH1 0x44 DUP3 ADD MSTORE PUSH1 0x64 ADD PUSH2 0x5CD JUMP JUMPDEST PUSH1 0x6 DUP1 SLOAD PUSH1 0xFF NOT AND PUSH1 0x1 OR SWAP1 SSTORE PUSH32 0x62E78CEA01BEE320CD4E420270B5EA74000D11B0C9F74754EBDBFC544B05A258 PUSH2 0xFEF CALLER SWAP1 JUMP JUMPDEST PUSH2 0x55C DUP4 DUP4 DUP4 PUSH2 0xA33 JUMP JUMPDEST PUSH1 0x60 PUSH1 0x0 PUSH2 0x1110 DUP4 PUSH1 0x2 PUSH2 0x162D JUMP JUMPDEST PUSH2 0x111B SWAP1 PUSH1 0x2 PUSH2 0x1615 JUMP JUMPDEST PUSH8 0xFFFFFFFFFFFFFFFF DUP2 GT ISZERO PUSH2 0x1141 JUMPI PUSH4 0x4E487B71 PUSH1 0xE0 SHL PUSH1 0x0 MSTORE PUSH1 0x41 PUSH1 0x4 MSTORE PUSH1 0x24 PUSH1 0x0 REVERT JUMPDEST PUSH1 0x40 MLOAD SWAP1 DUP1 DUP3 MSTORE DUP1 PUSH1 0x1F ADD PUSH1 0x1F NOT AND PUSH1 0x20 ADD DUP3 ADD PUSH1 0x40 MSTORE DUP1 ISZERO PUSH2 0x116B JUMPI PUSH1 0x20 DUP3 ADD DUP2 DUP1 CALLDATASIZE DUP4 CALLDATACOPY ADD SWAP1 POP JUMPDEST POP SWAP1 POP PUSH1 0x3 PUSH1 0xFC SHL DUP2 PUSH1 0x0 DUP2 MLOAD DUP2 LT PUSH2 0x1194 JUMPI PUSH4 0x4E487B71 PUSH1 0xE0 SHL PUSH1 0x0 MSTORE PUSH1 0x32 PUSH1 0x4 MSTORE PUSH1 0x24 PUSH1 0x0 REVERT JUMPDEST PUSH1 0x20 ADD ADD SWAP1 PUSH1 0x1 PUSH1 0x1 PUSH1 0xF8 SHL SUB NOT AND SWAP1 DUP2 PUSH1 0x0 BYTE SWAP1 MSTORE8 POP PUSH1 0xF PUSH1 0xFB SHL DUP2 PUSH1 0x1 DUP2 MLOAD DUP2 LT PUSH2 0x11D1 JUMPI PUSH4 0x4E487B71 PUSH1 0xE0 SHL PUSH1 0x0 MSTORE PUSH1 0x32 PUSH1 0x4 MSTORE PUSH1 0x24 PUSH1 0x0 REVERT JUMPDEST PUSH1 0x20 ADD ADD SWAP1 PUSH1 0x1 PUSH1 0x1 PUSH1 0xF8 SHL SUB NOT AND SWAP1 DUP2 PUSH1 0x0 BYTE SWAP1 MSTORE8 POP PUSH1 0x0 PUSH2 0x11F5 DUP5 PUSH1 0x2 PUSH2 0x162D JUMP JUMPDEST PUSH2 0x1200 SWAP1 PUSH1 0x1 PUSH2 0x1615 JUMP JUMPDEST SWAP1 POP JUMPDEST PUSH1 0x1 DUP2 GT ISZERO PUSH2 0x1294 JUMPI PUSH16 0x181899199A1A9B1B9C1CB0B131B232B3 PUSH1 0x81 SHL DUP6 PUSH1 0xF AND PUSH1 0x10 DUP2 LT PUSH2 0x1242 JUMPI PUSH4 0x4E487B71 PUSH1 0xE0 SHL PUSH1 0x0 MSTORE PUSH1 0x32 PUSH1 0x4 MSTORE PUSH1 0x24 PUSH1 0x0 REVERT JUMPDEST BYTE PUSH1 0xF8 SHL DUP3 DUP3 DUP2 MLOAD DUP2 LT PUSH2 0x1266 JUMPI PUSH4 0x4E487B71 PUSH1 0xE0 SHL PUSH1 0x0 MSTORE PUSH1 0x32 PUSH1 0x4 MSTORE PUSH1 0x24 PUSH1 0x0 REVERT JUMPDEST PUSH1 0x20 ADD ADD SWAP1 PUSH1 0x1 PUSH1 0x1 PUSH1 0xF8 SHL SUB NOT AND SWAP1 DUP2 PUSH1 0x0 BYTE SWAP1 MSTORE8 POP PUSH1 0x4 SWAP5 SWAP1 SWAP5 SHR SWAP4 PUSH2 0x128D DUP2 PUSH2 0x168F JUMP JUMPDEST SWAP1 POP PUSH2 0x1203 JUMP JUMPDEST POP DUP4 ISZERO PUSH2 0x12E3 JUMPI PUSH1 0x40 MLOAD PUSH3 0x461BCD PUSH1 0xE5 SHL DUP2 MSTORE PUSH1 0x20 PUSH1 0x4 DUP3 ADD DUP2 SWAP1 MSTORE PUSH1 0x24 DUP3 ADD MSTORE PUSH32 0x537472696E67733A20686578206C656E67746820696E73756666696369656E74 PUSH1 0x44 DUP3 ADD MSTORE PUSH1 0x64 ADD PUSH2 0x5CD JUMP JUMPDEST SWAP4 SWAP3 POP POP POP JUMP JUMPDEST PUSH1 0x1 PUSH1 0x1 PUSH1 0xA0 SHL SUB DUP3 AND PUSH2 0x134A JUMPI PUSH1 0x40 MLOAD PUSH3 0x461BCD PUSH1 0xE5 SHL DUP2 MSTORE PUSH1 0x20 PUSH1 0x4 DUP3 ADD MSTORE PUSH1 0x21 PUSH1 0x24 DUP3 ADD MSTORE PUSH32 0x45524332303A206275726E2066726F6D20746865207A65726F20616464726573 PUSH1 0x44 DUP3 ADD MSTORE PUSH1 0x73 PUSH1 0xF8 SHL PUSH1 0x64 DUP3 ADD MSTORE PUSH1 0x84 ADD PUSH2 0x5CD JUMP JUMPDEST PUSH2 0x1356 DUP3 PUSH1 0x0 DUP4 PUSH2 0x10F6 JUMP JUMPDEST PUSH1 0x1 PUSH1 0x1 PUSH1 0xA0 SHL SUB DUP3 AND PUSH1 0x0 SWAP1 DUP2 MSTORE PUSH1 0x1 PUSH1 0x20 MSTORE PUSH1 0x40 SWAP1 KECCAK256 SLOAD DUP2 DUP2 LT ISZERO PUSH2 0x13CA JUMPI PUSH1 0x40 MLOAD PUSH3 0x461BCD PUSH1 0xE5 SHL DUP2 MSTORE PUSH1 0x20 PUSH1 0x4 DUP3 ADD MSTORE PUSH1 0x22 PUSH1 0x24 DUP3 ADD MSTORE PUSH32 0x45524332303A206275726E20616D6F756E7420657863656564732062616C616E PUSH1 0x44 DUP3 ADD MSTORE PUSH2 0x6365 PUSH1 0xF0 SHL PUSH1 0x64 DUP3 ADD MSTORE PUSH1 0x84 ADD PUSH2 0x5CD JUMP JUMPDEST PUSH1 0x1 PUSH1 0x1 PUSH1 0xA0 SHL SUB DUP4 AND PUSH1 0x0 SWAP1 DUP2 MSTORE PUSH1 0x1 PUSH1 0x20 MSTORE PUSH1 0x40 DUP2 KECCAK256 DUP4 DUP4 SUB SWAP1 SSTORE PUSH1 0x3 DUP1 SLOAD DUP5 SWAP3 SWAP1 PUSH2 0x13F9 SWAP1 DUP5 SWAP1 PUSH2 0x164C JUMP JUMPDEST SWAP1 SWAP2 SSTORE POP POP PUSH1 0x40 MLOAD DUP3 DUP2 MSTORE PUSH1 0x0 SWAP1 PUSH1 0x1 PUSH1 0x1 PUSH1 0xA0 SHL SUB DUP6 AND SWAP1 PUSH32 0xDDF252AD1BE2C89B69C2B068FC378DAA952BA7F163C4A11628F55A4DF523B3EF SWAP1 PUSH1 0x20 ADD PUSH1 0x40 MLOAD DUP1 SWAP2 SUB SWAP1 LOG3 PUSH2 0x55C JUMP JUMPDEST DUP1 CALLDATALOAD PUSH1 0x1 PUSH1 0x1 PUSH1 0xA0 SHL SUB DUP2 AND DUP2 EQ PUSH2 0x462 JUMPI PUSH1 0x0 DUP1 REVERT JUMPDEST PUSH1 0x0 PUSH1 0x20 DUP3 DUP5 SUB SLT ISZERO PUSH2 0x146C JUMPI DUP1 DUP2 REVERT JUMPDEST PUSH2 0x12E3 DUP3 PUSH2 0x1444 JUMP JUMPDEST PUSH1 0x0 DUP1 PUSH1 0x40 DUP4 DUP6 SUB SLT ISZERO PUSH2 0x1487 JUMPI DUP1 DUP2 REVERT JUMPDEST PUSH2 0x1490 DUP4 PUSH2 0x1444 JUMP JUMPDEST SWAP2 POP PUSH2 0x149E PUSH1 0x20 DUP5 ADD PUSH2 0x1444 JUMP JUMPDEST SWAP1 POP SWAP3 POP SWAP3 SWAP1 POP JUMP JUMPDEST PUSH1 0x0 DUP1 PUSH1 0x0 PUSH1 0x60 DUP5 DUP7 SUB SLT ISZERO PUSH2 0x14BB JUMPI DUP1 DUP2 REVERT JUMPDEST PUSH2 0x14C4 DUP5 PUSH2 0x1444 JUMP JUMPDEST SWAP3 POP PUSH2 0x14D2 PUSH1 0x20 DUP6 ADD PUSH2 0x1444 JUMP JUMPDEST SWAP2 POP PUSH1 0x40 DUP5 ADD CALLDATALOAD SWAP1 POP SWAP3 POP SWAP3 POP SWAP3 JUMP JUMPDEST PUSH1 0x0 DUP1 PUSH1 0x40 DUP4 DUP6 SUB SLT ISZERO PUSH2 0x14F4 JUMPI DUP2 DUP3 REVERT JUMPDEST PUSH2 0x14FD DUP4 PUSH2 0x1444 JUMP JUMPDEST SWAP5 PUSH1 0x20 SWAP4 SWAP1 SWAP4 ADD CALLDATALOAD SWAP4 POP POP POP JUMP JUMPDEST PUSH1 0x0 PUSH1 0x20 DUP3 DUP5 SUB SLT ISZERO PUSH2 0x151C JUMPI DUP1 DUP2 REVERT JUMPDEST POP CALLDATALOAD SWAP2 SWAP1 POP JUMP JUMPDEST PUSH1 0x0 DUP1 PUSH1 0x40 DUP4 DUP6 SUB SLT ISZERO PUSH2 0x1535 JUMPI DUP2 DUP3 REVERT JUMPDEST DUP3 CALLDATALOAD SWAP2 POP PUSH2 0x149E PUSH1 0x20 DUP5 ADD PUSH2 0x1444 JUMP JUMPDEST PUSH1 0x0 PUSH1 0x20 DUP3 DUP5 SUB SLT ISZERO PUSH2 0x1556 JUMPI DUP1 DUP2 REVERT JUMPDEST DUP2 CALLDATALOAD PUSH1 0x1 PUSH1 0x1 PUSH1 0xE0 SHL SUB NOT DUP2 AND DUP2 EQ PUSH2 0x12E3 JUMPI DUP2 DUP3 REVERT JUMPDEST PUSH1 0x0 PUSH32 0x416363657373436F6E74726F6C3A206163636F756E7420000000000000000000 DUP3 MSTORE DUP4 MLOAD PUSH2 0x15A5 DUP2 PUSH1 0x17 DUP6 ADD PUSH1 0x20 DUP9 ADD PUSH2 0x1663 JUMP JUMPDEST PUSH17 0x1034B99036B4B9B9B4B733903937B6329 PUSH1 0x7D SHL PUSH1 0x17 SWAP2 DUP5 ADD SWAP2 DUP3 ADD MSTORE DUP4 MLOAD PUSH2 0x15D6 DUP2 PUSH1 0x28 DUP5 ADD PUSH1 0x20 DUP9 ADD PUSH2 0x1663 JUMP JUMPDEST ADD PUSH1 0x28 ADD SWAP5 SWAP4 POP POP POP POP JUMP JUMPDEST PUSH1 0x0 PUSH1 0x20 DUP3 MSTORE DUP3 MLOAD DUP1 PUSH1 0x20 DUP5 ADD MSTORE PUSH2 0x1601 DUP2 PUSH1 0x40 DUP6 ADD PUSH1 0x20 DUP8 ADD PUSH2 0x1663 JUMP JUMPDEST PUSH1 0x1F ADD PUSH1 0x1F NOT AND SWAP2 SWAP1 SWAP2 ADD PUSH1 0x40 ADD SWAP3 SWAP2 POP POP JUMP JUMPDEST PUSH1 0x0 DUP3 NOT DUP3 GT ISZERO PUSH2 0x1628 JUMPI PUSH2 0x1628 PUSH2 0x16E1 JUMP JUMPDEST POP ADD SWAP1 JUMP JUMPDEST PUSH1 0x0 DUP2 PUSH1 0x0 NOT DIV DUP4 GT DUP3 ISZERO ISZERO AND ISZERO PUSH2 0x1647 JUMPI PUSH2 0x1647 PUSH2 0x16E1 JUMP JUMPDEST POP MUL SWAP1 JUMP JUMPDEST PUSH1 0x0 DUP3 DUP3 LT ISZERO PUSH2 0x165E JUMPI PUSH2 0x165E PUSH2 0x16E1 JUMP JUMPDEST POP SUB SWAP1 JUMP JUMPDEST PUSH1 0x0 JUMPDEST DUP4 DUP2 LT ISZERO PUSH2 0x167E JUMPI DUP2 DUP2 ADD MLOAD DUP4 DUP3 ADD MSTORE PUSH1 0x20 ADD PUSH2 0x1666 JUMP JUMPDEST DUP4 DUP2 GT ISZERO PUSH2 0xC49 JUMPI POP POP PUSH1 0x0 SWAP2 ADD MSTORE JUMP JUMPDEST PUSH1 0x0 DUP2 PUSH2 0x169E JUMPI PUSH2 0x169E PUSH2 0x16E1 JUMP JUMPDEST POP PUSH1 0x0 NOT ADD SWAP1 JUMP JUMPDEST PUSH1 0x2 DUP2 DIV PUSH1 0x1 DUP3 AND DUP1 PUSH2 0x16BA JUMPI PUSH1 0x7F DUP3 AND SWAP2 POP JUMPDEST PUSH1 0x20 DUP3 LT DUP2 EQ ISZERO PUSH2 0x16DB JUMPI PUSH4 0x4E487B71 PUSH1 0xE0 SHL PUSH1 0x0 MSTORE PUSH1 0x22 PUSH1 0x4 MSTORE PUSH1 0x24 PUSH1 0x0 REVERT JUMPDEST POP SWAP2 SWAP1 POP JUMP JUMPDEST PUSH4 0x4E487B71 PUSH1 0xE0 SHL PUSH1 0x0 MSTORE PUSH1 0x11 PUSH1 0x4 MSTORE PUSH1 0x24 PUSH1 0x0 REVERT INVALID LOG2 PUSH5 0x6970667358 0x22 SLT KECCAK256 0xC4 SWAP14 0x27 CALLVALUE 0xC7 LOG4 0xCE 0xBD NUMBER 0xDC CREATE REVERT PUSH1 0x0 POP PUSH32 0xF4628AEFC185D50ADCBEFC4AA3A57CBC64736F6C634300080200330000000000 "
        },
        "methodIdentifiers": {
          "BURNER_ROLE()": "282c51f3",
          "DEFAULT_ADMIN_ROLE()": "a217fddf",
          "PAUSER_ROLE()": "e63ab1e9",
          "allowance(address,address)": "dd62ed3e",
          "approve(address,uint256)": "095ea7b3",
          "balanceOf(address)": "70a08231",
          "burn(uint256)": "42966c68",
          "burnFrom(address,uint256)": "79cc6790",
          "decimals()": "313ce567",
          "decreaseAllowance(address,uint256)": "a457c2d7",
          "getRoleAdmin(bytes32)": "248a9ca3",
          "grantRole(bytes32,address)": "2f2ff15d",
          "hasRole(bytes32,address)": "91d14854",
          "increaseAllowance(address,uint256)": "39509351",
          "name()": "06fdde03",
          "owner()": "8da5cb5b",
          "pause()": "8456cb59",
          "paused()": "5c975abb",
          "renounceOwnership()": "715018a6",
          "renounceRole(bytes32,address)": "36568abe",
          "revokeRole(bytes32,address)": "d547741f",
          "supportsInterface(bytes4)": "01ffc9a7",
          "symbol()": "95d89b41",
          "totalSupply()": "18160ddd",
          "transfer(address,uint256)": "a9059cbb",
          "transferFrom(address,address,uint256)": "23b872dd",
          "transferOwnership(address)": "f2fde38b",
          "unpause()": "3f4ba83a"
        }
      }
    }
  }
}