{
  "_format": "hh-sol-artifact-1",
  "contractName": "TokenSwap",
  "sourceName": "contracts/TokenSwap.sol",
  "abi": [
    {
      "inputs": [
        {
          "internalType": "address",
          "name": "_token1",
          "type": "address"
        },
        {
          "internalType": "address",
          "name": "_owner1",
          "type": "address"
        },
        {
          "internalType": "uint256",
          "name": "_amount1",
          "type": "uint256"
        },
        {
          "internalType": "address",
          "name": "_token2",
          "type": "address"
        },
        {
          "internalType": "address",
          "name": "_owner2",
          "type": "address"
        },
        {
          "internalType": "uint256",
          "name": "_amount2",
          "type": "uint256"
        }
      ],
      "stateMutability": "nonpayable",
      "type": "constructor"
    },
    {
      "inputs": [],
      "name": "amount1",
      "outputs": [
        {
          "internalType": "uint256",
          "name": "",
          "type": "uint256"
        }
      ],
      "stateMutability": "view",
      "type": "function"
    },
    {
      "inputs": [],
      "name": "amount2",
      "outputs": [
        {
          "internalType": "uint256",
          "name": "",
          "type": "uint256"
        }
      ],
      "stateMutability": "view",
      "type": "function"
    },
    {
      "inputs": [],
      "name": "owner1",
      "outputs": [
        {
          "internalType": "address",
          "name": "",
          "type": "address"
        }
      ],
      "stateMutability": "view",
      "type": "function"
    },
    {
      "inputs": [],
      "name": "owner2",
      "outputs": [
        {
          "internalType": "address",
          "name": "",
          "type": "address"
        }
      ],
      "stateMutability": "view",
      "type": "function"
    },
    {
      "inputs": [],
      "name": "swap",
      "outputs": [],
      "stateMutability": "nonpayable",
      "type": "function"
    },
    {
      "inputs": [],
      "name": "token1",
      "outputs": [
        {
          "internalType": "contract IERC20",
          "name": "",
          "type": "address"
        }
      ],
      "stateMutability": "view",
      "type": "function"
    },
    {
      "inputs": [],
      "name": "token2",
      "outputs": [
        {
          "internalType": "contract IERC20",
          "name": "",
          "type": "address"
        }
      ],
      "stateMutability": "view",
      "type": "function"
    }
  ],
  "bytecode": "0x608060405234801561001057600080fd5b506040516106a33803806106a383398101604081905261002f91610166565b6001546001600160a01b03166100965760405162461bcd60e51b815260206004820152602160248201527f45524332303a20737761702066726f6d20746865207a65726f206164647265736044820152607360f81b60648201526084015b60405180910390fd5b6004546001600160a01b03166100ee5760405162461bcd60e51b815260206004820152601f60248201527f45524332303a207377617020746f20746865207a65726f206164647265737300604482015260640161008d565b600080546001600160a01b03199081166001600160a01b039889161790915560018054821696881696909617909555600293909355600380548516928616929092179091556004805490931693169290921790556005556101cb565b80516001600160a01b038116811461016157600080fd5b919050565b60008060008060008060c0878903121561017e578182fd5b6101878761014a565b95506101956020880161014a565b9450604087015193506101aa6060880161014a565b92506101b86080880161014a565b915060a087015190509295509295509295565b6104c9806101da6000396000f3fe608060405234801561001057600080fd5b506004361061007d5760003560e01c8063736889141161005b57806373688914146100dc5780638119c065146100ef578063d21220a7146100f9578063f400fde41461010c5761007d565b8063057bfcc71461008257806325be124e1461009e57806352709725146100c9575b600080fd5b61008b60055481565b6040519081526020015b60405180910390f35b6003546100b1906001600160a01b031681565b6040516001600160a01b039091168152602001610095565b6004546100b1906001600160a01b031681565b6001546100b1906001600160a01b031681565b6100f7610115565b005b6000546100b1906001600160a01b031681565b61008b60025481565b6001546001600160a01b031633148061013857506004546001600160a01b031633145b61017a5760405162461bcd60e51b815260206004820152600e60248201526d139bdd08185d5d1a1bdc9a5e995960921b60448201526064015b60405180910390fd5b600254600054600154604051636eb1769f60e11b81526001600160a01b03918216600482015230602482015291169063dd62ed3e9060440160206040518083038186803b1580156101ca57600080fd5b505afa1580156101de573d6000803e3d6000fd5b505050506040513d601f19601f82011682018060405250810190610202919061047b565b10156102505760405162461bcd60e51b815260206004820152601960248201527f546f6b656e203120616c6c6f77616e636520746f6f206c6f77000000000000006044820152606401610171565b60055460035460048054604051636eb1769f60e11b81526001600160a01b03918216928101929092523060248301529091169063dd62ed3e9060440160206040518083038186803b1580156102a457600080fd5b505afa1580156102b8573d6000803e3d6000fd5b505050506040513d601f19601f820116820180604052508101906102dc919061047b565b101561032a5760405162461bcd60e51b815260206004820152601960248201527f546f6b656e203220616c6c6f77616e636520746f6f206c6f77000000000000006044820152606401610171565b600054600154600454600254610350936001600160a01b03908116938116921690610378565b600354600454600154600554610376936001600160a01b03908116938116921690610378565b565b6040516323b872dd60e01b81526001600160a01b038481166004830152838116602483015260448201839052600091908616906323b872dd90606401602060405180830381600087803b1580156103ce57600080fd5b505af11580156103e2573d6000803e3d6000fd5b505050506040513d601f19601f820116820180604052508101906104069190610454565b90508061044d5760405162461bcd60e51b8152602060048201526015602482015274151bdad95b881d1c985b9cd9995c8819985a5b1959605a1b6044820152606401610171565b5050505050565b600060208284031215610465578081fd5b81518015158114610474578182fd5b9392505050565b60006020828403121561048c578081fd5b505191905056fea264697066735822122064213a27f43a7cc7775c0e48a19c6252c66d10724bc2de5a5e2d55bb453543f564736f6c63430008020033",
  "linkReferences": {},
  "deployedLinkReferences": {}
}