{
  "_format": "hh-sol-artifact-1",
  "contractName": "TokenSwap",
  "sourceName": "contracts/TokenSwap.sol",
  "abi": [
    {
      "inputs": [
        {
          "internalType": "address",
          "name": "_token1",
          "type": "address"
        },
        {
          "internalType": "address",
          "name": "_owner1",
          "type": "address"
        },
        {
          "internalType": "uint256",
          "name": "_amount1",
          "type": "uint256"
        },
        {
          "internalType": "address",
          "name": "_token2",
          "type": "address"
        },
        {
          "internalType": "address",
          "name": "_owner2",
          "type": "address"
        },
        {
          "internalType": "uint256",
          "name": "_amount2",
          "type": "uint256"
        }
      ],
      "stateMutability": "nonpayable",
      "type": "constructor"
    },
    {
      "inputs": [],
      "name": "amount1",
      "outputs": [
        {
          "internalType": "uint256",
          "name": "",
          "type": "uint256"
        }
      ],
      "stateMutability": "view",
      "type": "function"
    },
    {
      "inputs": [],
      "name": "amount2",
      "outputs": [
        {
          "internalType": "uint256",
          "name": "",
          "type": "uint256"
        }
      ],
      "stateMutability": "view",
      "type": "function"
    },
    {
      "inputs": [],
      "name": "owner1",
      "outputs": [
        {
          "internalType": "address",
          "name": "",
          "type": "address"
        }
      ],
      "stateMutability": "view",
      "type": "function"
    },
    {
      "inputs": [],
      "name": "owner2",
      "outputs": [
        {
          "internalType": "address",
          "name": "",
          "type": "address"
        }
      ],
      "stateMutability": "view",
      "type": "function"
    },
    {
      "inputs": [],
      "name": "swap",
      "outputs": [],
      "stateMutability": "nonpayable",
      "type": "function"
    },
    {
      "inputs": [],
      "name": "token1",
      "outputs": [
        {
          "internalType": "contract IERC20",
          "name": "",
          "type": "address"
        }
      ],
      "stateMutability": "view",
      "type": "function"
    },
    {
      "inputs": [],
      "name": "token2",
      "outputs": [
        {
          "internalType": "contract IERC20",
          "name": "",
          "type": "address"
        }
      ],
      "stateMutability": "view",
      "type": "function"
    }
  ],
  "bytecode": "0x608060405234801561001057600080fd5b5060405161073738038061073783398101604081905261002f91610100565b6001546001600160a01b03166100605760405162461bcd60e51b815260040161005790610165565b60405180910390fd5b6004546001600160a01b03166100885760405162461bcd60e51b8152600401610057906101a6565b600080546001600160a01b03199081166001600160a01b039889161790915560018054821696881696909617909555600293909355600380548516928616929092179091556004805490931693169290921790556005556101dd565b80516001600160a01b03811681146100fb57600080fd5b919050565b60008060008060008060c08789031215610118578182fd5b610121876100e4565b955061012f602088016100e4565b945060408701519350610144606088016100e4565b9250610152608088016100e4565b915060a087015190509295509295509295565b60208082526021908201527f45524332303a20737761702066726f6d20746865207a65726f206164647265736040820152607360f81b606082015260800190565b6020808252601f908201527f45524332303a207377617020746f20746865207a65726f206164647265737300604082015260600190565b61054b806101ec6000396000f3fe608060405234801561001057600080fd5b506004361061007d5760003560e01c8063736889141161005b57806373688914146100bd5780638119c065146100c5578063d21220a7146100cf578063f400fde4146100d75761007d565b8063057bfcc71461008257806325be124e146100a057806352709725146100b5575b600080fd5b61008a6100df565b604051610097919061050c565b60405180910390f35b6100a86100e5565b60405161009791906103f5565b6100a86100f4565b6100a8610103565b6100cd610112565b005b6100a86102f6565b61008a610305565b60055481565b6003546001600160a01b031681565b6004546001600160a01b031681565b6001546001600160a01b031681565b6001546001600160a01b031633148061013557506004546001600160a01b031633145b61015a5760405162461bcd60e51b8152600401610151906104e4565b60405180910390fd5b600254600054600154604051636eb1769f60e11b81526001600160a01b039283169263dd62ed3e92610193929116903090600401610409565b60206040518083038186803b1580156101ab57600080fd5b505afa1580156101bf573d6000803e3d6000fd5b505050506040513d601f19601f820116820180604052508101906101e391906103dd565b10156102015760405162461bcd60e51b8152600401610151906104ad565b60055460035460048054604051636eb1769f60e11b81526001600160a01b039384169363dd62ed3e9361023a9390911691309101610409565b60206040518083038186803b15801561025257600080fd5b505afa158015610266573d6000803e3d6000fd5b505050506040513d601f19601f8201168201806040525081019061028a91906103dd565b10156102a85760405162461bcd60e51b815260040161015190610447565b6000546001546004546002546102ce936001600160a01b0390811693811692169061030b565b6003546004546001546005546102f4936001600160a01b0390811693811692169061030b565b565b6000546001600160a01b031681565b60025481565b6040516323b872dd60e01b81526000906001600160a01b038616906323b872dd9061033e90879087908790600401610423565b602060405180830381600087803b15801561035857600080fd5b505af115801561036c573d6000803e3d6000fd5b505050506040513d601f19601f8201168201806040525081019061039091906103b6565b9050806103af5760405162461bcd60e51b81526004016101519061047e565b5050505050565b6000602082840312156103c7578081fd5b815180151581146103d6578182fd5b9392505050565b6000602082840312156103ee578081fd5b5051919050565b6001600160a01b0391909116815260200190565b6001600160a01b0392831681529116602082015260400190565b6001600160a01b039384168152919092166020820152604081019190915260600190565b60208082526019908201527f546f6b656e203220616c6c6f77616e636520746f6f206c6f7700000000000000604082015260600190565b602080825260159082015274151bdad95b881d1c985b9cd9995c8819985a5b1959605a1b604082015260600190565b60208082526019908201527f546f6b656e203120616c6c6f77616e636520746f6f206c6f7700000000000000604082015260600190565b6020808252600e908201526d139bdd08185d5d1a1bdc9a5e995960921b604082015260600190565b9081526020019056fea2646970667358221220e855dfb20e44cbafa63757dbbf1aeb0b13ce8ee4e5f9e71ed43be95f092aadc264736f6c63430008000033",
  "linkReferences": {},
  "deployedLinkReferences": {}
}