{
  "_format": "hh-sol-artifact-1",
  "contractName": "SportZChainTokenVesting",
  "sourceName": "contracts/vesting/SportZChainTokenVesting.sol",
  "abi": [
    {
      "inputs": [
        {
          "internalType": "contract IERC20",
          "name": "sportzchain",
          "type": "address"
        }
      ],
      "stateMutability": "nonpayable",
      "type": "constructor"
    },
    {
      "anonymous": false,
      "inputs": [
        {
          "indexed": true,
          "internalType": "address",
          "name": "account",
          "type": "address"
        }
      ],
      "name": "AccountRegistered",
      "type": "event"
    },
    {
      "anonymous": false,
      "inputs": [
        {
          "indexed": true,
          "internalType": "address",
          "name": "grantHolder",
          "type": "address"
        },
        {
          "indexed": true,
          "internalType": "uint32",
          "name": "onDay",
          "type": "uint32"
        }
      ],
      "name": "GrantRevoked",
      "type": "event"
    },
    {
      "anonymous": false,
      "inputs": [
        {
          "indexed": true,
          "internalType": "address",
          "name": "account",
          "type": "address"
        }
      ],
      "name": "GrantorAdded",
      "type": "event"
    },
    {
      "anonymous": false,
      "inputs": [
        {
          "indexed": true,
          "internalType": "address",
          "name": "account",
          "type": "address"
        }
      ],
      "name": "GrantorRemoved",
      "type": "event"
    },
    {
      "anonymous": false,
      "inputs": [
        {
          "indexed": true,
          "internalType": "address",
          "name": "previousOwner",
          "type": "address"
        },
        {
          "indexed": true,
          "internalType": "address",
          "name": "newOwner",
          "type": "address"
        }
      ],
      "name": "OwnershipTransferred",
      "type": "event"
    },
    {
      "anonymous": false,
      "inputs": [
        {
          "indexed": true,
          "internalType": "address",
          "name": "vestingLocation",
          "type": "address"
        },
        {
          "indexed": false,
          "internalType": "uint32",
          "name": "cliffDuration",
          "type": "uint32"
        },
        {
          "indexed": true,
          "internalType": "uint32",
          "name": "duration",
          "type": "uint32"
        },
        {
          "indexed": false,
          "internalType": "uint32",
          "name": "interval",
          "type": "uint32"
        },
        {
          "indexed": true,
          "internalType": "bool",
          "name": "isRevocable",
          "type": "bool"
        }
      ],
      "name": "VestingScheduleCreated",
      "type": "event"
    },
    {
      "anonymous": false,
      "inputs": [
        {
          "indexed": true,
          "internalType": "address",
          "name": "beneficiary",
          "type": "address"
        },
        {
          "indexed": true,
          "internalType": "uint256",
          "name": "vestingAmount",
          "type": "uint256"
        },
        {
          "indexed": false,
          "internalType": "uint32",
          "name": "startDay",
          "type": "uint32"
        },
        {
          "indexed": false,
          "internalType": "address",
          "name": "vestingLocation",
          "type": "address"
        },
        {
          "indexed": true,
          "internalType": "address",
          "name": "grantor",
          "type": "address"
        }
      ],
      "name": "VestingTokensGranted",
      "type": "event"
    },
    {
      "inputs": [
        {
          "internalType": "address",
          "name": "account",
          "type": "address"
        },
        {
          "internalType": "bool",
          "name": "uniformGrantor",
          "type": "bool"
        }
      ],
      "name": "addGrantor",
      "outputs": [],
      "stateMutability": "nonpayable",
      "type": "function"
    },
    {
      "inputs": [
        {
          "internalType": "address",
          "name": "grantHolder",
          "type": "address"
        }
      ],
      "name": "getIntrinsicVestingSchedule",
      "outputs": [
        {
          "internalType": "uint32",
          "name": "vestDuration",
          "type": "uint32"
        },
        {
          "internalType": "uint32",
          "name": "cliffDuration",
          "type": "uint32"
        },
        {
          "internalType": "uint32",
          "name": "vestIntervalDays",
          "type": "uint32"
        }
      ],
      "stateMutability": "view",
      "type": "function"
    },
    {
      "inputs": [
        {
          "internalType": "address",
          "name": "beneficiary",
          "type": "address"
        },
        {
          "internalType": "uint256",
          "name": "totalAmount",
          "type": "uint256"
        },
        {
          "internalType": "uint256",
          "name": "vestingAmount",
          "type": "uint256"
        },
        {
          "internalType": "uint32",
          "name": "startDay",
          "type": "uint32"
        },
        {
          "internalType": "uint32",
          "name": "duration",
          "type": "uint32"
        },
        {
          "internalType": "uint32",
          "name": "cliffDuration",
          "type": "uint32"
        },
        {
          "internalType": "uint32",
          "name": "interval",
          "type": "uint32"
        },
        {
          "internalType": "bool",
          "name": "isRevocable",
          "type": "bool"
        }
      ],
      "name": "grantVestingTokens",
      "outputs": [
        {
          "internalType": "bool",
          "name": "ok",
          "type": "bool"
        }
      ],
      "stateMutability": "nonpayable",
      "type": "function"
    },
    {
      "inputs": [
        {
          "internalType": "address",
          "name": "account",
          "type": "address"
        }
      ],
      "name": "isGrantor",
      "outputs": [
        {
          "internalType": "bool",
          "name": "",
          "type": "bool"
        }
      ],
      "stateMutability": "view",
      "type": "function"
    },
    {
      "inputs": [
        {
          "internalType": "address",
          "name": "account",
          "type": "address"
        }
      ],
      "name": "isRegistered",
      "outputs": [
        {
          "internalType": "bool",
          "name": "ok",
          "type": "bool"
        }
      ],
      "stateMutability": "view",
      "type": "function"
    },
    {
      "inputs": [
        {
          "internalType": "address",
          "name": "account",
          "type": "address"
        }
      ],
      "name": "isUniformGrantor",
      "outputs": [
        {
          "internalType": "bool",
          "name": "",
          "type": "bool"
        }
      ],
      "stateMutability": "view",
      "type": "function"
    },
    {
      "inputs": [],
      "name": "owner",
      "outputs": [
        {
          "internalType": "address",
          "name": "",
          "type": "address"
        }
      ],
      "stateMutability": "view",
      "type": "function"
    },
    {
      "inputs": [],
      "name": "registerAccount",
      "outputs": [
        {
          "internalType": "bool",
          "name": "ok",
          "type": "bool"
        }
      ],
      "stateMutability": "nonpayable",
      "type": "function"
    },
    {
      "inputs": [
        {
          "internalType": "address",
          "name": "account",
          "type": "address"
        }
      ],
      "name": "removeGrantor",
      "outputs": [],
      "stateMutability": "nonpayable",
      "type": "function"
    },
    {
      "inputs": [],
      "name": "renounceOwnership",
      "outputs": [],
      "stateMutability": "view",
      "type": "function"
    },
    {
      "inputs": [
        {
          "internalType": "address",
          "name": "grantHolder",
          "type": "address"
        },
        {
          "internalType": "uint32",
          "name": "onDay",
          "type": "uint32"
        }
      ],
      "name": "revokeGrant",
      "outputs": [
        {
          "internalType": "bool",
          "name": "ok",
          "type": "bool"
        }
      ],
      "stateMutability": "nonpayable",
      "type": "function"
    },
    {
      "inputs": [
        {
          "internalType": "address",
          "name": "beneficiary",
          "type": "address"
        },
        {
          "internalType": "uint256",
          "name": "totalAmount",
          "type": "uint256"
        },
        {
          "internalType": "uint256",
          "name": "vestingAmount",
          "type": "uint256"
        },
        {
          "internalType": "uint32",
          "name": "startDay",
          "type": "uint32"
        },
        {
          "internalType": "uint32",
          "name": "duration",
          "type": "uint32"
        },
        {
          "internalType": "uint32",
          "name": "cliffDuration",
          "type": "uint32"
        },
        {
          "internalType": "uint32",
          "name": "interval",
          "type": "uint32"
        },
        {
          "internalType": "bool",
          "name": "isRevocable",
          "type": "bool"
        }
      ],
      "name": "safeGrantVestingTokens",
      "outputs": [
        {
          "internalType": "bool",
          "name": "ok",
          "type": "bool"
        }
      ],
      "stateMutability": "nonpayable",
      "type": "function"
    },
    {
      "inputs": [],
      "name": "today",
      "outputs": [
        {
          "internalType": "uint32",
          "name": "dayNumber",
          "type": "uint32"
        }
      ],
      "stateMutability": "view",
      "type": "function"
    },
    {
      "inputs": [],
      "name": "token",
      "outputs": [
        {
          "internalType": "contract IERC20",
          "name": "",
          "type": "address"
        }
      ],
      "stateMutability": "view",
      "type": "function"
    },
    {
      "inputs": [
        {
          "internalType": "address",
          "name": "newOwner",
          "type": "address"
        }
      ],
      "name": "transferOwnership",
      "outputs": [],
      "stateMutability": "nonpayable",
      "type": "function"
    },
    {
      "inputs": [
        {
          "internalType": "uint32",
          "name": "onDayOrToday",
          "type": "uint32"
        }
      ],
      "name": "vestingAsOf",
      "outputs": [
        {
          "internalType": "uint256",
          "name": "amountVested",
          "type": "uint256"
        },
        {
          "internalType": "uint256",
          "name": "amountNotVested",
          "type": "uint256"
        },
        {
          "internalType": "uint256",
          "name": "amountOfGrant",
          "type": "uint256"
        },
        {
          "internalType": "uint32",
          "name": "vestStartDay",
          "type": "uint32"
        },
        {
          "internalType": "uint32",
          "name": "vestDuration",
          "type": "uint32"
        },
        {
          "internalType": "uint32",
          "name": "cliffDuration",
          "type": "uint32"
        },
        {
          "internalType": "uint32",
          "name": "vestIntervalDays",
          "type": "uint32"
        },
        {
          "internalType": "bool",
          "name": "isActive",
          "type": "bool"
        },
        {
          "internalType": "bool",
          "name": "wasRevoked",
          "type": "bool"
        }
      ],
      "stateMutability": "view",
      "type": "function"
    },
    {
      "inputs": [
        {
          "internalType": "address",
          "name": "grantHolder",
          "type": "address"
        },
        {
          "internalType": "uint32",
          "name": "onDayOrToday",
          "type": "uint32"
        }
      ],
      "name": "vestingForAccountAsOf",
      "outputs": [
        {
          "internalType": "uint256",
          "name": "amountVested",
          "type": "uint256"
        },
        {
          "internalType": "uint256",
          "name": "amountNotVested",
          "type": "uint256"
        },
        {
          "internalType": "uint256",
          "name": "amountOfGrant",
          "type": "uint256"
        },
        {
          "internalType": "uint32",
          "name": "vestStartDay",
          "type": "uint32"
        },
        {
          "internalType": "uint32",
          "name": "vestDuration",
          "type": "uint32"
        },
        {
          "internalType": "uint32",
          "name": "cliffDuration",
          "type": "uint32"
        },
        {
          "internalType": "uint32",
          "name": "vestIntervalDays",
          "type": "uint32"
        },
        {
          "internalType": "bool",
          "name": "isActive",
          "type": "bool"
        },
        {
          "internalType": "bool",
          "name": "wasRevoked",
          "type": "bool"
        }
      ],
      "stateMutability": "view",
      "type": "function"
    }
  ],
  "bytecode": "0x60806040523480156200001157600080fd5b5060405162001dab38038062001dab83398101604081905262000034916200022b565b806200003f62000088565b50620000546200004e620000d2565b620000d6565b6200006133600062000128565b600480546001600160a01b0319166001600160a01b0392909216919091179055506200025b565b33600081815260208190526040808220805460ff19166001179055519091907fcd822dc9688e20acea68724a2fbcfe4f3e526d20ecaa37b18fe3047ab377d6a5908390a250600190565b3390565b600180546001600160a01b038381166001600160a01b0319831681179093556040519116919082907f8be0079c531659141344cd1fd0a4f28419497f9722a3daafe3b4186f6b6457e090600090a35050565b6001600160a01b0382166200013c57600080fd5b62000157826002620001a560201b62000a2b1790919060201c565b6001600160a01b038216600081815260036020526040808220805460ff1916851515179055517f614c7c37719098320f845a142223983b9adcc4c3f2663971d5b0eb4c661a24e79190a25050565b6001600160a01b038116620001b957600080fd5b620001c58282620001f5565b15620001d057600080fd5b6001600160a01b0316600090815260209190915260409020805460ff19166001179055565b60006001600160a01b0382166200020b57600080fd5b506001600160a01b03166000908152602091909152604090205460ff1690565b6000602082840312156200023d578081fd5b81516001600160a01b038116811462000254578182fd5b9392505050565b611b40806200026b6000396000f3fe608060405234801561001057600080fd5b506004361061010b5760003560e01c80637af023a9116100a2578063c3c5a54711610071578063c3c5a54714610229578063d56ad0ba1461023c578063d9f226e91461024f578063f2fde38b14610257578063fc0c546a1461026a5761010b565b80637af023a9146101ca5780638da5cb5b146101dd578063acc27b98146101f2578063b74e452b146102145761010b565b806341d5f619116100de57806341d5f6191461018957806344e393cb1461019c5780636d71a9c6146101af578063715018a6146101c25761010b565b8063190de9f7146101105780631bd2cf38146101395780632455a0351461014c578063332cc9c614610174575b600080fd5b61012361011e366004611463565b610272565b6040516101309190611610565b60405180910390f35b61012361014736600461153f565b610287565b61015f61015a3660046115a5565b61057f565b60405161013099989796959493929190611915565b610187610182366004611463565b6105b6565b005b6101236101973660046114b3565b610601565b6101876101aa36600461147d565b61066c565b6101236101bd366004611463565b6106b9565b6101876106ea565b6101236101d83660046114b3565b610741565b6101e56107cd565b60405161013091906115bf565b610205610200366004611463565b6107dc565b604051610130939291906119a7565b61021c61085b565b6040516101309190611960565b610123610237366004611463565b61086f565b61015f61024a36600461153f565b61088d565b610123610976565b610187610265366004611463565b6109c0565b6101e5610a1c565b600061027f600283610a77565b90505b919050565b600061029233610272565b6102b75760405162461bcd60e51b81526004016102ae906118b9565b60405180910390fd5b6001600160a01b0380841660009081526006602090815260408083206002810154909416835260059091528120906102ed6107cd565b6001600160a01b0316336001600160a01b03161480610318575060038301546001600160a01b031633145b6103345760405162461bcd60e51b81526004016102ae9061179e565b825460ff166103555760405162461bcd60e51b81526004016102ae90611775565b8154610100900460ff1661037b5760405162461bcd60e51b81526004016102ae90611823565b8154835461039f9163ffffffff600160301b909104811691620100009004166119c7565b63ffffffff168563ffffffff1611156103ca5760405162461bcd60e51b81526004016102ae90611752565b6103d261085b565b63ffffffff168563ffffffff1610156103fd5760405162461bcd60e51b81526004016102ae9061164b565b6104078686610aac565b6004805460405163095ea7b360e01b81529293506001600160a01b03169163095ea7b391610439918a918691016115f7565b602060405180830381600087803b15801561045357600080fd5b505af1158015610467573d6000803e3d6000fd5b505050506040513d601f19601f8201168201806040525081019061048b9190611571565b506004805460038501546040516323b872dd60e01b81526001600160a01b03928316936323b872dd936104c5938c939116918791016115d3565b602060405180830381600087803b1580156104df57600080fd5b505af11580156104f3573d6000803e3d6000fd5b505050506040513d601f19601f820116820180604052508101906105179190611571565b506001600160a01b038616600081815260066020526040808220805460ff1961ff0019909116610100171690555163ffffffff881692917f906c0c4c98565a396c542d9102cae7a794e84af6763123e068a1b277333bf4a491a3600193505050505b92915050565b6000806000806000806000806000610597338b61088d565b9850985098509850985098509850985098509193959799909294969850565b6105be610c12565b6001600160a01b03166105cf6107cd565b6001600160a01b0316146105f55760405162461bcd60e51b81526004016102ae906117c3565b6105fe81610c16565b50565b600061060c33610272565b6106285760405162461bcd60e51b81526004016102ae906118b9565b8861063281610c6b565b61064e5760405162461bcd60e51b81526004016102ae90611682565b61065e8a8a8a8a8a8a8a8a610741565b9a9950505050505050505050565b610674610c12565b6001600160a01b03166106856107cd565b6001600160a01b0316146106ab5760405162461bcd60e51b81526004016102ae906117c3565b6106b58282610c9e565b5050565b60006106c482610272565b801561027f5750506001600160a01b031660009081526003602052604090205460ff1690565b6106f2610c12565b6001600160a01b03166107036107cd565b6001600160a01b0316146107295760405162461bcd60e51b81526004016102ae906117c3565b60405162461bcd60e51b81526004016102ae906116b2565b600061074c33610272565b6107685760405162461bcd60e51b81526004016102ae906118b9565b6001600160a01b03891660009081526006602052604090205460ff16156107a15760405162461bcd60e51b81526004016102ae9061188b565b6107ae8985878686610d0a565b506107bd898989898d33610f3a565b5060019998505050505050505050565b6001546001600160a01b031690565b6000806000836107eb33610272565b806107fe5750336001600160a01b038216145b61081a5760405162461bcd60e51b81526004016102ae906117f8565b505050506001600160a01b031660009081526005602052604090205463ffffffff600160301b8204811692620100008304821692600160501b900490911690565b600061086a62015180426119ef565b905090565b6001600160a01b031660009081526020819052604090205460ff1690565b60008060008060008060008060008a6108a533610272565b806108b85750336001600160a01b038216145b6108d45760405162461bcd60e51b81526004016102ae906117f8565b6001600160a01b03808d16600090815260066020908152604080832060028101549094168352600590915281209061090c8f8f610aac565b600184015490915061091e81836112cb565b93549254939d50909b50995063ffffffff6201000080830482169a50600160301b840482169950830481169750600160501b909204909116945060ff8082169450610100909104169150509295985092959850929598565b33600081815260208190526040808220805460ff19166001179055519091907fcd822dc9688e20acea68724a2fbcfe4f3e526d20ecaa37b18fe3047ab377d6a5908390a250600190565b6109c8610c12565b6001600160a01b03166109d96107cd565b6001600160a01b0316146109ff5760405162461bcd60e51b81526004016102ae906117c3565b610a0833610c16565b610a11816112de565b6105fe816000610c9e565b6004546001600160a01b031690565b6001600160a01b038116610a3e57600080fd5b610a488282610a77565b15610a5257600080fd5b6001600160a01b0316600090815260209190915260409020805460ff19166001179055565b60006001600160a01b038216610a8c57600080fd5b506001600160a01b03166000908152602091909152604090205460ff1690565b6001600160a01b038083166000908152600660209081526040808320600281015490941683526005909152812090919082610ae68561134c565b835490915060ff161580610b26575081548354610b179163ffffffff620100009182900481169291909104166119c7565b63ffffffff168163ffffffff16105b15610b38575050600101549050610579565b81548354610b5c9163ffffffff600160301b909104811691620100009004166119c7565b63ffffffff168163ffffffff1610610b7a5760009350505050610579565b8254600090610b959062010000900463ffffffff1683611a88565b8354909150600090600160501b900463ffffffff16610bb48184611a03565b610bbe9190611a45565b84546001870154919250600091610bf39163ffffffff600160301b909104811691610bed918087169061136816565b90611374565b6001870154909150610c0590826112cb565b9650505050505050610579565b3390565b6001600160a01b038116610c2957600080fd5b610c34600282611380565b6040516001600160a01b038216907f33a8bb468e8361c5c40d643192eb6970b91cb87aa0200f8709f5b805087b905390600090a250565b60006001600160a01b03821633148061027f5750506001600160a01b031660009081526020819052604090205460ff1690565b6001600160a01b038216610cb157600080fd5b610cbc600283610a2b565b6001600160a01b038216600081815260036020526040808220805460ff1916851515179055517f614c7c37719098320f845a142223983b9adcc4c3f2663971d5b0eb4c661a24e79190a25050565b6000808463ffffffff16118015610d3a5750610d2a6064620592bb611a03565b63ffffffff168463ffffffff1611155b8015610d5157508363ffffffff168563ffffffff16105b8015610d64575060018363ffffffff1610155b610d805760405162461bcd60e51b81526004016102ae906118de565b610d8a8385611aad565b63ffffffff16158015610daa5750610da28386611aad565b63ffffffff16155b610dc65760405162461bcd60e51b81526004016102ae90611848565b6040518060a0016040528060011515815260200183151581526020018663ffffffff1681526020018563ffffffff1681526020018463ffffffff1681525060056000886001600160a01b03166001600160a01b0316815260200190815260200160002060008201518160000160006101000a81548160ff02191690831515021790555060208201518160000160016101000a81548160ff02191690831515021790555060408201518160000160026101000a81548163ffffffff021916908363ffffffff16021790555060608201518160000160066101000a81548163ffffffff021916908363ffffffff160217905550608082015181600001600a6101000a81548163ffffffff021916908363ffffffff1602179055509050508115158463ffffffff16876001600160a01b03167fb84219eaee5910cc5311a393fbd4287b14bc791973b97f64d4b61b6d8554adc78887604051610f26929190611990565b60405180910390a450600195945050505050565b6001600160a01b03861660009081526006602052604081205460ff1615610f735760405162461bcd60e51b81526004016102ae9061188b565b858511158015610f835750600085115b8015610fab5750610f9b6201518063386d4380611a03565b63ffffffff168463ffffffff1610155b8015610fe05750620592bb610fc76201518063386d4380611a03565b610fd191906119c7565b63ffffffff168463ffffffff16105b610ffc5760405162461bcd60e51b81526004016102ae9061161b565b611005836113c8565b6110215760405162461bcd60e51b81526004016102ae9061171b565b600480546040516370a0823160e01b81526001600160a01b03909116916370a0823191611050918691016115bf565b60206040518083038186803b15801561106857600080fd5b505afa15801561107c573d6000803e3d6000fd5b505050506040513d601f19601f820116820180604052508101906110a0919061158d565b8611156110ac57600080fd5b600480546040516323b872dd60e01b81526001600160a01b03909116916323b872dd916110df9186918c918c91016115d3565b602060405180830381600087803b1580156110f957600080fd5b505af115801561110d573d6000803e3d6000fd5b505050506040513d601f19601f820116820180604052508101906111319190611571565b506040518060c001604052806001151581526020016000151581526020018563ffffffff168152602001868152602001846001600160a01b03168152602001836001600160a01b031681525060066000896001600160a01b03166001600160a01b0316815260200190815260200160002060008201518160000160006101000a81548160ff02191690831515021790555060208201518160000160016101000a81548160ff02191690831515021790555060408201518160000160026101000a81548163ffffffff021916908363ffffffff1602179055506060820151816001015560808201518160020160006101000a8154816001600160a01b0302191690836001600160a01b0316021790555060a08201518160030160006101000a8154816001600160a01b0302191690836001600160a01b03160217905550905050816001600160a01b031685886001600160a01b03167fce19dc9f3460f5845c81c7fa52526977d7e7275df4b1d0e40ea09653252e0c7587876040516112b6929190611971565b60405180910390a45060019695505050505050565b60006112d78284611a71565b9392505050565b6112e6610c12565b6001600160a01b03166112f76107cd565b6001600160a01b03161461131d5760405162461bcd60e51b81526004016102ae906117c3565b6001600160a01b0381166113435760405162461bcd60e51b81526004016102ae906116d5565b6105fe816113e6565b600063ffffffff821615611360578161027f565b61027f61085b565b60006112d78284611a26565b60006112d782846119ef565b6001600160a01b03811661139357600080fd5b61139d8282610a77565b6113a657600080fd5b6001600160a01b0316600090815260209190915260409020805460ff19169055565b6001600160a01b031660009081526005602052604090205460ff1690565b600180546001600160a01b038381166001600160a01b0319831681179093556040519116919082907f8be0079c531659141344cd1fd0a4f28419497f9722a3daafe3b4186f6b6457e090600090a35050565b80356001600160a01b038116811461028257600080fd5b803563ffffffff8116811461028257600080fd5b600060208284031215611474578081fd5b6112d782611438565b6000806040838503121561148f578081fd5b61149883611438565b915060208301356114a881611afc565b809150509250929050565b600080600080600080600080610100898b0312156114cf578384fd5b6114d889611438565b975060208901359650604089013595506114f460608a0161144f565b945061150260808a0161144f565b935061151060a08a0161144f565b925061151e60c08a0161144f565b915060e089013561152e81611afc565b809150509295985092959890939650565b60008060408385031215611551578182fd5b61155a83611438565b91506115686020840161144f565b90509250929050565b600060208284031215611582578081fd5b81516112d781611afc565b60006020828403121561159e578081fd5b5051919050565b6000602082840312156115b6578081fd5b6112d78261144f565b6001600160a01b0391909116815260200190565b6001600160a01b039384168152919092166020820152604081019190915260600190565b6001600160a01b03929092168252602082015260400190565b901515815260200190565b602080825260169082015275696e76616c69642076657374696e6720706172616d7360501b604082015260600190565b6020808252601d908201527f63616e6e6f74207265766f6b652076657374656420686f6c64696e6773000000604082015260600190565b6020808252601690820152751858d8dbdd5b9d081b9bdd081c9959da5cdd195c995960521b604082015260600190565b6020808252600990820152683337b93134b23232b760b91b604082015260600190565b60208082526026908201527f4f776e61626c653a206e6577206f776e657220697320746865207a65726f206160408201526564647265737360d01b606082015260800190565b60208082526018908201527f6e6f20737563682076657374696e67207363686564756c650000000000000000604082015260600190565b6020808252600990820152681b9bc81959999958dd60ba1b604082015260600190565b6020808252600f908201526e1b9bc81858dd1a5d994819dc985b9d608a1b604082015260600190565b6020808252600b908201526a1b9bdd08185b1b1bddd95960aa1b604082015260600190565b6020808252818101527f4f776e61626c653a2063616c6c6572206973206e6f7420746865206f776e6572604082015260600190565b60208082526011908201527037b7363ca3b930b73a37b927b929b2b63360791b604082015260600190565b6020808252600b908201526a69727265766f6361626c6560a81b604082015260600190565b60208082526023908201527f696e76616c696420636c6966662f6475726174696f6e20666f7220696e7465726040820152621d985b60ea1b606082015260800190565b6020808252601490820152736772616e7420616c72656164792065786973747360601b604082015260600190565b6020808252600b908201526a37b7363ca3b930b73a37b960a91b604082015260600190565b60208082526018908201527f696e76616c69642076657374696e67207363686564756c650000000000000000604082015260600190565b9889526020890197909752604088019590955263ffffffff93841660608801529183166080870152821660a08601521660c0840152151560e083015215156101008201526101200190565b63ffffffff91909116815260200190565b63ffffffff9290921682526001600160a01b0316602082015260400190565b63ffffffff92831681529116602082015260400190565b63ffffffff93841681529183166020830152909116604082015260600190565b600063ffffffff8083168185168083038211156119e6576119e6611ad0565b01949350505050565b6000826119fe576119fe611ae6565b500490565b600063ffffffff80841680611a1a57611a1a611ae6565b92169190910492915050565b6000816000190483118215151615611a4057611a40611ad0565b500290565b600063ffffffff80831681851681830481118215151615611a6857611a68611ad0565b02949350505050565b600082821015611a8357611a83611ad0565b500390565b600063ffffffff83811690831681811015611aa557611aa5611ad0565b039392505050565b600063ffffffff80841680611ac457611ac4611ae6565b92169190910692915050565b634e487b7160e01b600052601160045260246000fd5b634e487b7160e01b600052601260045260246000fd5b80151581146105fe57600080fdfea2646970667358221220bcffae96ecfe51a2aac67a53f4e673bc905f2acbd687daca0daf2cd8957a154f64736f6c63430008000033",
  "linkReferences": {},
  "deployedLinkReferences": {}
}