{
  "_format": "hh-sol-artifact-1",
  "contractName": "TokenVesting",
  "sourceName": "contracts/vesting/SportZchainTokenVesting.sol",
  "abi": [
    {
      "inputs": [
        {
          "internalType": "address",
          "name": "token_",
          "type": "address"
        }
      ],
      "stateMutability": "nonpayable",
      "type": "constructor"
    },
    {
      "anonymous": false,
      "inputs": [
        {
          "indexed": true,
          "internalType": "address",
          "name": "previousOwner",
          "type": "address"
        },
        {
          "indexed": true,
          "internalType": "address",
          "name": "newOwner",
          "type": "address"
        }
      ],
      "name": "OwnershipTransferred",
      "type": "event"
    },
    {
      "anonymous": false,
      "inputs": [
        {
          "indexed": false,
          "internalType": "uint256",
          "name": "amount",
          "type": "uint256"
        }
      ],
      "name": "Released",
      "type": "event"
    },
    {
      "anonymous": false,
      "inputs": [],
      "name": "Revoked",
      "type": "event"
    },
    {
      "anonymous": false,
      "inputs": [
        {
          "indexed": true,
          "internalType": "bytes32",
          "name": "role",
          "type": "bytes32"
        },
        {
          "indexed": true,
          "internalType": "bytes32",
          "name": "previousAdminRole",
          "type": "bytes32"
        },
        {
          "indexed": true,
          "internalType": "bytes32",
          "name": "newAdminRole",
          "type": "bytes32"
        }
      ],
      "name": "RoleAdminChanged",
      "type": "event"
    },
    {
      "anonymous": false,
      "inputs": [
        {
          "indexed": true,
          "internalType": "bytes32",
          "name": "role",
          "type": "bytes32"
        },
        {
          "indexed": true,
          "internalType": "address",
          "name": "account",
          "type": "address"
        },
        {
          "indexed": true,
          "internalType": "address",
          "name": "sender",
          "type": "address"
        }
      ],
      "name": "RoleGranted",
      "type": "event"
    },
    {
      "anonymous": false,
      "inputs": [
        {
          "indexed": true,
          "internalType": "bytes32",
          "name": "role",
          "type": "bytes32"
        },
        {
          "indexed": true,
          "internalType": "address",
          "name": "account",
          "type": "address"
        },
        {
          "indexed": true,
          "internalType": "address",
          "name": "sender",
          "type": "address"
        }
      ],
      "name": "RoleRevoked",
      "type": "event"
    },
    {
      "stateMutability": "payable",
      "type": "fallback"
    },
    {
      "inputs": [],
      "name": "DEFAULT_ADMIN_ROLE",
      "outputs": [
        {
          "internalType": "bytes32",
          "name": "",
          "type": "bytes32"
        }
      ],
      "stateMutability": "view",
      "type": "function"
    },
    {
      "inputs": [],
      "name": "GRANTOR_ROLE",
      "outputs": [
        {
          "internalType": "bytes32",
          "name": "",
          "type": "bytes32"
        }
      ],
      "stateMutability": "view",
      "type": "function"
    },
    {
      "inputs": [
        {
          "internalType": "address",
          "name": "holder",
          "type": "address"
        }
      ],
      "name": "computeNextVestingScheduleIdForHolder",
      "outputs": [
        {
          "internalType": "bytes32",
          "name": "",
          "type": "bytes32"
        }
      ],
      "stateMutability": "view",
      "type": "function"
    },
    {
      "inputs": [
        {
          "internalType": "bytes32",
          "name": "vestingScheduleId",
          "type": "bytes32"
        }
      ],
      "name": "computeReleasableAmount",
      "outputs": [
        {
          "internalType": "uint256",
          "name": "",
          "type": "uint256"
        }
      ],
      "stateMutability": "view",
      "type": "function"
    },
    {
      "inputs": [
        {
          "internalType": "address",
          "name": "holder",
          "type": "address"
        },
        {
          "internalType": "uint256",
          "name": "index",
          "type": "uint256"
        }
      ],
      "name": "computeVestingScheduleIdForAddressAndIndex",
      "outputs": [
        {
          "internalType": "bytes32",
          "name": "",
          "type": "bytes32"
        }
      ],
      "stateMutability": "pure",
      "type": "function"
    },
    {
      "inputs": [
        {
          "internalType": "address",
          "name": "_beneficiary",
          "type": "address"
        },
        {
          "internalType": "uint256",
          "name": "_start",
          "type": "uint256"
        },
        {
          "internalType": "uint256",
          "name": "_cliff",
          "type": "uint256"
        },
        {
          "internalType": "uint256",
          "name": "_duration",
          "type": "uint256"
        },
        {
          "internalType": "uint256",
          "name": "_slicePeriodSeconds",
          "type": "uint256"
        },
        {
          "internalType": "bool",
          "name": "_revocable",
          "type": "bool"
        },
        {
          "internalType": "uint256",
          "name": "_amount",
          "type": "uint256"
        }
      ],
      "name": "createVestingSchedule",
      "outputs": [],
      "stateMutability": "nonpayable",
      "type": "function"
    },
    {
      "inputs": [
        {
          "internalType": "address",
          "name": "holder",
          "type": "address"
        }
      ],
      "name": "getLastVestingScheduleForHolder",
      "outputs": [
        {
          "components": [
            {
              "internalType": "bool",
              "name": "initialized",
              "type": "bool"
            },
            {
              "internalType": "address",
              "name": "beneficiary",
              "type": "address"
            },
            {
              "internalType": "uint256",
              "name": "cliff",
              "type": "uint256"
            },
            {
              "internalType": "uint256",
              "name": "start",
              "type": "uint256"
            },
            {
              "internalType": "uint256",
              "name": "duration",
              "type": "uint256"
            },
            {
              "internalType": "uint256",
              "name": "slicePeriodSeconds",
              "type": "uint256"
            },
            {
              "internalType": "bool",
              "name": "revocable",
              "type": "bool"
            },
            {
              "internalType": "uint256",
              "name": "amountTotal",
              "type": "uint256"
            },
            {
              "internalType": "uint256",
              "name": "released",
              "type": "uint256"
            },
            {
              "internalType": "bool",
              "name": "revoked",
              "type": "bool"
            }
          ],
          "internalType": "struct TokenVesting.VestingSchedule",
          "name": "",
          "type": "tuple"
        }
      ],
      "stateMutability": "view",
      "type": "function"
    },
    {
      "inputs": [
        {
          "internalType": "bytes32",
          "name": "role",
          "type": "bytes32"
        }
      ],
      "name": "getRoleAdmin",
      "outputs": [
        {
          "internalType": "bytes32",
          "name": "",
          "type": "bytes32"
        }
      ],
      "stateMutability": "view",
      "type": "function"
    },
    {
      "inputs": [],
      "name": "getToken",
      "outputs": [
        {
          "internalType": "address",
          "name": "",
          "type": "address"
        }
      ],
      "stateMutability": "view",
      "type": "function"
    },
    {
      "inputs": [
        {
          "internalType": "uint256",
          "name": "index",
          "type": "uint256"
        }
      ],
      "name": "getVestingIdAtIndex",
      "outputs": [
        {
          "internalType": "bytes32",
          "name": "",
          "type": "bytes32"
        }
      ],
      "stateMutability": "view",
      "type": "function"
    },
    {
      "inputs": [
        {
          "internalType": "bytes32",
          "name": "vestingScheduleId",
          "type": "bytes32"
        }
      ],
      "name": "getVestingSchedule",
      "outputs": [
        {
          "components": [
            {
              "internalType": "bool",
              "name": "initialized",
              "type": "bool"
            },
            {
              "internalType": "address",
              "name": "beneficiary",
              "type": "address"
            },
            {
              "internalType": "uint256",
              "name": "cliff",
              "type": "uint256"
            },
            {
              "internalType": "uint256",
              "name": "start",
              "type": "uint256"
            },
            {
              "internalType": "uint256",
              "name": "duration",
              "type": "uint256"
            },
            {
              "internalType": "uint256",
              "name": "slicePeriodSeconds",
              "type": "uint256"
            },
            {
              "internalType": "bool",
              "name": "revocable",
              "type": "bool"
            },
            {
              "internalType": "uint256",
              "name": "amountTotal",
              "type": "uint256"
            },
            {
              "internalType": "uint256",
              "name": "released",
              "type": "uint256"
            },
            {
              "internalType": "bool",
              "name": "revoked",
              "type": "bool"
            }
          ],
          "internalType": "struct TokenVesting.VestingSchedule",
          "name": "",
          "type": "tuple"
        }
      ],
      "stateMutability": "view",
      "type": "function"
    },
    {
      "inputs": [
        {
          "internalType": "address",
          "name": "holder",
          "type": "address"
        },
        {
          "internalType": "uint256",
          "name": "index",
          "type": "uint256"
        }
      ],
      "name": "getVestingScheduleByAddressAndIndex",
      "outputs": [
        {
          "components": [
            {
              "internalType": "bool",
              "name": "initialized",
              "type": "bool"
            },
            {
              "internalType": "address",
              "name": "beneficiary",
              "type": "address"
            },
            {
              "internalType": "uint256",
              "name": "cliff",
              "type": "uint256"
            },
            {
              "internalType": "uint256",
              "name": "start",
              "type": "uint256"
            },
            {
              "internalType": "uint256",
              "name": "duration",
              "type": "uint256"
            },
            {
              "internalType": "uint256",
              "name": "slicePeriodSeconds",
              "type": "uint256"
            },
            {
              "internalType": "bool",
              "name": "revocable",
              "type": "bool"
            },
            {
              "internalType": "uint256",
              "name": "amountTotal",
              "type": "uint256"
            },
            {
              "internalType": "uint256",
              "name": "released",
              "type": "uint256"
            },
            {
              "internalType": "bool",
              "name": "revoked",
              "type": "bool"
            }
          ],
          "internalType": "struct TokenVesting.VestingSchedule",
          "name": "",
          "type": "tuple"
        }
      ],
      "stateMutability": "view",
      "type": "function"
    },
    {
      "inputs": [],
      "name": "getVestingSchedulesCount",
      "outputs": [
        {
          "internalType": "uint256",
          "name": "",
          "type": "uint256"
        }
      ],
      "stateMutability": "view",
      "type": "function"
    },
    {
      "inputs": [
        {
          "internalType": "address",
          "name": "_beneficiary",
          "type": "address"
        }
      ],
      "name": "getVestingSchedulesCountByBeneficiary",
      "outputs": [
        {
          "internalType": "uint256",
          "name": "",
          "type": "uint256"
        }
      ],
      "stateMutability": "view",
      "type": "function"
    },
    {
      "inputs": [],
      "name": "getVestingSchedulesTotalAmount",
      "outputs": [
        {
          "internalType": "uint256",
          "name": "",
          "type": "uint256"
        }
      ],
      "stateMutability": "view",
      "type": "function"
    },
    {
      "inputs": [],
      "name": "getWithdrawableAmount",
      "outputs": [
        {
          "internalType": "uint256",
          "name": "",
          "type": "uint256"
        }
      ],
      "stateMutability": "view",
      "type": "function"
    },
    {
      "inputs": [
        {
          "internalType": "bytes32",
          "name": "role",
          "type": "bytes32"
        },
        {
          "internalType": "address",
          "name": "account",
          "type": "address"
        }
      ],
      "name": "grantRole",
      "outputs": [],
      "stateMutability": "nonpayable",
      "type": "function"
    },
    {
      "inputs": [
        {
          "internalType": "bytes32",
          "name": "role",
          "type": "bytes32"
        },
        {
          "internalType": "address",
          "name": "account",
          "type": "address"
        }
      ],
      "name": "hasRole",
      "outputs": [
        {
          "internalType": "bool",
          "name": "",
          "type": "bool"
        }
      ],
      "stateMutability": "view",
      "type": "function"
    },
    {
      "inputs": [],
      "name": "owner",
      "outputs": [
        {
          "internalType": "address",
          "name": "",
          "type": "address"
        }
      ],
      "stateMutability": "view",
      "type": "function"
    },
    {
      "inputs": [
        {
          "internalType": "bytes32",
          "name": "vestingScheduleId",
          "type": "bytes32"
        },
        {
          "internalType": "uint256",
          "name": "amount",
          "type": "uint256"
        }
      ],
      "name": "release",
      "outputs": [],
      "stateMutability": "nonpayable",
      "type": "function"
    },
    {
      "inputs": [],
      "name": "renounceOwnership",
      "outputs": [],
      "stateMutability": "nonpayable",
      "type": "function"
    },
    {
      "inputs": [
        {
          "internalType": "bytes32",
          "name": "role",
          "type": "bytes32"
        },
        {
          "internalType": "address",
          "name": "account",
          "type": "address"
        }
      ],
      "name": "renounceRole",
      "outputs": [],
      "stateMutability": "nonpayable",
      "type": "function"
    },
    {
      "inputs": [
        {
          "internalType": "bytes32",
          "name": "vestingScheduleId",
          "type": "bytes32"
        }
      ],
      "name": "revoke",
      "outputs": [],
      "stateMutability": "nonpayable",
      "type": "function"
    },
    {
      "inputs": [
        {
          "internalType": "bytes32",
          "name": "role",
          "type": "bytes32"
        },
        {
          "internalType": "address",
          "name": "account",
          "type": "address"
        }
      ],
      "name": "revokeRole",
      "outputs": [],
      "stateMutability": "nonpayable",
      "type": "function"
    },
    {
      "inputs": [
        {
          "internalType": "bytes4",
          "name": "interfaceId",
          "type": "bytes4"
        }
      ],
      "name": "supportsInterface",
      "outputs": [
        {
          "internalType": "bool",
          "name": "",
          "type": "bool"
        }
      ],
      "stateMutability": "view",
      "type": "function"
    },
    {
      "inputs": [
        {
          "internalType": "address",
          "name": "newOwner",
          "type": "address"
        }
      ],
      "name": "transferOwnership",
      "outputs": [],
      "stateMutability": "nonpayable",
      "type": "function"
    },
    {
      "inputs": [
        {
          "internalType": "uint256",
          "name": "amount",
          "type": "uint256"
        }
      ],
      "name": "withdraw",
      "outputs": [],
      "stateMutability": "nonpayable",
      "type": "function"
    },
    {
      "stateMutability": "payable",
      "type": "receive"
    }
  ],
  "bytecode": "0x60a06040523480156200001157600080fd5b50604051620023bb380380620023bb833981016040819052620000349162000166565b6200003f336200007e565b60016002556001600160a01b0381166200005857600080fd5b606081901b6001600160601b03191660805262000077600033620000ce565b5062000196565b600080546001600160a01b038381166001600160a01b0319831681178455604051919092169283917f8be0079c531659141344cd1fd0a4f28419497f9722a3daafe3b4186f6b6457e09190a35050565b620000da8282620000de565b5050565b60008281526001602090815260408083206001600160a01b038516845290915290205460ff16620000da5760008281526001602081815260408084206001600160a01b0386168086529252808420805460ff19169093179092559051339285917f2f8788117e7eff1d82e926ec794901d17c78024a50270940304540a733656f0d9190a45050565b60006020828403121562000178578081fd5b81516001600160a01b03811681146200018f578182fd5b9392505050565b60805160601c6121f1620001ca6000396000818161022c01528181610b8d01528181610f26015261110501526121f16000f3fe6080604052600436106101a05760003560e01c80638af104da116100ec578063d547741f1161008a578063f2fde38b11610064578063f2fde38b146104cc578063f51321d7146104ec578063f7c469f01461050c578063f9079b371461052c576101a7565b8063d547741f1461046a578063e15fb83f1461048a578063ea1bb3d5146104ac576101a7565b806391d14854116100c657806391d14854146103f55780639ef346b414610415578063a217fddf14610435578063b75c7dc61461044a576101a7565b80638af104da146103a25780638da5cb5b146103c257806390be10cc146103e0576101a7565b80632f2ff15d116101595780635a7bb69a116101335780635a7bb69a1461030a57806366afd8ef14610340578063715018a6146103605780637e913dc614610375576101a7565b80632f2ff15d146102b557806336568abe146102d557806348deb471146102f5576101a7565b806301ffc9a7146101a957806313083617146101de57806317e289e9146101fd57806321df0da71461021d578063248a9ca3146102645780632e1a7d4d14610295576101a7565b366101a757005b005b3480156101b557600080fd5b506101c96101c4366004611f14565b61054c565b60405190151581526020015b60405180910390f35b3480156101ea57600080fd5b506003545b6040519081526020016101d5565b34801561020957600080fd5b506101a7610218366004611e16565b610585565b34801561022957600080fd5b507f00000000000000000000000000000000000000000000000000000000000000005b6040516001600160a01b0390911681526020016101d5565b34801561027057600080fd5b506101ef61027f366004611e98565b6000908152600160208190526040909120015490565b3480156102a157600080fd5b506101a76102b0366004611e98565b610a1f565b3480156102c157600080fd5b506101a76102d0366004611ec8565b610bbc565b3480156102e157600080fd5b506101a76102f0366004611ec8565b610be9565b34801561030157600080fd5b506005546101ef565b34801561031657600080fd5b506101ef610325366004611dd3565b6001600160a01b031660009081526006602052604090205490565b34801561034c57600080fd5b506101a761035b366004611ef3565b610c67565b34801561036c57600080fd5b506101a7610f5c565b34801561038157600080fd5b50610395610390366004611dd3565b610fc2565b6040516101d59190612037565b3480156103ae57600080fd5b506101ef6103bd366004611ded565b61109a565b3480156103ce57600080fd5b506000546001600160a01b031661024c565b3480156103ec57600080fd5b506101ef6110e1565b34801561040157600080fd5b506101c9610410366004611ec8565b61118e565b34801561042157600080fd5b50610395610430366004611e98565b6111b9565b34801561044157600080fd5b506101ef600081565b34801561045657600080fd5b506101a7610465366004611e98565b611260565b34801561047657600080fd5b506101a7610485366004611ec8565b61142c565b34801561049657600080fd5b506101ef60008051602061219c83398151915281565b3480156104b857600080fd5b506101ef6104c7366004611e98565b611453565b3480156104d857600080fd5b506101a76104e7366004611dd3565b61153d565b3480156104f857600080fd5b50610395610507366004611ded565b611608565b34801561051857600080fd5b506101ef610527366004611dd3565b611624565b34801561053857600080fd5b506101ef610547366004611e98565b611648565b60006001600160e01b03198216637965db0b60e01b148061057d57506301ffc9a760e01b6001600160e01b03198316145b90505b919050565b61059d60008051602061219c8339815191523361118e565b6105c25760405162461bcd60e51b81526004016105b990612000565b60405180910390fd5b80306001600160a01b03166390be10cc6040518163ffffffff1660e01b815260040160206040518083038186803b1580156105fc57600080fd5b505afa158015610610573d6000803e3d6000fd5b505050506040513d601f19601f820116820180604052508101906106349190611eb0565b10156106bb5760405162461bcd60e51b815260206004820152604a60248201527f546f6b656e56657374696e673a2063616e6e6f7420637265617465207665737460448201527f696e67207363686564756c652062656361757365206e6f742073756666696369606482015269656e7420746f6b656e7360b01b608482015260a4016105b9565b600084116107165760405162461bcd60e51b815260206004820152602260248201527f546f6b656e56657374696e673a206475726174696f6e206d757374206265203e604482015261020360f41b60648201526084016105b9565b600081116107665760405162461bcd60e51b815260206004820181905260248201527f546f6b656e56657374696e673a20616d6f756e74206d757374206265203e203060448201526064016105b9565b60018310156107cd5760405162461bcd60e51b815260206004820152602d60248201527f546f6b656e56657374696e673a20736c696365506572696f645365636f6e647360448201526c206d757374206265203e3d203160981b60648201526084016105b9565b604051630f7c469f60e41b81526001600160a01b0388166004820152600090309063f7c469f09060240160206040518083038186803b15801561080f57600080fd5b505afa158015610823573d6000803e3d6000fd5b505050506040513d601f19601f820116820180604052508101906108479190611eb0565b9050600061085587896120c2565b90506040518061014001604052806001151581526020018a6001600160a01b03168152602001828152602001898152602001878152602001868152602001851515815260200184815260200160008152602001600015158152506004600084815260200190815260200160002060008201518160000160006101000a81548160ff02191690831515021790555060208201518160000160016101000a8154816001600160a01b0302191690836001600160a01b0316021790555060408201518160010155606082015181600201556080820151816003015560a0820151816004015560c08201518160050160006101000a81548160ff02191690831515021790555060e0820151816006015561010082015181600701556101208201518160080160006101000a81548160ff0219169083151502179055509050508260055461099e91906120c2565b6005556003805460018181019092557fc2575a0e9e593c00f959f8c92f12db2869c3395a3b0502d05e2516446f71f85b018390556001600160a01b038a16600090815260066020526040902054906109f79082906120c2565b6001600160a01b03909a16600090815260066020526040902099909955505050505050505050565b610a3760008051602061219c8339815191523361118e565b610a535760405162461bcd60e51b81526004016105b990612000565b600280541415610aa55760405162461bcd60e51b815260206004820152601f60248201527f5265656e7472616e637947756172643a207265656e7472616e742063616c6c0060448201526064016105b9565b6002808190555080306001600160a01b03166390be10cc6040518163ffffffff1660e01b815260040160206040518083038186803b158015610ae657600080fd5b505afa158015610afa573d6000803e3d6000fd5b505050506040513d601f19601f82011682018060405250810190610b1e9190611eb0565b1015610b805760405162461bcd60e51b815260206004820152602b60248201527f546f6b656e56657374696e673a206e6f7420656e6f756768207769746864726160448201526a7761626c652066756e647360a81b60648201526084016105b9565b610bb46001600160a01b037f00000000000000000000000000000000000000000000000000000000000000001633836116de565b506001600255565b60008281526001602081905260409091200154610bda81335b611730565b610be48383611794565b505050565b6001600160a01b0381163314610c595760405162461bcd60e51b815260206004820152602f60248201527f416363657373436f6e74726f6c3a2063616e206f6e6c792072656e6f756e636560448201526e103937b632b9903337b91039b2b63360891b60648201526084016105b9565b610c6382826117ff565b5050565b600280541415610cb95760405162461bcd60e51b815260206004820152601f60248201527f5265656e7472616e637947756172643a207265656e7472616e742063616c6c0060448201526064016105b9565b60028055600082815260046020526040902054829060ff161515600114610cdf57600080fd5b60008181526004602052604090206008015460ff1615610cfe57600080fd5b6000838152600460205260408120805490919061010090046001600160a01b0316610d263390565b6001600160a01b03161490506000610d4c60008051602061219c83398151915233610410565b90508180610d575750805b610dd75760405162461bcd60e51b8152602060048201526044602482018190527f546f6b656e56657374696e673a206f6e6c792062656e65666963696172792061908201527f6e64206772616e746f722063616e2072656c656173652076657374656420746f6064820152636b656e7360e01b608482015260a4016105b9565b6040805161014081018252845460ff808216151583526001600160a01b03610100928390041660208401526001870154938301939093526002860154606083015260038601546080830152600486015460a083015260058601548316151560c0830152600686015460e083015260078601549082015260088501549091161515610120820152600090610e6990611866565b905085811015610ee15760405162461bcd60e51b815260206004820152603d60248201527f546f6b656e56657374696e673a2063616e6e6f742072656c6561736520746f6b60448201527f656e732c206e6f7420656e6f7567682076657374656420746f6b656e7300000060648201526084016105b9565b858460070154610ef191906120c2565b600785015583546005546101009091046001600160a01b031690610f16908890612119565b600555610f4d6001600160a01b037f00000000000000000000000000000000000000000000000000000000000000001682896116de565b50506001600255505050505050565b6000546001600160a01b03163314610fb65760405162461bcd60e51b815260206004820181905260248201527f4f776e61626c653a2063616c6c6572206973206e6f7420746865206f776e657260448201526064016105b9565b610fc06000611942565b565b610fca611d5a565b6001600160a01b03821660009081526006602052604081205460049190610ff99085906103bd90600190612119565b81526020808201929092526040908101600020815161014081018352815460ff80821615158352610100918290046001600160a01b0316958301959095526001830154938201939093526002820154606082015260038201546080820152600482015460a082015260058201548416151560c0820152600682015460e082015260078201549281019290925260080154909116151561012082015292915050565b6040516bffffffffffffffffffffffff19606084901b1660208201526034810182905260009060540160405160208183030381529060405280519060200120905092915050565b6005546040516370a0823160e01b8152306004820152600091906001600160a01b037f000000000000000000000000000000000000000000000000000000000000000016906370a082319060240160206040518083038186803b15801561114757600080fd5b505afa15801561115b573d6000803e3d6000fd5b505050506040513d601f19601f8201168201806040525081019061117f9190611eb0565b6111899190612119565b905090565b60009182526001602090815260408084206001600160a01b0393909316845291905290205460ff1690565b6111c1611d5a565b50600090815260046020818152604092839020835161014081018552815460ff80821615158352610100918290046001600160a01b03169483019490945260018301549582019590955260028201546060820152600382015460808201529281015460a084015260058101548216151560c0840152600681015460e0840152600781015493830193909352600890920154909116151561012082015290565b61127860008051602061219c8339815191523361118e565b6112945760405162461bcd60e51b81526004016105b990612000565b600081815260046020526040902054819060ff1615156001146112b657600080fd5b60008181526004602052604090206008015460ff16156112d557600080fd5b6000828152600460205260409020600581015460ff16151560011461134b5760405162461bcd60e51b815260206004820152602660248201527f546f6b656e56657374696e673a2076657374696e67206973206e6f74207265766044820152656f6361626c6560d01b60648201526084016105b9565b6040805161014081018252825460ff808216151583526001600160a01b03610100928390041660208401526001850154938301939093526002840154606083015260038401546080830152600484015460a083015260058401548316151560c0830152600684015460e0830152600784015490820152600883015490911615156101208201526000906113dd90611866565b905080156113ef576113ef8482610c67565b6000826007015483600601546114059190612119565b9050806005546114159190612119565b6005555050600801805460ff191660011790555050565b600082815260016020819052604090912001546114498133610bd5565b610be483836117ff565b600081815260046020526040812054829060ff16151560011461147557600080fd5b60008181526004602052604090206008015460ff161561149457600080fd5b600083815260046020818152604092839020835161014081018552815460ff808216151583526001600160a01b0361010092839004169483019490945260018301549582019590955260028201546060820152600382015460808201529281015460a084015260058101548216151560c0840152600681015460e0840152600781015493830193909352600883015416151561012082015261153590611866565b949350505050565b6000546001600160a01b031633146115975760405162461bcd60e51b815260206004820181905260248201527f4f776e61626c653a2063616c6c6572206973206e6f7420746865206f776e657260448201526064016105b9565b6001600160a01b0381166115fc5760405162461bcd60e51b815260206004820152602660248201527f4f776e61626c653a206e6577206f776e657220697320746865207a65726f206160448201526564647265737360d01b60648201526084016105b9565b61160581611942565b50565b611610611d5a565b61161d610430848461109a565b9392505050565b6001600160a01b03811660009081526006602052604081205461057d90839061109a565b600061165360035490565b82106116ab5760405162461bcd60e51b815260206004820152602160248201527f546f6b656e56657374696e673a20696e646578206f7574206f6620626f756e646044820152607360f81b60648201526084016105b9565b600382815481106116cc57634e487b7160e01b600052603260045260246000fd5b90600052602060002001549050919050565b604080516001600160a01b038416602482015260448082018490528251808303909101815260649091019091526020810180516001600160e01b031663a9059cbb60e01b179052610be4908490611992565b61173a828261118e565b610c6357611752816001600160a01b03166014611a64565b61175d836020611a64565b60405160200161176e929190611f58565b60408051601f198184030181529082905262461bcd60e51b82526105b991600401611fcd565b61179e828261118e565b610c635760008281526001602081815260408084206001600160a01b0386168086529252808420805460ff19169093179092559051339285917f2f8788117e7eff1d82e926ec794901d17c78024a50270940304540a733656f0d9190a45050565b611809828261118e565b15610c635760008281526001602090815260408083206001600160a01b0385168085529252808320805460ff1916905551339285917ff6391f5c32d9c69d2a47ea670b442974b53935d1edc7fd64eb21e047a839171b9190a45050565b60408101516000904290811080611884575061012083015115156001145b15611893576000915050610580565b826080015183606001516118a791906120c2565b81106118ca578261010001518360e001516118c29190612119565b915050610580565b60008360600151826118dc9190612119565b60a085015190915060006118f082846120da565b905060006118fe83836120fa565b905060008760800151828960e0015161191791906120fa565b61192191906120da565b9050876101000151816119349190612119565b965061058095505050505050565b600080546001600160a01b038381166001600160a01b0319831681178455604051919092169283917f8be0079c531659141344cd1fd0a4f28419497f9722a3daafe3b4186f6b6457e09190a35050565b60006119e7826040518060400160405280602081526020017f5361666545524332303a206c6f772d6c6576656c2063616c6c206661696c6564815250856001600160a01b0316611c469092919063ffffffff16565b805190915015610be45780806020019051810190611a059190611e7c565b610be45760405162461bcd60e51b815260206004820152602a60248201527f5361666545524332303a204552433230206f7065726174696f6e20646964206e6044820152691bdd081cdd58d8d9595960b21b60648201526084016105b9565b60606000611a738360026120fa565b611a7e9060026120c2565b67ffffffffffffffff811115611aa457634e487b7160e01b600052604160045260246000fd5b6040519080825280601f01601f191660200182016040528015611ace576020820181803683370190505b509050600360fc1b81600081518110611af757634e487b7160e01b600052603260045260246000fd5b60200101906001600160f81b031916908160001a905350600f60fb1b81600181518110611b3457634e487b7160e01b600052603260045260246000fd5b60200101906001600160f81b031916908160001a9053506000611b588460026120fa565b611b639060016120c2565b90505b6001811115611bf7576f181899199a1a9b1b9c1cb0b131b232b360811b85600f1660108110611ba557634e487b7160e01b600052603260045260246000fd5b1a60f81b828281518110611bc957634e487b7160e01b600052603260045260246000fd5b60200101906001600160f81b031916908160001a90535060049490941c93611bf081612160565b9050611b66565b50831561161d5760405162461bcd60e51b815260206004820181905260248201527f537472696e67733a20686578206c656e67746820696e73756666696369656e7460448201526064016105b9565b60606115358484600085856001600160a01b0385163b611ca85760405162461bcd60e51b815260206004820152601d60248201527f416464726573733a2063616c6c20746f206e6f6e2d636f6e747261637400000060448201526064016105b9565b600080866001600160a01b03168587604051611cc49190611f3c565b60006040518083038185875af1925050503d8060008114611d01576040519150601f19603f3d011682016040523d82523d6000602084013e611d06565b606091505b5091509150611d16828286611d21565b979650505050505050565b60608315611d3057508161161d565b825115611d405782518084602001fd5b8160405162461bcd60e51b81526004016105b99190611fcd565b60405180610140016040528060001515815260200160006001600160a01b031681526020016000815260200160008152602001600081526020016000815260200160001515815260200160008152602001600081526020016000151581525090565b80356001600160a01b038116811461058057600080fd5b600060208284031215611de4578081fd5b61161d82611dbc565b60008060408385031215611dff578081fd5b611e0883611dbc565b946020939093013593505050565b600080600080600080600060e0888a031215611e30578283fd5b611e3988611dbc565b96506020880135955060408801359450606088013593506080880135925060a0880135611e658161218d565b8092505060c0880135905092959891949750929550565b600060208284031215611e8d578081fd5b815161161d8161218d565b600060208284031215611ea9578081fd5b5035919050565b600060208284031215611ec1578081fd5b5051919050565b60008060408385031215611eda578182fd5b82359150611eea60208401611dbc565b90509250929050565b60008060408385031215611f05578182fd5b50508035926020909101359150565b600060208284031215611f25578081fd5b81356001600160e01b03198116811461161d578182fd5b60008251611f4e818460208701612130565b9190910192915050565b60007f416363657373436f6e74726f6c3a206163636f756e742000000000000000000082528351611f90816017850160208801612130565b7001034b99036b4b9b9b4b733903937b6329607d1b6017918401918201528351611fc1816028840160208801612130565b01602801949350505050565b6000602082528251806020840152611fec816040850160208701612130565b601f01601f19169190910160400192915050565b60208082526017908201527f43616c6c6572206973206e6f742061204772616e746f72000000000000000000604082015260600190565b8151151581526101408101602083015161205c60208401826001600160a01b03169052565b5060408301516040830152606083015160608301526080830151608083015260a083015160a083015260c083015161209860c084018215159052565b5060e083810151908301526101008084015190830152610120928301511515929091019190915290565b600082198211156120d5576120d5612177565b500190565b6000826120f557634e487b7160e01b81526012600452602481fd5b500490565b600081600019048311821515161561211457612114612177565b500290565b60008282101561212b5761212b612177565b500390565b60005b8381101561214b578181015183820152602001612133565b8381111561215a576000848401525b50505050565b60008161216f5761216f612177565b506000190190565b634e487b7160e01b600052601160045260246000fd5b801515811461160557600080fdfed10feaa7fea55567e367a112bc53907318a50949442dfc0570945570c5af57cfa264697066735822122066fad67e3040458d1f4230e3b394d1ff92221a467b0fc92d9cecba388c03f38864736f6c63430008020033",
  "linkReferences": {},
  "deployedLinkReferences": {}
}