{
  "_format": "hh-sol-artifact-1",
  "contractName": "TokenVesting",
  "sourceName": "contracts/vesting/SportZchainTokenVesting.sol",
  "abi": [
    {
      "inputs": [
        {
          "internalType": "address",
          "name": "token_",
          "type": "address"
        }
      ],
      "stateMutability": "nonpayable",
      "type": "constructor"
    },
    {
      "anonymous": false,
      "inputs": [
        {
          "indexed": true,
          "internalType": "address",
          "name": "previousOwner",
          "type": "address"
        },
        {
          "indexed": true,
          "internalType": "address",
          "name": "newOwner",
          "type": "address"
        }
      ],
      "name": "OwnershipTransferred",
      "type": "event"
    },
    {
      "anonymous": false,
      "inputs": [
        {
          "indexed": false,
          "internalType": "uint256",
          "name": "amount",
          "type": "uint256"
        }
      ],
      "name": "Released",
      "type": "event"
    },
    {
      "anonymous": false,
      "inputs": [],
      "name": "Revoked",
      "type": "event"
    },
    {
      "anonymous": false,
      "inputs": [
        {
          "indexed": true,
          "internalType": "bytes32",
          "name": "role",
          "type": "bytes32"
        },
        {
          "indexed": true,
          "internalType": "bytes32",
          "name": "previousAdminRole",
          "type": "bytes32"
        },
        {
          "indexed": true,
          "internalType": "bytes32",
          "name": "newAdminRole",
          "type": "bytes32"
        }
      ],
      "name": "RoleAdminChanged",
      "type": "event"
    },
    {
      "anonymous": false,
      "inputs": [
        {
          "indexed": true,
          "internalType": "bytes32",
          "name": "role",
          "type": "bytes32"
        },
        {
          "indexed": true,
          "internalType": "address",
          "name": "account",
          "type": "address"
        },
        {
          "indexed": true,
          "internalType": "address",
          "name": "sender",
          "type": "address"
        }
      ],
      "name": "RoleGranted",
      "type": "event"
    },
    {
      "anonymous": false,
      "inputs": [
        {
          "indexed": true,
          "internalType": "bytes32",
          "name": "role",
          "type": "bytes32"
        },
        {
          "indexed": true,
          "internalType": "address",
          "name": "account",
          "type": "address"
        },
        {
          "indexed": true,
          "internalType": "address",
          "name": "sender",
          "type": "address"
        }
      ],
      "name": "RoleRevoked",
      "type": "event"
    },
    {
      "stateMutability": "payable",
      "type": "fallback"
    },
    {
      "inputs": [],
      "name": "DEFAULT_ADMIN_ROLE",
      "outputs": [
        {
          "internalType": "bytes32",
          "name": "",
          "type": "bytes32"
        }
      ],
      "stateMutability": "view",
      "type": "function"
    },
    {
      "inputs": [],
      "name": "GRANTOR_ROLE",
      "outputs": [
        {
          "internalType": "bytes32",
          "name": "",
          "type": "bytes32"
        }
      ],
      "stateMutability": "view",
      "type": "function"
    },
    {
      "inputs": [
        {
          "internalType": "address",
          "name": "holder",
          "type": "address"
        }
      ],
      "name": "computeNextVestingScheduleIdForHolder",
      "outputs": [
        {
          "internalType": "bytes32",
          "name": "",
          "type": "bytes32"
        }
      ],
      "stateMutability": "view",
      "type": "function"
    },
    {
      "inputs": [
        {
          "internalType": "bytes32",
          "name": "vestingScheduleId",
          "type": "bytes32"
        }
      ],
      "name": "computeReleasableAmount",
      "outputs": [
        {
          "internalType": "uint256",
          "name": "",
          "type": "uint256"
        }
      ],
      "stateMutability": "view",
      "type": "function"
    },
    {
      "inputs": [
        {
          "internalType": "address",
          "name": "holder",
          "type": "address"
        },
        {
          "internalType": "uint256",
          "name": "index",
          "type": "uint256"
        }
      ],
      "name": "computeVestingScheduleIdForAddressAndIndex",
      "outputs": [
        {
          "internalType": "bytes32",
          "name": "",
          "type": "bytes32"
        }
      ],
      "stateMutability": "pure",
      "type": "function"
    },
    {
      "inputs": [
        {
          "internalType": "address",
          "name": "_beneficiary",
          "type": "address"
        },
        {
          "internalType": "uint256",
          "name": "_start",
          "type": "uint256"
        },
        {
          "internalType": "uint256",
          "name": "_cliff",
          "type": "uint256"
        },
        {
          "internalType": "uint256",
          "name": "_duration",
          "type": "uint256"
        },
        {
          "internalType": "uint256",
          "name": "_slicePeriodSeconds",
          "type": "uint256"
        },
        {
          "internalType": "bool",
          "name": "_revocable",
          "type": "bool"
        },
        {
          "internalType": "uint256",
          "name": "_amount",
          "type": "uint256"
        }
      ],
      "name": "createVestingSchedule",
      "outputs": [],
      "stateMutability": "nonpayable",
      "type": "function"
    },
    {
      "inputs": [
        {
          "internalType": "address",
          "name": "holder",
          "type": "address"
        }
      ],
      "name": "getLastVestingScheduleForHolder",
      "outputs": [
        {
          "components": [
            {
              "internalType": "bool",
              "name": "initialized",
              "type": "bool"
            },
            {
              "internalType": "address",
              "name": "beneficiary",
              "type": "address"
            },
            {
              "internalType": "uint256",
              "name": "cliff",
              "type": "uint256"
            },
            {
              "internalType": "uint256",
              "name": "start",
              "type": "uint256"
            },
            {
              "internalType": "uint256",
              "name": "duration",
              "type": "uint256"
            },
            {
              "internalType": "uint256",
              "name": "slicePeriodSeconds",
              "type": "uint256"
            },
            {
              "internalType": "bool",
              "name": "revocable",
              "type": "bool"
            },
            {
              "internalType": "uint256",
              "name": "amountTotal",
              "type": "uint256"
            },
            {
              "internalType": "uint256",
              "name": "released",
              "type": "uint256"
            },
            {
              "internalType": "bool",
              "name": "revoked",
              "type": "bool"
            }
          ],
          "internalType": "struct TokenVesting.VestingSchedule",
          "name": "",
          "type": "tuple"
        }
      ],
      "stateMutability": "view",
      "type": "function"
    },
    {
      "inputs": [
        {
          "internalType": "bytes32",
          "name": "role",
          "type": "bytes32"
        }
      ],
      "name": "getRoleAdmin",
      "outputs": [
        {
          "internalType": "bytes32",
          "name": "",
          "type": "bytes32"
        }
      ],
      "stateMutability": "view",
      "type": "function"
    },
    {
      "inputs": [],
      "name": "getToken",
      "outputs": [
        {
          "internalType": "address",
          "name": "",
          "type": "address"
        }
      ],
      "stateMutability": "view",
      "type": "function"
    },
    {
      "inputs": [
        {
          "internalType": "uint256",
          "name": "index",
          "type": "uint256"
        }
      ],
      "name": "getVestingIdAtIndex",
      "outputs": [
        {
          "internalType": "bytes32",
          "name": "",
          "type": "bytes32"
        }
      ],
      "stateMutability": "view",
      "type": "function"
    },
    {
      "inputs": [
        {
          "internalType": "bytes32",
          "name": "vestingScheduleId",
          "type": "bytes32"
        }
      ],
      "name": "getVestingSchedule",
      "outputs": [
        {
          "components": [
            {
              "internalType": "bool",
              "name": "initialized",
              "type": "bool"
            },
            {
              "internalType": "address",
              "name": "beneficiary",
              "type": "address"
            },
            {
              "internalType": "uint256",
              "name": "cliff",
              "type": "uint256"
            },
            {
              "internalType": "uint256",
              "name": "start",
              "type": "uint256"
            },
            {
              "internalType": "uint256",
              "name": "duration",
              "type": "uint256"
            },
            {
              "internalType": "uint256",
              "name": "slicePeriodSeconds",
              "type": "uint256"
            },
            {
              "internalType": "bool",
              "name": "revocable",
              "type": "bool"
            },
            {
              "internalType": "uint256",
              "name": "amountTotal",
              "type": "uint256"
            },
            {
              "internalType": "uint256",
              "name": "released",
              "type": "uint256"
            },
            {
              "internalType": "bool",
              "name": "revoked",
              "type": "bool"
            }
          ],
          "internalType": "struct TokenVesting.VestingSchedule",
          "name": "",
          "type": "tuple"
        }
      ],
      "stateMutability": "view",
      "type": "function"
    },
    {
      "inputs": [
        {
          "internalType": "address",
          "name": "holder",
          "type": "address"
        },
        {
          "internalType": "uint256",
          "name": "index",
          "type": "uint256"
        }
      ],
      "name": "getVestingScheduleByAddressAndIndex",
      "outputs": [
        {
          "components": [
            {
              "internalType": "bool",
              "name": "initialized",
              "type": "bool"
            },
            {
              "internalType": "address",
              "name": "beneficiary",
              "type": "address"
            },
            {
              "internalType": "uint256",
              "name": "cliff",
              "type": "uint256"
            },
            {
              "internalType": "uint256",
              "name": "start",
              "type": "uint256"
            },
            {
              "internalType": "uint256",
              "name": "duration",
              "type": "uint256"
            },
            {
              "internalType": "uint256",
              "name": "slicePeriodSeconds",
              "type": "uint256"
            },
            {
              "internalType": "bool",
              "name": "revocable",
              "type": "bool"
            },
            {
              "internalType": "uint256",
              "name": "amountTotal",
              "type": "uint256"
            },
            {
              "internalType": "uint256",
              "name": "released",
              "type": "uint256"
            },
            {
              "internalType": "bool",
              "name": "revoked",
              "type": "bool"
            }
          ],
          "internalType": "struct TokenVesting.VestingSchedule",
          "name": "",
          "type": "tuple"
        }
      ],
      "stateMutability": "view",
      "type": "function"
    },
    {
      "inputs": [],
      "name": "getVestingSchedulesCount",
      "outputs": [
        {
          "internalType": "uint256",
          "name": "",
          "type": "uint256"
        }
      ],
      "stateMutability": "view",
      "type": "function"
    },
    {
      "inputs": [
        {
          "internalType": "address",
          "name": "_beneficiary",
          "type": "address"
        }
      ],
      "name": "getVestingSchedulesCountByBeneficiary",
      "outputs": [
        {
          "internalType": "uint256",
          "name": "",
          "type": "uint256"
        }
      ],
      "stateMutability": "view",
      "type": "function"
    },
    {
      "inputs": [],
      "name": "getVestingSchedulesTotalAmount",
      "outputs": [
        {
          "internalType": "uint256",
          "name": "",
          "type": "uint256"
        }
      ],
      "stateMutability": "view",
      "type": "function"
    },
    {
      "inputs": [],
      "name": "getWithdrawableAmount",
      "outputs": [
        {
          "internalType": "uint256",
          "name": "",
          "type": "uint256"
        }
      ],
      "stateMutability": "view",
      "type": "function"
    },
    {
      "inputs": [
        {
          "internalType": "bytes32",
          "name": "role",
          "type": "bytes32"
        },
        {
          "internalType": "address",
          "name": "account",
          "type": "address"
        }
      ],
      "name": "grantRole",
      "outputs": [],
      "stateMutability": "nonpayable",
      "type": "function"
    },
    {
      "inputs": [
        {
          "internalType": "bytes32",
          "name": "role",
          "type": "bytes32"
        },
        {
          "internalType": "address",
          "name": "account",
          "type": "address"
        }
      ],
      "name": "hasRole",
      "outputs": [
        {
          "internalType": "bool",
          "name": "",
          "type": "bool"
        }
      ],
      "stateMutability": "view",
      "type": "function"
    },
    {
      "inputs": [],
      "name": "owner",
      "outputs": [
        {
          "internalType": "address",
          "name": "",
          "type": "address"
        }
      ],
      "stateMutability": "view",
      "type": "function"
    },
    {
      "inputs": [
        {
          "internalType": "bytes32",
          "name": "vestingScheduleId",
          "type": "bytes32"
        },
        {
          "internalType": "uint256",
          "name": "amount",
          "type": "uint256"
        }
      ],
      "name": "release",
      "outputs": [],
      "stateMutability": "nonpayable",
      "type": "function"
    },
    {
      "inputs": [],
      "name": "renounceOwnership",
      "outputs": [],
      "stateMutability": "nonpayable",
      "type": "function"
    },
    {
      "inputs": [
        {
          "internalType": "bytes32",
          "name": "role",
          "type": "bytes32"
        },
        {
          "internalType": "address",
          "name": "account",
          "type": "address"
        }
      ],
      "name": "renounceRole",
      "outputs": [],
      "stateMutability": "nonpayable",
      "type": "function"
    },
    {
      "inputs": [
        {
          "internalType": "bytes32",
          "name": "vestingScheduleId",
          "type": "bytes32"
        }
      ],
      "name": "revoke",
      "outputs": [],
      "stateMutability": "nonpayable",
      "type": "function"
    },
    {
      "inputs": [
        {
          "internalType": "bytes32",
          "name": "role",
          "type": "bytes32"
        },
        {
          "internalType": "address",
          "name": "account",
          "type": "address"
        }
      ],
      "name": "revokeRole",
      "outputs": [],
      "stateMutability": "nonpayable",
      "type": "function"
    },
    {
      "inputs": [
        {
          "internalType": "bytes4",
          "name": "interfaceId",
          "type": "bytes4"
        }
      ],
      "name": "supportsInterface",
      "outputs": [
        {
          "internalType": "bool",
          "name": "",
          "type": "bool"
        }
      ],
      "stateMutability": "view",
      "type": "function"
    },
    {
      "inputs": [
        {
          "internalType": "address",
          "name": "newOwner",
          "type": "address"
        }
      ],
      "name": "transferOwnership",
      "outputs": [],
      "stateMutability": "nonpayable",
      "type": "function"
    },
    {
      "inputs": [
        {
          "internalType": "uint256",
          "name": "amount",
          "type": "uint256"
        }
      ],
      "name": "withdraw",
      "outputs": [],
      "stateMutability": "nonpayable",
      "type": "function"
    },
    {
      "stateMutability": "payable",
      "type": "receive"
    }
  ],
  "bytecode": "0x60a06040523480156200001157600080fd5b50604051620023b8380380620023b8833981016040819052620000349162000166565b6200003f336200007e565b60016002556001600160a01b0381166200005857600080fd5b606081901b6001600160601b03191660805262000077600033620000ce565b5062000196565b600080546001600160a01b038381166001600160a01b0319831681178455604051919092169283917f8be0079c531659141344cd1fd0a4f28419497f9722a3daafe3b4186f6b6457e09190a35050565b620000da8282620000de565b5050565b60008281526001602090815260408083206001600160a01b038516845290915290205460ff16620000da5760008281526001602081815260408084206001600160a01b0386168086529252808420805460ff19169093179092559051339285917f2f8788117e7eff1d82e926ec794901d17c78024a50270940304540a733656f0d9190a45050565b60006020828403121562000178578081fd5b81516001600160a01b03811681146200018f578182fd5b9392505050565b60805160601c6121ee620001ca6000396000818161022c01528181610b8d01528181610f23015261110201526121ee6000f3fe6080604052600436106101a05760003560e01c80638af104da116100ec578063d547741f1161008a578063f2fde38b11610064578063f2fde38b146104cc578063f51321d7146104ec578063f7c469f01461050c578063f9079b371461052c576101a7565b8063d547741f1461046a578063e15fb83f1461048a578063ea1bb3d5146104ac576101a7565b806391d14854116100c657806391d14854146103f55780639ef346b414610415578063a217fddf14610435578063b75c7dc61461044a576101a7565b80638af104da146103a25780638da5cb5b146103c257806390be10cc146103e0576101a7565b80632f2ff15d116101595780635a7bb69a116101335780635a7bb69a1461030a57806366afd8ef14610340578063715018a6146103605780637e913dc614610375576101a7565b80632f2ff15d146102b557806336568abe146102d557806348deb471146102f5576101a7565b806301ffc9a7146101a957806313083617146101de57806317e289e9146101fd57806321df0da71461021d578063248a9ca3146102645780632e1a7d4d14610295576101a7565b366101a757005b005b3480156101b557600080fd5b506101c96101c4366004611f11565b61054c565b60405190151581526020015b60405180910390f35b3480156101ea57600080fd5b506003545b6040519081526020016101d5565b34801561020957600080fd5b506101a7610218366004611e13565b610585565b34801561022957600080fd5b507f00000000000000000000000000000000000000000000000000000000000000005b6040516001600160a01b0390911681526020016101d5565b34801561027057600080fd5b506101ef61027f366004611e95565b6000908152600160208190526040909120015490565b3480156102a157600080fd5b506101a76102b0366004611e95565b610a1f565b3480156102c157600080fd5b506101a76102d0366004611ec5565b610bbc565b3480156102e157600080fd5b506101a76102f0366004611ec5565b610be9565b34801561030157600080fd5b506005546101ef565b34801561031657600080fd5b506101ef610325366004611dd0565b6001600160a01b031660009081526006602052604090205490565b34801561034c57600080fd5b506101a761035b366004611ef0565b610c67565b34801561036c57600080fd5b506101a7610f59565b34801561038157600080fd5b50610395610390366004611dd0565b610fbf565b6040516101d59190612034565b3480156103ae57600080fd5b506101ef6103bd366004611dea565b611097565b3480156103ce57600080fd5b506000546001600160a01b031661024c565b3480156103ec57600080fd5b506101ef6110de565b34801561040157600080fd5b506101c9610410366004611ec5565b61118b565b34801561042157600080fd5b50610395610430366004611e95565b6111b6565b34801561044157600080fd5b506101ef600081565b34801561045657600080fd5b506101a7610465366004611e95565b61125d565b34801561047657600080fd5b506101a7610485366004611ec5565b611429565b34801561049657600080fd5b506101ef60008051602061219983398151915281565b3480156104b857600080fd5b506101ef6104c7366004611e95565b611450565b3480156104d857600080fd5b506101a76104e7366004611dd0565b61153a565b3480156104f857600080fd5b50610395610507366004611dea565b611605565b34801561051857600080fd5b506101ef610527366004611dd0565b611621565b34801561053857600080fd5b506101ef610547366004611e95565b611645565b60006001600160e01b03198216637965db0b60e01b148061057d57506301ffc9a760e01b6001600160e01b03198316145b90505b919050565b61059d6000805160206121998339815191523361118b565b6105c25760405162461bcd60e51b81526004016105b990611ffd565b60405180910390fd5b80306001600160a01b03166390be10cc6040518163ffffffff1660e01b815260040160206040518083038186803b1580156105fc57600080fd5b505afa158015610610573d6000803e3d6000fd5b505050506040513d601f19601f820116820180604052508101906106349190611ead565b10156106bb5760405162461bcd60e51b815260206004820152604a60248201527f546f6b656e56657374696e673a2063616e6e6f7420637265617465207665737460448201527f696e67207363686564756c652062656361757365206e6f742073756666696369606482015269656e7420746f6b656e7360b01b608482015260a4016105b9565b600084116107165760405162461bcd60e51b815260206004820152602260248201527f546f6b656e56657374696e673a206475726174696f6e206d757374206265203e604482015261020360f41b60648201526084016105b9565b600081116107665760405162461bcd60e51b815260206004820181905260248201527f546f6b656e56657374696e673a20616d6f756e74206d757374206265203e203060448201526064016105b9565b60018310156107cd5760405162461bcd60e51b815260206004820152602d60248201527f546f6b656e56657374696e673a20736c696365506572696f645365636f6e647360448201526c206d757374206265203e3d203160981b60648201526084016105b9565b604051630f7c469f60e41b81526001600160a01b0388166004820152600090309063f7c469f09060240160206040518083038186803b15801561080f57600080fd5b505afa158015610823573d6000803e3d6000fd5b505050506040513d601f19601f820116820180604052508101906108479190611ead565b9050600061085587896120bf565b90506040518061014001604052806001151581526020018a6001600160a01b03168152602001828152602001898152602001878152602001868152602001851515815260200184815260200160008152602001600015158152506004600084815260200190815260200160002060008201518160000160006101000a81548160ff02191690831515021790555060208201518160000160016101000a8154816001600160a01b0302191690836001600160a01b0316021790555060408201518160010155606082015181600201556080820151816003015560a0820151816004015560c08201518160050160006101000a81548160ff02191690831515021790555060e0820151816006015561010082015181600701556101208201518160080160006101000a81548160ff0219169083151502179055509050508260055461099e91906120bf565b6005556003805460018181019092557fc2575a0e9e593c00f959f8c92f12db2869c3395a3b0502d05e2516446f71f85b018390556001600160a01b038a16600090815260066020526040902054906109f79082906120bf565b6001600160a01b03909a16600090815260066020526040902099909955505050505050505050565b610a376000805160206121998339815191523361118b565b610a535760405162461bcd60e51b81526004016105b990611ffd565b600280541415610aa55760405162461bcd60e51b815260206004820152601f60248201527f5265656e7472616e637947756172643a207265656e7472616e742063616c6c0060448201526064016105b9565b6002808190555080306001600160a01b03166390be10cc6040518163ffffffff1660e01b815260040160206040518083038186803b158015610ae657600080fd5b505afa158015610afa573d6000803e3d6000fd5b505050506040513d601f19601f82011682018060405250810190610b1e9190611ead565b1015610b805760405162461bcd60e51b815260206004820152602b60248201527f546f6b656e56657374696e673a206e6f7420656e6f756768207769746864726160448201526a7761626c652066756e647360a81b60648201526084016105b9565b610bb46001600160a01b037f00000000000000000000000000000000000000000000000000000000000000001633836116db565b506001600255565b60008281526001602081905260409091200154610bda81335b61172d565b610be48383611791565b505050565b6001600160a01b0381163314610c595760405162461bcd60e51b815260206004820152602f60248201527f416363657373436f6e74726f6c3a2063616e206f6e6c792072656e6f756e636560448201526e103937b632b9903337b91039b2b63360891b60648201526084016105b9565b610c6382826117fc565b5050565b600280541415610cb95760405162461bcd60e51b815260206004820152601f60248201527f5265656e7472616e637947756172643a207265656e7472616e742063616c6c0060448201526064016105b9565b60028055600082815260046020526040902054829060ff161515600114610cdf57600080fd5b60008181526004602052604090206008015460ff1615610cfe57600080fd5b6000838152600460205260408120805490919061010090046001600160a01b0316610d263390565b6001600160a01b03161490506000610d4c60008051602061219983398151915233610410565b90508180610d575750805b610dd45760405162461bcd60e51b815260206004820152604260248201527f546f6b656e56657374696e673a206f6e6c792062656e6566696369617279206160448201527f6e64206f776e65722063616e2072656c656173652076657374656420746f6b656064820152616e7360f01b608482015260a4016105b9565b6040805161014081018252845460ff808216151583526001600160a01b03610100928390041660208401526001870154938301939093526002860154606083015260038601546080830152600486015460a083015260058601548316151560c0830152600686015460e083015260078601549082015260088501549091161515610120820152600090610e6690611863565b905085811015610ede5760405162461bcd60e51b815260206004820152603d60248201527f546f6b656e56657374696e673a2063616e6e6f742072656c6561736520746f6b60448201527f656e732c206e6f7420656e6f7567682076657374656420746f6b656e7300000060648201526084016105b9565b858460070154610eee91906120bf565b600785015583546005546101009091046001600160a01b031690610f13908890612116565b600555610f4a6001600160a01b037f00000000000000000000000000000000000000000000000000000000000000001682896116db565b50506001600255505050505050565b6000546001600160a01b03163314610fb35760405162461bcd60e51b815260206004820181905260248201527f4f776e61626c653a2063616c6c6572206973206e6f7420746865206f776e657260448201526064016105b9565b610fbd600061193f565b565b610fc7611d57565b6001600160a01b03821660009081526006602052604081205460049190610ff69085906103bd90600190612116565b81526020808201929092526040908101600020815161014081018352815460ff80821615158352610100918290046001600160a01b0316958301959095526001830154938201939093526002820154606082015260038201546080820152600482015460a082015260058201548416151560c0820152600682015460e082015260078201549281019290925260080154909116151561012082015292915050565b6040516bffffffffffffffffffffffff19606084901b1660208201526034810182905260009060540160405160208183030381529060405280519060200120905092915050565b6005546040516370a0823160e01b8152306004820152600091906001600160a01b037f000000000000000000000000000000000000000000000000000000000000000016906370a082319060240160206040518083038186803b15801561114457600080fd5b505afa158015611158573d6000803e3d6000fd5b505050506040513d601f19601f8201168201806040525081019061117c9190611ead565b6111869190612116565b905090565b60009182526001602090815260408084206001600160a01b0393909316845291905290205460ff1690565b6111be611d57565b50600090815260046020818152604092839020835161014081018552815460ff80821615158352610100918290046001600160a01b03169483019490945260018301549582019590955260028201546060820152600382015460808201529281015460a084015260058101548216151560c0840152600681015460e0840152600781015493830193909352600890920154909116151561012082015290565b6112756000805160206121998339815191523361118b565b6112915760405162461bcd60e51b81526004016105b990611ffd565b600081815260046020526040902054819060ff1615156001146112b357600080fd5b60008181526004602052604090206008015460ff16156112d257600080fd5b6000828152600460205260409020600581015460ff1615156001146113485760405162461bcd60e51b815260206004820152602660248201527f546f6b656e56657374696e673a2076657374696e67206973206e6f74207265766044820152656f6361626c6560d01b60648201526084016105b9565b6040805161014081018252825460ff808216151583526001600160a01b03610100928390041660208401526001850154938301939093526002840154606083015260038401546080830152600484015460a083015260058401548316151560c0830152600684015460e0830152600784015490820152600883015490911615156101208201526000906113da90611863565b905080156113ec576113ec8482610c67565b6000826007015483600601546114029190612116565b9050806005546114129190612116565b6005555050600801805460ff191660011790555050565b600082815260016020819052604090912001546114468133610bd5565b610be483836117fc565b600081815260046020526040812054829060ff16151560011461147257600080fd5b60008181526004602052604090206008015460ff161561149157600080fd5b600083815260046020818152604092839020835161014081018552815460ff808216151583526001600160a01b0361010092839004169483019490945260018301549582019590955260028201546060820152600382015460808201529281015460a084015260058101548216151560c0840152600681015460e0840152600781015493830193909352600883015416151561012082015261153290611863565b949350505050565b6000546001600160a01b031633146115945760405162461bcd60e51b815260206004820181905260248201527f4f776e61626c653a2063616c6c6572206973206e6f7420746865206f776e657260448201526064016105b9565b6001600160a01b0381166115f95760405162461bcd60e51b815260206004820152602660248201527f4f776e61626c653a206e6577206f776e657220697320746865207a65726f206160448201526564647265737360d01b60648201526084016105b9565b6116028161193f565b50565b61160d611d57565b61161a6104308484611097565b9392505050565b6001600160a01b03811660009081526006602052604081205461057d908390611097565b600061165060035490565b82106116a85760405162461bcd60e51b815260206004820152602160248201527f546f6b656e56657374696e673a20696e646578206f7574206f6620626f756e646044820152607360f81b60648201526084016105b9565b600382815481106116c957634e487b7160e01b600052603260045260246000fd5b90600052602060002001549050919050565b604080516001600160a01b038416602482015260448082018490528251808303909101815260649091019091526020810180516001600160e01b031663a9059cbb60e01b179052610be490849061198f565b611737828261118b565b610c635761174f816001600160a01b03166014611a61565b61175a836020611a61565b60405160200161176b929190611f55565b60408051601f198184030181529082905262461bcd60e51b82526105b991600401611fca565b61179b828261118b565b610c635760008281526001602081815260408084206001600160a01b0386168086529252808420805460ff19169093179092559051339285917f2f8788117e7eff1d82e926ec794901d17c78024a50270940304540a733656f0d9190a45050565b611806828261118b565b15610c635760008281526001602090815260408083206001600160a01b0385168085529252808320805460ff1916905551339285917ff6391f5c32d9c69d2a47ea670b442974b53935d1edc7fd64eb21e047a839171b9190a45050565b60408101516000904290811080611881575061012083015115156001145b15611890576000915050610580565b826080015183606001516118a491906120bf565b81106118c7578261010001518360e001516118bf9190612116565b915050610580565b60008360600151826118d99190612116565b60a085015190915060006118ed82846120d7565b905060006118fb83836120f7565b905060008760800151828960e0015161191491906120f7565b61191e91906120d7565b9050876101000151816119319190612116565b965061058095505050505050565b600080546001600160a01b038381166001600160a01b0319831681178455604051919092169283917f8be0079c531659141344cd1fd0a4f28419497f9722a3daafe3b4186f6b6457e09190a35050565b60006119e4826040518060400160405280602081526020017f5361666545524332303a206c6f772d6c6576656c2063616c6c206661696c6564815250856001600160a01b0316611c439092919063ffffffff16565b805190915015610be45780806020019051810190611a029190611e79565b610be45760405162461bcd60e51b815260206004820152602a60248201527f5361666545524332303a204552433230206f7065726174696f6e20646964206e6044820152691bdd081cdd58d8d9595960b21b60648201526084016105b9565b60606000611a708360026120f7565b611a7b9060026120bf565b67ffffffffffffffff811115611aa157634e487b7160e01b600052604160045260246000fd5b6040519080825280601f01601f191660200182016040528015611acb576020820181803683370190505b509050600360fc1b81600081518110611af457634e487b7160e01b600052603260045260246000fd5b60200101906001600160f81b031916908160001a905350600f60fb1b81600181518110611b3157634e487b7160e01b600052603260045260246000fd5b60200101906001600160f81b031916908160001a9053506000611b558460026120f7565b611b609060016120bf565b90505b6001811115611bf4576f181899199a1a9b1b9c1cb0b131b232b360811b85600f1660108110611ba257634e487b7160e01b600052603260045260246000fd5b1a60f81b828281518110611bc657634e487b7160e01b600052603260045260246000fd5b60200101906001600160f81b031916908160001a90535060049490941c93611bed8161215d565b9050611b63565b50831561161a5760405162461bcd60e51b815260206004820181905260248201527f537472696e67733a20686578206c656e67746820696e73756666696369656e7460448201526064016105b9565b60606115328484600085856001600160a01b0385163b611ca55760405162461bcd60e51b815260206004820152601d60248201527f416464726573733a2063616c6c20746f206e6f6e2d636f6e747261637400000060448201526064016105b9565b600080866001600160a01b03168587604051611cc19190611f39565b60006040518083038185875af1925050503d8060008114611cfe576040519150601f19603f3d011682016040523d82523d6000602084013e611d03565b606091505b5091509150611d13828286611d1e565b979650505050505050565b60608315611d2d57508161161a565b825115611d3d5782518084602001fd5b8160405162461bcd60e51b81526004016105b99190611fca565b60405180610140016040528060001515815260200160006001600160a01b031681526020016000815260200160008152602001600081526020016000815260200160001515815260200160008152602001600081526020016000151581525090565b80356001600160a01b038116811461058057600080fd5b600060208284031215611de1578081fd5b61161a82611db9565b60008060408385031215611dfc578081fd5b611e0583611db9565b946020939093013593505050565b600080600080600080600060e0888a031215611e2d578283fd5b611e3688611db9565b96506020880135955060408801359450606088013593506080880135925060a0880135611e628161218a565b8092505060c0880135905092959891949750929550565b600060208284031215611e8a578081fd5b815161161a8161218a565b600060208284031215611ea6578081fd5b5035919050565b600060208284031215611ebe578081fd5b5051919050565b60008060408385031215611ed7578182fd5b82359150611ee760208401611db9565b90509250929050565b60008060408385031215611f02578182fd5b50508035926020909101359150565b600060208284031215611f22578081fd5b81356001600160e01b03198116811461161a578182fd5b60008251611f4b81846020870161212d565b9190910192915050565b60007f416363657373436f6e74726f6c3a206163636f756e742000000000000000000082528351611f8d81601785016020880161212d565b7001034b99036b4b9b9b4b733903937b6329607d1b6017918401918201528351611fbe81602884016020880161212d565b01602801949350505050565b6000602082528251806020840152611fe981604085016020870161212d565b601f01601f19169190910160400192915050565b60208082526017908201527f43616c6c6572206973206e6f742061204772616e746f72000000000000000000604082015260600190565b8151151581526101408101602083015161205960208401826001600160a01b03169052565b5060408301516040830152606083015160608301526080830151608083015260a083015160a083015260c083015161209560c084018215159052565b5060e083810151908301526101008084015190830152610120928301511515929091019190915290565b600082198211156120d2576120d2612174565b500190565b6000826120f257634e487b7160e01b81526012600452602481fd5b500490565b600081600019048311821515161561211157612111612174565b500290565b60008282101561212857612128612174565b500390565b60005b83811015612148578181015183820152602001612130565b83811115612157576000848401525b50505050565b60008161216c5761216c612174565b506000190190565b634e487b7160e01b600052601160045260246000fd5b801515811461160257600080fdfed10feaa7fea55567e367a112bc53907318a50949442dfc0570945570c5af57cfa2646970667358221220ce4a36ba39e2cbd06b939d9b1def05eab637c501384641c16ba2ef794a98928b64736f6c63430008020033",
  "linkReferences": {},
  "deployedLinkReferences": {}
}