{
  "_format": "hh-sol-artifact-1",
  "contractName": "TokenVesting",
  "sourceName": "contracts/vesting/SportZchainTokenVesting.sol",
  "abi": [
    {
      "inputs": [
        {
          "internalType": "address",
          "name": "token_",
          "type": "address"
        }
      ],
      "stateMutability": "nonpayable",
      "type": "constructor"
    },
    {
      "anonymous": false,
      "inputs": [
        {
          "indexed": false,
          "internalType": "uint256",
          "name": "amount",
          "type": "uint256"
        }
      ],
      "name": "Released",
      "type": "event"
    },
    {
      "anonymous": false,
      "inputs": [],
      "name": "Revoked",
      "type": "event"
    },
    {
      "anonymous": false,
      "inputs": [
        {
          "indexed": true,
          "internalType": "bytes32",
          "name": "role",
          "type": "bytes32"
        },
        {
          "indexed": true,
          "internalType": "bytes32",
          "name": "previousAdminRole",
          "type": "bytes32"
        },
        {
          "indexed": true,
          "internalType": "bytes32",
          "name": "newAdminRole",
          "type": "bytes32"
        }
      ],
      "name": "RoleAdminChanged",
      "type": "event"
    },
    {
      "anonymous": false,
      "inputs": [
        {
          "indexed": true,
          "internalType": "bytes32",
          "name": "role",
          "type": "bytes32"
        },
        {
          "indexed": true,
          "internalType": "address",
          "name": "account",
          "type": "address"
        },
        {
          "indexed": true,
          "internalType": "address",
          "name": "sender",
          "type": "address"
        }
      ],
      "name": "RoleGranted",
      "type": "event"
    },
    {
      "anonymous": false,
      "inputs": [
        {
          "indexed": true,
          "internalType": "bytes32",
          "name": "role",
          "type": "bytes32"
        },
        {
          "indexed": true,
          "internalType": "address",
          "name": "account",
          "type": "address"
        },
        {
          "indexed": true,
          "internalType": "address",
          "name": "sender",
          "type": "address"
        }
      ],
      "name": "RoleRevoked",
      "type": "event"
    },
    {
      "stateMutability": "payable",
      "type": "fallback"
    },
    {
      "inputs": [],
      "name": "DEFAULT_ADMIN_ROLE",
      "outputs": [
        {
          "internalType": "bytes32",
          "name": "",
          "type": "bytes32"
        }
      ],
      "stateMutability": "view",
      "type": "function"
    },
    {
      "inputs": [],
      "name": "GRANTOR_ROLE",
      "outputs": [
        {
          "internalType": "bytes32",
          "name": "",
          "type": "bytes32"
        }
      ],
      "stateMutability": "view",
      "type": "function"
    },
    {
      "inputs": [
        {
          "internalType": "address",
          "name": "holder",
          "type": "address"
        }
      ],
      "name": "computeNextVestingScheduleIdForHolder",
      "outputs": [
        {
          "internalType": "bytes32",
          "name": "",
          "type": "bytes32"
        }
      ],
      "stateMutability": "view",
      "type": "function"
    },
    {
      "inputs": [
        {
          "internalType": "bytes32",
          "name": "vestingScheduleId",
          "type": "bytes32"
        }
      ],
      "name": "computeReleasableAmount",
      "outputs": [
        {
          "internalType": "uint256",
          "name": "",
          "type": "uint256"
        }
      ],
      "stateMutability": "view",
      "type": "function"
    },
    {
      "inputs": [
        {
          "internalType": "address",
          "name": "holder",
          "type": "address"
        },
        {
          "internalType": "uint256",
          "name": "index",
          "type": "uint256"
        }
      ],
      "name": "computeVestingScheduleIdForAddressAndIndex",
      "outputs": [
        {
          "internalType": "bytes32",
          "name": "",
          "type": "bytes32"
        }
      ],
      "stateMutability": "pure",
      "type": "function"
    },
    {
      "inputs": [
        {
          "internalType": "address",
          "name": "_beneficiary",
          "type": "address"
        },
        {
          "internalType": "uint256",
          "name": "_start",
          "type": "uint256"
        },
        {
          "internalType": "uint256",
          "name": "_cliff",
          "type": "uint256"
        },
        {
          "internalType": "uint256",
          "name": "_duration",
          "type": "uint256"
        },
        {
          "internalType": "uint256",
          "name": "_slicePeriodSeconds",
          "type": "uint256"
        },
        {
          "internalType": "bool",
          "name": "_revocable",
          "type": "bool"
        },
        {
          "internalType": "uint256",
          "name": "_amount",
          "type": "uint256"
        }
      ],
      "name": "createVestingSchedule",
      "outputs": [],
      "stateMutability": "nonpayable",
      "type": "function"
    },
    {
      "inputs": [
        {
          "internalType": "address",
          "name": "holder",
          "type": "address"
        }
      ],
      "name": "getLastVestingScheduleForHolder",
      "outputs": [
        {
          "components": [
            {
              "internalType": "bool",
              "name": "initialized",
              "type": "bool"
            },
            {
              "internalType": "address",
              "name": "beneficiary",
              "type": "address"
            },
            {
              "internalType": "uint256",
              "name": "cliff",
              "type": "uint256"
            },
            {
              "internalType": "uint256",
              "name": "start",
              "type": "uint256"
            },
            {
              "internalType": "uint256",
              "name": "duration",
              "type": "uint256"
            },
            {
              "internalType": "uint256",
              "name": "slicePeriodSeconds",
              "type": "uint256"
            },
            {
              "internalType": "bool",
              "name": "revocable",
              "type": "bool"
            },
            {
              "internalType": "uint256",
              "name": "amountTotal",
              "type": "uint256"
            },
            {
              "internalType": "uint256",
              "name": "released",
              "type": "uint256"
            },
            {
              "internalType": "bool",
              "name": "revoked",
              "type": "bool"
            }
          ],
          "internalType": "struct TokenVesting.VestingSchedule",
          "name": "",
          "type": "tuple"
        }
      ],
      "stateMutability": "view",
      "type": "function"
    },
    {
      "inputs": [
        {
          "internalType": "bytes32",
          "name": "role",
          "type": "bytes32"
        }
      ],
      "name": "getRoleAdmin",
      "outputs": [
        {
          "internalType": "bytes32",
          "name": "",
          "type": "bytes32"
        }
      ],
      "stateMutability": "view",
      "type": "function"
    },
    {
      "inputs": [],
      "name": "getToken",
      "outputs": [
        {
          "internalType": "address",
          "name": "",
          "type": "address"
        }
      ],
      "stateMutability": "view",
      "type": "function"
    },
    {
      "inputs": [
        {
          "internalType": "uint256",
          "name": "index",
          "type": "uint256"
        }
      ],
      "name": "getVestingIdAtIndex",
      "outputs": [
        {
          "internalType": "bytes32",
          "name": "",
          "type": "bytes32"
        }
      ],
      "stateMutability": "view",
      "type": "function"
    },
    {
      "inputs": [
        {
          "internalType": "bytes32",
          "name": "vestingScheduleId",
          "type": "bytes32"
        }
      ],
      "name": "getVestingSchedule",
      "outputs": [
        {
          "components": [
            {
              "internalType": "bool",
              "name": "initialized",
              "type": "bool"
            },
            {
              "internalType": "address",
              "name": "beneficiary",
              "type": "address"
            },
            {
              "internalType": "uint256",
              "name": "cliff",
              "type": "uint256"
            },
            {
              "internalType": "uint256",
              "name": "start",
              "type": "uint256"
            },
            {
              "internalType": "uint256",
              "name": "duration",
              "type": "uint256"
            },
            {
              "internalType": "uint256",
              "name": "slicePeriodSeconds",
              "type": "uint256"
            },
            {
              "internalType": "bool",
              "name": "revocable",
              "type": "bool"
            },
            {
              "internalType": "uint256",
              "name": "amountTotal",
              "type": "uint256"
            },
            {
              "internalType": "uint256",
              "name": "released",
              "type": "uint256"
            },
            {
              "internalType": "bool",
              "name": "revoked",
              "type": "bool"
            }
          ],
          "internalType": "struct TokenVesting.VestingSchedule",
          "name": "",
          "type": "tuple"
        }
      ],
      "stateMutability": "view",
      "type": "function"
    },
    {
      "inputs": [
        {
          "internalType": "address",
          "name": "holder",
          "type": "address"
        },
        {
          "internalType": "uint256",
          "name": "index",
          "type": "uint256"
        }
      ],
      "name": "getVestingScheduleByAddressAndIndex",
      "outputs": [
        {
          "components": [
            {
              "internalType": "bool",
              "name": "initialized",
              "type": "bool"
            },
            {
              "internalType": "address",
              "name": "beneficiary",
              "type": "address"
            },
            {
              "internalType": "uint256",
              "name": "cliff",
              "type": "uint256"
            },
            {
              "internalType": "uint256",
              "name": "start",
              "type": "uint256"
            },
            {
              "internalType": "uint256",
              "name": "duration",
              "type": "uint256"
            },
            {
              "internalType": "uint256",
              "name": "slicePeriodSeconds",
              "type": "uint256"
            },
            {
              "internalType": "bool",
              "name": "revocable",
              "type": "bool"
            },
            {
              "internalType": "uint256",
              "name": "amountTotal",
              "type": "uint256"
            },
            {
              "internalType": "uint256",
              "name": "released",
              "type": "uint256"
            },
            {
              "internalType": "bool",
              "name": "revoked",
              "type": "bool"
            }
          ],
          "internalType": "struct TokenVesting.VestingSchedule",
          "name": "",
          "type": "tuple"
        }
      ],
      "stateMutability": "view",
      "type": "function"
    },
    {
      "inputs": [],
      "name": "getVestingSchedulesCount",
      "outputs": [
        {
          "internalType": "uint256",
          "name": "",
          "type": "uint256"
        }
      ],
      "stateMutability": "view",
      "type": "function"
    },
    {
      "inputs": [
        {
          "internalType": "address",
          "name": "_beneficiary",
          "type": "address"
        }
      ],
      "name": "getVestingSchedulesCountByBeneficiary",
      "outputs": [
        {
          "internalType": "uint256",
          "name": "",
          "type": "uint256"
        }
      ],
      "stateMutability": "view",
      "type": "function"
    },
    {
      "inputs": [],
      "name": "getVestingSchedulesTotalAmount",
      "outputs": [
        {
          "internalType": "uint256",
          "name": "",
          "type": "uint256"
        }
      ],
      "stateMutability": "view",
      "type": "function"
    },
    {
      "inputs": [],
      "name": "getWithdrawableAmount",
      "outputs": [
        {
          "internalType": "uint256",
          "name": "",
          "type": "uint256"
        }
      ],
      "stateMutability": "view",
      "type": "function"
    },
    {
      "inputs": [
        {
          "internalType": "bytes32",
          "name": "role",
          "type": "bytes32"
        },
        {
          "internalType": "address",
          "name": "account",
          "type": "address"
        }
      ],
      "name": "grantRole",
      "outputs": [],
      "stateMutability": "nonpayable",
      "type": "function"
    },
    {
      "inputs": [
        {
          "internalType": "bytes32",
          "name": "role",
          "type": "bytes32"
        },
        {
          "internalType": "address",
          "name": "account",
          "type": "address"
        }
      ],
      "name": "hasRole",
      "outputs": [
        {
          "internalType": "bool",
          "name": "",
          "type": "bool"
        }
      ],
      "stateMutability": "view",
      "type": "function"
    },
    {
      "inputs": [
        {
          "internalType": "bytes32",
          "name": "vestingScheduleId",
          "type": "bytes32"
        },
        {
          "internalType": "uint256",
          "name": "amount",
          "type": "uint256"
        }
      ],
      "name": "release",
      "outputs": [],
      "stateMutability": "nonpayable",
      "type": "function"
    },
    {
      "inputs": [
        {
          "internalType": "bytes32",
          "name": "role",
          "type": "bytes32"
        },
        {
          "internalType": "address",
          "name": "account",
          "type": "address"
        }
      ],
      "name": "renounceRole",
      "outputs": [],
      "stateMutability": "nonpayable",
      "type": "function"
    },
    {
      "inputs": [
        {
          "internalType": "bytes32",
          "name": "vestingScheduleId",
          "type": "bytes32"
        }
      ],
      "name": "revoke",
      "outputs": [],
      "stateMutability": "nonpayable",
      "type": "function"
    },
    {
      "inputs": [
        {
          "internalType": "bytes32",
          "name": "role",
          "type": "bytes32"
        },
        {
          "internalType": "address",
          "name": "account",
          "type": "address"
        }
      ],
      "name": "revokeRole",
      "outputs": [],
      "stateMutability": "nonpayable",
      "type": "function"
    },
    {
      "inputs": [
        {
          "internalType": "bytes4",
          "name": "interfaceId",
          "type": "bytes4"
        }
      ],
      "name": "supportsInterface",
      "outputs": [
        {
          "internalType": "bool",
          "name": "",
          "type": "bool"
        }
      ],
      "stateMutability": "view",
      "type": "function"
    },
    {
      "inputs": [
        {
          "internalType": "uint256",
          "name": "amount",
          "type": "uint256"
        }
      ],
      "name": "withdraw",
      "outputs": [],
      "stateMutability": "nonpayable",
      "type": "function"
    },
    {
      "stateMutability": "payable",
      "type": "receive"
    }
  ],
  "bytecode": "0x60a06040523480156200001157600080fd5b506040516200215938038062002159833981016040819052620000349162000122565b600180556001600160a01b0381166200004c57600080fd5b606081901b6001600160601b0319166080526200006b60003362000072565b5062000152565b6200007e828262000082565b5050565b6000828152602081815260408083206001600160a01b038516845290915290205460ff166200007e576000828152602081815260408083206001600160a01b03851684529091529020805460ff19166001179055620000de3390565b6001600160a01b0316816001600160a01b0316837f2f8788117e7eff1d82e926ec794901d17c78024a50270940304540a733656f0d60405160405180910390a45050565b60006020828403121562000134578081fd5b81516001600160a01b03811681146200014b578182fd5b9392505050565b60805160601c611fd362000186600039600081816101e601528181610ae701528181610e710152610fe30152611fd36000f3fe60806040526004361061014f5760003560e01c80638af104da116100b6578063d547741f1161006f578063d547741f146103e2578063e15fb83f14610402578063ea1bb3d514610424578063f51321d714610444578063f7c469f014610464578063f9079b371461048457610156565b80638af104da1461033857806390be10cc1461035857806391d148541461036d5780639ef346b41461038d578063a217fddf146103ad578063b75c7dc6146103c257610156565b80632f2ff15d116101085780632f2ff15d1461026057806336568abe1461028057806348deb471146102a05780635a7bb69a146102b557806366afd8ef146102eb5780637e913dc61461030b57610156565b806301ffc9a714610158578063130836171461018d57806317e289e9146101ac57806321df0da7146101cc578063248a9ca3146102105780632e1a7d4d1461024057610156565b3661015657005b005b34801561016457600080fd5b50610178610173366004611cf3565b6104a4565b60405190151581526020015b60405180910390f35b34801561019957600080fd5b506002545b604051908152602001610184565b3480156101b857600080fd5b506101566101c7366004611bf5565b6104dd565b3480156101d857600080fd5b506040516001600160a01b037f0000000000000000000000000000000000000000000000000000000000000000168152602001610184565b34801561021c57600080fd5b5061019e61022b366004611c77565b60009081526020819052604090206001015490565b34801561024c57600080fd5b5061015661025b366004611c77565b610977565b34801561026c57600080fd5b5061015661027b366004611ca7565b610b15565b34801561028c57600080fd5b5061015661029b366004611ca7565b610b41565b3480156102ac57600080fd5b5060045461019e565b3480156102c157600080fd5b5061019e6102d0366004611bb2565b6001600160a01b031660009081526005602052604090205490565b3480156102f757600080fd5b50610156610306366004611cd2565b610bbf565b34801561031757600080fd5b5061032b610326366004611bb2565b610ea6565b6040516101849190611e16565b34801561034457600080fd5b5061019e610353366004611bcc565b610f7e565b34801561036457600080fd5b5061019e610fc5565b34801561037957600080fd5b50610178610388366004611ca7565b611074565b34801561039957600080fd5b5061032b6103a8366004611c77565b61109d565b3480156103b957600080fd5b5061019e600081565b3480156103ce57600080fd5b506101566103dd366004611c77565b611144565b3480156103ee57600080fd5b506101566103fd366004611ca7565b611310565b34801561040e57600080fd5b5061019e600080516020611f7e83398151915281565b34801561043057600080fd5b5061019e61043f366004611c77565b611336565b34801561045057600080fd5b5061032b61045f366004611bcc565b611420565b34801561047057600080fd5b5061019e61047f366004611bb2565b61143c565b34801561049057600080fd5b5061019e61049f366004611c77565b611460565b60006001600160e01b03198216637965db0b60e01b14806104d557506301ffc9a760e01b6001600160e01b03198316145b90505b919050565b6104f5600080516020611f7e83398151915233611074565b61051a5760405162461bcd60e51b815260040161051190611ddf565b60405180910390fd5b80306001600160a01b03166390be10cc6040518163ffffffff1660e01b815260040160206040518083038186803b15801561055457600080fd5b505afa158015610568573d6000803e3d6000fd5b505050506040513d601f19601f8201168201806040525081019061058c9190611c8f565b10156106135760405162461bcd60e51b815260206004820152604a60248201527f546f6b656e56657374696e673a2063616e6e6f7420637265617465207665737460448201527f696e67207363686564756c652062656361757365206e6f742073756666696369606482015269656e7420746f6b656e7360b01b608482015260a401610511565b6000841161066e5760405162461bcd60e51b815260206004820152602260248201527f546f6b656e56657374696e673a206475726174696f6e206d757374206265203e604482015261020360f41b6064820152608401610511565b600081116106be5760405162461bcd60e51b815260206004820181905260248201527f546f6b656e56657374696e673a20616d6f756e74206d757374206265203e20306044820152606401610511565b60018310156107255760405162461bcd60e51b815260206004820152602d60248201527f546f6b656e56657374696e673a20736c696365506572696f645365636f6e647360448201526c206d757374206265203e3d203160981b6064820152608401610511565b604051630f7c469f60e41b81526001600160a01b0388166004820152600090309063f7c469f09060240160206040518083038186803b15801561076757600080fd5b505afa15801561077b573d6000803e3d6000fd5b505050506040513d601f19601f8201168201806040525081019061079f9190611c8f565b905060006107ad8789611ea1565b90506040518061014001604052806001151581526020018a6001600160a01b03168152602001828152602001898152602001878152602001868152602001851515815260200184815260200160008152602001600015158152506003600084815260200190815260200160002060008201518160000160006101000a81548160ff02191690831515021790555060208201518160000160016101000a8154816001600160a01b0302191690836001600160a01b0316021790555060408201518160010155606082015181600201556080820151816003015560a0820151816004015560c08201518160050160006101000a81548160ff02191690831515021790555060e0820151816006015561010082015181600701556101208201518160080160006101000a81548160ff021916908315150217905550905050826004546108f69190611ea1565b6004556002805460018181019092557f405787fa12a823e0f2b7631cc41b3ba8828b3321ca811111fa75cd3aa3bb5ace018390556001600160a01b038a166000908152600560205260409020549061094f908290611ea1565b6001600160a01b03909a16600090815260056020526040902099909955505050505050505050565b61098f600080516020611f7e83398151915233611074565b6109ab5760405162461bcd60e51b815260040161051190611ddf565b600260015414156109fe5760405162461bcd60e51b815260206004820152601f60248201527f5265656e7472616e637947756172643a207265656e7472616e742063616c6c006044820152606401610511565b600260018190555080306001600160a01b03166390be10cc6040518163ffffffff1660e01b815260040160206040518083038186803b158015610a4057600080fd5b505afa158015610a54573d6000803e3d6000fd5b505050506040513d601f19601f82011682018060405250810190610a789190611c8f565b1015610ada5760405162461bcd60e51b815260206004820152602b60248201527f546f6b656e56657374696e673a206e6f7420656e6f756768207769746864726160448201526a7761626c652066756e647360a81b6064820152608401610511565b610b0e6001600160a01b037f00000000000000000000000000000000000000000000000000000000000000001633836114f6565b5060018055565b600082815260208190526040902060010154610b3281335b611548565b610b3c83836115ac565b505050565b6001600160a01b0381163314610bb15760405162461bcd60e51b815260206004820152602f60248201527f416363657373436f6e74726f6c3a2063616e206f6e6c792072656e6f756e636560448201526e103937b632b9903337b91039b2b63360891b6064820152608401610511565b610bbb8282611630565b5050565b60026001541415610c125760405162461bcd60e51b815260206004820152601f60248201527f5265656e7472616e637947756172643a207265656e7472616e742063616c6c006044820152606401610511565b60026001908155600083815260036020526040902054839160ff909116151514610c3b57600080fd5b60008181526003602052604090206008015460ff1615610c5a57600080fd5b6000838152600360205260408120805490916101009091046001600160a01b0316339081149190610c9a90600080516020611f7e83398151915290611074565b90508180610ca55750805b610d225760405162461bcd60e51b815260206004820152604260248201527f546f6b656e56657374696e673a206f6e6c792062656e6566696369617279206160448201527f6e64206f776e65722063616e2072656c656173652076657374656420746f6b656064820152616e7360f01b608482015260a401610511565b6040805161014081018252845460ff808216151583526001600160a01b03610100928390041660208401526001870154938301939093526002860154606083015260038601546080830152600486015460a083015260058601548316151560c0830152600686015460e083015260078601549082015260088501549091161515610120820152600090610db490611695565b905085811015610e2c5760405162461bcd60e51b815260206004820152603d60248201527f546f6b656e56657374696e673a2063616e6e6f742072656c6561736520746f6b60448201527f656e732c206e6f7420656e6f7567682076657374656420746f6b656e730000006064820152608401610511565b858460070154610e3c9190611ea1565b600785015583546004546101009091046001600160a01b031690610e61908890611ef8565b600455610e986001600160a01b037f00000000000000000000000000000000000000000000000000000000000000001682896114f6565b505060018055505050505050565b610eae611b39565b6001600160a01b03821660009081526005602052604081205460039190610edd90859061035390600190611ef8565b81526020808201929092526040908101600020815161014081018352815460ff80821615158352610100918290046001600160a01b0316958301959095526001830154938201939093526002820154606082015260038201546080820152600482015460a082015260058201548416151560c0820152600682015460e082015260078201549281019290925260080154909116151561012082015292915050565b6040516bffffffffffffffffffffffff19606084901b1660208201526034810182905260009060540160405160208183030381529060405280519060200120905092915050565b600480546040516370a0823160e01b815230928101929092526000917f00000000000000000000000000000000000000000000000000000000000000006001600160a01b0316906370a082319060240160206040518083038186803b15801561102d57600080fd5b505afa158015611041573d6000803e3d6000fd5b505050506040513d601f19601f820116820180604052508101906110659190611c8f565b61106f9190611ef8565b905090565b6000918252602082815260408084206001600160a01b0393909316845291905290205460ff1690565b6110a5611b39565b50600090815260036020818152604092839020835161014081018552815460ff80821615158352610100918290046001600160a01b03169483019490945260018301549582019590955260028201546060820152928101546080840152600481015460a084015260058101548216151560c0840152600681015460e0840152600781015493830193909352600890920154909116151561012082015290565b61115c600080516020611f7e83398151915233611074565b6111785760405162461bcd60e51b815260040161051190611ddf565b600081815260036020526040902054819060ff16151560011461119a57600080fd5b60008181526003602052604090206008015460ff16156111b957600080fd5b6000828152600360205260409020600581015460ff16151560011461122f5760405162461bcd60e51b815260206004820152602660248201527f546f6b656e56657374696e673a2076657374696e67206973206e6f74207265766044820152656f6361626c6560d01b6064820152608401610511565b6040805161014081018252825460ff808216151583526001600160a01b03610100928390041660208401526001850154938301939093526002840154606083015260038401546080830152600484015460a083015260058401548316151560c0830152600684015460e0830152600784015490820152600883015490911615156101208201526000906112c190611695565b905080156112d3576112d38482610bbf565b6000826007015483600601546112e99190611ef8565b9050806004546112f99190611ef8565b6004555050600801805460ff191660011790555050565b60008281526020819052604090206001015461132c8133610b2d565b610b3c8383611630565b600081815260036020526040812054829060ff16151560011461135857600080fd5b60008181526003602052604090206008015460ff161561137757600080fd5b600083815260036020818152604092839020835161014081018552815460ff808216151583526001600160a01b0361010092839004169483019490945260018301549582019590955260028201546060820152928101546080840152600481015460a084015260058101548216151560c0840152600681015460e0840152600781015493830193909352600883015416151561012082015261141890611695565b949350505050565b611428611b39565b6114356103a88484610f7e565b9392505050565b6001600160a01b0381166000908152600560205260408120546104d5908390610f7e565b600061146b60025490565b82106114c35760405162461bcd60e51b815260206004820152602160248201527f546f6b656e56657374696e673a20696e646578206f7574206f6620626f756e646044820152607360f81b6064820152608401610511565b600282815481106114e457634e487b7160e01b600052603260045260246000fd5b90600052602060002001549050919050565b604080516001600160a01b038416602482015260448082018490528251808303909101815260649091019091526020810180516001600160e01b031663a9059cbb60e01b179052610b3c908490611771565b6115528282611074565b610bbb5761156a816001600160a01b03166014611843565b611575836020611843565b604051602001611586929190611d37565b60408051601f198184030181529082905262461bcd60e51b825261051191600401611dac565b6115b68282611074565b610bbb576000828152602081815260408083206001600160a01b03851684529091529020805460ff191660011790556115ec3390565b6001600160a01b0316816001600160a01b0316837f2f8788117e7eff1d82e926ec794901d17c78024a50270940304540a733656f0d60405160405180910390a45050565b61163a8282611074565b15610bbb576000828152602081815260408083206001600160a01b0385168085529252808320805460ff1916905551339285917ff6391f5c32d9c69d2a47ea670b442974b53935d1edc7fd64eb21e047a839171b9190a45050565b604081015160009042908110806116b3575061012083015115156001145b156116c25760009150506104d8565b826080015183606001516116d69190611ea1565b81106116f9578261010001518360e001516116f19190611ef8565b9150506104d8565b600083606001518261170b9190611ef8565b60a0850151909150600061171f8284611eb9565b9050600061172d8383611ed9565b905060008760800151828960e001516117469190611ed9565b6117509190611eb9565b9050876101000151816117639190611ef8565b96506104d895505050505050565b60006117c6826040518060400160405280602081526020017f5361666545524332303a206c6f772d6c6576656c2063616c6c206661696c6564815250856001600160a01b0316611a259092919063ffffffff16565b805190915015610b3c57808060200190518101906117e49190611c5b565b610b3c5760405162461bcd60e51b815260206004820152602a60248201527f5361666545524332303a204552433230206f7065726174696f6e20646964206e6044820152691bdd081cdd58d8d9595960b21b6064820152608401610511565b60606000611852836002611ed9565b61185d906002611ea1565b67ffffffffffffffff81111561188357634e487b7160e01b600052604160045260246000fd5b6040519080825280601f01601f1916602001820160405280156118ad576020820181803683370190505b509050600360fc1b816000815181106118d657634e487b7160e01b600052603260045260246000fd5b60200101906001600160f81b031916908160001a905350600f60fb1b8160018151811061191357634e487b7160e01b600052603260045260246000fd5b60200101906001600160f81b031916908160001a9053506000611937846002611ed9565b611942906001611ea1565b90505b60018111156119d6576f181899199a1a9b1b9c1cb0b131b232b360811b85600f166010811061198457634e487b7160e01b600052603260045260246000fd5b1a60f81b8282815181106119a857634e487b7160e01b600052603260045260246000fd5b60200101906001600160f81b031916908160001a90535060049490941c936119cf81611f3f565b9050611945565b5083156114355760405162461bcd60e51b815260206004820181905260248201527f537472696e67733a20686578206c656e67746820696e73756666696369656e746044820152606401610511565b60606114188484600085856001600160a01b0385163b611a875760405162461bcd60e51b815260206004820152601d60248201527f416464726573733a2063616c6c20746f206e6f6e2d636f6e74726163740000006044820152606401610511565b600080866001600160a01b03168587604051611aa39190611d1b565b60006040518083038185875af1925050503d8060008114611ae0576040519150601f19603f3d011682016040523d82523d6000602084013e611ae5565b606091505b5091509150611af5828286611b00565b979650505050505050565b60608315611b0f575081611435565b825115611b1f5782518084602001fd5b8160405162461bcd60e51b81526004016105119190611dac565b60405180610140016040528060001515815260200160006001600160a01b031681526020016000815260200160008152602001600081526020016000815260200160001515815260200160008152602001600081526020016000151581525090565b80356001600160a01b03811681146104d857600080fd5b600060208284031215611bc3578081fd5b61143582611b9b565b60008060408385031215611bde578081fd5b611be783611b9b565b946020939093013593505050565b600080600080600080600060e0888a031215611c0f578283fd5b611c1888611b9b565b96506020880135955060408801359450606088013593506080880135925060a0880135611c4481611f6c565b8092505060c0880135905092959891949750929550565b600060208284031215611c6c578081fd5b815161143581611f6c565b600060208284031215611c88578081fd5b5035919050565b600060208284031215611ca0578081fd5b5051919050565b60008060408385031215611cb9578182fd5b82359150611cc960208401611b9b565b90509250929050565b60008060408385031215611ce4578182fd5b50508035926020909101359150565b600060208284031215611d04578081fd5b81356001600160e01b031981168114611435578182fd5b60008251611d2d818460208701611f0f565b9190910192915050565b60007f416363657373436f6e74726f6c3a206163636f756e742000000000000000000082528351611d6f816017850160208801611f0f565b7001034b99036b4b9b9b4b733903937b6329607d1b6017918401918201528351611da0816028840160208801611f0f565b01602801949350505050565b6000602082528251806020840152611dcb816040850160208701611f0f565b601f01601f19169190910160400192915050565b60208082526017908201527f43616c6c6572206973206e6f742061204772616e746f72000000000000000000604082015260600190565b81511515815261014081016020830151611e3b60208401826001600160a01b03169052565b5060408301516040830152606083015160608301526080830151608083015260a083015160a083015260c0830151611e7760c084018215159052565b5060e083810151908301526101008084015190830152610120928301511515929091019190915290565b60008219821115611eb457611eb4611f56565b500190565b600082611ed457634e487b7160e01b81526012600452602481fd5b500490565b6000816000190483118215151615611ef357611ef3611f56565b500290565b600082821015611f0a57611f0a611f56565b500390565b60005b83811015611f2a578181015183820152602001611f12565b83811115611f39576000848401525b50505050565b600081611f4e57611f4e611f56565b506000190190565b634e487b7160e01b600052601160045260246000fd5b8015158114611f7a57600080fd5b5056fed10feaa7fea55567e367a112bc53907318a50949442dfc0570945570c5af57cfa264697066735822122030605c0e9e64333b15b05f53b39f63aed128dffb48e7fec85a0b7b7c5a49e39964736f6c63430008020033",
  "linkReferences": {},
  "deployedLinkReferences": {}
}