{
  "contractName": "Easy",
  "abi": [
    {
      "inputs": [
        {
          "internalType": "uint256",
          "name": "_num",
          "type": "uint256"
        }
      ],
      "name": "setNumber",
      "outputs": [],
      "stateMutability": "nonpayable",
      "type": "function"
    },
    {
      "inputs": [],
      "name": "getNumber",
      "outputs": [
        {
          "internalType": "uint256",
          "name": "",
          "type": "uint256"
        }
      ],
      "stateMutability": "view",
      "type": "function"
    }
  ],
  "bytecode": "0x608060405234801561001057600080fd5b5061012f806100206000396000f3fe6080604052348015600f57600080fd5b506004361060325760003560e01c80633fb5c1cb146037578063f2c9ecd814604f575b600080fd5b604d600480360381019060499190608f565b6069565b005b60556073565b6040516060919060c2565b60405180910390f35b8060008190555050565b60008054905090565b60008135905060898160e5565b92915050565b60006020828403121560a057600080fd5b600060ac84828501607c565b91505092915050565b60bc8160db565b82525050565b600060208201905060d5600083018460b5565b92915050565b6000819050919050565b60ec8160db565b811460f657600080fd5b5056fea264697066735822122069f0a3bc579a5b4a26bc002f6b8639eb41ed86ef01913fa8c5db7fc3db16a22864736f6c63430008000033",
  "immutableReferences": {},
  "source": "pragma solidity ^0.8.0;\r\n\r\n\r\n\r\ncontract Easy\r\n{\r\n    uint number;\r\n\r\n    function setNumber(uint _num) public\r\n    {\r\n        number = _num;\r\n    }\r\n\r\n    function getNumber() public view returns(uint)\r\n    {\r\n        return number;    \r\n    }\r\n\r\n\r\n}",
  "sourcePath": "C:\\Users\\jaira\\Desktop\\SportZChainContracts\\Truffle\\contracts\\easy.sol",
  "compiler": {
    "name": "solc",
    "version": "0.8.0+commit.c7dfd78e.Emscripten.clang"
  },
  "schemaVersion": "3.4.4",
  "updatedAt": "2022-01-29T06:03:19.557Z",
  "devdoc": {
    "kind": "dev",
    "methods": {},
    "version": 1
  },
  "userdoc": {
    "kind": "user",
    "methods": {},
    "version": 1
  }
}