{
  "contractName": "SportZchainToken",
  "abi": [
    {
      "inputs": [
        {
          "internalType": "string",
          "name": "_name",
          "type": "string"
        },
        {
          "internalType": "string",
          "name": "_symbol",
          "type": "string"
        },
        {
          "internalType": "uint8",
          "name": "_decimals",
          "type": "uint8"
        },
        {
          "internalType": "uint256",
          "name": "_supplyUpperLimit",
          "type": "uint256"
        },
        {
          "internalType": "uint256",
          "name": "_initialSupply",
          "type": "uint256"
        }
      ],
      "stateMutability": "nonpayable",
      "type": "constructor"
    },
    {
      "anonymous": false,
      "inputs": [
        {
          "indexed": true,
          "internalType": "address",
          "name": "owner",
          "type": "address"
        },
        {
          "indexed": true,
          "internalType": "address",
          "name": "spender",
          "type": "address"
        },
        {
          "indexed": false,
          "internalType": "uint256",
          "name": "value",
          "type": "uint256"
        }
      ],
      "name": "Approval",
      "type": "event"
    },
    {
      "anonymous": false,
      "inputs": [
        {
          "indexed": true,
          "internalType": "address",
          "name": "previousOwner",
          "type": "address"
        },
        {
          "indexed": true,
          "internalType": "address",
          "name": "newOwner",
          "type": "address"
        }
      ],
      "name": "OwnershipTransferred",
      "type": "event"
    },
    {
      "anonymous": false,
      "inputs": [
        {
          "indexed": false,
          "internalType": "address",
          "name": "account",
          "type": "address"
        }
      ],
      "name": "Paused",
      "type": "event"
    },
    {
      "anonymous": false,
      "inputs": [
        {
          "indexed": true,
          "internalType": "address",
          "name": "from",
          "type": "address"
        },
        {
          "indexed": true,
          "internalType": "address",
          "name": "to",
          "type": "address"
        },
        {
          "indexed": false,
          "internalType": "uint256",
          "name": "value",
          "type": "uint256"
        }
      ],
      "name": "Transfer",
      "type": "event"
    },
    {
      "anonymous": false,
      "inputs": [
        {
          "indexed": false,
          "internalType": "address",
          "name": "account",
          "type": "address"
        }
      ],
      "name": "Unpaused",
      "type": "event"
    },
    {
      "inputs": [
        {
          "internalType": "address",
          "name": "owner",
          "type": "address"
        },
        {
          "internalType": "address",
          "name": "spender",
          "type": "address"
        }
      ],
      "name": "allowance",
      "outputs": [
        {
          "internalType": "uint256",
          "name": "",
          "type": "uint256"
        }
      ],
      "stateMutability": "view",
      "type": "function"
    },
    {
      "inputs": [
        {
          "internalType": "address",
          "name": "spender",
          "type": "address"
        },
        {
          "internalType": "uint256",
          "name": "amount",
          "type": "uint256"
        }
      ],
      "name": "approve",
      "outputs": [
        {
          "internalType": "bool",
          "name": "",
          "type": "bool"
        }
      ],
      "stateMutability": "nonpayable",
      "type": "function"
    },
    {
      "inputs": [
        {
          "internalType": "address",
          "name": "account",
          "type": "address"
        }
      ],
      "name": "balanceOf",
      "outputs": [
        {
          "internalType": "uint256",
          "name": "",
          "type": "uint256"
        }
      ],
      "stateMutability": "view",
      "type": "function"
    },
    {
      "inputs": [
        {
          "internalType": "address",
          "name": "account",
          "type": "address"
        },
        {
          "internalType": "uint256",
          "name": "amount",
          "type": "uint256"
        }
      ],
      "name": "burnFrom",
      "outputs": [],
      "stateMutability": "nonpayable",
      "type": "function"
    },
    {
      "inputs": [],
      "name": "decimals",
      "outputs": [
        {
          "internalType": "uint8",
          "name": "",
          "type": "uint8"
        }
      ],
      "stateMutability": "view",
      "type": "function"
    },
    {
      "inputs": [
        {
          "internalType": "address",
          "name": "spender",
          "type": "address"
        },
        {
          "internalType": "uint256",
          "name": "subtractedValue",
          "type": "uint256"
        }
      ],
      "name": "decreaseAllowance",
      "outputs": [
        {
          "internalType": "bool",
          "name": "",
          "type": "bool"
        }
      ],
      "stateMutability": "nonpayable",
      "type": "function"
    },
    {
      "inputs": [
        {
          "internalType": "address",
          "name": "spender",
          "type": "address"
        },
        {
          "internalType": "uint256",
          "name": "addedValue",
          "type": "uint256"
        }
      ],
      "name": "increaseAllowance",
      "outputs": [
        {
          "internalType": "bool",
          "name": "",
          "type": "bool"
        }
      ],
      "stateMutability": "nonpayable",
      "type": "function"
    },
    {
      "inputs": [],
      "name": "name",
      "outputs": [
        {
          "internalType": "string",
          "name": "",
          "type": "string"
        }
      ],
      "stateMutability": "view",
      "type": "function"
    },
    {
      "inputs": [],
      "name": "owner",
      "outputs": [
        {
          "internalType": "address",
          "name": "",
          "type": "address"
        }
      ],
      "stateMutability": "view",
      "type": "function"
    },
    {
      "inputs": [],
      "name": "paused",
      "outputs": [
        {
          "internalType": "bool",
          "name": "",
          "type": "bool"
        }
      ],
      "stateMutability": "view",
      "type": "function"
    },
    {
      "inputs": [],
      "name": "renounceOwnership",
      "outputs": [],
      "stateMutability": "nonpayable",
      "type": "function"
    },
    {
      "inputs": [],
      "name": "symbol",
      "outputs": [
        {
          "internalType": "string",
          "name": "",
          "type": "string"
        }
      ],
      "stateMutability": "view",
      "type": "function"
    },
    {
      "inputs": [],
      "name": "totalSupply",
      "outputs": [
        {
          "internalType": "uint256",
          "name": "",
          "type": "uint256"
        }
      ],
      "stateMutability": "view",
      "type": "function"
    },
    {
      "inputs": [
        {
          "internalType": "address",
          "name": "recipient",
          "type": "address"
        },
        {
          "internalType": "uint256",
          "name": "amount",
          "type": "uint256"
        }
      ],
      "name": "transfer",
      "outputs": [
        {
          "internalType": "bool",
          "name": "",
          "type": "bool"
        }
      ],
      "stateMutability": "nonpayable",
      "type": "function"
    },
    {
      "inputs": [
        {
          "internalType": "address",
          "name": "sender",
          "type": "address"
        },
        {
          "internalType": "address",
          "name": "recipient",
          "type": "address"
        },
        {
          "internalType": "uint256",
          "name": "amount",
          "type": "uint256"
        }
      ],
      "name": "transferFrom",
      "outputs": [
        {
          "internalType": "bool",
          "name": "",
          "type": "bool"
        }
      ],
      "stateMutability": "nonpayable",
      "type": "function"
    },
    {
      "inputs": [
        {
          "internalType": "address",
          "name": "newOwner",
          "type": "address"
        }
      ],
      "name": "transferOwnership",
      "outputs": [],
      "stateMutability": "nonpayable",
      "type": "function"
    },
    {
      "inputs": [
        {
          "internalType": "address",
          "name": "to",
          "type": "address"
        },
        {
          "internalType": "uint256",
          "name": "amount",
          "type": "uint256"
        }
      ],
      "name": "mint",
      "outputs": [],
      "stateMutability": "nonpayable",
      "type": "function"
    },
    {
      "inputs": [
        {
          "internalType": "uint256",
          "name": "amount",
          "type": "uint256"
        }
      ],
      "name": "burn",
      "outputs": [],
      "stateMutability": "nonpayable",
      "type": "function"
    }
  ],
  "bytecode": "0x60806040523480156200001157600080fd5b5060405162002f8e38038062002f8e8339818101604052810190620000379190620005f0565b8484620000596200004d6200014160201b60201c565b6200014960201b60201c565b816004908051906020019062000071929190620004a0565b5080600590805190602001906200008a929190620004a0565b5050506000600660006101000a81548160ff0219169083151502179055506000620000d58460ff16600a620000c09190620008f0565b836200020d60201b62000c9b1790919060201c565b9050620001028460ff16600a620000ed9190620008f0565b846200020d60201b62000c9b1790919060201c565b60078190555083600860006101000a81548160ff021916908360ff1602179055506200013533826200022560201b60201c565b50505050505062000bdf565b600033905090565b60008060009054906101000a900473ffffffffffffffffffffffffffffffffffffffff169050816000806101000a81548173ffffffffffffffffffffffffffffffffffffffff021916908373ffffffffffffffffffffffffffffffffffffffff1602179055508173ffffffffffffffffffffffffffffffffffffffff168173ffffffffffffffffffffffffffffffffffffffff167f8be0079c531659141344cd1fd0a4f28419497f9722a3daafe3b4186f6b6457e060405160405180910390a35050565b600081836200021d919062000a2d565b905092915050565b600073ffffffffffffffffffffffffffffffffffffffff168273ffffffffffffffffffffffffffffffffffffffff16141562000298576040517f08c379a00000000000000000000000000000000000000000000000000000000081526004016200028f906200075f565b60405180910390fd5b620002ac600083836200039f60201b60201c565b8060036000828254620002c0919062000838565b9250508190555080600160008473ffffffffffffffffffffffffffffffffffffffff1673ffffffffffffffffffffffffffffffffffffffff168152602001908152602001600020600082825462000318919062000838565b925050819055508173ffffffffffffffffffffffffffffffffffffffff16600073ffffffffffffffffffffffffffffffffffffffff167fddf252ad1be2c89b69c2b068fc378daa952ba7f163c4a11628f55a4df523b3ef836040516200037f9190620007a3565b60405180910390a36200039b600083836200040f60201b60201c565b5050565b620003b78383836200041460201b62000cb11760201c565b620003c76200048460201b60201c565b156200040a576040517f08c379a0000000000000000000000000000000000000000000000000000000008152600401620004019062000781565b60405180910390fd5b505050565b505050565b6200042c8383836200049b60201b62000d091760201c565b6200043c6200048460201b60201c565b156200047f576040517f08c379a0000000000000000000000000000000000000000000000000000000008152600401620004769062000781565b60405180910390fd5b505050565b6000600660009054906101000a900460ff16905090565b505050565b828054620004ae9062000adb565b90600052602060002090601f016020900481019282620004d257600085556200051e565b82601f10620004ed57805160ff19168380011785556200051e565b828001600101855582156200051e579182015b828111156200051d57825182559160200191906001019062000500565b5b5090506200052d919062000531565b5090565b5b808211156200054c57600081600090555060010162000532565b5090565b6000620005676200056184620007f4565b620007c0565b9050828152602081018484840111156200058057600080fd5b6200058d84828562000aa5565b509392505050565b600082601f830112620005a757600080fd5b8151620005b984826020860162000550565b91505092915050565b600081519050620005d38162000bab565b92915050565b600081519050620005ea8162000bc5565b92915050565b600080600080600060a086880312156200060957600080fd5b600086015167ffffffffffffffff8111156200062457600080fd5b620006328882890162000595565b955050602086015167ffffffffffffffff8111156200065057600080fd5b6200065e8882890162000595565b94505060406200067188828901620005d9565b93505060606200068488828901620005c2565b92505060806200069788828901620005c2565b9150509295509295909350565b6000620006b3601f8362000827565b91507f45524332303a206d696e7420746f20746865207a65726f2061646472657373006000830152602082019050919050565b6000620006f5602a8362000827565b91507f45524332305061757361626c653a20746f6b656e207472616e7366657220776860008301527f696c6520706175736564000000000000000000000000000000000000000000006020830152604082019050919050565b620007598162000a8e565b82525050565b600060208201905081810360008301526200077a81620006a4565b9050919050565b600060208201905081810360008301526200079c81620006e6565b9050919050565b6000602082019050620007ba60008301846200074e565b92915050565b6000604051905081810181811067ffffffffffffffff82111715620007ea57620007e962000b6f565b5b8060405250919050565b600067ffffffffffffffff82111562000812576200081162000b6f565b5b601f19601f8301169050602081019050919050565b600082825260208201905092915050565b6000620008458262000a8e565b9150620008528362000a8e565b9250827fffffffffffffffffffffffffffffffffffffffffffffffffffffffffffffffff038211156200088a576200088962000b11565b5b828201905092915050565b6000808291508390505b6001851115620008e757808604811115620008bf57620008be62000b11565b5b6001851615620008cf5780820291505b8081029050620008df8562000b9e565b94506200089f565b94509492505050565b6000620008fd8262000a8e565b91506200090a8362000a8e565b9250620009397fffffffffffffffffffffffffffffffffffffffffffffffffffffffffffffffff848462000941565b905092915050565b60008262000953576001905062000a26565b8162000963576000905062000a26565b81600181146200097c57600281146200098757620009bd565b600191505062000a26565b60ff8411156200099c576200099b62000b11565b5b8360020a915084821115620009b657620009b562000b11565b5b5062000a26565b5060208310610133831016604e8410600b8410161715620009f75782820a905083811115620009f157620009f062000b11565b5b62000a26565b62000a06848484600162000895565b9250905081840481111562000a205762000a1f62000b11565b5b81810290505b9392505050565b600062000a3a8262000a8e565b915062000a478362000a8e565b9250817fffffffffffffffffffffffffffffffffffffffffffffffffffffffffffffffff048311821515161562000a835762000a8262000b11565b5b828202905092915050565b6000819050919050565b600060ff82169050919050565b60005b8381101562000ac557808201518184015260208101905062000aa8565b8381111562000ad5576000848401525b50505050565b6000600282049050600182168062000af457607f821691505b6020821081141562000b0b5762000b0a62000b40565b5b50919050565b7f4e487b7100000000000000000000000000000000000000000000000000000000600052601160045260246000fd5b7f4e487b7100000000000000000000000000000000000000000000000000000000600052602260045260246000fd5b7f4e487b7100000000000000000000000000000000000000000000000000000000600052604160045260246000fd5b60008160011c9050919050565b62000bb68162000a8e565b811462000bc257600080fd5b50565b62000bd08162000a98565b811462000bdc57600080fd5b50565b61239f8062000bef6000396000f3fe608060405234801561001057600080fd5b50600436106101165760003560e01c806370a08231116100a257806395d89b411161007157806395d89b41146102cf578063a457c2d7146102ed578063a9059cbb1461031d578063dd62ed3e1461034d578063f2fde38b1461037d57610116565b806370a082311461025b578063715018a61461028b57806379cc6790146102955780638da5cb5b146102b157610116565b8063313ce567116100e9578063313ce567146101b757806339509351146101d557806340c10f191461020557806342966c68146102215780635c975abb1461023d57610116565b806306fdde031461011b578063095ea7b31461013957806318160ddd1461016957806323b872dd14610187575b600080fd5b610123610399565b6040516101309190611d5c565b60405180910390f35b610153600480360381019061014e919061169e565b61042b565b6040516101609190611d41565b60405180910390f35b610171610449565b60405161017e9190611f5e565b60405180910390f35b6101a1600480360381019061019c919061164f565b610453565b6040516101ae9190611d41565b60405180910390f35b6101bf61054b565b6040516101cc9190611f79565b60405180910390f35b6101ef60048036038101906101ea919061169e565b610554565b6040516101fc9190611d41565b60405180910390f35b61021f600480360381019061021a919061169e565b610600565b005b61023b600480360381019061023691906116da565b61071d565b005b6102456107f5565b6040516102529190611d41565b60405180910390f35b610275600480360381019061027091906115ea565b61080c565b6040516102829190611f5e565b60405180910390f35b610293610855565b005b6102af60048036038101906102aa919061169e565b6108dd565b005b6102b9610958565b6040516102c69190611d26565b60405180910390f35b6102d7610981565b6040516102e49190611d5c565b60405180910390f35b6103076004803603810190610302919061169e565b610a13565b6040516103149190611d41565b60405180910390f35b6103376004803603810190610332919061169e565b610afe565b6040516103449190611d41565b60405180910390f35b61036760048036038101906103629190611613565b610b1c565b6040516103749190611f5e565b60405180910390f35b610397600480360381019061039291906115ea565b610ba3565b005b6060600480546103a89061228d565b80601f01602080910402602001604051908101604052809291908181526020018280546103d49061228d565b80156104215780601f106103f657610100808354040283529160200191610421565b820191906000526020600020905b81548152906001019060200180831161040457829003601f168201915b5050505050905090565b600061043f610438610d0e565b8484610d16565b6001905092915050565b6000600354905090565b6000610460848484610ee1565b6000600260008673ffffffffffffffffffffffffffffffffffffffff1673ffffffffffffffffffffffffffffffffffffffff16815260200190815260200160002060006104ab610d0e565b73ffffffffffffffffffffffffffffffffffffffff1673ffffffffffffffffffffffffffffffffffffffff1681526020019081526020016000205490508281101561052b576040517f08c379a000000000000000000000000000000000000000000000000000000000815260040161052290611e3e565b60405180910390fd5b61053f85610537610d0e565b858403610d16565b60019150509392505050565b60006012905090565b60006105f6610561610d0e565b84846002600061056f610d0e565b73ffffffffffffffffffffffffffffffffffffffff1673ffffffffffffffffffffffffffffffffffffffff16815260200190815260200160002060008873ffffffffffffffffffffffffffffffffffffffff1673ffffffffffffffffffffffffffffffffffffffff168152602001908152602001600020546105f19190611fb0565b610d16565b6001905092915050565b610608610d0e565b73ffffffffffffffffffffffffffffffffffffffff16610626610958565b73ffffffffffffffffffffffffffffffffffffffff161461067c576040517f08c379a000000000000000000000000000000000000000000000000000000000815260040161067390611e5e565b60405180910390fd5b60006106af600860009054906101000a900460ff1660ff16600a6106a09190612059565b83610c9b90919063ffffffff16565b90506000816106bc610449565b6106c69190611fb0565b905060075481111561070d576040517f08c379a000000000000000000000000000000000000000000000000000000000815260040161070490611dfe565b60405180910390fd5b6107178483611165565b50505050565b610725610d0e565b73ffffffffffffffffffffffffffffffffffffffff16610743610958565b73ffffffffffffffffffffffffffffffffffffffff1614610799576040517f08c379a000000000000000000000000000000000000000000000000000000000815260040161079090611e5e565b60405180910390fd5b60006107cc600860009054906101000a900460ff1660ff16600a6107bd9190612059565b83610c9b90919063ffffffff16565b90506107d833826112c6565b80600760008282546107ea91906121d1565b925050819055505050565b6000600660009054906101000a900460ff16905090565b6000600160008373ffffffffffffffffffffffffffffffffffffffff1673ffffffffffffffffffffffffffffffffffffffff168152602001908152602001600020549050919050565b61085d610d0e565b73ffffffffffffffffffffffffffffffffffffffff1661087b610958565b73ffffffffffffffffffffffffffffffffffffffff16146108d1576040517f08c379a00000000000000000000000000000000000000000000000000000000081526004016108c890611e5e565b60405180910390fd5b6108db600061149f565b565b60006108f0836108eb610d0e565b610b1c565b905081811015610935576040517f08c379a000000000000000000000000000000000000000000000000000000000815260040161092c90611e7e565b60405180910390fd5b61094983610941610d0e565b848403610d16565b61095383836112c6565b505050565b60008060009054906101000a900473ffffffffffffffffffffffffffffffffffffffff16905090565b6060600580546109909061228d565b80601f01602080910402602001604051908101604052809291908181526020018280546109bc9061228d565b8015610a095780601f106109de57610100808354040283529160200191610a09565b820191906000526020600020905b8154815290600101906020018083116109ec57829003601f168201915b5050505050905090565b60008060026000610a22610d0e565b73ffffffffffffffffffffffffffffffffffffffff1673ffffffffffffffffffffffffffffffffffffffff16815260200190815260200160002060008573ffffffffffffffffffffffffffffffffffffffff1673ffffffffffffffffffffffffffffffffffffffff16815260200190815260200160002054905082811015610adf576040517f08c379a0000000000000000000000000000000000000000000000000000000008152600401610ad690611efe565b60405180910390fd5b610af3610aea610d0e565b85858403610d16565b600191505092915050565b6000610b12610b0b610d0e565b8484610ee1565b6001905092915050565b6000600260008473ffffffffffffffffffffffffffffffffffffffff1673ffffffffffffffffffffffffffffffffffffffff16815260200190815260200160002060008373ffffffffffffffffffffffffffffffffffffffff1673ffffffffffffffffffffffffffffffffffffffff16815260200190815260200160002054905092915050565b610bab610d0e565b73ffffffffffffffffffffffffffffffffffffffff16610bc9610958565b73ffffffffffffffffffffffffffffffffffffffff1614610c1f576040517f08c379a0000000000000000000000000000000000000000000000000000000008152600401610c1690611e5e565b60405180910390fd5b600073ffffffffffffffffffffffffffffffffffffffff168173ffffffffffffffffffffffffffffffffffffffff161415610c8f576040517f08c379a0000000000000000000000000000000000000000000000000000000008152600401610c8690611dbe565b60405180910390fd5b610c988161149f565b50565b60008183610ca99190612177565b905092915050565b610cbc838383610d09565b610cc46107f5565b15610d04576040517f08c379a0000000000000000000000000000000000000000000000000000000008152600401610cfb90611f3e565b60405180910390fd5b505050565b505050565b600033905090565b600073ffffffffffffffffffffffffffffffffffffffff168373ffffffffffffffffffffffffffffffffffffffff161415610d86576040517f08c379a0000000000000000000000000000000000000000000000000000000008152600401610d7d90611ede565b60405180910390fd5b600073ffffffffffffffffffffffffffffffffffffffff168273ffffffffffffffffffffffffffffffffffffffff161415610df6576040517f08c379a0000000000000000000000000000000000000000000000000000000008152600401610ded90611dde565b60405180910390fd5b80600260008573ffffffffffffffffffffffffffffffffffffffff1673ffffffffffffffffffffffffffffffffffffffff16815260200190815260200160002060008473ffffffffffffffffffffffffffffffffffffffff1673ffffffffffffffffffffffffffffffffffffffff168152602001908152602001600020819055508173ffffffffffffffffffffffffffffffffffffffff168373ffffffffffffffffffffffffffffffffffffffff167f8c5be1e5ebec7d5bd14f71427d1e84f3dd0314c0f7b2291e5b200ac8c7c3b92583604051610ed49190611f5e565b60405180910390a3505050565b600073ffffffffffffffffffffffffffffffffffffffff168373ffffffffffffffffffffffffffffffffffffffff161415610f51576040517f08c379a0000000000000000000000000000000000000000000000000000000008152600401610f4890611ebe565b60405180910390fd5b600073ffffffffffffffffffffffffffffffffffffffff168273ffffffffffffffffffffffffffffffffffffffff161415610fc1576040517f08c379a0000000000000000000000000000000000000000000000000000000008152600401610fb890611d7e565b60405180910390fd5b610fcc838383611563565b6000600160008573ffffffffffffffffffffffffffffffffffffffff1673ffffffffffffffffffffffffffffffffffffffff16815260200190815260200160002054905081811015611053576040517f08c379a000000000000000000000000000000000000000000000000000000000815260040161104a90611e1e565b60405180910390fd5b818103600160008673ffffffffffffffffffffffffffffffffffffffff1673ffffffffffffffffffffffffffffffffffffffff1681526020019081526020016000208190555081600160008573ffffffffffffffffffffffffffffffffffffffff1673ffffffffffffffffffffffffffffffffffffffff16815260200190815260200160002060008282546110e89190611fb0565b925050819055508273ffffffffffffffffffffffffffffffffffffffff168473ffffffffffffffffffffffffffffffffffffffff167fddf252ad1be2c89b69c2b068fc378daa952ba7f163c4a11628f55a4df523b3ef8460405161114c9190611f5e565b60405180910390a361115f8484846115bb565b50505050565b600073ffffffffffffffffffffffffffffffffffffffff168273ffffffffffffffffffffffffffffffffffffffff1614156111d5576040517f08c379a00000000000000000000000000000000000000000000000000000000081526004016111cc90611f1e565b60405180910390fd5b6111e160008383611563565b80600360008282546111f39190611fb0565b9250508190555080600160008473ffffffffffffffffffffffffffffffffffffffff1673ffffffffffffffffffffffffffffffffffffffff16815260200190815260200160002060008282546112499190611fb0565b925050819055508173ffffffffffffffffffffffffffffffffffffffff16600073ffffffffffffffffffffffffffffffffffffffff167fddf252ad1be2c89b69c2b068fc378daa952ba7f163c4a11628f55a4df523b3ef836040516112ae9190611f5e565b60405180910390a36112c2600083836115bb565b5050565b600073ffffffffffffffffffffffffffffffffffffffff168273ffffffffffffffffffffffffffffffffffffffff161415611336576040517f08c379a000000000000000000000000000000000000000000000000000000000815260040161132d90611e9e565b60405180910390fd5b61134282600083611563565b6000600160008473ffffffffffffffffffffffffffffffffffffffff1673ffffffffffffffffffffffffffffffffffffffff168152602001908152602001600020549050818110156113c9576040517f08c379a00000000000000000000000000000000000000000000000000000000081526004016113c090611d9e565b60405180910390fd5b818103600160008573ffffffffffffffffffffffffffffffffffffffff1673ffffffffffffffffffffffffffffffffffffffff16815260200190815260200160002081905550816003600082825461142191906121d1565b92505081905550600073ffffffffffffffffffffffffffffffffffffffff168373ffffffffffffffffffffffffffffffffffffffff167fddf252ad1be2c89b69c2b068fc378daa952ba7f163c4a11628f55a4df523b3ef846040516114869190611f5e565b60405180910390a361149a836000846115bb565b505050565b60008060009054906101000a900473ffffffffffffffffffffffffffffffffffffffff169050816000806101000a81548173ffffffffffffffffffffffffffffffffffffffff021916908373ffffffffffffffffffffffffffffffffffffffff1602179055508173ffffffffffffffffffffffffffffffffffffffff168173ffffffffffffffffffffffffffffffffffffffff167f8be0079c531659141344cd1fd0a4f28419497f9722a3daafe3b4186f6b6457e060405160405180910390a35050565b61156e838383610cb1565b6115766107f5565b156115b6576040517f08c379a00000000000000000000000000000000000000000000000000000000081526004016115ad90611f3e565b60405180910390fd5b505050565b505050565b6000813590506115cf8161233b565b92915050565b6000813590506115e481612352565b92915050565b6000602082840312156115fc57600080fd5b600061160a848285016115c0565b91505092915050565b6000806040838503121561162657600080fd5b6000611634858286016115c0565b9250506020611645858286016115c0565b9150509250929050565b60008060006060848603121561166457600080fd5b6000611672868287016115c0565b9350506020611683868287016115c0565b9250506040611694868287016115d5565b9150509250925092565b600080604083850312156116b157600080fd5b60006116bf858286016115c0565b92505060206116d0858286016115d5565b9150509250929050565b6000602082840312156116ec57600080fd5b60006116fa848285016115d5565b91505092915050565b61170c81612205565b82525050565b61171b81612217565b82525050565b600061172c82611f94565b6117368185611f9f565b935061174681856020860161225a565b61174f8161231d565b840191505092915050565b6000611767602383611f9f565b91507f45524332303a207472616e7366657220746f20746865207a65726f206164647260008301527f65737300000000000000000000000000000000000000000000000000000000006020830152604082019050919050565b60006117cd602283611f9f565b91507f45524332303a206275726e20616d6f756e7420657863656564732062616c616e60008301527f63650000000000000000000000000000000000000000000000000000000000006020830152604082019050919050565b6000611833602683611f9f565b91507f4f776e61626c653a206e6577206f776e657220697320746865207a65726f206160008301527f64647265737300000000000000000000000000000000000000000000000000006020830152604082019050919050565b6000611899602283611f9f565b91507f45524332303a20617070726f766520746f20746865207a65726f20616464726560008301527f73730000000000000000000000000000000000000000000000000000000000006020830152604082019050919050565b60006118ff602183611f9f565b91507f43616e74206d696e74206d6f7265207468616e20737570706c79206c696d697460008301527f20000000000000000000000000000000000000000000000000000000000000006020830152604082019050919050565b6000611965602683611f9f565b91507f45524332303a207472616e7366657220616d6f756e742065786365656473206260008301527f616c616e636500000000000000000000000000000000000000000000000000006020830152604082019050919050565b60006119cb602883611f9f565b91507f45524332303a207472616e7366657220616d6f756e742065786365656473206160008301527f6c6c6f77616e63650000000000000000000000000000000000000000000000006020830152604082019050919050565b6000611a31602083611f9f565b91507f4f776e61626c653a2063616c6c6572206973206e6f7420746865206f776e65726000830152602082019050919050565b6000611a71602483611f9f565b91507f45524332303a206275726e20616d6f756e74206578636565647320616c6c6f7760008301527f616e6365000000000000000000000000000000000000000000000000000000006020830152604082019050919050565b6000611ad7602183611f9f565b91507f45524332303a206275726e2066726f6d20746865207a65726f2061646472657360008301527f73000000000000000000000000000000000000000000000000000000000000006020830152604082019050919050565b6000611b3d602583611f9f565b91507f45524332303a207472616e736665722066726f6d20746865207a65726f20616460008301527f64726573730000000000000000000000000000000000000000000000000000006020830152604082019050919050565b6000611ba3602483611f9f565b91507f45524332303a20617070726f76652066726f6d20746865207a65726f2061646460008301527f72657373000000000000000000000000000000000000000000000000000000006020830152604082019050919050565b6000611c09602583611f9f565b91507f45524332303a2064656372656173656420616c6c6f77616e63652062656c6f7760008301527f207a65726f0000000000000000000000000000000000000000000000000000006020830152604082019050919050565b6000611c6f601f83611f9f565b91507f45524332303a206d696e7420746f20746865207a65726f2061646472657373006000830152602082019050919050565b6000611caf602a83611f9f565b91507f45524332305061757361626c653a20746f6b656e207472616e7366657220776860008301527f696c6520706175736564000000000000000000000000000000000000000000006020830152604082019050919050565b611d1181612243565b82525050565b611d208161224d565b82525050565b6000602082019050611d3b6000830184611703565b92915050565b6000602082019050611d566000830184611712565b92915050565b60006020820190508181036000830152611d768184611721565b905092915050565b60006020820190508181036000830152611d978161175a565b9050919050565b60006020820190508181036000830152611db7816117c0565b9050919050565b60006020820190508181036000830152611dd781611826565b9050919050565b60006020820190508181036000830152611df78161188c565b9050919050565b60006020820190508181036000830152611e17816118f2565b9050919050565b60006020820190508181036000830152611e3781611958565b9050919050565b60006020820190508181036000830152611e57816119be565b9050919050565b60006020820190508181036000830152611e7781611a24565b9050919050565b60006020820190508181036000830152611e9781611a64565b9050919050565b60006020820190508181036000830152611eb781611aca565b9050919050565b60006020820190508181036000830152611ed781611b30565b9050919050565b60006020820190508181036000830152611ef781611b96565b9050919050565b60006020820190508181036000830152611f1781611bfc565b9050919050565b60006020820190508181036000830152611f3781611c62565b9050919050565b60006020820190508181036000830152611f5781611ca2565b9050919050565b6000602082019050611f736000830184611d08565b92915050565b6000602082019050611f8e6000830184611d17565b92915050565b600081519050919050565b600082825260208201905092915050565b6000611fbb82612243565b9150611fc683612243565b9250827fffffffffffffffffffffffffffffffffffffffffffffffffffffffffffffffff03821115611ffb57611ffa6122bf565b5b828201905092915050565b6000808291508390505b60018511156120505780860481111561202c5761202b6122bf565b5b600185161561203b5780820291505b80810290506120498561232e565b9450612010565b94509492505050565b600061206482612243565b915061206f83612243565b925061209c7fffffffffffffffffffffffffffffffffffffffffffffffffffffffffffffffff84846120a4565b905092915050565b6000826120b45760019050612170565b816120c25760009050612170565b81600181146120d857600281146120e257612111565b6001915050612170565b60ff8411156120f4576120f36122bf565b5b8360020a91508482111561210b5761210a6122bf565b5b50612170565b5060208310610133831016604e8410600b84101617156121465782820a905083811115612141576121406122bf565b5b612170565b6121538484846001612006565b9250905081840481111561216a576121696122bf565b5b81810290505b9392505050565b600061218282612243565b915061218d83612243565b9250817fffffffffffffffffffffffffffffffffffffffffffffffffffffffffffffffff04831182151516156121c6576121c56122bf565b5b828202905092915050565b60006121dc82612243565b91506121e783612243565b9250828210156121fa576121f96122bf565b5b828203905092915050565b600061221082612223565b9050919050565b60008115159050919050565b600073ffffffffffffffffffffffffffffffffffffffff82169050919050565b6000819050919050565b600060ff82169050919050565b60005b8381101561227857808201518184015260208101905061225d565b83811115612287576000848401525b50505050565b600060028204905060018216806122a557607f821691505b602082108114156122b9576122b86122ee565b5b50919050565b7f4e487b7100000000000000000000000000000000000000000000000000000000600052601160045260246000fd5b7f4e487b7100000000000000000000000000000000000000000000000000000000600052602260045260246000fd5b6000601f19601f8301169050919050565b60008160011c9050919050565b61234481612205565b811461234f57600080fd5b50565b61235b81612243565b811461236657600080fd5b5056fea26469706673582212200c8fb1801bcea1981893f7a75b2978b2c260281d3a2b47d00b956d3a5dedb82264736f6c63430008000033",
  "immutableReferences": {},
  "source": "//SPDX-License-Identifier: MIT\r\npragma solidity ^0.8.0;\r\n\r\nimport \"@openzeppelin/contracts/token/ERC20/ERC20.sol\";\r\nimport \"@openzeppelin/contracts/access/Ownable.sol\";\r\nimport \"@openzeppelin/contracts/token/ERC20/extensions/ERC20Burnable.sol\";\r\nimport \"@openzeppelin/contracts/token/ERC20/extensions/ERC20Pausable.sol\";\r\nimport \"@openzeppelin/contracts/utils/math/SafeMath.sol\";\r\n\r\ncontract SportZchainToken is Ownable, ERC20Pausable, ERC20Burnable {\r\n    using SafeMath for uint256;\r\n    uint256 supplyUpperLimit;\r\n    uint8 decimalValue;\r\n\r\n    constructor (\r\n        string memory _name,\r\n        string memory _symbol,\r\n        uint8 _decimals,\r\n        uint256 _supplyUpperLimit,\r\n        uint256 _initialSupply\r\n    ) ERC20(_name, _symbol)  {\r\n        // This is the only place where we ever mint tokens for initial supply\r\n        uint256 _initSupply = _initialSupply.mul(10 ** uint256(_decimals));\r\n        supplyUpperLimit = _supplyUpperLimit.mul(10 ** uint256(_decimals));\r\n        decimalValue = _decimals;\r\n        _mint(msg.sender, _initSupply);\r\n    }\r\n\r\n    // allow owner to mint more to increase the supply\r\n    function mint(\r\n        address to,\r\n        uint256 amount\r\n    )\r\n    external\r\n    onlyOwner {\r\n        uint256 _amount = amount.mul(10 ** uint256(decimalValue));\r\n        uint256 _finalSupply = totalSupply() + _amount;\r\n        require(_finalSupply <= supplyUpperLimit, \"Cant mint more than supply limit \");\r\n        _mint(to, _amount);\r\n    }\r\n\r\n    // allow the token to be burnt by the owner\r\n    function burn(\r\n        uint256 amount\r\n    )\r\n    public\r\n    override (ERC20Burnable)\r\n    onlyOwner {\r\n        uint256 _amount = amount.mul(10 ** uint256(decimalValue));\r\n        _burn(msg.sender, _amount);\r\n        supplyUpperLimit -= _amount;\r\n    }\r\n\r\n    function _beforeTokenTransfer(\r\n        address from,\r\n        address to,\r\n        uint256 amount\r\n    ) internal virtual override (ERC20,ERC20Pausable){\r\n        super._beforeTokenTransfer(from, to, amount);\r\n        require(!paused(), \"ERC20Pausable: token transfer while paused\");\r\n    }\r\n}",
  "sourcePath": "C:\\Users\\jaira\\Desktop\\SportZChainContracts\\Truffle\\contracts\\SportZchainToken.sol",
  "compiler": {
    "name": "solc",
    "version": "0.8.0+commit.c7dfd78e.Emscripten.clang"
  },
  "schemaVersion": "3.4.4",
  "updatedAt": "2022-01-30T04:14:34.515Z",
  "devdoc": {
    "kind": "dev",
    "methods": {
      "allowance(address,address)": {
        "details": "See {IERC20-allowance}."
      },
      "approve(address,uint256)": {
        "details": "See {IERC20-approve}. Requirements: - `spender` cannot be the zero address."
      },
      "balanceOf(address)": {
        "details": "See {IERC20-balanceOf}."
      },
      "burn(uint256)": {
        "details": "Destroys `amount` tokens from the caller. See {ERC20-_burn}."
      },
      "burnFrom(address,uint256)": {
        "details": "Destroys `amount` tokens from `account`, deducting from the caller's allowance. See {ERC20-_burn} and {ERC20-allowance}. Requirements: - the caller must have allowance for ``accounts``'s tokens of at least `amount`."
      },
      "decimals()": {
        "details": "Returns the number of decimals used to get its user representation. For example, if `decimals` equals `2`, a balance of `505` tokens should be displayed to a user as `5.05` (`505 / 10 ** 2`). Tokens usually opt for a value of 18, imitating the relationship between Ether and Wei. This is the value {ERC20} uses, unless this function is overridden; NOTE: This information is only used for _display_ purposes: it in no way affects any of the arithmetic of the contract, including {IERC20-balanceOf} and {IERC20-transfer}."
      },
      "decreaseAllowance(address,uint256)": {
        "details": "Atomically decreases the allowance granted to `spender` by the caller. This is an alternative to {approve} that can be used as a mitigation for problems described in {IERC20-approve}. Emits an {Approval} event indicating the updated allowance. Requirements: - `spender` cannot be the zero address. - `spender` must have allowance for the caller of at least `subtractedValue`."
      },
      "increaseAllowance(address,uint256)": {
        "details": "Atomically increases the allowance granted to `spender` by the caller. This is an alternative to {approve} that can be used as a mitigation for problems described in {IERC20-approve}. Emits an {Approval} event indicating the updated allowance. Requirements: - `spender` cannot be the zero address."
      },
      "name()": {
        "details": "Returns the name of the token."
      },
      "owner()": {
        "details": "Returns the address of the current owner."
      },
      "paused()": {
        "details": "Returns true if the contract is paused, and false otherwise."
      },
      "renounceOwnership()": {
        "details": "Leaves the contract without owner. It will not be possible to call `onlyOwner` functions anymore. Can only be called by the current owner. NOTE: Renouncing ownership will leave the contract without an owner, thereby removing any functionality that is only available to the owner."
      },
      "symbol()": {
        "details": "Returns the symbol of the token, usually a shorter version of the name."
      },
      "totalSupply()": {
        "details": "See {IERC20-totalSupply}."
      },
      "transfer(address,uint256)": {
        "details": "See {IERC20-transfer}. Requirements: - `recipient` cannot be the zero address. - the caller must have a balance of at least `amount`."
      },
      "transferFrom(address,address,uint256)": {
        "details": "See {IERC20-transferFrom}. Emits an {Approval} event indicating the updated allowance. This is not required by the EIP. See the note at the beginning of {ERC20}. Requirements: - `sender` and `recipient` cannot be the zero address. - `sender` must have a balance of at least `amount`. - the caller must have allowance for ``sender``'s tokens of at least `amount`."
      },
      "transferOwnership(address)": {
        "details": "Transfers ownership of the contract to a new account (`newOwner`). Can only be called by the current owner."
      }
    },
    "version": 1
  },
  "userdoc": {
    "kind": "user",
    "methods": {},
    "version": 1
  }
}